{
  "abi": [
    {
      "anonymous": false,
      "inputs": [],
      "name": "CrowdsaleFinalized",
      "type": "event"
    },
    {
      "anonymous": false,
      "inputs": [
        {
          "indexed": true,
          "internalType": "address",
          "name": "purchaser",
          "type": "address"
        },
        {
          "indexed": true,
          "internalType": "address",
          "name": "beneficiary",
          "type": "address"
        },
        {
          "indexed": false,
          "internalType": "uint256",
          "name": "value",
          "type": "uint256"
        },
        {
          "indexed": false,
          "internalType": "uint256",
          "name": "amount",
          "type": "uint256"
        }
      ],
      "name": "TokensPurchased",
      "type": "event"
    },
    {
      "inputs": [],
      "name": "amountRaised",
      "outputs": [
        {
          "internalType": "uint256",
          "name": "",
          "type": "uint256"
        }
      ],
      "stateMutability": "view",
      "type": "function"
    },
    {
      "inputs": [
        {
          "internalType": "address",
          "name": "account",
          "type": "address"
        }
      ],
      "name": "balanceOf",
      "outputs": [
        {
          "internalType": "uint256",
          "name": "",
          "type": "uint256"
        }
      ],
      "stateMutability": "view",
      "type": "function"
    },
    {
      "inputs": [
        {
          "internalType": "address",
          "name": "_beneficiary",
          "type": "address"
        },
        {
          "internalType": "uint256",
          "name": "_tokenAmount",
          "type": "uint256"
        }
      ],
      "name": "buyTokens",
      "outputs": [],
      "stateMutability": "nonpayable",
      "type": "function"
    },
    {
      "inputs": [
        {
          "internalType": "address",
          "name": "_beneficiary",
          "type": "address"
        }
      ],
      "name": "buyTokensEth",
      "outputs": [],
      "stateMutability": "payable",
      "type": "function"
    },
    {
      "inputs": [],
      "name": "endTime",
      "outputs": [
        {
          "internalType": "uint256",
          "name": "",
          "type": "uint256"
        }
      ],
      "stateMutability": "view",
      "type": "function"
    },
    {
      "inputs": [],
      "name": "finalize",
      "outputs": [],
      "stateMutability": "nonpayable",
      "type": "function"
    },
    {
      "inputs": [],
      "name": "goal",
      "outputs": [
        {
          "internalType": "uint256",
          "name": "",
          "type": "uint256"
        }
      ],
      "stateMutability": "view",
      "type": "function"
    },
    {
      "inputs": [],
      "name": "goalReached",
      "outputs": [
        {
          "internalType": "bool",
          "name": "",
          "type": "bool"
        }
      ],
      "stateMutability": "view",
      "type": "function"
    },
    {
      "inputs": [],
      "name": "hasClosed",
      "outputs": [
        {
          "internalType": "bool",
          "name": "",
          "type": "bool"
        }
      ],
      "stateMutability": "view",
      "type": "function"
    },
    {
      "inputs": [
        {
          "internalType": "address",
          "name": "_funder",
          "type": "address"
        },
        {
          "internalType": "address",
          "name": "_token",
          "type": "address"
        },
        {
          "internalType": "address",
          "name": "_paymentCurrency",
          "type": "address"
        },
        {
          "internalType": "uint256",
          "name": "_totalTokens",
          "type": "uint256"
        },
        {
          "internalType": "uint256",
          "name": "_startTime",
          "type": "uint256"
        },
        {
          "internalType": "uint256",
          "name": "_endTime",
          "type": "uint256"
        },
        {
          "internalType": "uint256",
          "name": "_rate",
          "type": "uint256"
        },
        {
          "internalType": "uint256",
          "name": "_goal",
          "type": "uint256"
        },
        {
          "internalType": "address payable",
          "name": "_wallet",
          "type": "address"
        }
      ],
      "name": "initCrowdsale",
      "outputs": [],
      "stateMutability": "nonpayable",
      "type": "function"
    },
    {
      "inputs": [],
      "name": "isOpen",
      "outputs": [
        {
          "internalType": "bool",
          "name": "",
          "type": "bool"
        }
      ],
      "stateMutability": "view",
      "type": "function"
    },
    {
      "inputs": [],
      "name": "marketTemplate",
      "outputs": [
        {
          "internalType": "uint256",
          "name": "",
          "type": "uint256"
        }
      ],
      "stateMutability": "view",
      "type": "function"
    },
    {
      "inputs": [],
      "name": "paymentCurrency",
      "outputs": [
        {
          "internalType": "address",
          "name": "",
          "type": "address"
        }
      ],
      "stateMutability": "view",
      "type": "function"
    },
    {
      "inputs": [],
      "name": "rate",
      "outputs": [
        {
          "internalType": "uint256",
          "name": "",
          "type": "uint256"
        }
      ],
      "stateMutability": "view",
      "type": "function"
    },
    {
      "inputs": [],
      "name": "startTime",
      "outputs": [
        {
          "internalType": "uint256",
          "name": "",
          "type": "uint256"
        }
      ],
      "stateMutability": "view",
      "type": "function"
    },
    {
      "inputs": [],
      "name": "token",
      "outputs": [
        {
          "internalType": "address",
          "name": "",
          "type": "address"
        }
      ],
      "stateMutability": "view",
      "type": "function"
    },
    {
      "inputs": [
        {
          "internalType": "address payable",
          "name": "beneficiary",
          "type": "address"
        }
      ],
      "name": "withdrawTokens",
      "outputs": [],
      "stateMutability": "nonpayable",
      "type": "function"
    },
    {
      "stateMutability": "payable",
      "type": "receive"
    }
  ],
  "bytecode": "608060405234801561001057600080fd5b506113bb806100206000396000f3fe6080604052600436106101025760003560e01c806349df728c116100955780637b3e5e7b116100645780637b3e5e7b146102bc5780637d3d6522146102d15780638289ef14146102e6578063c439848f1461030c578063fc0c546a1461037957610119565b806349df728c1461022c5780634bb278f31461025f57806370a082311461027457806378e97925146102a757610119565b80633197cbb6116100d15780633197cbb6146101bc5780633d15cc6d146101d1578063401938831461020257806347535d7b1461021757610119565b80630752881a1461011e5780631515bc2b146101575780631b3e460e146101805780632c4e722e146101a757610119565b366101195761011761011261038e565b610392565b005b600080fd5b34801561012a57600080fd5b506101176004803603604081101561014157600080fd5b506001600160a01b038135169060200135610406565b34801561016357600080fd5b5061016c610493565b604080519115158252519081900360200190f35b34801561018c57600080fd5b5061019561049b565b60408051918252519081900360200190f35b3480156101b357600080fd5b506101956104a0565b3480156101c857600080fd5b506101956104a6565b3480156101dd57600080fd5b506101e66104ac565b604080516001600160a01b039092168252519081900360200190f35b34801561020e57600080fd5b506101956104bb565b34801561022357600080fd5b5061016c6104c1565b34801561023857600080fd5b506101176004803603602081101561024f57600080fd5b50356001600160a01b03166104dc565b34801561026b57600080fd5b50610117610624565b34801561028057600080fd5b506101956004803603602081101561029757600080fd5b50356001600160a01b03166107d5565b3480156102b357600080fd5b506101956107f0565b3480156102c857600080fd5b506101956107f6565b3480156102dd57600080fd5b5061016c6107fc565b610117600480360360208110156102fc57600080fd5b50356001600160a01b0316610392565b34801561031857600080fd5b50610117600480360361012081101561033057600080fd5b506001600160a01b0381358116916020810135821691604082013581169160608101359160808201359160a08101359160c08201359160e0810135916101009091013516610807565b34801561038557600080fd5b506101e6610b14565b3390565b6002546001600160a01b031673eeeeeeeeeeeeeeeeeeeeeeeeeeeeeeeeeeeeeeee146103ef5760405162461bcd60e51b81526004018080602001828103825260268152602001806113116026913960400191505060405180910390fd5b6103f98134610b23565b6104038134610ce1565b50565b6002546001600160a01b031673eeeeeeeeeeeeeeeeeeeeeeeeeeeeeeeeeeeeeeee14156104645760405162461bcd60e51b81526004018080602001828103825260288152602001806112546028913960400191505060405180910390fd5b61046e8282610b23565b600254610485906001600160a01b03163383610d9a565b61048f8282610ce1565b5050565b600754421190565b600181565b60035481565b60075481565b6002546001600160a01b031681565b60055481565b600060065442101580156104d757506007544211155b905090565b6104e4610493565b61052d576040805162461bcd60e51b815260206004820152601560248201527410dc9bddd91cd85b194e881b9bdd0818db1bdcd959605a1b604482015290519081900360640190fd5b6001600160a01b03811660009081526009602052604090205480610598576040805162461bcd60e51b815260206004820152601f60248201527f43726f776473616c653a20636c61696d65722062616c616e6365206973203000604482015290519081900360640190fd5b6105a06107fc565b156105b657806105b08382610ec2565b50610609565b60006105cd60035483610ed990919063ffffffff16565b6040519091506001600160a01b0384169082156108fc029083906000818181858888f19350505050158015610606573d6000803e3d6000fd5b50505b506001600160a01b0316600090815260096020526040812055565b600854610100900460ff1615610681576040805162461bcd60e51b815260206004820152601c60248201527f43726f776473616c653a20616c72656164792066696e616c697a656400000000604482015290519081900360640190fd5b610689610493565b6106d2576040805162461bcd60e51b815260206004820152601560248201527410dc9bddd91cd85b194e881b9bdd0818db1bdcd959605a1b604482015290519081900360640190fd5b60008054604080516370a0823160e01b815230600482015290516001600160a01b03909216916370a0823191602480820192602092909190829003018186803b15801561071e57600080fd5b505afa158015610732573d6000803e3d6000fd5b505050506040513d602081101561074857600080fd5b505190506107546107fc565b1561077e57610761610f24565b600061076e600454610f5d565b905061077a8282610f74565b9150505b801561079a5760015461079a906001600160a01b031682610ec2565b6008805461ff0019166101001790556040517f9270cc390c096600a1c17c44345a1ba689fafd99d97487b10cfccf86cf73183690600090a150565b6001600160a01b031660009081526009602052604090205490565b60065481565b60045481565b600554600454101590565b60085460ff161561085f576040805162461bcd60e51b815260206004820152601e60248201527f43726f776473616c653a20616c726561647920696e697469616c697a65640000604482015290519081900360640190fd5b4285101561089e5760405162461bcd60e51b815260040180806020018281038252602c815260200180611228602c913960400191505060405180910390fd5b8484116108dc5760405162461bcd60e51b815260040180806020018281038252602c81526020018061127c602c913960400191505060405180910390fd5b60008311610928576040805162461bcd60e51b8152602060048201526014602482015273043726f776473616c653a207261746520697320360641b604482015290519081900360640190fd5b6001600160a01b03811661096d5760405162461bcd60e51b81526004018080602001828103825260258152602001806113616025913960400191505060405180910390fd5b6001600160a01b0388166109b25760405162461bcd60e51b81526004018080602001828103825260248152602001806112a86024913960400191505060405180910390fd5b60008611610a07576040805162461bcd60e51b815260206004820152601c60248201527f43726f776473616c653a20746f74616c20746f6b656e73206973203000000000604482015290519081900360640190fd5b60008211610a53576040805162461bcd60e51b8152602060048201526014602482015273043726f776473616c653a20676f616c20697320360641b604482015290519081900360640190fd5b60008054600687905560078690556003859055600180546001600160a01b038581166001600160a01b031992831617909255600280548c8416908316179055908b16918116821716179055600582905585610aad83610f5d565b1115610aea5760405162461bcd60e51b81526004018080602001828103825260468152602001806111e26046913960600191505060405180910390fd5b610af5888a88610d9a565b50506008805461ff001960ff1990911660011716905550505050505050565b6000546001600160a01b031681565b610b2b6104c1565b610b7c576040805162461bcd60e51b815260206004820152601860248201527f54696d656443726f776473616c653a206e6f74206f70656e0000000000000000604482015290519081900360640190fd5b6001600160a01b038216610bc15760405162461bcd60e51b815260040180806020018281038252602a815260200180611337602a913960400191505060405180910390fd5b80610c0c576040805162461bcd60e51b8152602060048201526016602482015275043726f776473616c653a20616d6f756e7420697320360541b604482015290519081900360640190fd5b60008054604080516370a0823160e01b815230600482015290516001600160a01b03909216916370a0823191602480820192602092909190829003018186803b158015610c5857600080fd5b505afa158015610c6c573d6000803e3d6000fd5b505050506040513d6020811015610c8257600080fd5b50516004549091508190610c9f90610c9a9085610fb6565b610f5d565b1115610cdc5760405162461bcd60e51b81526004018080602001828103825260248152602001806112cc6024913960400191505060405180910390fd5b505050565b6000610cec82610f5d565b6001600160a01b038416600090815260096020526040902054909150610d129082610fb6565b6001600160a01b038416600090815260096020526040902055600454610d389083610fb6565b6004556001600160a01b038316610d4d61038e565b6001600160a01b03167f6faf93231a456e552dbc9961f58d9713ee4f2e69d15f1975b050ef0911053a7b8484604051808381526020018281526020019250505060405180910390a3505050565b604080516001600160a01b038481166024830152306044830152606480830185905283518084039091018152608490920183526020820180516001600160e01b03166323b872dd60e01b178152925182516000946060949389169392918291908083835b60208310610e1d5780518252601f199092019160209182019101610dfe565b6001836020036101000a0380198251168184511680821785525050505050509050019150506000604051808303816000865af19150503d8060008114610e7f576040519150601f19603f3d011682016040523d82523d6000602084013e610e84565b606091505b5091509150818015610eb2575080511580610eb25750808060200190516020811015610eaf57600080fd5b50515b610ebb57600080fd5b5050505050565b60005461048f906001600160a01b03168383611010565b6000610f1b83836040518060400160405280601a81526020017f536166654d6174683a206469766973696f6e206279207a65726f00000000000081525061108c565b90505b92915050565b6001546040516001600160a01b03909116904780156108fc02916000818181858888f19350505050158015610403573d6000803e3d6000fd5b6000610f1e6003548361112e90919063ffffffff16565b6000610f1b83836040518060400160405280601e81526020017f536166654d6174683a207375627472616374696f6e206f766572666c6f770000815250611187565b600082820183811015610f1b576040805162461bcd60e51b815260206004820152601b60248201527f536166654d6174683a206164646974696f6e206f766572666c6f770000000000604482015290519081900360640190fd5b604080516001600160a01b038481166024830152604480830185905283518084039091018152606490920183526020820180516001600160e01b031663a9059cbb60e01b1781529251825160009460609493891693929182919080838360208310610e1d5780518252601f199092019160209182019101610dfe565b600081836111185760405162461bcd60e51b81526004018080602001828103825283818151815260200191508051906020019080838360005b838110156110dd5781810151838201526020016110c5565b50505050905090810190601f16801561110a5780820380516001836020036101000a031916815260200191505b509250505060405180910390fd5b50600083858161112457fe5b0495945050505050565b60008261113d57506000610f1e565b8282028284828161114a57fe5b0414610f1b5760405162461bcd60e51b81526004018080602001828103825260218152602001806112f06021913960400191505060405180910390fd5b600081848411156111d95760405162461bcd60e51b81526020600482018181528351602484015283519092839260449091019190850190808383600083156110dd5781810151838201526020016110c5565b50505090039056fe43726f776473616c653a20676f616c2073686f756c6420626520657175616c20746f206f72206c6f776572207468616e20746f74616c20746f6b656e73206f7220657175616c43726f776473616c653a2073746172742074696d65206973206265666f72652063757272656e742074696d6543726f776473616c653a207061796d656e742063757272656e6379206973206e6f7420746f6b656e43726f776473616c653a2073746172742074696d65206973206e6f74206265666f726520656e642074696d6543726f776473616c653a20746f6b656e20697320746865207a65726f206164647265737343726f776473616c653a20616d6f756e74206f6620746f6b656e73206578636565646564536166654d6174683a206d756c7469706c69636174696f6e206f766572666c6f7743726f776473616c653a207061796d656e742063757272656e6379206973206e6f742045544843726f776473616c653a2062656e656669636961727920697320746865207a65726f206164647265737343726f776473616c653a2077616c6c657420697320746865207a65726f2061646472657373a2646970667358221220d296f380e4328a5317f270d15a3d2472c0d51d27279fa2c2631df9d2d3c90f8664736f6c634300060c0033",
  "bytecodeSha1": "3d269e1bb52b8605a865ec1225db87760bbedf42",
  "compiler": {
    "evm_version": "istanbul",
    "optimizer": {
      "enabled": true,
      "runs": 200
    },
    "version": "0.6.12+commit.27d51765"
  },
  "contractName": "Crowdsale",
  "language": "Solidity",
  "natspec": {
    "kind": "dev",
    "methods": {
      "amountRaised()": {
        "notice": "Amount of wei raised"
      },
      "balanceOf(address)": {
        "returns": {
          "_0": "the balance of an account."
        }
      },
      "buyTokens(address,uint256)": {
        "details": "low level token purchase with a token ***DO NOT OVERRIDE*** This function has a non-reentrancy guard, so it shouldn't be called by another `nonReentrant` function.",
        "params": {
          "_beneficiary": "Recipient of the token purchase",
          "_tokenAmount": "Value in wei or token involved in the purchase"
        }
      },
      "buyTokensEth(address)": {
        "details": "low level token purchase with ETH ***DO NOT OVERRIDE*** This function has a non-reentrancy guard, so it shouldn't be called by another `nonReentrant` function.",
        "params": {
          "_beneficiary": "Recipient of the token purchase"
        }
      },
      "endTime()": {
        "notice": "ending time of crowdsale"
      },
      "finalize()": {
        "details": "Must be called after crowdsale ends, to do some extra finalization work. Calls the contracts finalization function."
      },
      "goal()": {
        "notice": "minimum amount of funds to be raised in weis or tokens"
      },
      "goalReached()": {
        "details": "Checks whether funding goal was reached.",
        "returns": {
          "_0": "Whether funding goal was reached"
        }
      },
      "hasClosed()": {
        "details": "Checks whether the period in which the crowdsale is open has already elapsed.",
        "returns": {
          "_0": "Whether crowdsale period has elapsed"
        }
      },
      "initCrowdsale(address,address,address,uint256,uint256,uint256,uint256,uint256,address)": {
        "details": "Init function",
        "params": {
          "_endTime": "Crowdsale end time",
          "_funder": "The address that funds the token for crowdsale",
          "_goal": "Minimum amount of funds to be raised in weis or tokens",
          "_paymentCurrency": "The currency the crowdsale accepts for payment. Can be ETH or token address",
          "_rate": "Number of token units a buyer gets per wei or token",
          "_startTime": "Crowdsale start time  ",
          "_token": "Address of the token being sold",
          "_totalTokens": "The total number of tokens to sell in crowdsale ",
          "_wallet": "Address where collected funds will be forwarded to"
        }
      },
      "isOpen()": {
        "returns": {
          "_0": "true if the crowdsale is open, false otherwise."
        }
      },
      "marketTemplate()": {
        "notice": "MISOMarket template id for the factory contract"
      },
      "paymentCurrency()": {
        "notice": "The currency the crowdsale accepts for payment. Can be ETH or token address"
      },
      "rate()": {
        "notice": "How many token units a buyer gets per token or wei. The rate is the conversion between wei and the smallest and indivisible token unit. So, if you are using a rate of 1 with a ERC20Detailed token with 3 decimals called TOK 1 wei will give you 1 unit, or 0.001 TOK. "
      },
      "startTime()": {
        "notice": "starting time of crowdsale"
      },
      "token()": {
        "notice": "The token being sold"
      },
      "withdrawTokens(address)": {
        "details": "Withdraw tokens only after crowdsale ends.",
        "params": {
          "beneficiary": "Whose tokens will be withdrawn."
        }
      }
    },
    "version": 1
  },
  "opcodes": "PUSH1 0x80 PUSH1 0x40 MSTORE PUSH1 0x4 CALLDATASIZE LT PUSH2 0x102 JUMPI PUSH1 0x0 CALLDATALOAD PUSH1 0xE0 SHR DUP1 PUSH4 0x49DF728C GT PUSH2 0x95 JUMPI DUP1 PUSH4 0x7B3E5E7B GT PUSH2 0x64 JUMPI DUP1 PUSH4 0x7B3E5E7B EQ PUSH2 0x2BC JUMPI DUP1 PUSH4 0x7D3D6522 EQ PUSH2 0x2D1 JUMPI DUP1 PUSH4 0x8289EF14 EQ PUSH2 0x2E6 JUMPI DUP1 PUSH4 0xC439848F EQ PUSH2 0x30C JUMPI DUP1 PUSH4 0xFC0C546A EQ PUSH2 0x379 JUMPI PUSH2 0x119 JUMP JUMPDEST DUP1 PUSH4 0x49DF728C EQ PUSH2 0x22C JUMPI DUP1 PUSH4 0x4BB278F3 EQ PUSH2 0x25F JUMPI DUP1 PUSH4 0x70A08231 EQ PUSH2 0x274 JUMPI DUP1 PUSH4 0x78E97925 EQ PUSH2 0x2A7 JUMPI PUSH2 0x119 JUMP JUMPDEST DUP1 PUSH4 0x3197CBB6 GT PUSH2 0xD1 JUMPI DUP1 PUSH4 0x3197CBB6 EQ PUSH2 0x1BC JUMPI DUP1 PUSH4 0x3D15CC6D EQ PUSH2 0x1D1 JUMPI DUP1 PUSH4 0x40193883 EQ PUSH2 0x202 JUMPI DUP1 PUSH4 0x47535D7B EQ PUSH2 0x217 JUMPI PUSH2 0x119 JUMP JUMPDEST DUP1 PUSH4 0x752881A EQ PUSH2 0x11E JUMPI DUP1 PUSH4 0x1515BC2B EQ PUSH2 0x157 JUMPI DUP1 PUSH4 0x1B3E460E EQ PUSH2 0x180 JUMPI DUP1 PUSH4 0x2C4E722E EQ PUSH2 0x1A7 JUMPI PUSH2 0x119 JUMP JUMPDEST CALLDATASIZE PUSH2 0x119 JUMPI PUSH2 0x117 PUSH2 0x112 PUSH2 0x38E JUMP JUMPDEST PUSH2 0x392 JUMP JUMPDEST STOP JUMPDEST PUSH1 0x0 DUP1 REVERT JUMPDEST CALLVALUE DUP1 ISZERO PUSH2 0x12A JUMPI PUSH1 0x0 DUP1 REVERT JUMPDEST POP PUSH2 0x117 PUSH1 0x4 DUP1 CALLDATASIZE SUB PUSH1 0x40 DUP2 LT ISZERO PUSH2 0x141 JUMPI PUSH1 0x0 DUP1 REVERT JUMPDEST POP PUSH1 0x1 PUSH1 0x1 PUSH1 0xA0 SHL SUB DUP2 CALLDATALOAD AND SWAP1 PUSH1 0x20 ADD CALLDATALOAD PUSH2 0x406 JUMP JUMPDEST CALLVALUE DUP1 ISZERO PUSH2 0x163 JUMPI PUSH1 0x0 DUP1 REVERT JUMPDEST POP PUSH2 0x16C PUSH2 0x493 JUMP JUMPDEST PUSH1 0x40 DUP1 MLOAD SWAP2 ISZERO ISZERO DUP3 MSTORE MLOAD SWAP1 DUP2 SWAP1 SUB PUSH1 0x20 ADD SWAP1 RETURN JUMPDEST CALLVALUE DUP1 ISZERO PUSH2 0x18C JUMPI PUSH1 0x0 DUP1 REVERT JUMPDEST POP PUSH2 0x195 PUSH2 0x49B JUMP JUMPDEST PUSH1 0x40 DUP1 MLOAD SWAP2 DUP3 MSTORE MLOAD SWAP1 DUP2 SWAP1 SUB PUSH1 0x20 ADD SWAP1 RETURN JUMPDEST CALLVALUE DUP1 ISZERO PUSH2 0x1B3 JUMPI PUSH1 0x0 DUP1 REVERT JUMPDEST POP PUSH2 0x195 PUSH2 0x4A0 JUMP JUMPDEST CALLVALUE DUP1 ISZERO PUSH2 0x1C8 JUMPI PUSH1 0x0 DUP1 REVERT JUMPDEST POP PUSH2 0x195 PUSH2 0x4A6 JUMP JUMPDEST CALLVALUE DUP1 ISZERO PUSH2 0x1DD JUMPI PUSH1 0x0 DUP1 REVERT JUMPDEST POP PUSH2 0x1E6 PUSH2 0x4AC JUMP JUMPDEST PUSH1 0x40 DUP1 MLOAD PUSH1 0x1 PUSH1 0x1 PUSH1 0xA0 SHL SUB SWAP1 SWAP3 AND DUP3 MSTORE MLOAD SWAP1 DUP2 SWAP1 SUB PUSH1 0x20 ADD SWAP1 RETURN JUMPDEST CALLVALUE DUP1 ISZERO PUSH2 0x20E JUMPI PUSH1 0x0 DUP1 REVERT JUMPDEST POP PUSH2 0x195 PUSH2 0x4BB JUMP JUMPDEST CALLVALUE DUP1 ISZERO PUSH2 0x223 JUMPI PUSH1 0x0 DUP1 REVERT JUMPDEST POP PUSH2 0x16C PUSH2 0x4C1 JUMP JUMPDEST CALLVALUE DUP1 ISZERO PUSH2 0x238 JUMPI PUSH1 0x0 DUP1 REVERT JUMPDEST POP PUSH2 0x117 PUSH1 0x4 DUP1 CALLDATASIZE SUB PUSH1 0x20 DUP2 LT ISZERO PUSH2 0x24F JUMPI PUSH1 0x0 DUP1 REVERT JUMPDEST POP CALLDATALOAD PUSH1 0x1 PUSH1 0x1 PUSH1 0xA0 SHL SUB AND PUSH2 0x4DC JUMP JUMPDEST CALLVALUE DUP1 ISZERO PUSH2 0x26B JUMPI PUSH1 0x0 DUP1 REVERT JUMPDEST POP PUSH2 0x117 PUSH2 0x624 JUMP JUMPDEST CALLVALUE DUP1 ISZERO PUSH2 0x280 JUMPI PUSH1 0x0 DUP1 REVERT JUMPDEST POP PUSH2 0x195 PUSH1 0x4 DUP1 CALLDATASIZE SUB PUSH1 0x20 DUP2 LT ISZERO PUSH2 0x297 JUMPI PUSH1 0x0 DUP1 REVERT JUMPDEST POP CALLDATALOAD PUSH1 0x1 PUSH1 0x1 PUSH1 0xA0 SHL SUB AND PUSH2 0x7D5 JUMP JUMPDEST CALLVALUE DUP1 ISZERO PUSH2 0x2B3 JUMPI PUSH1 0x0 DUP1 REVERT JUMPDEST POP PUSH2 0x195 PUSH2 0x7F0 JUMP JUMPDEST CALLVALUE DUP1 ISZERO PUSH2 0x2C8 JUMPI PUSH1 0x0 DUP1 REVERT JUMPDEST POP PUSH2 0x195 PUSH2 0x7F6 JUMP JUMPDEST CALLVALUE DUP1 ISZERO PUSH2 0x2DD JUMPI PUSH1 0x0 DUP1 REVERT JUMPDEST POP PUSH2 0x16C PUSH2 0x7FC JUMP JUMPDEST PUSH2 0x117 PUSH1 0x4 DUP1 CALLDATASIZE SUB PUSH1 0x20 DUP2 LT ISZERO PUSH2 0x2FC JUMPI PUSH1 0x0 DUP1 REVERT JUMPDEST POP CALLDATALOAD PUSH1 0x1 PUSH1 0x1 PUSH1 0xA0 SHL SUB AND PUSH2 0x392 JUMP JUMPDEST CALLVALUE DUP1 ISZERO PUSH2 0x318 JUMPI PUSH1 0x0 DUP1 REVERT JUMPDEST POP PUSH2 0x117 PUSH1 0x4 DUP1 CALLDATASIZE SUB PUSH2 0x120 DUP2 LT ISZERO PUSH2 0x330 JUMPI PUSH1 0x0 DUP1 REVERT JUMPDEST POP PUSH1 0x1 PUSH1 0x1 PUSH1 0xA0 SHL SUB DUP2 CALLDATALOAD DUP2 AND SWAP2 PUSH1 0x20 DUP2 ADD CALLDATALOAD DUP3 AND SWAP2 PUSH1 0x40 DUP3 ADD CALLDATALOAD DUP2 AND SWAP2 PUSH1 0x60 DUP2 ADD CALLDATALOAD SWAP2 PUSH1 0x80 DUP3 ADD CALLDATALOAD SWAP2 PUSH1 0xA0 DUP2 ADD CALLDATALOAD SWAP2 PUSH1 0xC0 DUP3 ADD CALLDATALOAD SWAP2 PUSH1 0xE0 DUP2 ADD CALLDATALOAD SWAP2 PUSH2 0x100 SWAP1 SWAP2 ADD CALLDATALOAD AND PUSH2 0x807 JUMP JUMPDEST CALLVALUE DUP1 ISZERO PUSH2 0x385 JUMPI PUSH1 0x0 DUP1 REVERT JUMPDEST POP PUSH2 0x1E6 PUSH2 0xB14 JUMP JUMPDEST CALLER SWAP1 JUMP JUMPDEST PUSH1 0x2 SLOAD PUSH1 0x1 PUSH1 0x1 PUSH1 0xA0 SHL SUB AND PUSH20 0xEEEEEEEEEEEEEEEEEEEEEEEEEEEEEEEEEEEEEEEE EQ PUSH2 0x3EF JUMPI PUSH1 0x40 MLOAD PUSH3 0x461BCD PUSH1 0xE5 SHL DUP2 MSTORE PUSH1 0x4 ADD DUP1 DUP1 PUSH1 0x20 ADD DUP3 DUP2 SUB DUP3 MSTORE PUSH1 0x26 DUP2 MSTORE PUSH1 0x20 ADD DUP1 PUSH2 0x1311 PUSH1 0x26 SWAP2 CODECOPY PUSH1 0x40 ADD SWAP2 POP POP PUSH1 0x40 MLOAD DUP1 SWAP2 SUB SWAP1 REVERT JUMPDEST PUSH2 0x3F9 DUP2 CALLVALUE PUSH2 0xB23 JUMP JUMPDEST PUSH2 0x403 DUP2 CALLVALUE PUSH2 0xCE1 JUMP JUMPDEST POP JUMP JUMPDEST PUSH1 0x2 SLOAD PUSH1 0x1 PUSH1 0x1 PUSH1 0xA0 SHL SUB AND PUSH20 0xEEEEEEEEEEEEEEEEEEEEEEEEEEEEEEEEEEEEEEEE EQ ISZERO PUSH2 0x464 JUMPI PUSH1 0x40 MLOAD PUSH3 0x461BCD PUSH1 0xE5 SHL DUP2 MSTORE PUSH1 0x4 ADD DUP1 DUP1 PUSH1 0x20 ADD DUP3 DUP2 SUB DUP3 MSTORE PUSH1 0x28 DUP2 MSTORE PUSH1 0x20 ADD DUP1 PUSH2 0x1254 PUSH1 0x28 SWAP2 CODECOPY PUSH1 0x40 ADD SWAP2 POP POP PUSH1 0x40 MLOAD DUP1 SWAP2 SUB SWAP1 REVERT JUMPDEST PUSH2 0x46E DUP3 DUP3 PUSH2 0xB23 JUMP JUMPDEST PUSH1 0x2 SLOAD PUSH2 0x485 SWAP1 PUSH1 0x1 PUSH1 0x1 PUSH1 0xA0 SHL SUB AND CALLER DUP4 PUSH2 0xD9A JUMP JUMPDEST PUSH2 0x48F DUP3 DUP3 PUSH2 0xCE1 JUMP JUMPDEST POP POP JUMP JUMPDEST PUSH1 0x7 SLOAD TIMESTAMP GT SWAP1 JUMP JUMPDEST PUSH1 0x1 DUP2 JUMP JUMPDEST PUSH1 0x3 SLOAD DUP2 JUMP JUMPDEST PUSH1 0x7 SLOAD DUP2 JUMP JUMPDEST PUSH1 0x2 SLOAD PUSH1 0x1 PUSH1 0x1 PUSH1 0xA0 SHL SUB AND DUP2 JUMP JUMPDEST PUSH1 0x5 SLOAD DUP2 JUMP JUMPDEST PUSH1 0x0 PUSH1 0x6 SLOAD TIMESTAMP LT ISZERO DUP1 ISZERO PUSH2 0x4D7 JUMPI POP PUSH1 0x7 SLOAD TIMESTAMP GT ISZERO JUMPDEST SWAP1 POP SWAP1 JUMP JUMPDEST PUSH2 0x4E4 PUSH2 0x493 JUMP JUMPDEST PUSH2 0x52D JUMPI PUSH1 0x40 DUP1 MLOAD PUSH3 0x461BCD PUSH1 0xE5 SHL DUP2 MSTORE PUSH1 0x20 PUSH1 0x4 DUP3 ADD MSTORE PUSH1 0x15 PUSH1 0x24 DUP3 ADD MSTORE PUSH21 0x10DC9BDDD91CD85B194E881B9BDD0818DB1BDCD959 PUSH1 0x5A SHL PUSH1 0x44 DUP3 ADD MSTORE SWAP1 MLOAD SWAP1 DUP2 SWAP1 SUB PUSH1 0x64 ADD SWAP1 REVERT JUMPDEST PUSH1 0x1 PUSH1 0x1 PUSH1 0xA0 SHL SUB DUP2 AND PUSH1 0x0 SWAP1 DUP2 MSTORE PUSH1 0x9 PUSH1 0x20 MSTORE PUSH1 0x40 SWAP1 KECCAK256 SLOAD DUP1 PUSH2 0x598 JUMPI PUSH1 0x40 DUP1 MLOAD PUSH3 0x461BCD PUSH1 0xE5 SHL DUP2 MSTORE PUSH1 0x20 PUSH1 0x4 DUP3 ADD MSTORE PUSH1 0x1F PUSH1 0x24 DUP3 ADD MSTORE PUSH32 0x43726F776473616C653A20636C61696D65722062616C616E6365206973203000 PUSH1 0x44 DUP3 ADD MSTORE SWAP1 MLOAD SWAP1 DUP2 SWAP1 SUB PUSH1 0x64 ADD SWAP1 REVERT JUMPDEST PUSH2 0x5A0 PUSH2 0x7FC JUMP JUMPDEST ISZERO PUSH2 0x5B6 JUMPI DUP1 PUSH2 0x5B0 DUP4 DUP3 PUSH2 0xEC2 JUMP JUMPDEST POP PUSH2 0x609 JUMP JUMPDEST PUSH1 0x0 PUSH2 0x5CD PUSH1 0x3 SLOAD DUP4 PUSH2 0xED9 SWAP1 SWAP2 SWAP1 PUSH4 0xFFFFFFFF AND JUMP JUMPDEST PUSH1 0x40 MLOAD SWAP1 SWAP2 POP PUSH1 0x1 PUSH1 0x1 PUSH1 0xA0 SHL SUB DUP5 AND SWAP1 DUP3 ISZERO PUSH2 0x8FC MUL SWAP1 DUP4 SWAP1 PUSH1 0x0 DUP2 DUP2 DUP2 DUP6 DUP9 DUP9 CALL SWAP4 POP POP POP POP ISZERO DUP1 ISZERO PUSH2 0x606 JUMPI RETURNDATASIZE PUSH1 0x0 DUP1 RETURNDATACOPY RETURNDATASIZE PUSH1 0x0 REVERT JUMPDEST POP POP JUMPDEST POP PUSH1 0x1 PUSH1 0x1 PUSH1 0xA0 SHL SUB AND PUSH1 0x0 SWAP1 DUP2 MSTORE PUSH1 0x9 PUSH1 0x20 MSTORE PUSH1 0x40 DUP2 KECCAK256 SSTORE JUMP JUMPDEST PUSH1 0x8 SLOAD PUSH2 0x100 SWAP1 DIV PUSH1 0xFF AND ISZERO PUSH2 0x681 JUMPI PUSH1 0x40 DUP1 MLOAD PUSH3 0x461BCD PUSH1 0xE5 SHL DUP2 MSTORE PUSH1 0x20 PUSH1 0x4 DUP3 ADD MSTORE PUSH1 0x1C PUSH1 0x24 DUP3 ADD MSTORE PUSH32 0x43726F776473616C653A20616C72656164792066696E616C697A656400000000 PUSH1 0x44 DUP3 ADD MSTORE SWAP1 MLOAD SWAP1 DUP2 SWAP1 SUB PUSH1 0x64 ADD SWAP1 REVERT JUMPDEST PUSH2 0x689 PUSH2 0x493 JUMP JUMPDEST PUSH2 0x6D2 JUMPI PUSH1 0x40 DUP1 MLOAD PUSH3 0x461BCD PUSH1 0xE5 SHL DUP2 MSTORE PUSH1 0x20 PUSH1 0x4 DUP3 ADD MSTORE PUSH1 0x15 PUSH1 0x24 DUP3 ADD MSTORE PUSH21 0x10DC9BDDD91CD85B194E881B9BDD0818DB1BDCD959 PUSH1 0x5A SHL PUSH1 0x44 DUP3 ADD MSTORE SWAP1 MLOAD SWAP1 DUP2 SWAP1 SUB PUSH1 0x64 ADD SWAP1 REVERT JUMPDEST PUSH1 0x0 DUP1 SLOAD PUSH1 0x40 DUP1 MLOAD PUSH4 0x70A08231 PUSH1 0xE0 SHL DUP2 MSTORE ADDRESS PUSH1 0x4 DUP3 ADD MSTORE SWAP1 MLOAD PUSH1 0x1 PUSH1 0x1 PUSH1 0xA0 SHL SUB SWAP1 SWAP3 AND SWAP2 PUSH4 0x70A08231 SWAP2 PUSH1 0x24 DUP1 DUP3 ADD SWAP3 PUSH1 0x20 SWAP3 SWAP1 SWAP2 SWAP1 DUP3 SWAP1 SUB ADD DUP2 DUP7 DUP1 EXTCODESIZE ISZERO DUP1 ISZERO PUSH2 0x71E JUMPI PUSH1 0x0 DUP1 REVERT JUMPDEST POP GAS STATICCALL ISZERO DUP1 ISZERO PUSH2 0x732 JUMPI RETURNDATASIZE PUSH1 0x0 DUP1 RETURNDATACOPY RETURNDATASIZE PUSH1 0x0 REVERT JUMPDEST POP POP POP POP PUSH1 0x40 MLOAD RETURNDATASIZE PUSH1 0x20 DUP2 LT ISZERO PUSH2 0x748 JUMPI PUSH1 0x0 DUP1 REVERT JUMPDEST POP MLOAD SWAP1 POP PUSH2 0x754 PUSH2 0x7FC JUMP JUMPDEST ISZERO PUSH2 0x77E JUMPI PUSH2 0x761 PUSH2 0xF24 JUMP JUMPDEST PUSH1 0x0 PUSH2 0x76E PUSH1 0x4 SLOAD PUSH2 0xF5D JUMP JUMPDEST SWAP1 POP PUSH2 0x77A DUP3 DUP3 PUSH2 0xF74 JUMP JUMPDEST SWAP2 POP POP JUMPDEST DUP1 ISZERO PUSH2 0x79A JUMPI PUSH1 0x1 SLOAD PUSH2 0x79A SWAP1 PUSH1 0x1 PUSH1 0x1 PUSH1 0xA0 SHL SUB AND DUP3 PUSH2 0xEC2 JUMP JUMPDEST PUSH1 0x8 DUP1 SLOAD PUSH2 0xFF00 NOT AND PUSH2 0x100 OR SWAP1 SSTORE PUSH1 0x40 MLOAD PUSH32 0x9270CC390C096600A1C17C44345A1BA689FAFD99D97487B10CFCCF86CF731836 SWAP1 PUSH1 0x0 SWAP1 LOG1 POP JUMP JUMPDEST PUSH1 0x1 PUSH1 0x1 PUSH1 0xA0 SHL SUB AND PUSH1 0x0 SWAP1 DUP2 MSTORE PUSH1 0x9 PUSH1 0x20 MSTORE PUSH1 0x40 SWAP1 KECCAK256 SLOAD SWAP1 JUMP JUMPDEST PUSH1 0x6 SLOAD DUP2 JUMP JUMPDEST PUSH1 0x4 SLOAD DUP2 JUMP JUMPDEST PUSH1 0x5 SLOAD PUSH1 0x4 SLOAD LT ISZERO SWAP1 JUMP JUMPDEST PUSH1 0x8 SLOAD PUSH1 0xFF AND ISZERO PUSH2 0x85F JUMPI PUSH1 0x40 DUP1 MLOAD PUSH3 0x461BCD PUSH1 0xE5 SHL DUP2 MSTORE PUSH1 0x20 PUSH1 0x4 DUP3 ADD MSTORE PUSH1 0x1E PUSH1 0x24 DUP3 ADD MSTORE PUSH32 0x43726F776473616C653A20616C726561647920696E697469616C697A65640000 PUSH1 0x44 DUP3 ADD MSTORE SWAP1 MLOAD SWAP1 DUP2 SWAP1 SUB PUSH1 0x64 ADD SWAP1 REVERT JUMPDEST TIMESTAMP DUP6 LT ISZERO PUSH2 0x89E JUMPI PUSH1 0x40 MLOAD PUSH3 0x461BCD PUSH1 0xE5 SHL DUP2 MSTORE PUSH1 0x4 ADD DUP1 DUP1 PUSH1 0x20 ADD DUP3 DUP2 SUB DUP3 MSTORE PUSH1 0x2C DUP2 MSTORE PUSH1 0x20 ADD DUP1 PUSH2 0x1228 PUSH1 0x2C SWAP2 CODECOPY PUSH1 0x40 ADD SWAP2 POP POP PUSH1 0x40 MLOAD DUP1 SWAP2 SUB SWAP1 REVERT JUMPDEST DUP5 DUP5 GT PUSH2 0x8DC JUMPI PUSH1 0x40 MLOAD PUSH3 0x461BCD PUSH1 0xE5 SHL DUP2 MSTORE PUSH1 0x4 ADD DUP1 DUP1 PUSH1 0x20 ADD DUP3 DUP2 SUB DUP3 MSTORE PUSH1 0x2C DUP2 MSTORE PUSH1 0x20 ADD DUP1 PUSH2 0x127C PUSH1 0x2C SWAP2 CODECOPY PUSH1 0x40 ADD SWAP2 POP POP PUSH1 0x40 MLOAD DUP1 SWAP2 SUB SWAP1 REVERT JUMPDEST PUSH1 0x0 DUP4 GT PUSH2 0x928 JUMPI PUSH1 0x40 DUP1 MLOAD PUSH3 0x461BCD PUSH1 0xE5 SHL DUP2 MSTORE PUSH1 0x20 PUSH1 0x4 DUP3 ADD MSTORE PUSH1 0x14 PUSH1 0x24 DUP3 ADD MSTORE PUSH20 0x43726F776473616C653A2072617465206973203 PUSH1 0x64 SHL PUSH1 0x44 DUP3 ADD MSTORE SWAP1 MLOAD SWAP1 DUP2 SWAP1 SUB PUSH1 0x64 ADD SWAP1 REVERT JUMPDEST PUSH1 0x1 PUSH1 0x1 PUSH1 0xA0 SHL SUB DUP2 AND PUSH2 0x96D JUMPI PUSH1 0x40 MLOAD PUSH3 0x461BCD PUSH1 0xE5 SHL DUP2 MSTORE PUSH1 0x4 ADD DUP1 DUP1 PUSH1 0x20 ADD DUP3 DUP2 SUB DUP3 MSTORE PUSH1 0x25 DUP2 MSTORE PUSH1 0x20 ADD DUP1 PUSH2 0x1361 PUSH1 0x25 SWAP2 CODECOPY PUSH1 0x40 ADD SWAP2 POP POP PUSH1 0x40 MLOAD DUP1 SWAP2 SUB SWAP1 REVERT JUMPDEST PUSH1 0x1 PUSH1 0x1 PUSH1 0xA0 SHL SUB DUP9 AND PUSH2 0x9B2 JUMPI PUSH1 0x40 MLOAD PUSH3 0x461BCD PUSH1 0xE5 SHL DUP2 MSTORE PUSH1 0x4 ADD DUP1 DUP1 PUSH1 0x20 ADD DUP3 DUP2 SUB DUP3 MSTORE PUSH1 0x24 DUP2 MSTORE PUSH1 0x20 ADD DUP1 PUSH2 0x12A8 PUSH1 0x24 SWAP2 CODECOPY PUSH1 0x40 ADD SWAP2 POP POP PUSH1 0x40 MLOAD DUP1 SWAP2 SUB SWAP1 REVERT JUMPDEST PUSH1 0x0 DUP7 GT PUSH2 0xA07 JUMPI PUSH1 0x40 DUP1 MLOAD PUSH3 0x461BCD PUSH1 0xE5 SHL DUP2 MSTORE PUSH1 0x20 PUSH1 0x4 DUP3 ADD MSTORE PUSH1 0x1C PUSH1 0x24 DUP3 ADD MSTORE PUSH32 0x43726F776473616C653A20746F74616C20746F6B656E73206973203000000000 PUSH1 0x44 DUP3 ADD MSTORE SWAP1 MLOAD SWAP1 DUP2 SWAP1 SUB PUSH1 0x64 ADD SWAP1 REVERT JUMPDEST PUSH1 0x0 DUP3 GT PUSH2 0xA53 JUMPI PUSH1 0x40 DUP1 MLOAD PUSH3 0x461BCD PUSH1 0xE5 SHL DUP2 MSTORE PUSH1 0x20 PUSH1 0x4 DUP3 ADD MSTORE PUSH1 0x14 PUSH1 0x24 DUP3 ADD MSTORE PUSH20 0x43726F776473616C653A20676F616C206973203 PUSH1 0x64 SHL PUSH1 0x44 DUP3 ADD MSTORE SWAP1 MLOAD SWAP1 DUP2 SWAP1 SUB PUSH1 0x64 ADD SWAP1 REVERT JUMPDEST PUSH1 0x0 DUP1 SLOAD PUSH1 0x6 DUP8 SWAP1 SSTORE PUSH1 0x7 DUP7 SWAP1 SSTORE PUSH1 0x3 DUP6 SWAP1 SSTORE PUSH1 0x1 DUP1 SLOAD PUSH1 0x1 PUSH1 0x1 PUSH1 0xA0 SHL SUB DUP6 DUP2 AND PUSH1 0x1 PUSH1 0x1 PUSH1 0xA0 SHL SUB NOT SWAP3 DUP4 AND OR SWAP1 SWAP3 SSTORE PUSH1 0x2 DUP1 SLOAD DUP13 DUP5 AND SWAP1 DUP4 AND OR SWAP1 SSTORE SWAP1 DUP12 AND SWAP2 DUP2 AND DUP3 OR AND OR SWAP1 SSTORE PUSH1 0x5 DUP3 SWAP1 SSTORE DUP6 PUSH2 0xAAD DUP4 PUSH2 0xF5D JUMP JUMPDEST GT ISZERO PUSH2 0xAEA JUMPI PUSH1 0x40 MLOAD PUSH3 0x461BCD PUSH1 0xE5 SHL DUP2 MSTORE PUSH1 0x4 ADD DUP1 DUP1 PUSH1 0x20 ADD DUP3 DUP2 SUB DUP3 MSTORE PUSH1 0x46 DUP2 MSTORE PUSH1 0x20 ADD DUP1 PUSH2 0x11E2 PUSH1 0x46 SWAP2 CODECOPY PUSH1 0x60 ADD SWAP2 POP POP PUSH1 0x40 MLOAD DUP1 SWAP2 SUB SWAP1 REVERT JUMPDEST PUSH2 0xAF5 DUP9 DUP11 DUP9 PUSH2 0xD9A JUMP JUMPDEST POP POP PUSH1 0x8 DUP1 SLOAD PUSH2 0xFF00 NOT PUSH1 0xFF NOT SWAP1 SWAP2 AND PUSH1 0x1 OR AND SWAP1 SSTORE POP POP POP POP POP POP POP JUMP JUMPDEST PUSH1 0x0 SLOAD PUSH1 0x1 PUSH1 0x1 PUSH1 0xA0 SHL SUB AND DUP2 JUMP JUMPDEST PUSH2 0xB2B PUSH2 0x4C1 JUMP JUMPDEST PUSH2 0xB7C JUMPI PUSH1 0x40 DUP1 MLOAD PUSH3 0x461BCD PUSH1 0xE5 SHL DUP2 MSTORE PUSH1 0x20 PUSH1 0x4 DUP3 ADD MSTORE PUSH1 0x18 PUSH1 0x24 DUP3 ADD MSTORE PUSH32 0x54696D656443726F776473616C653A206E6F74206F70656E0000000000000000 PUSH1 0x44 DUP3 ADD MSTORE SWAP1 MLOAD SWAP1 DUP2 SWAP1 SUB PUSH1 0x64 ADD SWAP1 REVERT JUMPDEST PUSH1 0x1 PUSH1 0x1 PUSH1 0xA0 SHL SUB DUP3 AND PUSH2 0xBC1 JUMPI PUSH1 0x40 MLOAD PUSH3 0x461BCD PUSH1 0xE5 SHL DUP2 MSTORE PUSH1 0x4 ADD DUP1 DUP1 PUSH1 0x20 ADD DUP3 DUP2 SUB DUP3 MSTORE PUSH1 0x2A DUP2 MSTORE PUSH1 0x20 ADD DUP1 PUSH2 0x1337 PUSH1 0x2A SWAP2 CODECOPY PUSH1 0x40 ADD SWAP2 POP POP PUSH1 0x40 MLOAD DUP1 SWAP2 SUB SWAP1 REVERT JUMPDEST DUP1 PUSH2 0xC0C JUMPI PUSH1 0x40 DUP1 MLOAD PUSH3 0x461BCD PUSH1 0xE5 SHL DUP2 MSTORE PUSH1 0x20 PUSH1 0x4 DUP3 ADD MSTORE PUSH1 0x16 PUSH1 0x24 DUP3 ADD MSTORE PUSH22 0x43726F776473616C653A20616D6F756E74206973203 PUSH1 0x54 SHL PUSH1 0x44 DUP3 ADD MSTORE SWAP1 MLOAD SWAP1 DUP2 SWAP1 SUB PUSH1 0x64 ADD SWAP1 REVERT JUMPDEST PUSH1 0x0 DUP1 SLOAD PUSH1 0x40 DUP1 MLOAD PUSH4 0x70A08231 PUSH1 0xE0 SHL DUP2 MSTORE ADDRESS PUSH1 0x4 DUP3 ADD MSTORE SWAP1 MLOAD PUSH1 0x1 PUSH1 0x1 PUSH1 0xA0 SHL SUB SWAP1 SWAP3 AND SWAP2 PUSH4 0x70A08231 SWAP2 PUSH1 0x24 DUP1 DUP3 ADD SWAP3 PUSH1 0x20 SWAP3 SWAP1 SWAP2 SWAP1 DUP3 SWAP1 SUB ADD DUP2 DUP7 DUP1 EXTCODESIZE ISZERO DUP1 ISZERO PUSH2 0xC58 JUMPI PUSH1 0x0 DUP1 REVERT JUMPDEST POP GAS STATICCALL ISZERO DUP1 ISZERO PUSH2 0xC6C JUMPI RETURNDATASIZE PUSH1 0x0 DUP1 RETURNDATACOPY RETURNDATASIZE PUSH1 0x0 REVERT JUMPDEST POP POP POP POP PUSH1 0x40 MLOAD RETURNDATASIZE PUSH1 0x20 DUP2 LT ISZERO PUSH2 0xC82 JUMPI PUSH1 0x0 DUP1 REVERT JUMPDEST POP MLOAD PUSH1 0x4 SLOAD SWAP1 SWAP2 POP DUP2 SWAP1 PUSH2 0xC9F SWAP1 PUSH2 0xC9A SWAP1 DUP6 PUSH2 0xFB6 JUMP JUMPDEST PUSH2 0xF5D JUMP JUMPDEST GT ISZERO PUSH2 0xCDC JUMPI PUSH1 0x40 MLOAD PUSH3 0x461BCD PUSH1 0xE5 SHL DUP2 MSTORE PUSH1 0x4 ADD DUP1 DUP1 PUSH1 0x20 ADD DUP3 DUP2 SUB DUP3 MSTORE PUSH1 0x24 DUP2 MSTORE PUSH1 0x20 ADD DUP1 PUSH2 0x12CC PUSH1 0x24 SWAP2 CODECOPY PUSH1 0x40 ADD SWAP2 POP POP PUSH1 0x40 MLOAD DUP1 SWAP2 SUB SWAP1 REVERT JUMPDEST POP POP POP JUMP JUMPDEST PUSH1 0x0 PUSH2 0xCEC DUP3 PUSH2 0xF5D JUMP JUMPDEST PUSH1 0x1 PUSH1 0x1 PUSH1 0xA0 SHL SUB DUP5 AND PUSH1 0x0 SWAP1 DUP2 MSTORE PUSH1 0x9 PUSH1 0x20 MSTORE PUSH1 0x40 SWAP1 KECCAK256 SLOAD SWAP1 SWAP2 POP PUSH2 0xD12 SWAP1 DUP3 PUSH2 0xFB6 JUMP JUMPDEST PUSH1 0x1 PUSH1 0x1 PUSH1 0xA0 SHL SUB DUP5 AND PUSH1 0x0 SWAP1 DUP2 MSTORE PUSH1 0x9 PUSH1 0x20 MSTORE PUSH1 0x40 SWAP1 KECCAK256 SSTORE PUSH1 0x4 SLOAD PUSH2 0xD38 SWAP1 DUP4 PUSH2 0xFB6 JUMP JUMPDEST PUSH1 0x4 SSTORE PUSH1 0x1 PUSH1 0x1 PUSH1 0xA0 SHL SUB DUP4 AND PUSH2 0xD4D PUSH2 0x38E JUMP JUMPDEST PUSH1 0x1 PUSH1 0x1 PUSH1 0xA0 SHL SUB AND PUSH32 0x6FAF93231A456E552DBC9961F58D9713EE4F2E69D15F1975B050EF0911053A7B DUP5 DUP5 PUSH1 0x40 MLOAD DUP1 DUP4 DUP2 MSTORE PUSH1 0x20 ADD DUP3 DUP2 MSTORE PUSH1 0x20 ADD SWAP3 POP POP POP PUSH1 0x40 MLOAD DUP1 SWAP2 SUB SWAP1 LOG3 POP POP POP JUMP JUMPDEST PUSH1 0x40 DUP1 MLOAD PUSH1 0x1 PUSH1 0x1 PUSH1 0xA0 SHL SUB DUP5 DUP2 AND PUSH1 0x24 DUP4 ADD MSTORE ADDRESS PUSH1 0x44 DUP4 ADD MSTORE PUSH1 0x64 DUP1 DUP4 ADD DUP6 SWAP1 MSTORE DUP4 MLOAD DUP1 DUP5 SUB SWAP1 SWAP2 ADD DUP2 MSTORE PUSH1 0x84 SWAP1 SWAP3 ADD DUP4 MSTORE PUSH1 0x20 DUP3 ADD DUP1 MLOAD PUSH1 0x1 PUSH1 0x1 PUSH1 0xE0 SHL SUB AND PUSH4 0x23B872DD PUSH1 0xE0 SHL OR DUP2 MSTORE SWAP3 MLOAD DUP3 MLOAD PUSH1 0x0 SWAP5 PUSH1 0x60 SWAP5 SWAP4 DUP10 AND SWAP4 SWAP3 SWAP2 DUP3 SWAP2 SWAP1 DUP1 DUP4 DUP4 JUMPDEST PUSH1 0x20 DUP4 LT PUSH2 0xE1D JUMPI DUP1 MLOAD DUP3 MSTORE PUSH1 0x1F NOT SWAP1 SWAP3 ADD SWAP2 PUSH1 0x20 SWAP2 DUP3 ADD SWAP2 ADD PUSH2 0xDFE JUMP JUMPDEST PUSH1 0x1 DUP4 PUSH1 0x20 SUB PUSH2 0x100 EXP SUB DUP1 NOT DUP3 MLOAD AND DUP2 DUP5 MLOAD AND DUP1 DUP3 OR DUP6 MSTORE POP POP POP POP POP POP SWAP1 POP ADD SWAP2 POP POP PUSH1 0x0 PUSH1 0x40 MLOAD DUP1 DUP4 SUB DUP2 PUSH1 0x0 DUP7 GAS CALL SWAP2 POP POP RETURNDATASIZE DUP1 PUSH1 0x0 DUP2 EQ PUSH2 0xE7F JUMPI PUSH1 0x40 MLOAD SWAP2 POP PUSH1 0x1F NOT PUSH1 0x3F RETURNDATASIZE ADD AND DUP3 ADD PUSH1 0x40 MSTORE RETURNDATASIZE DUP3 MSTORE RETURNDATASIZE PUSH1 0x0 PUSH1 0x20 DUP5 ADD RETURNDATACOPY PUSH2 0xE84 JUMP JUMPDEST PUSH1 0x60 SWAP2 POP JUMPDEST POP SWAP2 POP SWAP2 POP DUP2 DUP1 ISZERO PUSH2 0xEB2 JUMPI POP DUP1 MLOAD ISZERO DUP1 PUSH2 0xEB2 JUMPI POP DUP1 DUP1 PUSH1 0x20 ADD SWAP1 MLOAD PUSH1 0x20 DUP2 LT ISZERO PUSH2 0xEAF JUMPI PUSH1 0x0 DUP1 REVERT JUMPDEST POP MLOAD JUMPDEST PUSH2 0xEBB JUMPI PUSH1 0x0 DUP1 REVERT JUMPDEST POP POP POP POP POP JUMP JUMPDEST PUSH1 0x0 SLOAD PUSH2 0x48F SWAP1 PUSH1 0x1 PUSH1 0x1 PUSH1 0xA0 SHL SUB AND DUP4 DUP4 PUSH2 0x1010 JUMP JUMPDEST PUSH1 0x0 PUSH2 0xF1B DUP4 DUP4 PUSH1 0x40 MLOAD DUP1 PUSH1 0x40 ADD PUSH1 0x40 MSTORE DUP1 PUSH1 0x1A DUP2 MSTORE PUSH1 0x20 ADD PUSH32 0x536166654D6174683A206469766973696F6E206279207A65726F000000000000 DUP2 MSTORE POP PUSH2 0x108C JUMP JUMPDEST SWAP1 POP JUMPDEST SWAP3 SWAP2 POP POP JUMP JUMPDEST PUSH1 0x1 SLOAD PUSH1 0x40 MLOAD PUSH1 0x1 PUSH1 0x1 PUSH1 0xA0 SHL SUB SWAP1 SWAP2 AND SWAP1 SELFBALANCE DUP1 ISZERO PUSH2 0x8FC MUL SWAP2 PUSH1 0x0 DUP2 DUP2 DUP2 DUP6 DUP9 DUP9 CALL SWAP4 POP POP POP POP ISZERO DUP1 ISZERO PUSH2 0x403 JUMPI RETURNDATASIZE PUSH1 0x0 DUP1 RETURNDATACOPY RETURNDATASIZE PUSH1 0x0 REVERT JUMPDEST PUSH1 0x0 PUSH2 0xF1E PUSH1 0x3 SLOAD DUP4 PUSH2 0x112E SWAP1 SWAP2 SWAP1 PUSH4 0xFFFFFFFF AND JUMP JUMPDEST PUSH1 0x0 PUSH2 0xF1B DUP4 DUP4 PUSH1 0x40 MLOAD DUP1 PUSH1 0x40 ADD PUSH1 0x40 MSTORE DUP1 PUSH1 0x1E DUP2 MSTORE PUSH1 0x20 ADD PUSH32 0x536166654D6174683A207375627472616374696F6E206F766572666C6F770000 DUP2 MSTORE POP PUSH2 0x1187 JUMP JUMPDEST PUSH1 0x0 DUP3 DUP3 ADD DUP4 DUP2 LT ISZERO PUSH2 0xF1B JUMPI PUSH1 0x40 DUP1 MLOAD PUSH3 0x461BCD PUSH1 0xE5 SHL DUP2 MSTORE PUSH1 0x20 PUSH1 0x4 DUP3 ADD MSTORE PUSH1 0x1B PUSH1 0x24 DUP3 ADD MSTORE PUSH32 0x536166654D6174683A206164646974696F6E206F766572666C6F770000000000 PUSH1 0x44 DUP3 ADD MSTORE SWAP1 MLOAD SWAP1 DUP2 SWAP1 SUB PUSH1 0x64 ADD SWAP1 REVERT JUMPDEST PUSH1 0x40 DUP1 MLOAD PUSH1 0x1 PUSH1 0x1 PUSH1 0xA0 SHL SUB DUP5 DUP2 AND PUSH1 0x24 DUP4 ADD MSTORE PUSH1 0x44 DUP1 DUP4 ADD DUP6 SWAP1 MSTORE DUP4 MLOAD DUP1 DUP5 SUB SWAP1 SWAP2 ADD DUP2 MSTORE PUSH1 0x64 SWAP1 SWAP3 ADD DUP4 MSTORE PUSH1 0x20 DUP3 ADD DUP1 MLOAD PUSH1 0x1 PUSH1 0x1 PUSH1 0xE0 SHL SUB AND PUSH4 0xA9059CBB PUSH1 0xE0 SHL OR DUP2 MSTORE SWAP3 MLOAD DUP3 MLOAD PUSH1 0x0 SWAP5 PUSH1 0x60 SWAP5 SWAP4 DUP10 AND SWAP4 SWAP3 SWAP2 DUP3 SWAP2 SWAP1 DUP1 DUP4 DUP4 PUSH1 0x20 DUP4 LT PUSH2 0xE1D JUMPI DUP1 MLOAD DUP3 MSTORE PUSH1 0x1F NOT SWAP1 SWAP3 ADD SWAP2 PUSH1 0x20 SWAP2 DUP3 ADD SWAP2 ADD PUSH2 0xDFE JUMP JUMPDEST PUSH1 0x0 DUP2 DUP4 PUSH2 0x1118 JUMPI PUSH1 0x40 MLOAD PUSH3 0x461BCD PUSH1 0xE5 SHL DUP2 MSTORE PUSH1 0x4 ADD DUP1 DUP1 PUSH1 0x20 ADD DUP3 DUP2 SUB DUP3 MSTORE DUP4 DUP2 DUP2 MLOAD DUP2 MSTORE PUSH1 0x20 ADD SWAP2 POP DUP1 MLOAD SWAP1 PUSH1 0x20 ADD SWAP1 DUP1 DUP4 DUP4 PUSH1 0x0 JUMPDEST DUP4 DUP2 LT ISZERO PUSH2 0x10DD JUMPI DUP2 DUP2 ADD MLOAD DUP4 DUP3 ADD MSTORE PUSH1 0x20 ADD PUSH2 0x10C5 JUMP JUMPDEST POP POP POP POP SWAP1 POP SWAP1 DUP2 ADD SWAP1 PUSH1 0x1F AND DUP1 ISZERO PUSH2 0x110A JUMPI DUP1 DUP3 SUB DUP1 MLOAD PUSH1 0x1 DUP4 PUSH1 0x20 SUB PUSH2 0x100 EXP SUB NOT AND DUP2 MSTORE PUSH1 0x20 ADD SWAP2 POP JUMPDEST POP SWAP3 POP POP POP PUSH1 0x40 MLOAD DUP1 SWAP2 SUB SWAP1 REVERT JUMPDEST POP PUSH1 0x0 DUP4 DUP6 DUP2 PUSH2 0x1124 JUMPI INVALID JUMPDEST DIV SWAP6 SWAP5 POP POP POP POP POP JUMP JUMPDEST PUSH1 0x0 DUP3 PUSH2 0x113D JUMPI POP PUSH1 0x0 PUSH2 0xF1E JUMP JUMPDEST DUP3 DUP3 MUL DUP3 DUP5 DUP3 DUP2 PUSH2 0x114A JUMPI INVALID JUMPDEST DIV EQ PUSH2 0xF1B JUMPI PUSH1 0x40 MLOAD PUSH3 0x461BCD PUSH1 0xE5 SHL DUP2 MSTORE PUSH1 0x4 ADD DUP1 DUP1 PUSH1 0x20 ADD DUP3 DUP2 SUB DUP3 MSTORE PUSH1 0x21 DUP2 MSTORE PUSH1 0x20 ADD DUP1 PUSH2 0x12F0 PUSH1 0x21 SWAP2 CODECOPY PUSH1 0x40 ADD SWAP2 POP POP PUSH1 0x40 MLOAD DUP1 SWAP2 SUB SWAP1 REVERT JUMPDEST PUSH1 0x0 DUP2 DUP5 DUP5 GT ISZERO PUSH2 0x11D9 JUMPI PUSH1 0x40 MLOAD PUSH3 0x461BCD PUSH1 0xE5 SHL DUP2 MSTORE PUSH1 0x20 PUSH1 0x4 DUP3 ADD DUP2 DUP2 MSTORE DUP4 MLOAD PUSH1 0x24 DUP5 ADD MSTORE DUP4 MLOAD SWAP1 SWAP3 DUP4 SWAP3 PUSH1 0x44 SWAP1 SWAP2 ADD SWAP2 SWAP1 DUP6 ADD SWAP1 DUP1 DUP4 DUP4 PUSH1 0x0 DUP4 ISZERO PUSH2 0x10DD JUMPI DUP2 DUP2 ADD MLOAD DUP4 DUP3 ADD MSTORE PUSH1 0x20 ADD PUSH2 0x10C5 JUMP JUMPDEST POP POP POP SWAP1 SUB SWAP1 JUMP INVALID NUMBER PUSH19 0x6F776473616C653A20676F616C2073686F756C PUSH5 0x2062652065 PUSH18 0x75616C20746F206F72206C6F776572207468 PUSH2 0x6E20 PUSH21 0x6F74616C20746F6B656E73206F7220657175616C43 PUSH19 0x6F776473616C653A2073746172742074696D65 KECCAK256 PUSH10 0x73206265666F72652063 PUSH22 0x7272656E742074696D6543726F776473616C653A2070 PUSH2 0x796D PUSH6 0x6E7420637572 PUSH19 0x656E6379206973206E6F7420746F6B656E4372 PUSH16 0x776473616C653A207374617274207469 PUSH14 0x65206973206E6F74206265666F72 PUSH6 0x20656E642074 PUSH10 0x6D6543726F776473616C PUSH6 0x3A20746F6B65 PUSH15 0x20697320746865207A65726F206164 PUSH5 0x7265737343 PUSH19 0x6F776473616C653A20616D6F756E74206F6620 PUSH21 0x6F6B656E73206578636565646564536166654D6174 PUSH9 0x3A206D756C7469706C PUSH10 0x636174696F6E206F7665 PUSH19 0x666C6F7743726F776473616C653A207061796D PUSH6 0x6E7420637572 PUSH19 0x656E6379206973206E6F742045544843726F77 PUSH5 0x73616C653A KECCAK256 PUSH3 0x656E65 PUSH7 0x69636961727920 PUSH10 0x7320746865207A65726F KECCAK256 PUSH2 0x6464 PUSH19 0x65737343726F776473616C653A2077616C6C65 PUSH21 0x20697320746865207A65726F2061646472657373A2 PUSH5 0x6970667358 0x22 SLT KECCAK256 0xD2 SWAP7 RETURN DUP1 0xE4 ORIGIN DUP11 MSTORE8 OR CALLCODE PUSH17 0xD15A3D2472C0D51D27279FA2C2631DF9D2 0xD3 0xC9 0xF DUP7 PUSH5 0x736F6C6343 STOP MOD 0xC STOP CALLER ",
  "sha1": "25585bf5ce684cdc404167feb896ef30c1e6b9d8",
  "source": "pragma solidity ^0.6.9;\n\nimport \"../../interfaces/IERC20.sol\";\nimport \"@openzeppelin/contracts/GSN/Context.sol\";\nimport \"@openzeppelin/contracts/math/SafeMath.sol\";\n//MZ: commented out non rentrant\n//import \"@openzeppelin/contracts/utils/ReentrancyGuard.sol\";\n\ncontract Crowdsale is Context /* ReentrancyGuard */ {\n    using SafeMath for uint256;\n\n    /// @notice The placeholder ETH address.\n    address private constant ETH_ADDRESS = 0xEeeeeEeeeEeEeeEeEeEeeEEEeeeeEeeeeeeeEEeE;\n\n    /// @notice The token being sold\n    address public token;\n\n    /// @notice Address where funds are collected\n    address payable private wallet;\n    \n    /// @notice The currency the crowdsale accepts for payment. Can be ETH or token address\n    address public paymentCurrency;\n\n    /** \n    * @notice How many token units a buyer gets per token or wei.\n    * The rate is the conversion between wei and the smallest and indivisible token unit.\n    * So, if you are using a rate of 1 with a ERC20Detailed token with 3 decimals called TOK\n    * 1 wei will give you 1 unit, or 0.001 TOK. \n    */\n    uint256 public rate;\n    \n    /// @notice Amount of wei raised\n    uint256 public amountRaised;\n\n    /// @notice minimum amount of funds to be raised in weis or tokens\n    uint256 public goal;\n\n    /// @notice starting time of crowdsale\n    uint256 public startTime;\n\n    /// @notice ending time of crowdsale\n    uint256 public endTime;\n    \n    bool private initialized;\n    bool private finalized;\n\n    /// @notice MISOMarket template id for the factory contract\n    uint256 public constant marketTemplate = 1;\n\n    /// @notice the balances of accounts\n    mapping(address => uint256) private balances;\n\n\n    /**\n     * Event for token purchase logging\n     * @param purchaser who paid for the tokens\n     * @param beneficiary who got the tokens\n     * @param value value of wei or token paid for purchase\n     * @param amount amount of tokens purchased\n     */\n    event TokensPurchased(\n        address indexed purchaser,\n        address indexed beneficiary,\n        uint256 value,\n        uint256 amount\n    );\n\n    event CrowdsaleFinalized();\n\n    /**\n     * @dev Init function\n     * @param _funder The address that funds the token for crowdsale\n     * @param _token Address of the token being sold\n     * @param _paymentCurrency The currency the crowdsale accepts for payment. Can be ETH or token address\n     * @param _totalTokens The total number of tokens to sell in crowdsale \n     * @param _startTime Crowdsale start time  \n     * @param _endTime Crowdsale end time\n     * @param _rate Number of token units a buyer gets per wei or token\n     * @param _goal Minimum amount of funds to be raised in weis or tokens\n     * @param _wallet Address where collected funds will be forwarded to\n   \n     */\n    function initCrowdsale(\n        address _funder,\n        address _token,\n        address _paymentCurrency,\n        uint256 _totalTokens,\n        uint256 _startTime,\n        uint256 _endTime,\n        uint256 _rate,\n        uint256 _goal,\n        address payable _wallet\n    ) external {\n        require(!initialized, \"Crowdsale: already initialized\"); \n        require(_startTime >= block.timestamp, \"Crowdsale: start time is before current time\");\n        require(_endTime > _startTime, \"Crowdsale: start time is not before end time\");\n        require(_rate > 0, \"Crowdsale: rate is 0\");\n        require(_wallet != address(0), \"Crowdsale: wallet is the zero address\");\n        require(_token != address(0), \"Crowdsale: token is the zero address\");\n        require(_totalTokens > 0, \"Crowdsale: total tokens is 0\");\n        require(_goal > 0, \"Crowdsale: goal is 0\");\n\n        token = _token;\n        startTime = _startTime;\n        endTime = _endTime;\n        rate = _rate;\n        wallet = _wallet;\n        paymentCurrency = _paymentCurrency;\n        token = _token;\n        goal = _goal;\n\n        require(_getTokenAmount(_goal) <= _totalTokens, \"Crowdsale: goal should be equal to or lower than total tokens or equal\");\n        \n        _safeTransferFrom(_token, _funder, _totalTokens);\n        initialized = true;\n        finalized = false;\n    }\n\n    /**\n     * @dev low level token purchase with ETH ***DO NOT OVERRIDE***\n     * This function has a non-reentrancy guard, so it shouldn't be called by\n     * another `nonReentrant` function.\n     * @param _beneficiary Recipient of the token purchase\n     */\n    function buyTokensEth(address _beneficiary) public payable /* nonReentrant */  {\n        require(paymentCurrency == ETH_ADDRESS, \"Crowdsale: payment currency is not ETH\"); \n        _preValidatePurchase(_beneficiary, msg.value);\n        _processBuy(_beneficiary, msg.value);\n    }\n\n    /**\n     * @dev low level token purchase with a token ***DO NOT OVERRIDE***\n     * This function has a non-reentrancy guard, so it shouldn't be called by\n     * another `nonReentrant` function.\n     * @param _beneficiary Recipient of the token purchase\n     * @param _tokenAmount Value in wei or token involved in the purchase\n     */\n    function buyTokens(address _beneficiary, uint256 _tokenAmount) public /* nonReentrant */ {\n        require(paymentCurrency != ETH_ADDRESS, \"Crowdsale: payment currency is not token\");\n        _preValidatePurchase(_beneficiary, _tokenAmount);\n        _safeTransferFrom(paymentCurrency, msg.sender, _tokenAmount);\n        _processBuy(_beneficiary, _tokenAmount);\n    }\n\n    /**\n     * @param beneficiary Recipient of the token purchase\n     * @param amount Value in wei or token involved in the purchase\n     */ \n    function _processBuy(address beneficiary, uint256 amount) internal {\n        // calculate token amount to be created\n        uint256 tokens = _getTokenAmount(amount);\n        balances[beneficiary] = balances[beneficiary].add(tokens);\n\n        // update state\n        amountRaised = amountRaised.add(amount);\n\n        emit TokensPurchased(_msgSender(), beneficiary, amount, tokens);\n\n    }\n\n    /**\n     * @dev Validation of an incoming purchase.\n     * @param beneficiary Address performing the token purchase\n     * @param amount Value in wei or token involved in the purchase\n     */\n    function _preValidatePurchase(address beneficiary, uint256 amount)\n        internal\n        view\n    {\n        require(isOpen(), \"TimedCrowdsale: not open\");\n        require(beneficiary != address(0), \"Crowdsale: beneficiary is the zero address\");\n        require(amount != 0, \"Crowdsale: amount is 0\");\n        uint256 totalTokens = IERC20(token).balanceOf(address(this));\n        require(_getTokenAmount(amountRaised.add(amount)) <= totalTokens, \"Crowdsale: amount of tokens exceeded\");\n        this; // silence state mutability warning without generating bytecode - see https://github.com/ethereum/solidity/issues/2691\n    }\n\n    /**\n     * @dev Source of tokens. Override this method to modify the way in which the crowdsale ultimately gets and sends\n     * its tokens.\n     * @param beneficiary Recipient of the token purchase\n     * @param tokenAmount Number of tokens to be emitted\n     */\n    function _deliverTokens(address beneficiary, uint256 tokenAmount) internal {\n        _safeTransfer(token, beneficiary, tokenAmount);\n    }\n\n    /**\n     * @dev Executed when a purchase has been validated and is ready to be executed.\n     * @param beneficiary Address receiving the tokens\n     * @param tokenAmount Number of tokens to be purchased\n     */\n    function _processPurchase(address beneficiary, uint256 tokenAmount)\n        internal\n    {\n        _deliverTokens(beneficiary, tokenAmount);\n    }\n\n    /**\n     * @dev Withdraw tokens only after crowdsale ends.\n     * @param beneficiary Whose tokens will be withdrawn.\n     */\n    // GP: Think about moving to a safe transfer that considers the dust for the last withdraw\n    function withdrawTokens(address payable beneficiary) public /* nonReentrant */ {\n        require(hasClosed(), \"Crowdsale: not closed\");\n        \n        uint256 claimerBalance = balances[beneficiary];\n        require(claimerBalance > 0, \"Crowdsale: claimer balance is 0\");\n\n        if(goalReached()) {\n            uint256 tokenAmount =  claimerBalance;\n            // GP: Keep track of tokens delivered/withdrawn\n            _deliverTokens(beneficiary, tokenAmount);\n        } else {\n            uint256 claimAmount = claimerBalance.div(rate);\n            beneficiary.transfer(claimAmount);\n        }\n        balances[beneficiary] = 0;\n    }\n\n\n    /**\n     * @dev Must be called after crowdsale ends, to do some extra finalization\n     * work. Calls the contracts finalization function.\n     */\n    function finalize() public {\n\n        require(!finalized, \"Crowdsale: already finalized\");\n        require(hasClosed(), \"Crowdsale: not closed\");\n        // GP: The balance can decrease on withdraw, this affects the amount unsold\n        // GP: Need to add counter for tokensClaimed and recalc unsoldTokens\n        uint256 unsoldTokens = IERC20(token).balanceOf(address(this));\n        // GP: Check if the amount weiRaised() not reached, if the funds are able to be refunded\n        if(goalReached()) {\n            _forwardFunds();\n            uint256 soldTokens = _getTokenAmount(amountRaised);\n            unsoldTokens = unsoldTokens.sub(soldTokens);\n        }\n\n        if(unsoldTokens > 0) {\n            _deliverTokens(wallet, unsoldTokens);\n        }\n\n        finalized = true;\n\n        emit CrowdsaleFinalized();\n    }\n\n\n    /**\n     * @dev Override to extend the way in which ether is converted to tokens.\n     * @param amount Value in wei or token to be converted into tokens\n     * @return Number of tokens that can be purchased with the specified amount\n     */\n    function _getTokenAmount(uint256 amount)\n        internal\n        view\n        returns (uint256)\n    {\n        return amount.mul(rate);\n    }\n\n    /**\n     * @dev Determines how ETH is stored/forwarded on purchases.\n     */\n    function _forwardFunds() internal {\n        wallet.transfer(address(this).balance);\n    }\n\n    /**\n     * @dev\n     * Note that other contracts will transfer funds with a base gas stipend\n     * of 2300, which is not enough to call buyTokens. Consider calling\n     * buyTokens directly when purchasing tokens from a contract.\n     */\n    receive() external payable {\n        buyTokensEth(_msgSender());\n    }\n\n    /**\n     * @return the balance of an account.\n     */\n    function balanceOf(address account) public view returns (uint256) {\n        return balances[account];\n    }\n\n    /**\n     * @return true if the crowdsale is open, false otherwise.\n     */\n    function isOpen() public view returns (bool) {\n        return block.timestamp >= startTime && block.timestamp <= endTime;\n    }\n\n    /**\n     * @dev Checks whether funding goal was reached.\n     * @return Whether funding goal was reached\n     */\n    function goalReached() public view returns (bool) {\n        return amountRaised >= goal;\n    }\n\n    /**\n     * @dev Checks whether the period in which the crowdsale is open has already elapsed.\n     * @return Whether crowdsale period has elapsed\n     */\n    function hasClosed() public view returns (bool) {\n        return block.timestamp > endTime;\n    }\n\n\n    //--------------------------------------------------------\n    // Helper Functions\n    //--------------------------------------------------------\n    /**\n     * @dev There are many non-compliant ERC20 tokens... this can handle most, adapted from UniSwap V2\n     * @dev Im trying to make it a habit to put external calls last (reentrancy)\n     * @dev You can put this in an internal function if you like.\n    */\n    function _safeTransfer(address _token, address _to, uint256 _amount) internal {\n        // solium-disable-next-line security/no-low-level-calls\n        (bool success, bytes memory data) = _token.call(\n            // 0xa9059cbb = bytes4(keccak256(\"transfer(address,uint256)\"))\n            abi.encodeWithSelector(0xa9059cbb, _to, _amount)\n        );\n        require(success && (data.length == 0 || abi.decode(data, (bool)))); // ERC20 Transfer failed \n    }\n\n\n    function _safeTransferFrom(address _token, address _from, uint256 _amount) internal {\n        // solium-disable-next-line security/no-low-level-calls\n        (bool success, bytes memory data) = _token.call(\n            // 0x23b872dd = bytes4(keccak256(\"transferFrom(address,address,uint256)\"))\n            abi.encodeWithSelector(0x23b872dd, _from, address(this), _amount)\n        );\n        require(success && (data.length == 0 || abi.decode(data, (bool)))); // ERC20 TransferFrom failed \n    }\n}",
  "sourcePath": "contracts/Auctions/Crowdsale.sol",
  "type": "contract"
}