{
  "abi": [
    {
      "anonymous": false,
      "inputs": [
        {
          "indexed": false,
          "internalType": "address",
          "name": "addr",
          "type": "address"
        },
        {
          "indexed": false,
          "internalType": "uint256",
          "name": "commitment",
          "type": "uint256"
        }
      ],
      "name": "AddedCommitment",
      "type": "event"
    },
    {
      "inputs": [],
      "name": "auctionEnded",
      "outputs": [
        {
          "internalType": "bool",
          "name": "",
          "type": "bool"
        }
      ],
      "stateMutability": "view",
      "type": "function"
    },
    {
      "inputs": [],
      "name": "auctionSuccessful",
      "outputs": [
        {
          "internalType": "bool",
          "name": "",
          "type": "bool"
        }
      ],
      "stateMutability": "view",
      "type": "function"
    },
    {
      "inputs": [],
      "name": "auctionToken",
      "outputs": [
        {
          "internalType": "address",
          "name": "",
          "type": "address"
        }
      ],
      "stateMutability": "view",
      "type": "function"
    },
    {
      "inputs": [
        {
          "internalType": "uint256",
          "name": "_commitment",
          "type": "uint256"
        }
      ],
      "name": "calculateCommitment",
      "outputs": [
        {
          "internalType": "uint256",
          "name": "committed",
          "type": "uint256"
        }
      ],
      "stateMutability": "view",
      "type": "function"
    },
    {
      "inputs": [
        {
          "internalType": "address",
          "name": "",
          "type": "address"
        }
      ],
      "name": "claimed",
      "outputs": [
        {
          "internalType": "uint256",
          "name": "",
          "type": "uint256"
        }
      ],
      "stateMutability": "view",
      "type": "function"
    },
    {
      "inputs": [],
      "name": "clearingPrice",
      "outputs": [
        {
          "internalType": "uint256",
          "name": "",
          "type": "uint256"
        }
      ],
      "stateMutability": "view",
      "type": "function"
    },
    {
      "inputs": [
        {
          "internalType": "address payable",
          "name": "_from",
          "type": "address"
        }
      ],
      "name": "commitEth",
      "outputs": [],
      "stateMutability": "payable",
      "type": "function"
    },
    {
      "inputs": [
        {
          "internalType": "uint256",
          "name": "_amount",
          "type": "uint256"
        }
      ],
      "name": "commitTokens",
      "outputs": [],
      "stateMutability": "nonpayable",
      "type": "function"
    },
    {
      "inputs": [
        {
          "internalType": "address",
          "name": "_from",
          "type": "address"
        },
        {
          "internalType": "uint256",
          "name": "_amount",
          "type": "uint256"
        }
      ],
      "name": "commitTokensFrom",
      "outputs": [],
      "stateMutability": "nonpayable",
      "type": "function"
    },
    {
      "inputs": [
        {
          "internalType": "address",
          "name": "",
          "type": "address"
        }
      ],
      "name": "commitments",
      "outputs": [
        {
          "internalType": "uint256",
          "name": "",
          "type": "uint256"
        }
      ],
      "stateMutability": "view",
      "type": "function"
    },
    {
      "inputs": [],
      "name": "commitmentsTotal",
      "outputs": [
        {
          "internalType": "uint256",
          "name": "",
          "type": "uint256"
        }
      ],
      "stateMutability": "view",
      "type": "function"
    },
    {
      "inputs": [],
      "name": "endTime",
      "outputs": [
        {
          "internalType": "uint256",
          "name": "",
          "type": "uint256"
        }
      ],
      "stateMutability": "view",
      "type": "function"
    },
    {
      "inputs": [],
      "name": "finalizeAuction",
      "outputs": [],
      "stateMutability": "nonpayable",
      "type": "function"
    },
    {
      "inputs": [],
      "name": "finalized",
      "outputs": [
        {
          "internalType": "bool",
          "name": "",
          "type": "bool"
        }
      ],
      "stateMutability": "view",
      "type": "function"
    },
    {
      "inputs": [
        {
          "internalType": "address",
          "name": "_funder",
          "type": "address"
        },
        {
          "internalType": "address",
          "name": "_token",
          "type": "address"
        },
        {
          "internalType": "uint256",
          "name": "_totalTokens",
          "type": "uint256"
        },
        {
          "internalType": "uint256",
          "name": "_startTime",
          "type": "uint256"
        },
        {
          "internalType": "uint256",
          "name": "_endTime",
          "type": "uint256"
        },
        {
          "internalType": "address",
          "name": "_paymentCurrency",
          "type": "address"
        },
        {
          "internalType": "uint256",
          "name": "_startPrice",
          "type": "uint256"
        },
        {
          "internalType": "uint256",
          "name": "_minimumPrice",
          "type": "uint256"
        },
        {
          "internalType": "address payable",
          "name": "_wallet",
          "type": "address"
        }
      ],
      "name": "initAuction",
      "outputs": [],
      "stateMutability": "nonpayable",
      "type": "function"
    },
    {
      "inputs": [],
      "name": "marketTemplate",
      "outputs": [
        {
          "internalType": "uint256",
          "name": "",
          "type": "uint256"
        }
      ],
      "stateMutability": "view",
      "type": "function"
    },
    {
      "inputs": [],
      "name": "minimumPrice",
      "outputs": [
        {
          "internalType": "uint256",
          "name": "",
          "type": "uint256"
        }
      ],
      "stateMutability": "view",
      "type": "function"
    },
    {
      "inputs": [],
      "name": "paymentCurrency",
      "outputs": [
        {
          "internalType": "address",
          "name": "",
          "type": "address"
        }
      ],
      "stateMutability": "view",
      "type": "function"
    },
    {
      "inputs": [],
      "name": "priceDrop",
      "outputs": [
        {
          "internalType": "uint256",
          "name": "",
          "type": "uint256"
        }
      ],
      "stateMutability": "view",
      "type": "function"
    },
    {
      "inputs": [],
      "name": "priceFunction",
      "outputs": [
        {
          "internalType": "uint256",
          "name": "",
          "type": "uint256"
        }
      ],
      "stateMutability": "view",
      "type": "function"
    },
    {
      "inputs": [],
      "name": "startPrice",
      "outputs": [
        {
          "internalType": "uint256",
          "name": "",
          "type": "uint256"
        }
      ],
      "stateMutability": "view",
      "type": "function"
    },
    {
      "inputs": [],
      "name": "startTime",
      "outputs": [
        {
          "internalType": "uint256",
          "name": "",
          "type": "uint256"
        }
      ],
      "stateMutability": "view",
      "type": "function"
    },
    {
      "inputs": [],
      "name": "tokenPrice",
      "outputs": [
        {
          "internalType": "uint256",
          "name": "",
          "type": "uint256"
        }
      ],
      "stateMutability": "view",
      "type": "function"
    },
    {
      "inputs": [
        {
          "internalType": "address",
          "name": "_user",
          "type": "address"
        }
      ],
      "name": "tokensClaimable",
      "outputs": [
        {
          "internalType": "uint256",
          "name": "",
          "type": "uint256"
        }
      ],
      "stateMutability": "view",
      "type": "function"
    },
    {
      "inputs": [],
      "name": "totalTokens",
      "outputs": [
        {
          "internalType": "uint256",
          "name": "",
          "type": "uint256"
        }
      ],
      "stateMutability": "view",
      "type": "function"
    },
    {
      "inputs": [],
      "name": "totalTokensCommitted",
      "outputs": [
        {
          "internalType": "uint256",
          "name": "",
          "type": "uint256"
        }
      ],
      "stateMutability": "view",
      "type": "function"
    },
    {
      "inputs": [],
      "name": "wallet",
      "outputs": [
        {
          "internalType": "address payable",
          "name": "",
          "type": "address"
        }
      ],
      "stateMutability": "view",
      "type": "function"
    },
    {
      "inputs": [],
      "name": "withdrawTokens",
      "outputs": [],
      "stateMutability": "nonpayable",
      "type": "function"
    },
    {
      "stateMutability": "payable",
      "type": "receive"
    }
  ],
  "bytecode": "608060405234801561001057600080fd5b50611451806100206000396000f3fe6080604052600436106101bb5760003560e01c80637f386b6c116100ec578063b3f05b971161008a578063d7568b6e11610064578063d7568b6e146104fd578063e8fcf72314610512578063f1a9af8914610545578063f77282ab1461055a576101cb565b8063b3f05b971461048f578063c884ef83146104a4578063cc30cdf7146104d7576101cb565b80638d8f2adb116100c65780638d8f2adb1461043b578063919e93b51461045057806399fdb32014610465578063a9d87ee61461047a576101cb565b80637f386b6c146103fc5780637ff9b596146104115780638643337414610426576101cb565b80634646783911610159578063521eb27311610133578063521eb2731461039357806373973fcb146103a857806378e97925146103d25780637e1c0c09146103e7576101cb565b806346467839146102ba5780634ce5505f146102f35780634dc80e1514610360576101cb565b80633197cbb6116101955780633197cbb61461023657806332a0f2d71461024b57806336d0054b146102605780633d15cc6d14610289576101cb565b80630482a787146101d05780631b3e460e146101fa57806323bb46b614610221576101cb565b366101cb576101c93361056f565b005b600080fd5b3480156101dc57600080fd5b506101c9600480360360208110156101f357600080fd5b503561063a565b34801561020657600080fd5b5061020f610647565b60408051918252519081900360200190f35b34801561022d57600080fd5b5061020f61064c565b34801561024257600080fd5b5061020f610652565b34801561025757600080fd5b5061020f610658565b34801561026c57600080fd5b5061027561068d565b604080519115158252519081900360200190f35b34801561029557600080fd5b5061029e6106c7565b604080516001600160a01b039092168252519081900360200190f35b3480156102c657600080fd5b506101c9600480360360408110156102dd57600080fd5b506001600160a01b0381351690602001356106d6565b3480156102ff57600080fd5b506101c9600480360361012081101561031757600080fd5b506001600160a01b038135811691602081013582169160408201359160608101359160808201359160a081013582169160c08201359160e0810135916101009091013516610768565b34801561036c57600080fd5b5061020f6004803603602081101561038357600080fd5b50356001600160a01b031661093a565b34801561039f57600080fd5b5061029e61099a565b3480156103b457600080fd5b5061020f600480360360208110156103cb57600080fd5b50356109a9565b3480156103de57600080fd5b5061020f610a07565b3480156103f357600080fd5b5061020f610a0d565b34801561040857600080fd5b5061020f610a13565b34801561041d57600080fd5b5061020f610a19565b34801561043257600080fd5b50610275610a3e565b34801561044757600080fd5b506101c9610a57565b34801561045c57600080fd5b5061020f610b6b565b34801561047157600080fd5b5061029e610b8d565b34801561048657600080fd5b5061020f610ba2565b34801561049b57600080fd5b50610275610c00565b3480156104b057600080fd5b5061020f600480360360208110156104c757600080fd5b50356001600160a01b0316610c0e565b6101c9600480360360208110156104ed57600080fd5b50356001600160a01b031661056f565b34801561050957600080fd5b5061020f610c20565b34801561051e57600080fd5b5061020f6004803603602081101561053557600080fd5b50356001600160a01b0316610c26565b34801561055157600080fd5b5061020f610c38565b34801561056657600080fd5b506101c9610c3e565b6008546001600160a01b031673eeeeeeeeeeeeeeeeeeeeeeeeeeeeeeeeeeeeeeee146105cc5760405162461bcd60e51b815260040180806020018281038252603181526020018061138d6031913960400191505060405180910390fd5b60006105d7346109a9565b905060006105e53483610d2e565b905081156105f7576105f78383610d79565b8015610635576040516001600160a01b0384169082156108fc029083906000818181858888f19350505050158015610633573d6000803e3d6000fd5b505b505050565b61064433826106d6565b50565b600281565b60065481565b60015481565b6000610662610ba2565b61066a610a19565b111561067f57610678610a19565b905061068a565b610687610ba2565b90505b90565b6000610697610658565b6106c06004546106ba670de0b6b3a7640000600654610e5c90919063ffffffff16565b90610eb5565b1015905090565b6008546001600160a01b031681565b6008546001600160a01b031673eeeeeeeeeeeeeeeeeeeeeeeeeeeeeeeeeeeeeeee14156107345760405162461bcd60e51b815260040180806020018281038252602d81526020018061125e602d913960400191505060405180910390fd5b600061073f826109a9565b905080156106355760085461075e906001600160a01b03168484610ef7565b6106358382610d79565b60075460ff16156107aa5760405162461bcd60e51b81526004018080602001828103825260298152602001806113f36029913960400191505060405180910390fd5b8585116107e85760405162461bcd60e51b81526004018080602001828103825260358152602001806113be6035913960400191505060405180910390fd5b8183116108265760405162461bcd60e51b815260040180806020018281038252603b8152602001806112bd603b913960400191505060405180910390fd5b600082116108655760405162461bcd60e51b815260040180806020018281038252603281526020018061128b6032913960400191505060405180910390fd5b600780546001600160a01b03808b16620100000262010000600160b01b031990921691909117909155600880548683166001600160a01b0319918216179091556004899055600088815560018890556002869055600385905560098054938516939092169290921790556108d98484610d2e565b905060006108f4600054600154610d2e90919063ffffffff16565b90506109008282610eb5565b600555600754610920906201000090046001600160a01b03168c8b610ef7565b50506007805460ff19166001179055505050505050505050565b600080610973610948610658565b6001600160a01b0385166000908152600a60205260409020546106ba90670de0b6b3a7640000610e5c565b336000908152600b6020526040902054909150610991908290610d2e565b9150505b919050565b6009546001600160a01b031681565b6000806109cc670de0b6b3a76400006106ba6109c3610658565b60045490610e5c565b9050806109e48460065461101f90919063ffffffff16565b1115610a00576006546109f8908290610d2e565b915050610995565b5090919050565b60005481565b60045481565b60035481565b60006106876004546106ba670de0b6b3a7640000600654610e5c90919063ffffffff16565b6000610a4861068d565b80610687575050600154421190565b610a5f61068d565b15610afc576000610a6f3361093a565b905060008111610ac6576040805162461bcd60e51b815260206004820181905260248201527f447574636841756374696f6e3a204e6f20746f6b656e7320746f20636c61696d604482015290519081900360640190fd5b336000818152600b60205260409020829055600754610af691620100009091046001600160a01b03169083611079565b50610b69565b6001544211610b3c5760405162461bcd60e51b815260040180806020018281038252602a8152602001806112f8602a913960400191505060405180910390fd5b336000818152600a6020526040812080549190556008549091610644916001600160a01b03169083611079565b565b6000610687610b78610658565b6006546106ba90670de0b6b3a7640000610e5c565b6007546201000090046001600160a01b031681565b600080544211610bb5575060025461068a565b6001544210610bc7575060035461068a565b6000610bea600554610be460005442610d2e90919063ffffffff16565b90610e5c565b600254909150610bfa9082610d2e565b91505090565b600754610100900460ff1681565b600b6020526000908152604090205481565b60055481565b600a6020526000908152604090205481565b60025481565b600754610100900460ff1615610c855760405162461bcd60e51b81526004018080602001828103825260278152602001806113226027913960400191505060405180910390fd5b610c8d61068d565b15610cb757600854600954600654610cb2926001600160a01b03908116921690611079565b610d1d565b6001544211610cf75760405162461bcd60e51b815260040180806020018281038252602a8152602001806112f8602a913960400191505060405180910390fd5b600754600954600454610d1d926001600160a01b03620100009091048116921690611079565b6007805461ff001916610100179055565b6000610d7083836040518060400160405280601e81526020017f536166654d6174683a207375627472616374696f6e206f766572666c6f7700008152506110e5565b90505b92915050565b6000544210158015610d8d57506001544211155b610dc85760405162461bcd60e51b81526004018080602001828103825260238152602001806113496023913960400191505060405180910390fd5b6001600160a01b0382166000908152600a6020526040902054610deb908261101f565b6001600160a01b0383166000908152600a6020526040902055600654610e11908261101f565b600655604080516001600160a01b03841681526020810183905281517f077511a636ba1f10551cc7b89c13ff66a6ac9344e8a917527817a9690b15af7a929181900390910190a15050565b600082610e6b57506000610d73565b82820282848281610e7857fe5b0414610d705760405162461bcd60e51b815260040180806020018281038252602181526020018061136c6021913960400191505060405180910390fd5b6000610d7083836040518060400160405280601a81526020017f536166654d6174683a206469766973696f6e206279207a65726f00000000000081525061117c565b604080516001600160a01b038481166024830152306044830152606480830185905283518084039091018152608490920183526020820180516001600160e01b03166323b872dd60e01b178152925182516000946060949389169392918291908083835b60208310610f7a5780518252601f199092019160209182019101610f5b565b6001836020036101000a0380198251168184511680821785525050505050509050019150506000604051808303816000865af19150503d8060008114610fdc576040519150601f19603f3d011682016040523d82523d6000602084013e610fe1565b606091505b509150915081801561100f57508051158061100f575080806020019051602081101561100c57600080fd5b50515b61101857600080fd5b5050505050565b600082820183811015610d70576040805162461bcd60e51b815260206004820152601b60248201527f536166654d6174683a206164646974696f6e206f766572666c6f770000000000604482015290519081900360640190fd5b6001600160a01b03831673eeeeeeeeeeeeeeeeeeeeeeeeeeeeeeeeeeeeeeee14156110da576040516001600160a01b0383169082156108fc029083906000818181858888f193505050501580156110d4573d6000803e3d6000fd5b50610635565b6106358383836111e1565b600081848411156111745760405162461bcd60e51b81526004018080602001828103825283818151815260200191508051906020019080838360005b83811015611139578181015183820152602001611121565b50505050905090810190601f1680156111665780820380516001836020036101000a031916815260200191505b509250505060405180910390fd5b505050900390565b600081836111cb5760405162461bcd60e51b8152602060048201818152835160248401528351909283926044909101919085019080838360008315611139578181015183820152602001611121565b5060008385816111d757fe5b0495945050505050565b604080516001600160a01b038481166024830152604480830185905283518084039091018152606490920183526020820180516001600160e01b031663a9059cbb60e01b1781529251825160009460609493891693929182919080838360208310610f7a5780518252601f199092019160209182019101610f5b56fe447574636841756374696f6e3a205061796d656e742063757272656e6379206973206e6f74206120746f6b656e447574636841756374696f6e3a204d696e696d756d207072696365206d7573742062652067726561746572207468616e2030447574636841756374696f6e3a205374617274207072696365206d75737420626520686967686572207468616e206d696e696d756d207072696365447574636841756374696f6e3a2041756374696f6e20686173206e6f742066696e697368656420796574447574636841756374696f6e3a2041756374696f6e20616c72656164792066696e616c697a6564447574636841756374696f6e3a204f7574736964652061756374696f6e20686f757273536166654d6174683a206d756c7469706c69636174696f6e206f766572666c6f77447574636841756374696f6e3a205061796d656e742063757272656e6379206973206e6f74204554482061646472657373447574636841756374696f6e3a20456e642074696d65206d757374206265206f6c646572207468616e207374617274207072696365447574636841756374696f6e3a2041756374696f6e20616c726561647920696e697469616c697a6564a26469706673582212206edec0d03f06f3167d0f9ae096270293a0f47000c14b9dc11532c5927c01dfb864736f6c634300060c0033",
  "bytecodeSha1": "07cea1f2e41938407da1bafa77feb0041de020b9",
  "compiler": {
    "evm_version": "istanbul",
    "optimizer": {
      "enabled": true,
      "runs": 200
    },
    "version": "0.6.12+commit.27d51765"
  },
  "contractName": "DutchAuction",
  "language": "Solidity",
  "natspec": {
    "kind": "dev",
    "methods": {
      "auctionEnded()": {
        "notice": "Returns bool if successful or time has ended"
      },
      "auctionSuccessful()": {
        "notice": "Successful if tokens sold equals totalTokens"
      },
      "calculateCommitment(uint256)": {
        "notice": "Returns the amout able to be committed during an auction"
      },
      "clearingPrice()": {
        "notice": "The current clearing price of the Dutch auction"
      },
      "commitEth(address)": {
        "notice": "Commit ETH to buy tokens on sale"
      },
      "commitTokens(uint256)": {
        "notice": "Commit approved ERC20 tokens to buy tokens on sale"
      },
      "commitTokensFrom(address,uint256)": {
        "details": "Users must approve contract prior to committing tokens to auction"
      },
      "finalizeAuction()": {
        "details": "Transfer contract funds to initialized wallet.",
        "notice": "Auction finishes successfully above the reserve"
      },
      "initAuction(address,address,uint256,uint256,uint256,address,uint256,uint256,address)": {
        "details": "Init function",
        "params": {
          "_endTime": "Auction end time",
          "_funder": "The address that funds the token for crowdsale",
          "_minimumPrice": "The minimum auction price",
          "_paymentCurrency": "The currency the crowdsale accepts for payment. Can be ETH or token address",
          "_startPrice": "Starting price of the auction",
          "_startTime": "Auction start time",
          "_token": "Address of the token being sold",
          "_totalTokens": "The total number of tokens to sell in auction",
          "_wallet": "Address where collected funds will be forwarded to"
        }
      },
      "priceFunction()": {
        "notice": "Returns price during the auction"
      },
      "tokenPrice()": {
        "notice": "The average price of each token from all commitments."
      },
      "tokensClaimable(address)": {
        "notice": "How many tokens the user is able to claim"
      },
      "totalTokensCommitted()": {
        "notice": "Total amount of tokens committed at current auction price"
      },
      "withdrawTokens()": {
        "notice": "Withdraw your tokens once the Auction has ended."
      }
    },
    "stateVariables": {
      "ETH_ADDRESS": {
        "details": "The placeholder ETH address."
      }
    },
    "version": 1
  },
  "opcodes": "PUSH1 0x80 PUSH1 0x40 MSTORE PUSH1 0x4 CALLDATASIZE LT PUSH2 0x1BB JUMPI PUSH1 0x0 CALLDATALOAD PUSH1 0xE0 SHR DUP1 PUSH4 0x7F386B6C GT PUSH2 0xEC JUMPI DUP1 PUSH4 0xB3F05B97 GT PUSH2 0x8A JUMPI DUP1 PUSH4 0xD7568B6E GT PUSH2 0x64 JUMPI DUP1 PUSH4 0xD7568B6E EQ PUSH2 0x4FD JUMPI DUP1 PUSH4 0xE8FCF723 EQ PUSH2 0x512 JUMPI DUP1 PUSH4 0xF1A9AF89 EQ PUSH2 0x545 JUMPI DUP1 PUSH4 0xF77282AB EQ PUSH2 0x55A JUMPI PUSH2 0x1CB JUMP JUMPDEST DUP1 PUSH4 0xB3F05B97 EQ PUSH2 0x48F JUMPI DUP1 PUSH4 0xC884EF83 EQ PUSH2 0x4A4 JUMPI DUP1 PUSH4 0xCC30CDF7 EQ PUSH2 0x4D7 JUMPI PUSH2 0x1CB JUMP JUMPDEST DUP1 PUSH4 0x8D8F2ADB GT PUSH2 0xC6 JUMPI DUP1 PUSH4 0x8D8F2ADB EQ PUSH2 0x43B JUMPI DUP1 PUSH4 0x919E93B5 EQ PUSH2 0x450 JUMPI DUP1 PUSH4 0x99FDB320 EQ PUSH2 0x465 JUMPI DUP1 PUSH4 0xA9D87EE6 EQ PUSH2 0x47A JUMPI PUSH2 0x1CB JUMP JUMPDEST DUP1 PUSH4 0x7F386B6C EQ PUSH2 0x3FC JUMPI DUP1 PUSH4 0x7FF9B596 EQ PUSH2 0x411 JUMPI DUP1 PUSH4 0x86433374 EQ PUSH2 0x426 JUMPI PUSH2 0x1CB JUMP JUMPDEST DUP1 PUSH4 0x46467839 GT PUSH2 0x159 JUMPI DUP1 PUSH4 0x521EB273 GT PUSH2 0x133 JUMPI DUP1 PUSH4 0x521EB273 EQ PUSH2 0x393 JUMPI DUP1 PUSH4 0x73973FCB EQ PUSH2 0x3A8 JUMPI DUP1 PUSH4 0x78E97925 EQ PUSH2 0x3D2 JUMPI DUP1 PUSH4 0x7E1C0C09 EQ PUSH2 0x3E7 JUMPI PUSH2 0x1CB JUMP JUMPDEST DUP1 PUSH4 0x46467839 EQ PUSH2 0x2BA JUMPI DUP1 PUSH4 0x4CE5505F EQ PUSH2 0x2F3 JUMPI DUP1 PUSH4 0x4DC80E15 EQ PUSH2 0x360 JUMPI PUSH2 0x1CB JUMP JUMPDEST DUP1 PUSH4 0x3197CBB6 GT PUSH2 0x195 JUMPI DUP1 PUSH4 0x3197CBB6 EQ PUSH2 0x236 JUMPI DUP1 PUSH4 0x32A0F2D7 EQ PUSH2 0x24B JUMPI DUP1 PUSH4 0x36D0054B EQ PUSH2 0x260 JUMPI DUP1 PUSH4 0x3D15CC6D EQ PUSH2 0x289 JUMPI PUSH2 0x1CB JUMP JUMPDEST DUP1 PUSH4 0x482A787 EQ PUSH2 0x1D0 JUMPI DUP1 PUSH4 0x1B3E460E EQ PUSH2 0x1FA JUMPI DUP1 PUSH4 0x23BB46B6 EQ PUSH2 0x221 JUMPI PUSH2 0x1CB JUMP JUMPDEST CALLDATASIZE PUSH2 0x1CB JUMPI PUSH2 0x1C9 CALLER PUSH2 0x56F JUMP JUMPDEST STOP JUMPDEST PUSH1 0x0 DUP1 REVERT JUMPDEST CALLVALUE DUP1 ISZERO PUSH2 0x1DC JUMPI PUSH1 0x0 DUP1 REVERT JUMPDEST POP PUSH2 0x1C9 PUSH1 0x4 DUP1 CALLDATASIZE SUB PUSH1 0x20 DUP2 LT ISZERO PUSH2 0x1F3 JUMPI PUSH1 0x0 DUP1 REVERT JUMPDEST POP CALLDATALOAD PUSH2 0x63A JUMP JUMPDEST CALLVALUE DUP1 ISZERO PUSH2 0x206 JUMPI PUSH1 0x0 DUP1 REVERT JUMPDEST POP PUSH2 0x20F PUSH2 0x647 JUMP JUMPDEST PUSH1 0x40 DUP1 MLOAD SWAP2 DUP3 MSTORE MLOAD SWAP1 DUP2 SWAP1 SUB PUSH1 0x20 ADD SWAP1 RETURN JUMPDEST CALLVALUE DUP1 ISZERO PUSH2 0x22D JUMPI PUSH1 0x0 DUP1 REVERT JUMPDEST POP PUSH2 0x20F PUSH2 0x64C JUMP JUMPDEST CALLVALUE DUP1 ISZERO PUSH2 0x242 JUMPI PUSH1 0x0 DUP1 REVERT JUMPDEST POP PUSH2 0x20F PUSH2 0x652 JUMP JUMPDEST CALLVALUE DUP1 ISZERO PUSH2 0x257 JUMPI PUSH1 0x0 DUP1 REVERT JUMPDEST POP PUSH2 0x20F PUSH2 0x658 JUMP JUMPDEST CALLVALUE DUP1 ISZERO PUSH2 0x26C JUMPI PUSH1 0x0 DUP1 REVERT JUMPDEST POP PUSH2 0x275 PUSH2 0x68D JUMP JUMPDEST PUSH1 0x40 DUP1 MLOAD SWAP2 ISZERO ISZERO DUP3 MSTORE MLOAD SWAP1 DUP2 SWAP1 SUB PUSH1 0x20 ADD SWAP1 RETURN JUMPDEST CALLVALUE DUP1 ISZERO PUSH2 0x295 JUMPI PUSH1 0x0 DUP1 REVERT JUMPDEST POP PUSH2 0x29E PUSH2 0x6C7 JUMP JUMPDEST PUSH1 0x40 DUP1 MLOAD PUSH1 0x1 PUSH1 0x1 PUSH1 0xA0 SHL SUB SWAP1 SWAP3 AND DUP3 MSTORE MLOAD SWAP1 DUP2 SWAP1 SUB PUSH1 0x20 ADD SWAP1 RETURN JUMPDEST CALLVALUE DUP1 ISZERO PUSH2 0x2C6 JUMPI PUSH1 0x0 DUP1 REVERT JUMPDEST POP PUSH2 0x1C9 PUSH1 0x4 DUP1 CALLDATASIZE SUB PUSH1 0x40 DUP2 LT ISZERO PUSH2 0x2DD JUMPI PUSH1 0x0 DUP1 REVERT JUMPDEST POP PUSH1 0x1 PUSH1 0x1 PUSH1 0xA0 SHL SUB DUP2 CALLDATALOAD AND SWAP1 PUSH1 0x20 ADD CALLDATALOAD PUSH2 0x6D6 JUMP JUMPDEST CALLVALUE DUP1 ISZERO PUSH2 0x2FF JUMPI PUSH1 0x0 DUP1 REVERT JUMPDEST POP PUSH2 0x1C9 PUSH1 0x4 DUP1 CALLDATASIZE SUB PUSH2 0x120 DUP2 LT ISZERO PUSH2 0x317 JUMPI PUSH1 0x0 DUP1 REVERT JUMPDEST POP PUSH1 0x1 PUSH1 0x1 PUSH1 0xA0 SHL SUB DUP2 CALLDATALOAD DUP2 AND SWAP2 PUSH1 0x20 DUP2 ADD CALLDATALOAD DUP3 AND SWAP2 PUSH1 0x40 DUP3 ADD CALLDATALOAD SWAP2 PUSH1 0x60 DUP2 ADD CALLDATALOAD SWAP2 PUSH1 0x80 DUP3 ADD CALLDATALOAD SWAP2 PUSH1 0xA0 DUP2 ADD CALLDATALOAD DUP3 AND SWAP2 PUSH1 0xC0 DUP3 ADD CALLDATALOAD SWAP2 PUSH1 0xE0 DUP2 ADD CALLDATALOAD SWAP2 PUSH2 0x100 SWAP1 SWAP2 ADD CALLDATALOAD AND PUSH2 0x768 JUMP JUMPDEST CALLVALUE DUP1 ISZERO PUSH2 0x36C JUMPI PUSH1 0x0 DUP1 REVERT JUMPDEST POP PUSH2 0x20F PUSH1 0x4 DUP1 CALLDATASIZE SUB PUSH1 0x20 DUP2 LT ISZERO PUSH2 0x383 JUMPI PUSH1 0x0 DUP1 REVERT JUMPDEST POP CALLDATALOAD PUSH1 0x1 PUSH1 0x1 PUSH1 0xA0 SHL SUB AND PUSH2 0x93A JUMP JUMPDEST CALLVALUE DUP1 ISZERO PUSH2 0x39F JUMPI PUSH1 0x0 DUP1 REVERT JUMPDEST POP PUSH2 0x29E PUSH2 0x99A JUMP JUMPDEST CALLVALUE DUP1 ISZERO PUSH2 0x3B4 JUMPI PUSH1 0x0 DUP1 REVERT JUMPDEST POP PUSH2 0x20F PUSH1 0x4 DUP1 CALLDATASIZE SUB PUSH1 0x20 DUP2 LT ISZERO PUSH2 0x3CB JUMPI PUSH1 0x0 DUP1 REVERT JUMPDEST POP CALLDATALOAD PUSH2 0x9A9 JUMP JUMPDEST CALLVALUE DUP1 ISZERO PUSH2 0x3DE JUMPI PUSH1 0x0 DUP1 REVERT JUMPDEST POP PUSH2 0x20F PUSH2 0xA07 JUMP JUMPDEST CALLVALUE DUP1 ISZERO PUSH2 0x3F3 JUMPI PUSH1 0x0 DUP1 REVERT JUMPDEST POP PUSH2 0x20F PUSH2 0xA0D JUMP JUMPDEST CALLVALUE DUP1 ISZERO PUSH2 0x408 JUMPI PUSH1 0x0 DUP1 REVERT JUMPDEST POP PUSH2 0x20F PUSH2 0xA13 JUMP JUMPDEST CALLVALUE DUP1 ISZERO PUSH2 0x41D JUMPI PUSH1 0x0 DUP1 REVERT JUMPDEST POP PUSH2 0x20F PUSH2 0xA19 JUMP JUMPDEST CALLVALUE DUP1 ISZERO PUSH2 0x432 JUMPI PUSH1 0x0 DUP1 REVERT JUMPDEST POP PUSH2 0x275 PUSH2 0xA3E JUMP JUMPDEST CALLVALUE DUP1 ISZERO PUSH2 0x447 JUMPI PUSH1 0x0 DUP1 REVERT JUMPDEST POP PUSH2 0x1C9 PUSH2 0xA57 JUMP JUMPDEST CALLVALUE DUP1 ISZERO PUSH2 0x45C JUMPI PUSH1 0x0 DUP1 REVERT JUMPDEST POP PUSH2 0x20F PUSH2 0xB6B JUMP JUMPDEST CALLVALUE DUP1 ISZERO PUSH2 0x471 JUMPI PUSH1 0x0 DUP1 REVERT JUMPDEST POP PUSH2 0x29E PUSH2 0xB8D JUMP JUMPDEST CALLVALUE DUP1 ISZERO PUSH2 0x486 JUMPI PUSH1 0x0 DUP1 REVERT JUMPDEST POP PUSH2 0x20F PUSH2 0xBA2 JUMP JUMPDEST CALLVALUE DUP1 ISZERO PUSH2 0x49B JUMPI PUSH1 0x0 DUP1 REVERT JUMPDEST POP PUSH2 0x275 PUSH2 0xC00 JUMP JUMPDEST CALLVALUE DUP1 ISZERO PUSH2 0x4B0 JUMPI PUSH1 0x0 DUP1 REVERT JUMPDEST POP PUSH2 0x20F PUSH1 0x4 DUP1 CALLDATASIZE SUB PUSH1 0x20 DUP2 LT ISZERO PUSH2 0x4C7 JUMPI PUSH1 0x0 DUP1 REVERT JUMPDEST POP CALLDATALOAD PUSH1 0x1 PUSH1 0x1 PUSH1 0xA0 SHL SUB AND PUSH2 0xC0E JUMP JUMPDEST PUSH2 0x1C9 PUSH1 0x4 DUP1 CALLDATASIZE SUB PUSH1 0x20 DUP2 LT ISZERO PUSH2 0x4ED JUMPI PUSH1 0x0 DUP1 REVERT JUMPDEST POP CALLDATALOAD PUSH1 0x1 PUSH1 0x1 PUSH1 0xA0 SHL SUB AND PUSH2 0x56F JUMP JUMPDEST CALLVALUE DUP1 ISZERO PUSH2 0x509 JUMPI PUSH1 0x0 DUP1 REVERT JUMPDEST POP PUSH2 0x20F PUSH2 0xC20 JUMP JUMPDEST CALLVALUE DUP1 ISZERO PUSH2 0x51E JUMPI PUSH1 0x0 DUP1 REVERT JUMPDEST POP PUSH2 0x20F PUSH1 0x4 DUP1 CALLDATASIZE SUB PUSH1 0x20 DUP2 LT ISZERO PUSH2 0x535 JUMPI PUSH1 0x0 DUP1 REVERT JUMPDEST POP CALLDATALOAD PUSH1 0x1 PUSH1 0x1 PUSH1 0xA0 SHL SUB AND PUSH2 0xC26 JUMP JUMPDEST CALLVALUE DUP1 ISZERO PUSH2 0x551 JUMPI PUSH1 0x0 DUP1 REVERT JUMPDEST POP PUSH2 0x20F PUSH2 0xC38 JUMP JUMPDEST CALLVALUE DUP1 ISZERO PUSH2 0x566 JUMPI PUSH1 0x0 DUP1 REVERT JUMPDEST POP PUSH2 0x1C9 PUSH2 0xC3E JUMP JUMPDEST PUSH1 0x8 SLOAD PUSH1 0x1 PUSH1 0x1 PUSH1 0xA0 SHL SUB AND PUSH20 0xEEEEEEEEEEEEEEEEEEEEEEEEEEEEEEEEEEEEEEEE EQ PUSH2 0x5CC JUMPI PUSH1 0x40 MLOAD PUSH3 0x461BCD PUSH1 0xE5 SHL DUP2 MSTORE PUSH1 0x4 ADD DUP1 DUP1 PUSH1 0x20 ADD DUP3 DUP2 SUB DUP3 MSTORE PUSH1 0x31 DUP2 MSTORE PUSH1 0x20 ADD DUP1 PUSH2 0x138D PUSH1 0x31 SWAP2 CODECOPY PUSH1 0x40 ADD SWAP2 POP POP PUSH1 0x40 MLOAD DUP1 SWAP2 SUB SWAP1 REVERT JUMPDEST PUSH1 0x0 PUSH2 0x5D7 CALLVALUE PUSH2 0x9A9 JUMP JUMPDEST SWAP1 POP PUSH1 0x0 PUSH2 0x5E5 CALLVALUE DUP4 PUSH2 0xD2E JUMP JUMPDEST SWAP1 POP DUP2 ISZERO PUSH2 0x5F7 JUMPI PUSH2 0x5F7 DUP4 DUP4 PUSH2 0xD79 JUMP JUMPDEST DUP1 ISZERO PUSH2 0x635 JUMPI PUSH1 0x40 MLOAD PUSH1 0x1 PUSH1 0x1 PUSH1 0xA0 SHL SUB DUP5 AND SWAP1 DUP3 ISZERO PUSH2 0x8FC MUL SWAP1 DUP4 SWAP1 PUSH1 0x0 DUP2 DUP2 DUP2 DUP6 DUP9 DUP9 CALL SWAP4 POP POP POP POP ISZERO DUP1 ISZERO PUSH2 0x633 JUMPI RETURNDATASIZE PUSH1 0x0 DUP1 RETURNDATACOPY RETURNDATASIZE PUSH1 0x0 REVERT JUMPDEST POP JUMPDEST POP POP POP JUMP JUMPDEST PUSH2 0x644 CALLER DUP3 PUSH2 0x6D6 JUMP JUMPDEST POP JUMP JUMPDEST PUSH1 0x2 DUP2 JUMP JUMPDEST PUSH1 0x6 SLOAD DUP2 JUMP JUMPDEST PUSH1 0x1 SLOAD DUP2 JUMP JUMPDEST PUSH1 0x0 PUSH2 0x662 PUSH2 0xBA2 JUMP JUMPDEST PUSH2 0x66A PUSH2 0xA19 JUMP JUMPDEST GT ISZERO PUSH2 0x67F JUMPI PUSH2 0x678 PUSH2 0xA19 JUMP JUMPDEST SWAP1 POP PUSH2 0x68A JUMP JUMPDEST PUSH2 0x687 PUSH2 0xBA2 JUMP JUMPDEST SWAP1 POP JUMPDEST SWAP1 JUMP JUMPDEST PUSH1 0x0 PUSH2 0x697 PUSH2 0x658 JUMP JUMPDEST PUSH2 0x6C0 PUSH1 0x4 SLOAD PUSH2 0x6BA PUSH8 0xDE0B6B3A7640000 PUSH1 0x6 SLOAD PUSH2 0xE5C SWAP1 SWAP2 SWAP1 PUSH4 0xFFFFFFFF AND JUMP JUMPDEST SWAP1 PUSH2 0xEB5 JUMP JUMPDEST LT ISZERO SWAP1 POP SWAP1 JUMP JUMPDEST PUSH1 0x8 SLOAD PUSH1 0x1 PUSH1 0x1 PUSH1 0xA0 SHL SUB AND DUP2 JUMP JUMPDEST PUSH1 0x8 SLOAD PUSH1 0x1 PUSH1 0x1 PUSH1 0xA0 SHL SUB AND PUSH20 0xEEEEEEEEEEEEEEEEEEEEEEEEEEEEEEEEEEEEEEEE EQ ISZERO PUSH2 0x734 JUMPI PUSH1 0x40 MLOAD PUSH3 0x461BCD PUSH1 0xE5 SHL DUP2 MSTORE PUSH1 0x4 ADD DUP1 DUP1 PUSH1 0x20 ADD DUP3 DUP2 SUB DUP3 MSTORE PUSH1 0x2D DUP2 MSTORE PUSH1 0x20 ADD DUP1 PUSH2 0x125E PUSH1 0x2D SWAP2 CODECOPY PUSH1 0x40 ADD SWAP2 POP POP PUSH1 0x40 MLOAD DUP1 SWAP2 SUB SWAP1 REVERT JUMPDEST PUSH1 0x0 PUSH2 0x73F DUP3 PUSH2 0x9A9 JUMP JUMPDEST SWAP1 POP DUP1 ISZERO PUSH2 0x635 JUMPI PUSH1 0x8 SLOAD PUSH2 0x75E SWAP1 PUSH1 0x1 PUSH1 0x1 PUSH1 0xA0 SHL SUB AND DUP5 DUP5 PUSH2 0xEF7 JUMP JUMPDEST PUSH2 0x635 DUP4 DUP3 PUSH2 0xD79 JUMP JUMPDEST PUSH1 0x7 SLOAD PUSH1 0xFF AND ISZERO PUSH2 0x7AA JUMPI PUSH1 0x40 MLOAD PUSH3 0x461BCD PUSH1 0xE5 SHL DUP2 MSTORE PUSH1 0x4 ADD DUP1 DUP1 PUSH1 0x20 ADD DUP3 DUP2 SUB DUP3 MSTORE PUSH1 0x29 DUP2 MSTORE PUSH1 0x20 ADD DUP1 PUSH2 0x13F3 PUSH1 0x29 SWAP2 CODECOPY PUSH1 0x40 ADD SWAP2 POP POP PUSH1 0x40 MLOAD DUP1 SWAP2 SUB SWAP1 REVERT JUMPDEST DUP6 DUP6 GT PUSH2 0x7E8 JUMPI PUSH1 0x40 MLOAD PUSH3 0x461BCD PUSH1 0xE5 SHL DUP2 MSTORE PUSH1 0x4 ADD DUP1 DUP1 PUSH1 0x20 ADD DUP3 DUP2 SUB DUP3 MSTORE PUSH1 0x35 DUP2 MSTORE PUSH1 0x20 ADD DUP1 PUSH2 0x13BE PUSH1 0x35 SWAP2 CODECOPY PUSH1 0x40 ADD SWAP2 POP POP PUSH1 0x40 MLOAD DUP1 SWAP2 SUB SWAP1 REVERT JUMPDEST DUP2 DUP4 GT PUSH2 0x826 JUMPI PUSH1 0x40 MLOAD PUSH3 0x461BCD PUSH1 0xE5 SHL DUP2 MSTORE PUSH1 0x4 ADD DUP1 DUP1 PUSH1 0x20 ADD DUP3 DUP2 SUB DUP3 MSTORE PUSH1 0x3B DUP2 MSTORE PUSH1 0x20 ADD DUP1 PUSH2 0x12BD PUSH1 0x3B SWAP2 CODECOPY PUSH1 0x40 ADD SWAP2 POP POP PUSH1 0x40 MLOAD DUP1 SWAP2 SUB SWAP1 REVERT JUMPDEST PUSH1 0x0 DUP3 GT PUSH2 0x865 JUMPI PUSH1 0x40 MLOAD PUSH3 0x461BCD PUSH1 0xE5 SHL DUP2 MSTORE PUSH1 0x4 ADD DUP1 DUP1 PUSH1 0x20 ADD DUP3 DUP2 SUB DUP3 MSTORE PUSH1 0x32 DUP2 MSTORE PUSH1 0x20 ADD DUP1 PUSH2 0x128B PUSH1 0x32 SWAP2 CODECOPY PUSH1 0x40 ADD SWAP2 POP POP PUSH1 0x40 MLOAD DUP1 SWAP2 SUB SWAP1 REVERT JUMPDEST PUSH1 0x7 DUP1 SLOAD PUSH1 0x1 PUSH1 0x1 PUSH1 0xA0 SHL SUB DUP1 DUP12 AND PUSH3 0x10000 MUL PUSH3 0x10000 PUSH1 0x1 PUSH1 0xB0 SHL SUB NOT SWAP1 SWAP3 AND SWAP2 SWAP1 SWAP2 OR SWAP1 SWAP2 SSTORE PUSH1 0x8 DUP1 SLOAD DUP7 DUP4 AND PUSH1 0x1 PUSH1 0x1 PUSH1 0xA0 SHL SUB NOT SWAP2 DUP3 AND OR SWAP1 SWAP2 SSTORE PUSH1 0x4 DUP10 SWAP1 SSTORE PUSH1 0x0 DUP9 DUP2 SSTORE PUSH1 0x1 DUP9 SWAP1 SSTORE PUSH1 0x2 DUP7 SWAP1 SSTORE PUSH1 0x3 DUP6 SWAP1 SSTORE PUSH1 0x9 DUP1 SLOAD SWAP4 DUP6 AND SWAP4 SWAP1 SWAP3 AND SWAP3 SWAP1 SWAP3 OR SWAP1 SSTORE PUSH2 0x8D9 DUP5 DUP5 PUSH2 0xD2E JUMP JUMPDEST SWAP1 POP PUSH1 0x0 PUSH2 0x8F4 PUSH1 0x0 SLOAD PUSH1 0x1 SLOAD PUSH2 0xD2E SWAP1 SWAP2 SWAP1 PUSH4 0xFFFFFFFF AND JUMP JUMPDEST SWAP1 POP PUSH2 0x900 DUP3 DUP3 PUSH2 0xEB5 JUMP JUMPDEST PUSH1 0x5 SSTORE PUSH1 0x7 SLOAD PUSH2 0x920 SWAP1 PUSH3 0x10000 SWAP1 DIV PUSH1 0x1 PUSH1 0x1 PUSH1 0xA0 SHL SUB AND DUP13 DUP12 PUSH2 0xEF7 JUMP JUMPDEST POP POP PUSH1 0x7 DUP1 SLOAD PUSH1 0xFF NOT AND PUSH1 0x1 OR SWAP1 SSTORE POP POP POP POP POP POP POP POP POP JUMP JUMPDEST PUSH1 0x0 DUP1 PUSH2 0x973 PUSH2 0x948 PUSH2 0x658 JUMP JUMPDEST PUSH1 0x1 PUSH1 0x1 PUSH1 0xA0 SHL SUB DUP6 AND PUSH1 0x0 SWAP1 DUP2 MSTORE PUSH1 0xA PUSH1 0x20 MSTORE PUSH1 0x40 SWAP1 KECCAK256 SLOAD PUSH2 0x6BA SWAP1 PUSH8 0xDE0B6B3A7640000 PUSH2 0xE5C JUMP JUMPDEST CALLER PUSH1 0x0 SWAP1 DUP2 MSTORE PUSH1 0xB PUSH1 0x20 MSTORE PUSH1 0x40 SWAP1 KECCAK256 SLOAD SWAP1 SWAP2 POP PUSH2 0x991 SWAP1 DUP3 SWAP1 PUSH2 0xD2E JUMP JUMPDEST SWAP2 POP POP JUMPDEST SWAP2 SWAP1 POP JUMP JUMPDEST PUSH1 0x9 SLOAD PUSH1 0x1 PUSH1 0x1 PUSH1 0xA0 SHL SUB AND DUP2 JUMP JUMPDEST PUSH1 0x0 DUP1 PUSH2 0x9CC PUSH8 0xDE0B6B3A7640000 PUSH2 0x6BA PUSH2 0x9C3 PUSH2 0x658 JUMP JUMPDEST PUSH1 0x4 SLOAD SWAP1 PUSH2 0xE5C JUMP JUMPDEST SWAP1 POP DUP1 PUSH2 0x9E4 DUP5 PUSH1 0x6 SLOAD PUSH2 0x101F SWAP1 SWAP2 SWAP1 PUSH4 0xFFFFFFFF AND JUMP JUMPDEST GT ISZERO PUSH2 0xA00 JUMPI PUSH1 0x6 SLOAD PUSH2 0x9F8 SWAP1 DUP3 SWAP1 PUSH2 0xD2E JUMP JUMPDEST SWAP2 POP POP PUSH2 0x995 JUMP JUMPDEST POP SWAP1 SWAP2 SWAP1 POP JUMP JUMPDEST PUSH1 0x0 SLOAD DUP2 JUMP JUMPDEST PUSH1 0x4 SLOAD DUP2 JUMP JUMPDEST PUSH1 0x3 SLOAD DUP2 JUMP JUMPDEST PUSH1 0x0 PUSH2 0x687 PUSH1 0x4 SLOAD PUSH2 0x6BA PUSH8 0xDE0B6B3A7640000 PUSH1 0x6 SLOAD PUSH2 0xE5C SWAP1 SWAP2 SWAP1 PUSH4 0xFFFFFFFF AND JUMP JUMPDEST PUSH1 0x0 PUSH2 0xA48 PUSH2 0x68D JUMP JUMPDEST DUP1 PUSH2 0x687 JUMPI POP POP PUSH1 0x1 SLOAD TIMESTAMP GT SWAP1 JUMP JUMPDEST PUSH2 0xA5F PUSH2 0x68D JUMP JUMPDEST ISZERO PUSH2 0xAFC JUMPI PUSH1 0x0 PUSH2 0xA6F CALLER PUSH2 0x93A JUMP JUMPDEST SWAP1 POP PUSH1 0x0 DUP2 GT PUSH2 0xAC6 JUMPI PUSH1 0x40 DUP1 MLOAD PUSH3 0x461BCD PUSH1 0xE5 SHL DUP2 MSTORE PUSH1 0x20 PUSH1 0x4 DUP3 ADD DUP2 SWAP1 MSTORE PUSH1 0x24 DUP3 ADD MSTORE PUSH32 0x447574636841756374696F6E3A204E6F20746F6B656E7320746F20636C61696D PUSH1 0x44 DUP3 ADD MSTORE SWAP1 MLOAD SWAP1 DUP2 SWAP1 SUB PUSH1 0x64 ADD SWAP1 REVERT JUMPDEST CALLER PUSH1 0x0 DUP2 DUP2 MSTORE PUSH1 0xB PUSH1 0x20 MSTORE PUSH1 0x40 SWAP1 KECCAK256 DUP3 SWAP1 SSTORE PUSH1 0x7 SLOAD PUSH2 0xAF6 SWAP2 PUSH3 0x10000 SWAP1 SWAP2 DIV PUSH1 0x1 PUSH1 0x1 PUSH1 0xA0 SHL SUB AND SWAP1 DUP4 PUSH2 0x1079 JUMP JUMPDEST POP PUSH2 0xB69 JUMP JUMPDEST PUSH1 0x1 SLOAD TIMESTAMP GT PUSH2 0xB3C JUMPI PUSH1 0x40 MLOAD PUSH3 0x461BCD PUSH1 0xE5 SHL DUP2 MSTORE PUSH1 0x4 ADD DUP1 DUP1 PUSH1 0x20 ADD DUP3 DUP2 SUB DUP3 MSTORE PUSH1 0x2A DUP2 MSTORE PUSH1 0x20 ADD DUP1 PUSH2 0x12F8 PUSH1 0x2A SWAP2 CODECOPY PUSH1 0x40 ADD SWAP2 POP POP PUSH1 0x40 MLOAD DUP1 SWAP2 SUB SWAP1 REVERT JUMPDEST CALLER PUSH1 0x0 DUP2 DUP2 MSTORE PUSH1 0xA PUSH1 0x20 MSTORE PUSH1 0x40 DUP2 KECCAK256 DUP1 SLOAD SWAP2 SWAP1 SSTORE PUSH1 0x8 SLOAD SWAP1 SWAP2 PUSH2 0x644 SWAP2 PUSH1 0x1 PUSH1 0x1 PUSH1 0xA0 SHL SUB AND SWAP1 DUP4 PUSH2 0x1079 JUMP JUMPDEST JUMP JUMPDEST PUSH1 0x0 PUSH2 0x687 PUSH2 0xB78 PUSH2 0x658 JUMP JUMPDEST PUSH1 0x6 SLOAD PUSH2 0x6BA SWAP1 PUSH8 0xDE0B6B3A7640000 PUSH2 0xE5C JUMP JUMPDEST PUSH1 0x7 SLOAD PUSH3 0x10000 SWAP1 DIV PUSH1 0x1 PUSH1 0x1 PUSH1 0xA0 SHL SUB AND DUP2 JUMP JUMPDEST PUSH1 0x0 DUP1 SLOAD TIMESTAMP GT PUSH2 0xBB5 JUMPI POP PUSH1 0x2 SLOAD PUSH2 0x68A JUMP JUMPDEST PUSH1 0x1 SLOAD TIMESTAMP LT PUSH2 0xBC7 JUMPI POP PUSH1 0x3 SLOAD PUSH2 0x68A JUMP JUMPDEST PUSH1 0x0 PUSH2 0xBEA PUSH1 0x5 SLOAD PUSH2 0xBE4 PUSH1 0x0 SLOAD TIMESTAMP PUSH2 0xD2E SWAP1 SWAP2 SWAP1 PUSH4 0xFFFFFFFF AND JUMP JUMPDEST SWAP1 PUSH2 0xE5C JUMP JUMPDEST PUSH1 0x2 SLOAD SWAP1 SWAP2 POP PUSH2 0xBFA SWAP1 DUP3 PUSH2 0xD2E JUMP JUMPDEST SWAP2 POP POP SWAP1 JUMP JUMPDEST PUSH1 0x7 SLOAD PUSH2 0x100 SWAP1 DIV PUSH1 0xFF AND DUP2 JUMP JUMPDEST PUSH1 0xB PUSH1 0x20 MSTORE PUSH1 0x0 SWAP1 DUP2 MSTORE PUSH1 0x40 SWAP1 KECCAK256 SLOAD DUP2 JUMP JUMPDEST PUSH1 0x5 SLOAD DUP2 JUMP JUMPDEST PUSH1 0xA PUSH1 0x20 MSTORE PUSH1 0x0 SWAP1 DUP2 MSTORE PUSH1 0x40 SWAP1 KECCAK256 SLOAD DUP2 JUMP JUMPDEST PUSH1 0x2 SLOAD DUP2 JUMP JUMPDEST PUSH1 0x7 SLOAD PUSH2 0x100 SWAP1 DIV PUSH1 0xFF AND ISZERO PUSH2 0xC85 JUMPI PUSH1 0x40 MLOAD PUSH3 0x461BCD PUSH1 0xE5 SHL DUP2 MSTORE PUSH1 0x4 ADD DUP1 DUP1 PUSH1 0x20 ADD DUP3 DUP2 SUB DUP3 MSTORE PUSH1 0x27 DUP2 MSTORE PUSH1 0x20 ADD DUP1 PUSH2 0x1322 PUSH1 0x27 SWAP2 CODECOPY PUSH1 0x40 ADD SWAP2 POP POP PUSH1 0x40 MLOAD DUP1 SWAP2 SUB SWAP1 REVERT JUMPDEST PUSH2 0xC8D PUSH2 0x68D JUMP JUMPDEST ISZERO PUSH2 0xCB7 JUMPI PUSH1 0x8 SLOAD PUSH1 0x9 SLOAD PUSH1 0x6 SLOAD PUSH2 0xCB2 SWAP3 PUSH1 0x1 PUSH1 0x1 PUSH1 0xA0 SHL SUB SWAP1 DUP2 AND SWAP3 AND SWAP1 PUSH2 0x1079 JUMP JUMPDEST PUSH2 0xD1D JUMP JUMPDEST PUSH1 0x1 SLOAD TIMESTAMP GT PUSH2 0xCF7 JUMPI PUSH1 0x40 MLOAD PUSH3 0x461BCD PUSH1 0xE5 SHL DUP2 MSTORE PUSH1 0x4 ADD DUP1 DUP1 PUSH1 0x20 ADD DUP3 DUP2 SUB DUP3 MSTORE PUSH1 0x2A DUP2 MSTORE PUSH1 0x20 ADD DUP1 PUSH2 0x12F8 PUSH1 0x2A SWAP2 CODECOPY PUSH1 0x40 ADD SWAP2 POP POP PUSH1 0x40 MLOAD DUP1 SWAP2 SUB SWAP1 REVERT JUMPDEST PUSH1 0x7 SLOAD PUSH1 0x9 SLOAD PUSH1 0x4 SLOAD PUSH2 0xD1D SWAP3 PUSH1 0x1 PUSH1 0x1 PUSH1 0xA0 SHL SUB PUSH3 0x10000 SWAP1 SWAP2 DIV DUP2 AND SWAP3 AND SWAP1 PUSH2 0x1079 JUMP JUMPDEST PUSH1 0x7 DUP1 SLOAD PUSH2 0xFF00 NOT AND PUSH2 0x100 OR SWAP1 SSTORE JUMP JUMPDEST PUSH1 0x0 PUSH2 0xD70 DUP4 DUP4 PUSH1 0x40 MLOAD DUP1 PUSH1 0x40 ADD PUSH1 0x40 MSTORE DUP1 PUSH1 0x1E DUP2 MSTORE PUSH1 0x20 ADD PUSH32 0x536166654D6174683A207375627472616374696F6E206F766572666C6F770000 DUP2 MSTORE POP PUSH2 0x10E5 JUMP JUMPDEST SWAP1 POP JUMPDEST SWAP3 SWAP2 POP POP JUMP JUMPDEST PUSH1 0x0 SLOAD TIMESTAMP LT ISZERO DUP1 ISZERO PUSH2 0xD8D JUMPI POP PUSH1 0x1 SLOAD TIMESTAMP GT ISZERO JUMPDEST PUSH2 0xDC8 JUMPI PUSH1 0x40 MLOAD PUSH3 0x461BCD PUSH1 0xE5 SHL DUP2 MSTORE PUSH1 0x4 ADD DUP1 DUP1 PUSH1 0x20 ADD DUP3 DUP2 SUB DUP3 MSTORE PUSH1 0x23 DUP2 MSTORE PUSH1 0x20 ADD DUP1 PUSH2 0x1349 PUSH1 0x23 SWAP2 CODECOPY PUSH1 0x40 ADD SWAP2 POP POP PUSH1 0x40 MLOAD DUP1 SWAP2 SUB SWAP1 REVERT JUMPDEST PUSH1 0x1 PUSH1 0x1 PUSH1 0xA0 SHL SUB DUP3 AND PUSH1 0x0 SWAP1 DUP2 MSTORE PUSH1 0xA PUSH1 0x20 MSTORE PUSH1 0x40 SWAP1 KECCAK256 SLOAD PUSH2 0xDEB SWAP1 DUP3 PUSH2 0x101F JUMP JUMPDEST PUSH1 0x1 PUSH1 0x1 PUSH1 0xA0 SHL SUB DUP4 AND PUSH1 0x0 SWAP1 DUP2 MSTORE PUSH1 0xA PUSH1 0x20 MSTORE PUSH1 0x40 SWAP1 KECCAK256 SSTORE PUSH1 0x6 SLOAD PUSH2 0xE11 SWAP1 DUP3 PUSH2 0x101F JUMP JUMPDEST PUSH1 0x6 SSTORE PUSH1 0x40 DUP1 MLOAD PUSH1 0x1 PUSH1 0x1 PUSH1 0xA0 SHL SUB DUP5 AND DUP2 MSTORE PUSH1 0x20 DUP2 ADD DUP4 SWAP1 MSTORE DUP2 MLOAD PUSH32 0x77511A636BA1F10551CC7B89C13FF66A6AC9344E8A917527817A9690B15AF7A SWAP3 SWAP2 DUP2 SWAP1 SUB SWAP1 SWAP2 ADD SWAP1 LOG1 POP POP JUMP JUMPDEST PUSH1 0x0 DUP3 PUSH2 0xE6B JUMPI POP PUSH1 0x0 PUSH2 0xD73 JUMP JUMPDEST DUP3 DUP3 MUL DUP3 DUP5 DUP3 DUP2 PUSH2 0xE78 JUMPI INVALID JUMPDEST DIV EQ PUSH2 0xD70 JUMPI PUSH1 0x40 MLOAD PUSH3 0x461BCD PUSH1 0xE5 SHL DUP2 MSTORE PUSH1 0x4 ADD DUP1 DUP1 PUSH1 0x20 ADD DUP3 DUP2 SUB DUP3 MSTORE PUSH1 0x21 DUP2 MSTORE PUSH1 0x20 ADD DUP1 PUSH2 0x136C PUSH1 0x21 SWAP2 CODECOPY PUSH1 0x40 ADD SWAP2 POP POP PUSH1 0x40 MLOAD DUP1 SWAP2 SUB SWAP1 REVERT JUMPDEST PUSH1 0x0 PUSH2 0xD70 DUP4 DUP4 PUSH1 0x40 MLOAD DUP1 PUSH1 0x40 ADD PUSH1 0x40 MSTORE DUP1 PUSH1 0x1A DUP2 MSTORE PUSH1 0x20 ADD PUSH32 0x536166654D6174683A206469766973696F6E206279207A65726F000000000000 DUP2 MSTORE POP PUSH2 0x117C JUMP JUMPDEST PUSH1 0x40 DUP1 MLOAD PUSH1 0x1 PUSH1 0x1 PUSH1 0xA0 SHL SUB DUP5 DUP2 AND PUSH1 0x24 DUP4 ADD MSTORE ADDRESS PUSH1 0x44 DUP4 ADD MSTORE PUSH1 0x64 DUP1 DUP4 ADD DUP6 SWAP1 MSTORE DUP4 MLOAD DUP1 DUP5 SUB SWAP1 SWAP2 ADD DUP2 MSTORE PUSH1 0x84 SWAP1 SWAP3 ADD DUP4 MSTORE PUSH1 0x20 DUP3 ADD DUP1 MLOAD PUSH1 0x1 PUSH1 0x1 PUSH1 0xE0 SHL SUB AND PUSH4 0x23B872DD PUSH1 0xE0 SHL OR DUP2 MSTORE SWAP3 MLOAD DUP3 MLOAD PUSH1 0x0 SWAP5 PUSH1 0x60 SWAP5 SWAP4 DUP10 AND SWAP4 SWAP3 SWAP2 DUP3 SWAP2 SWAP1 DUP1 DUP4 DUP4 JUMPDEST PUSH1 0x20 DUP4 LT PUSH2 0xF7A JUMPI DUP1 MLOAD DUP3 MSTORE PUSH1 0x1F NOT SWAP1 SWAP3 ADD SWAP2 PUSH1 0x20 SWAP2 DUP3 ADD SWAP2 ADD PUSH2 0xF5B JUMP JUMPDEST PUSH1 0x1 DUP4 PUSH1 0x20 SUB PUSH2 0x100 EXP SUB DUP1 NOT DUP3 MLOAD AND DUP2 DUP5 MLOAD AND DUP1 DUP3 OR DUP6 MSTORE POP POP POP POP POP POP SWAP1 POP ADD SWAP2 POP POP PUSH1 0x0 PUSH1 0x40 MLOAD DUP1 DUP4 SUB DUP2 PUSH1 0x0 DUP7 GAS CALL SWAP2 POP POP RETURNDATASIZE DUP1 PUSH1 0x0 DUP2 EQ PUSH2 0xFDC JUMPI PUSH1 0x40 MLOAD SWAP2 POP PUSH1 0x1F NOT PUSH1 0x3F RETURNDATASIZE ADD AND DUP3 ADD PUSH1 0x40 MSTORE RETURNDATASIZE DUP3 MSTORE RETURNDATASIZE PUSH1 0x0 PUSH1 0x20 DUP5 ADD RETURNDATACOPY PUSH2 0xFE1 JUMP JUMPDEST PUSH1 0x60 SWAP2 POP JUMPDEST POP SWAP2 POP SWAP2 POP DUP2 DUP1 ISZERO PUSH2 0x100F JUMPI POP DUP1 MLOAD ISZERO DUP1 PUSH2 0x100F JUMPI POP DUP1 DUP1 PUSH1 0x20 ADD SWAP1 MLOAD PUSH1 0x20 DUP2 LT ISZERO PUSH2 0x100C JUMPI PUSH1 0x0 DUP1 REVERT JUMPDEST POP MLOAD JUMPDEST PUSH2 0x1018 JUMPI PUSH1 0x0 DUP1 REVERT JUMPDEST POP POP POP POP POP JUMP JUMPDEST PUSH1 0x0 DUP3 DUP3 ADD DUP4 DUP2 LT ISZERO PUSH2 0xD70 JUMPI PUSH1 0x40 DUP1 MLOAD PUSH3 0x461BCD PUSH1 0xE5 SHL DUP2 MSTORE PUSH1 0x20 PUSH1 0x4 DUP3 ADD MSTORE PUSH1 0x1B PUSH1 0x24 DUP3 ADD MSTORE PUSH32 0x536166654D6174683A206164646974696F6E206F766572666C6F770000000000 PUSH1 0x44 DUP3 ADD MSTORE SWAP1 MLOAD SWAP1 DUP2 SWAP1 SUB PUSH1 0x64 ADD SWAP1 REVERT JUMPDEST PUSH1 0x1 PUSH1 0x1 PUSH1 0xA0 SHL SUB DUP4 AND PUSH20 0xEEEEEEEEEEEEEEEEEEEEEEEEEEEEEEEEEEEEEEEE EQ ISZERO PUSH2 0x10DA JUMPI PUSH1 0x40 MLOAD PUSH1 0x1 PUSH1 0x1 PUSH1 0xA0 SHL SUB DUP4 AND SWAP1 DUP3 ISZERO PUSH2 0x8FC MUL SWAP1 DUP4 SWAP1 PUSH1 0x0 DUP2 DUP2 DUP2 DUP6 DUP9 DUP9 CALL SWAP4 POP POP POP POP ISZERO DUP1 ISZERO PUSH2 0x10D4 JUMPI RETURNDATASIZE PUSH1 0x0 DUP1 RETURNDATACOPY RETURNDATASIZE PUSH1 0x0 REVERT JUMPDEST POP PUSH2 0x635 JUMP JUMPDEST PUSH2 0x635 DUP4 DUP4 DUP4 PUSH2 0x11E1 JUMP JUMPDEST PUSH1 0x0 DUP2 DUP5 DUP5 GT ISZERO PUSH2 0x1174 JUMPI PUSH1 0x40 MLOAD PUSH3 0x461BCD PUSH1 0xE5 SHL DUP2 MSTORE PUSH1 0x4 ADD DUP1 DUP1 PUSH1 0x20 ADD DUP3 DUP2 SUB DUP3 MSTORE DUP4 DUP2 DUP2 MLOAD DUP2 MSTORE PUSH1 0x20 ADD SWAP2 POP DUP1 MLOAD SWAP1 PUSH1 0x20 ADD SWAP1 DUP1 DUP4 DUP4 PUSH1 0x0 JUMPDEST DUP4 DUP2 LT ISZERO PUSH2 0x1139 JUMPI DUP2 DUP2 ADD MLOAD DUP4 DUP3 ADD MSTORE PUSH1 0x20 ADD PUSH2 0x1121 JUMP JUMPDEST POP POP POP POP SWAP1 POP SWAP1 DUP2 ADD SWAP1 PUSH1 0x1F AND DUP1 ISZERO PUSH2 0x1166 JUMPI DUP1 DUP3 SUB DUP1 MLOAD PUSH1 0x1 DUP4 PUSH1 0x20 SUB PUSH2 0x100 EXP SUB NOT AND DUP2 MSTORE PUSH1 0x20 ADD SWAP2 POP JUMPDEST POP SWAP3 POP POP POP PUSH1 0x40 MLOAD DUP1 SWAP2 SUB SWAP1 REVERT JUMPDEST POP POP POP SWAP1 SUB SWAP1 JUMP JUMPDEST PUSH1 0x0 DUP2 DUP4 PUSH2 0x11CB JUMPI PUSH1 0x40 MLOAD PUSH3 0x461BCD PUSH1 0xE5 SHL DUP2 MSTORE PUSH1 0x20 PUSH1 0x4 DUP3 ADD DUP2 DUP2 MSTORE DUP4 MLOAD PUSH1 0x24 DUP5 ADD MSTORE DUP4 MLOAD SWAP1 SWAP3 DUP4 SWAP3 PUSH1 0x44 SWAP1 SWAP2 ADD SWAP2 SWAP1 DUP6 ADD SWAP1 DUP1 DUP4 DUP4 PUSH1 0x0 DUP4 ISZERO PUSH2 0x1139 JUMPI DUP2 DUP2 ADD MLOAD DUP4 DUP3 ADD MSTORE PUSH1 0x20 ADD PUSH2 0x1121 JUMP JUMPDEST POP PUSH1 0x0 DUP4 DUP6 DUP2 PUSH2 0x11D7 JUMPI INVALID JUMPDEST DIV SWAP6 SWAP5 POP POP POP POP POP JUMP JUMPDEST PUSH1 0x40 DUP1 MLOAD PUSH1 0x1 PUSH1 0x1 PUSH1 0xA0 SHL SUB DUP5 DUP2 AND PUSH1 0x24 DUP4 ADD MSTORE PUSH1 0x44 DUP1 DUP4 ADD DUP6 SWAP1 MSTORE DUP4 MLOAD DUP1 DUP5 SUB SWAP1 SWAP2 ADD DUP2 MSTORE PUSH1 0x64 SWAP1 SWAP3 ADD DUP4 MSTORE PUSH1 0x20 DUP3 ADD DUP1 MLOAD PUSH1 0x1 PUSH1 0x1 PUSH1 0xE0 SHL SUB AND PUSH4 0xA9059CBB PUSH1 0xE0 SHL OR DUP2 MSTORE SWAP3 MLOAD DUP3 MLOAD PUSH1 0x0 SWAP5 PUSH1 0x60 SWAP5 SWAP4 DUP10 AND SWAP4 SWAP3 SWAP2 DUP3 SWAP2 SWAP1 DUP1 DUP4 DUP4 PUSH1 0x20 DUP4 LT PUSH2 0xF7A JUMPI DUP1 MLOAD DUP3 MSTORE PUSH1 0x1F NOT SWAP1 SWAP3 ADD SWAP2 PUSH1 0x20 SWAP2 DUP3 ADD SWAP2 ADD PUSH2 0xF5B JUMP INVALID DIFFICULTY PUSH22 0x74636841756374696F6E3A205061796D656E74206375 PUSH19 0x72656E6379206973206E6F74206120746F6B65 PUSH15 0x447574636841756374696F6E3A204D PUSH10 0x6E696D756D2070726963 PUSH6 0x206D75737420 PUSH3 0x652067 PUSH19 0x6561746572207468616E203044757463684175 PUSH4 0x74696F6E GASPRICE KECCAK256 MSTORE8 PUSH21 0x617274207072696365206D75737420626520686967 PUSH9 0x6572207468616E206D PUSH10 0x6E696D756D2070726963 PUSH6 0x447574636841 PUSH22 0x6374696F6E3A2041756374696F6E20686173206E6F74 KECCAK256 PUSH7 0x696E6973686564 KECCAK256 PUSH26 0x6574447574636841756374696F6E3A2041756374696F6E20616C PUSH19 0x656164792066696E616C697A65644475746368 COINBASE PUSH22 0x6374696F6E3A204F7574736964652061756374696F6E KECCAK256 PUSH9 0x6F757273536166654D PUSH2 0x7468 GASPRICE KECCAK256 PUSH14 0x756C7469706C69636174696F6E20 PUSH16 0x766572666C6F77447574636841756374 PUSH10 0x6F6E3A205061796D656E PUSH21 0x2063757272656E6379206973206E6F742045544820 PUSH2 0x6464 PUSH19 0x657373447574636841756374696F6E3A20456E PUSH5 0x2074696D65 KECCAK256 PUSH14 0x757374206265206F6C6465722074 PUSH9 0x616E20737461727420 PUSH17 0x72696365447574636841756374696F6E3A KECCAK256 COINBASE PUSH22 0x6374696F6E20616C726561647920696E697469616C69 PUSH27 0x6564A26469706673582212206EDEC0D03F06F3167D0F9AE0962702 SWAP4 LOG0 DELEGATECALL PUSH17 0xC14B9DC11532C5927C01DFB864736F6C PUSH4 0x4300060C STOP CALLER ",
  "sha1": "20c876f69e397732d2a40027318b63628223bd7c",
  "source": "pragma solidity ^0.6.9;\n\n// import \"../../interfaces/IMisoAuction.sol\";\n// import \"../Utils/SafeMathPlus.sol\";\n// import \"@openzeppelin/contracts/utils/ReentrancyGuard.sol\";\nimport \"@openzeppelin/contracts/math/SafeMath.sol\";\n\ncontract DutchAuction {\n    using SafeMath for uint256;\n    /// @dev The placeholder ETH address.\n    address private constant ETH_ADDRESS = 0xEeeeeEeeeEeEeeEeEeEeeEEEeeeeEeeeeeeeEEeE;\n\n    uint256 public startTime;\n    uint256 public endTime;\n    uint256 public startPrice;\n    uint256 public minimumPrice;\n    uint256 public totalTokens; // Amount to be sold\n    uint256 public priceDrop; // Price reduction from startPrice at endTime\n    uint256 public commitmentsTotal;\n    bool private initialized;\n    bool public finalized;\n    address public auctionToken;\n    address public paymentCurrency;\n    address payable public wallet; // Where the auction funds will get paid\n    mapping(address => uint256) public commitments;\n    mapping(address => uint256) public claimed;\n\n    // MISOMarket template id\n    uint256 public constant marketTemplate = 2;\n\n    event AddedCommitment(address addr, uint256 commitment);\n\n    /**\n     * @dev Init function\n     * @param _funder The address that funds the token for crowdsale\n     * @param _token Address of the token being sold\n     * @param _paymentCurrency The currency the crowdsale accepts for payment. Can be ETH or token address\n     * @param _totalTokens The total number of tokens to sell in auction\n     * @param _startTime Auction start time\n     * @param _endTime Auction end time\n     * @param _startPrice Starting price of the auction\n     * @param _minimumPrice The minimum auction price\n     * @param _wallet Address where collected funds will be forwarded to\n     */\n    function initAuction(\n        address _funder,\n        address _token,\n        uint256 _totalTokens,\n        uint256 _startTime,\n        uint256 _endTime,\n        address _paymentCurrency,\n        uint256 _startPrice,\n        uint256 _minimumPrice,\n        address payable _wallet\n    ) external {\n        require(!initialized, \"DutchAuction: Auction already initialized\");\n        require(_endTime > _startTime, \"DutchAuction: End time must be older than start price\");\n        require(_startPrice > _minimumPrice, \"DutchAuction: Start price must be higher than minimum price\");\n        require(_minimumPrice > 0, \"DutchAuction: Minimum price must be greater than 0\"); \n        auctionToken = _token;\n        paymentCurrency = _paymentCurrency;\n        totalTokens = _totalTokens;\n        startTime = _startTime;\n        endTime = _endTime;\n        startPrice = _startPrice;\n        minimumPrice = _minimumPrice;\n        wallet = _wallet;\n\n        uint256 numerator = startPrice.sub(minimumPrice);\n        uint256 denominator = endTime.sub(startTime);\n        priceDrop = numerator.div(denominator);\n\n        // There are many non-compliant ERC20 tokens... this can handle most, adapted from UniSwap V2\n        _safeTransferFrom(auctionToken, _funder, _totalTokens);\n        initialized = true;\n    }\n\n    //--------------------------------------------------------\n    // Commit to buying tokens!\n    //--------------------------------------------------------\n\n    /**\n     * @notice Buy Tokens by committing ETH to this contract address\n     * @dev Needs sufficient gas limit for additional state changes\n     */\n    receive() external payable {\n        commitEth(msg.sender);\n    }\n\n    /// @notice Commit ETH to buy tokens on sale\n    function commitEth(address payable _from) public payable {\n        require(address(paymentCurrency) == ETH_ADDRESS, \"DutchAuction: Payment currency is not ETH address\"); \n        // Get ETH able to be committed\n        uint256 ethToTransfer = calculateCommitment(msg.value);\n\n        // Accept ETH Payments\n        uint256 ethToRefund = msg.value.sub(ethToTransfer);\n        if (ethToTransfer > 0) {\n            _addCommitment(_from, ethToTransfer);\n        }\n        // Return any ETH to be refunded\n        if (ethToRefund > 0) {\n            _from.transfer(ethToRefund);\n        }\n    }\n\n    /// @notice Commit approved ERC20 tokens to buy tokens on sale\n    function commitTokens(uint256 _amount) public {\n        commitTokensFrom(msg.sender, _amount);\n    }\n\n    /// @dev Users must approve contract prior to committing tokens to auction\n    function commitTokensFrom(address _from, uint256 _amount)\n        public\n    /* nonReentrant */\n    {\n        require(address(paymentCurrency) != ETH_ADDRESS, \"DutchAuction: Payment currency is not a token\");\n        uint256 tokensToTransfer = calculateCommitment(_amount);\n        if (tokensToTransfer > 0) {\n            _safeTransferFrom(paymentCurrency, _from, _amount);\n            _addCommitment(_from, tokensToTransfer);\n        }\n    }\n\n    //--------------------------------------------------------\n    // Finalize Auction\n    //--------------------------------------------------------\n\n    /**\n     * @notice Auction finishes successfully above the reserve\n     * @dev Transfer contract funds to initialized wallet.\n     */\n    function finalizeAuction() public /* nonReentrant */\n    {\n        require(!finalized, \"DutchAuction: Auction already finalized\");\n        if (auctionSuccessful()) {\n            /// @dev Successful auction\n            /// @dev Transfer contributed tokens to wallet.\n            _tokenPayment(paymentCurrency, wallet, commitmentsTotal);\n        } else {\n            /// @dev Failed auction\n            /// @dev Return auction tokens back to wallet.\n            require(block.timestamp > endTime, \"DutchAuction: Auction has not finished yet\"); \n            _tokenPayment(auctionToken, wallet, totalTokens);\n        }\n        finalized = true;\n    }\n\n    /// @notice Withdraw your tokens once the Auction has ended.\n    function withdrawTokens() public /* nonReentrant */\n    {\n        if (auctionSuccessful()) {\n            /// @dev Successful auction! Transfer claimed tokens.\n            /// @dev AG: Could be only > min to allow early withdraw\n            uint256 tokensToClaim = tokensClaimable(msg.sender);\n            require(tokensToClaim > 0, \"DutchAuction: No tokens to claim\"); \n            claimed[msg.sender] = tokensToClaim;\n            _tokenPayment(auctionToken, msg.sender, tokensToClaim);\n        } else {\n            /// @dev Auction did not meet reserve price.\n            /// @dev Return committed funds back to user.\n            require(block.timestamp > endTime, \"DutchAuction: Auction has not finished yet\");\n            uint256 fundsCommitted = commitments[msg.sender];\n            commitments[msg.sender] = 0; // Stop multiple withdrawals and free some gas\n            _tokenPayment(paymentCurrency, msg.sender, fundsCommitted);\n        }\n    }\n\n    /**\n     Dutch Auction Price Function\n     ============================\n     \n     Start Price -----\n                      \\\n                       \\\n                        \\\n                         \\ ------------ Clearing Price\n                        / \\            = AmountRaised/TokenSupply\n         Token Price  --   \\\n                     /      \\\n                   --        ----------- Minimum Price\n     Amount raised /          End Time\n    */\n\n    /// @notice The average price of each token from all commitments.\n    function tokenPrice() public view returns (uint256) {\n        return commitmentsTotal.mul(1e18).div(totalTokens);\n    }\n\n    /// @notice Returns price during the auction\n    function priceFunction() public view returns (uint256) {\n        /// @dev Return Auction Price\n        if (block.timestamp <= startTime) {\n            return startPrice;\n        }\n        if (block.timestamp >= endTime) {\n            return minimumPrice;\n        }\n        uint256 priceDiff = block.timestamp.sub(startTime).mul(priceDrop);\n        return startPrice.sub(priceDiff);\n    }\n\n    /// @notice The current clearing price of the Dutch auction\n    function clearingPrice() public view returns (uint256) {\n        /// @dev If auction successful, return tokenPrice\n        if (tokenPrice() > priceFunction()) {\n            return tokenPrice();\n        }\n        return priceFunction();\n    }\n\n    /// @notice How many tokens the user is able to claim\n    function tokensClaimable(address _user) public view returns (uint256) {\n        uint256 tokensAvailable =\n            commitments[_user].mul(1e18).div(clearingPrice());\n        return tokensAvailable.sub(claimed[msg.sender]);\n    }\n\n    /// @notice Total amount of tokens committed at current auction price\n    function totalTokensCommitted() public view returns (uint256) {\n        return commitmentsTotal.mul(1e18).div(clearingPrice());\n    }\n\n    /// @notice Returns the amout able to be committed during an auction\n    function calculateCommitment(uint256 _commitment)\n        public\n        view\n        returns (uint256 committed)\n    {\n        uint256 maxCommitment = totalTokens.mul(clearingPrice()).div(1e18);\n        if (commitmentsTotal.add(_commitment) > maxCommitment) {\n            return maxCommitment.sub(commitmentsTotal);\n        }\n        return _commitment;\n    }\n\n    /// @notice Successful if tokens sold equals totalTokens\n    function auctionSuccessful() public view returns (bool) {\n        return commitmentsTotal.mul(1e18).div(totalTokens) >= clearingPrice();\n    }\n\n    /// @notice Returns bool if successful or time has ended\n    function auctionEnded() public view returns (bool) {\n        return auctionSuccessful() || block.timestamp > endTime;\n    }\n\n    /// @notice Commits to an amount during an auction\n    function _addCommitment(address _addr, uint256 _commitment) internal {\n        require(block.timestamp >= startTime && block.timestamp <= endTime, \"DutchAuction: Outside auction hours\"); \n        commitments[_addr] = commitments[_addr].add(_commitment);\n        commitmentsTotal = commitmentsTotal.add(_commitment);\n        emit AddedCommitment(_addr, _commitment);\n    }\n\n    //--------------------------------------------------------\n    // Helper Functions\n    //--------------------------------------------------------\n\n    /// @dev Helper function to handle both ETH and ERC20 payments\n    function _tokenPayment(\n        address _token,\n        address payable _to,\n        uint256 _amount\n    ) internal {\n        if (address(_token) == ETH_ADDRESS) {\n            _to.transfer(_amount);\n        } else {\n            _safeTransfer(_token, _to, _amount);\n        }\n    }\n\n    /**\n     * There are many non-compliant ERC20 tokens... this can handle most, adapted from UniSwap V2\n     * Im trying to make it a habit to put external calls last (reentrancy)\n     * You can put this in an internal function if you like.\n     */\n    function _safeTransfer(\n        address token,\n        address to,\n        uint256 amount\n    ) internal {\n        // solium-disable-next-line security/no-low-level-calls\n        (bool success, bytes memory data) =\n            token.call(\n                // 0xa9059cbb = bytes4(keccak256(\"transferFrom(address,address,uint256)\"))\n                abi.encodeWithSelector(0xa9059cbb, to, amount)\n            );\n        require(success && (data.length == 0 || abi.decode(data, (bool)))); // ERC20 Transfer failed\n    }\n\n    function _safeTransferFrom(\n        address token,\n        address from,\n        uint256 amount\n    ) internal {\n        // solium-disable-next-line security/no-low-level-calls\n        (bool success, bytes memory data) =\n            token.call(\n                // 0x23b872dd = bytes4(keccak256(\"transferFrom(address,address,uint256)\"))\n                abi.encodeWithSelector(0x23b872dd, from, address(this), amount)\n            );\n        require(success && (data.length == 0 || abi.decode(data, (bool)))); // ERC20 TransferFrom failed\n    }\n}\n",
  "sourcePath": "contracts/Auctions/DutchAuction.sol",
  "type": "contract"
}