{
  "abi": [
    {
      "anonymous": false,
      "inputs": [
        {
          "indexed": false,
          "internalType": "address",
          "name": "addr",
          "type": "address"
        },
        {
          "indexed": false,
          "internalType": "uint256",
          "name": "commitment",
          "type": "uint256"
        }
      ],
      "name": "AddedCommitment",
      "type": "event"
    },
    {
      "inputs": [],
      "name": "auctionEnded",
      "outputs": [
        {
          "internalType": "bool",
          "name": "",
          "type": "bool"
        }
      ],
      "stateMutability": "view",
      "type": "function"
    },
    {
      "inputs": [],
      "name": "auctionSuccessful",
      "outputs": [
        {
          "internalType": "bool",
          "name": "",
          "type": "bool"
        }
      ],
      "stateMutability": "view",
      "type": "function"
    },
    {
      "inputs": [],
      "name": "auctionToken",
      "outputs": [
        {
          "internalType": "address",
          "name": "",
          "type": "address"
        }
      ],
      "stateMutability": "view",
      "type": "function"
    },
    {
      "inputs": [
        {
          "internalType": "uint256",
          "name": "_commitment",
          "type": "uint256"
        }
      ],
      "name": "calculateCommitment",
      "outputs": [
        {
          "internalType": "uint256",
          "name": "committed",
          "type": "uint256"
        }
      ],
      "stateMutability": "view",
      "type": "function"
    },
    {
      "inputs": [
        {
          "internalType": "address",
          "name": "",
          "type": "address"
        }
      ],
      "name": "claimed",
      "outputs": [
        {
          "internalType": "uint256",
          "name": "",
          "type": "uint256"
        }
      ],
      "stateMutability": "view",
      "type": "function"
    },
    {
      "inputs": [],
      "name": "clearingPrice",
      "outputs": [
        {
          "internalType": "uint256",
          "name": "",
          "type": "uint256"
        }
      ],
      "stateMutability": "view",
      "type": "function"
    },
    {
      "inputs": [
        {
          "internalType": "address payable",
          "name": "_from",
          "type": "address"
        }
      ],
      "name": "commitEth",
      "outputs": [],
      "stateMutability": "payable",
      "type": "function"
    },
    {
      "inputs": [
        {
          "internalType": "uint256",
          "name": "_amount",
          "type": "uint256"
        }
      ],
      "name": "commitTokens",
      "outputs": [],
      "stateMutability": "nonpayable",
      "type": "function"
    },
    {
      "inputs": [
        {
          "internalType": "address",
          "name": "_from",
          "type": "address"
        },
        {
          "internalType": "uint256",
          "name": "_amount",
          "type": "uint256"
        }
      ],
      "name": "commitTokensFrom",
      "outputs": [],
      "stateMutability": "nonpayable",
      "type": "function"
    },
    {
      "inputs": [
        {
          "internalType": "address",
          "name": "",
          "type": "address"
        }
      ],
      "name": "commitments",
      "outputs": [
        {
          "internalType": "uint256",
          "name": "",
          "type": "uint256"
        }
      ],
      "stateMutability": "view",
      "type": "function"
    },
    {
      "inputs": [],
      "name": "commitmentsTotal",
      "outputs": [
        {
          "internalType": "uint256",
          "name": "",
          "type": "uint256"
        }
      ],
      "stateMutability": "view",
      "type": "function"
    },
    {
      "inputs": [],
      "name": "endDate",
      "outputs": [
        {
          "internalType": "uint256",
          "name": "",
          "type": "uint256"
        }
      ],
      "stateMutability": "view",
      "type": "function"
    },
    {
      "inputs": [],
      "name": "finaliseAuction",
      "outputs": [],
      "stateMutability": "nonpayable",
      "type": "function"
    },
    {
      "inputs": [],
      "name": "finalised",
      "outputs": [
        {
          "internalType": "bool",
          "name": "",
          "type": "bool"
        }
      ],
      "stateMutability": "view",
      "type": "function"
    },
    {
      "inputs": [
        {
          "internalType": "address",
          "name": "_funder",
          "type": "address"
        },
        {
          "internalType": "address",
          "name": "_token",
          "type": "address"
        },
        {
          "internalType": "uint256",
          "name": "_totalTokens",
          "type": "uint256"
        },
        {
          "internalType": "uint256",
          "name": "_startDate",
          "type": "uint256"
        },
        {
          "internalType": "uint256",
          "name": "_endDate",
          "type": "uint256"
        },
        {
          "internalType": "address",
          "name": "_paymentCurrency",
          "type": "address"
        },
        {
          "internalType": "uint256",
          "name": "_startPrice",
          "type": "uint256"
        },
        {
          "internalType": "uint256",
          "name": "_minimumPrice",
          "type": "uint256"
        },
        {
          "internalType": "address payable",
          "name": "_wallet",
          "type": "address"
        }
      ],
      "name": "initAuction",
      "outputs": [],
      "stateMutability": "nonpayable",
      "type": "function"
    },
    {
      "inputs": [],
      "name": "marketTemplate",
      "outputs": [
        {
          "internalType": "uint256",
          "name": "",
          "type": "uint256"
        }
      ],
      "stateMutability": "view",
      "type": "function"
    },
    {
      "inputs": [],
      "name": "minimumPrice",
      "outputs": [
        {
          "internalType": "uint256",
          "name": "",
          "type": "uint256"
        }
      ],
      "stateMutability": "view",
      "type": "function"
    },
    {
      "inputs": [],
      "name": "paymentCurrency",
      "outputs": [
        {
          "internalType": "address",
          "name": "",
          "type": "address"
        }
      ],
      "stateMutability": "view",
      "type": "function"
    },
    {
      "inputs": [],
      "name": "priceDrop",
      "outputs": [
        {
          "internalType": "uint256",
          "name": "",
          "type": "uint256"
        }
      ],
      "stateMutability": "view",
      "type": "function"
    },
    {
      "inputs": [],
      "name": "priceFunction",
      "outputs": [
        {
          "internalType": "uint256",
          "name": "",
          "type": "uint256"
        }
      ],
      "stateMutability": "view",
      "type": "function"
    },
    {
      "inputs": [],
      "name": "startDate",
      "outputs": [
        {
          "internalType": "uint256",
          "name": "",
          "type": "uint256"
        }
      ],
      "stateMutability": "view",
      "type": "function"
    },
    {
      "inputs": [],
      "name": "startPrice",
      "outputs": [
        {
          "internalType": "uint256",
          "name": "",
          "type": "uint256"
        }
      ],
      "stateMutability": "view",
      "type": "function"
    },
    {
      "inputs": [],
      "name": "tokenPrice",
      "outputs": [
        {
          "internalType": "uint256",
          "name": "",
          "type": "uint256"
        }
      ],
      "stateMutability": "view",
      "type": "function"
    },
    {
      "inputs": [
        {
          "internalType": "address",
          "name": "_user",
          "type": "address"
        }
      ],
      "name": "tokensClaimable",
      "outputs": [
        {
          "internalType": "uint256",
          "name": "",
          "type": "uint256"
        }
      ],
      "stateMutability": "view",
      "type": "function"
    },
    {
      "inputs": [],
      "name": "totalTokens",
      "outputs": [
        {
          "internalType": "uint256",
          "name": "",
          "type": "uint256"
        }
      ],
      "stateMutability": "view",
      "type": "function"
    },
    {
      "inputs": [],
      "name": "totalTokensCommitted",
      "outputs": [
        {
          "internalType": "uint256",
          "name": "",
          "type": "uint256"
        }
      ],
      "stateMutability": "view",
      "type": "function"
    },
    {
      "inputs": [],
      "name": "wallet",
      "outputs": [
        {
          "internalType": "address payable",
          "name": "",
          "type": "address"
        }
      ],
      "stateMutability": "view",
      "type": "function"
    },
    {
      "inputs": [],
      "name": "withdrawTokens",
      "outputs": [],
      "stateMutability": "nonpayable",
      "type": "function"
    },
    {
      "stateMutability": "payable",
      "type": "receive"
    }
  ],
  "bytecode": "608060405234801561001057600080fd5b50611078806100206000396000f3fe6080604052600436106101bb5760003560e01c80637e1c0c09116100ec578063a9d87ee61161008a578063cc30cdf711610064578063cc30cdf7146104ec578063d7568b6e14610512578063e8fcf72314610527578063f1a9af891461055a576101cb565b8063a9d87ee61461048f578063c24a0f8b146104a4578063c884ef83146104b9576101cb565b806386433374116100c6578063864333741461043b5780638d8f2adb14610450578063919e93b51461046557806399fdb3201461047a576101cb565b80637e1c0c09146103fc5780637f386b6c146104115780637ff9b59614610426576101cb565b80633d15cc6d116101595780634dc80e15116101335780634dc80e1514610375578063521eb273146103a85780635228733f146103bd57806373973fcb146103d2576101cb565b80633d15cc6d1461029e57806346467839146102cf5780634ce5505f14610308576101cb565b8063214bb60f11610195578063214bb60f1461023657806323bb46b61461025f57806332a0f2d71461027457806336d0054b14610289576101cb565b80630482a787146101d05780630b97bc86146101fa5780631b3e460e14610221576101cb565b366101cb576101c93361056f565b005b600080fd5b3480156101dc57600080fd5b506101c9600480360360208110156101f357600080fd5b5035610608565b34801561020657600080fd5b5061020f610615565b60408051918252519081900360200190f35b34801561022d57600080fd5b5061020f61061b565b34801561024257600080fd5b5061024b610620565b604080519115158252519081900360200190f35b34801561026b57600080fd5b5061020f61062e565b34801561028057600080fd5b5061020f610634565b34801561029557600080fd5b5061024b610669565b3480156102aa57600080fd5b506102b36106a3565b604080516001600160a01b039092168252519081900360200190f35b3480156102db57600080fd5b506101c9600480360360408110156102f257600080fd5b506001600160a01b0381351690602001356106b2565b34801561031457600080fd5b506101c9600480360361012081101561032c57600080fd5b506001600160a01b038135811691602081013582169160408201359160608101359160808201359160a081013582169160c08201359160e0810135916101009091013516610712565b34801561038157600080fd5b5061020f6004803603602081101561039857600080fd5b50356001600160a01b031661081c565b3480156103b457600080fd5b506102b361087c565b3480156103c957600080fd5b506101c961088b565b3480156103de57600080fd5b5061020f600480360360208110156103f557600080fd5b5035610917565b34801561040857600080fd5b5061020f610975565b34801561041d57600080fd5b5061020f61097b565b34801561043257600080fd5b5061020f610981565b34801561044757600080fd5b5061024b6109a6565b34801561045c57600080fd5b506101c96109bf565b34801561047157600080fd5b5061020f610a59565b34801561048657600080fd5b506102b3610a7b565b34801561049b57600080fd5b5061020f610a90565b3480156104b057600080fd5b5061020f610aee565b3480156104c557600080fd5b5061020f600480360360208110156104dc57600080fd5b50356001600160a01b0316610af4565b6101c96004803603602081101561050257600080fd5b50356001600160a01b031661056f565b34801561051e57600080fd5b5061020f610b06565b34801561053357600080fd5b5061020f6004803603602081101561054a57600080fd5b50356001600160a01b0316610b0c565b34801561056657600080fd5b5061020f610b1e565b6008546001600160a01b031673eeeeeeeeeeeeeeeeeeeeeeeeeeeeeeeeeeeeeeee1461059a57600080fd5b60006105a534610917565b905060006105b33483610b24565b905081156105c5576105c58383610b6f565b8015610603576040516001600160a01b0384169082156108fc029083906000818181858888f19350505050158015610601573d6000803e3d6000fd5b505b505050565b61061233826106b2565b50565b60005481565b600281565b600754610100900460ff1681565b60065481565b600061063e610a90565b610646610981565b111561065b57610654610981565b9050610666565b610663610a90565b90505b90565b6000610673610634565b61069c600454610696670de0b6b3a7640000600654610c2090919063ffffffff16565b90610c79565b1015905090565b6008546001600160a01b031681565b6008546001600160a01b031673eeeeeeeeeeeeeeeeeeeeeeeeeeeeeeeeeeeeeeee14156106de57600080fd5b60006106e982610917565b9050801561060357600854610708906001600160a01b03168484610cbb565b6106038382610b6f565b60075460ff161561072257600080fd5b85851161072e57600080fd5b81831161073a57600080fd5b6000821161074757600080fd5b600780546001600160a01b03808b16620100000262010000600160b01b031990921691909117909155600880548683166001600160a01b0319918216179091556004899055600088815560018890556002869055600385905560098054938516939092169290921790556107bb8484610b24565b905060006107d6600054600154610b2490919063ffffffff16565b90506107e28282610c79565b600555600754610802906201000090046001600160a01b03168c8b610cbb565b50506007805460ff19166001179055505050505050505050565b60008061085561082a610634565b6001600160a01b0385166000908152600a602052604090205461069690670de0b6b3a7640000610c20565b336000908152600b6020526040902054909150610873908290610b24565b9150505b919050565b6009546001600160a01b031681565b600754610100900460ff16156108a057600080fd5b6108a8610669565b156108d2576008546009546006546108cd926001600160a01b03908116921690610de3565b610906565b60015442116108e057600080fd5b600754600954600454610906926001600160a01b03620100009091048116921690610de3565b6007805461ff001916610100179055565b60008061093a670de0b6b3a7640000610696610931610634565b60045490610c20565b90508061095284600654610e4f90919063ffffffff16565b111561096e57600654610966908290610b24565b915050610877565b5090919050565b60045481565b60035481565b6000610663600454610696670de0b6b3a7640000600654610c2090919063ffffffff16565b60006109b0610669565b80610663575050600154421190565b6109c7610669565b15610a1c5760006109d73361081c565b9050600081116109e657600080fd5b336000818152600b60205260409020829055600754610a1691620100009091046001600160a01b03169083610de3565b50610a57565b6001544211610a2a57600080fd5b336000818152600a6020526040812080549190556008549091610612916001600160a01b03169083610de3565b565b6000610663610a66610634565b60065461069690670de0b6b3a7640000610c20565b6007546201000090046001600160a01b031681565b600080544211610aa35750600254610666565b6001544210610ab55750600354610666565b6000610ad8600554610ad260005442610b2490919063ffffffff16565b90610c20565b600254909150610ae89082610b24565b91505090565b60015481565b600b6020526000908152604090205481565b60055481565b600a6020526000908152604090205481565b60025481565b6000610b6683836040518060400160405280601e81526020017f536166654d6174683a207375627472616374696f6e206f766572666c6f770000815250610ea9565b90505b92915050565b6000544210158015610b8357506001544211155b610b8c57600080fd5b6001600160a01b0382166000908152600a6020526040902054610baf9082610e4f565b6001600160a01b0383166000908152600a6020526040902055600654610bd59082610e4f565b600655604080516001600160a01b03841681526020810183905281517f077511a636ba1f10551cc7b89c13ff66a6ac9344e8a917527817a9690b15af7a929181900390910190a15050565b600082610c2f57506000610b69565b82820282848281610c3c57fe5b0414610b665760405162461bcd60e51b81526004018080602001828103825260218152602001806110226021913960400191505060405180910390fd5b6000610b6683836040518060400160405280601a81526020017f536166654d6174683a206469766973696f6e206279207a65726f000000000000815250610f40565b604080516001600160a01b038481166024830152306044830152606480830185905283518084039091018152608490920183526020820180516001600160e01b03166323b872dd60e01b178152925182516000946060949389169392918291908083835b60208310610d3e5780518252601f199092019160209182019101610d1f565b6001836020036101000a0380198251168184511680821785525050505050509050019150506000604051808303816000865af19150503d8060008114610da0576040519150601f19603f3d011682016040523d82523d6000602084013e610da5565b606091505b5091509150818015610dd3575080511580610dd35750808060200190516020811015610dd057600080fd5b50515b610ddc57600080fd5b5050505050565b6001600160a01b03831673eeeeeeeeeeeeeeeeeeeeeeeeeeeeeeeeeeeeeeee1415610e44576040516001600160a01b0383169082156108fc029083906000818181858888f19350505050158015610e3e573d6000803e3d6000fd5b50610603565b610603838383610fa5565b600082820183811015610b66576040805162461bcd60e51b815260206004820152601b60248201527f536166654d6174683a206164646974696f6e206f766572666c6f770000000000604482015290519081900360640190fd5b60008184841115610f385760405162461bcd60e51b81526004018080602001828103825283818151815260200191508051906020019080838360005b83811015610efd578181015183820152602001610ee5565b50505050905090810190601f168015610f2a5780820380516001836020036101000a031916815260200191505b509250505060405180910390fd5b505050900390565b60008183610f8f5760405162461bcd60e51b8152602060048201818152835160248401528351909283926044909101919085019080838360008315610efd578181015183820152602001610ee5565b506000838581610f9b57fe5b0495945050505050565b604080516001600160a01b038481166024830152604480830185905283518084039091018152606490920183526020820180516001600160e01b031663a9059cbb60e01b1781529251825160009460609493891693929182919080838360208310610d3e5780518252601f199092019160209182019101610d1f56fe536166654d6174683a206d756c7469706c69636174696f6e206f766572666c6f77a2646970667358221220f2fc271cc5844d64b5e567f7bbd69e383c24b5729e054694d87a9ebfcf17cdc364736f6c634300060c0033",
  "bytecodeSha1": "2eff8b773d997794c4e68aafa69c2e63efacba1f",
  "compiler": {
    "evm_version": "istanbul",
    "optimizer": {
      "enabled": true,
      "runs": 200
    },
    "version": "0.6.12+commit.27d51765"
  },
  "contractName": "DutchAuction",
  "language": "Solidity",
  "natspec": {
    "kind": "dev",
    "methods": {
      "auctionEnded()": {
        "notice": "Returns bool if successful or time has ended"
      },
      "auctionSuccessful()": {
        "notice": "Successful if tokens sold equals totalTokens"
      },
      "calculateCommitment(uint256)": {
        "notice": "Returns the amout able to be committed during an auction"
      },
      "clearingPrice()": {
        "notice": "The current clearing price of the Dutch auction"
      },
      "commitEth(address)": {
        "notice": "Commit ETH to buy tokens on sale"
      },
      "commitTokens(uint256)": {
        "notice": "Commit approved ERC20 tokens to buy tokens on sale"
      },
      "commitTokensFrom(address,uint256)": {
        "details": "Users must approve contract prior to committing tokens to auction"
      },
      "finaliseAuction()": {
        "details": "Transfer contract funds to initialised wallet. ",
        "notice": "Auction finishes successfully above the reserve"
      },
      "initAuction(address,address,uint256,uint256,uint256,address,uint256,uint256,address)": {
        "details": "Init function"
      },
      "priceFunction()": {
        "notice": "Returns price during the auction "
      },
      "tokenPrice()": {
        "notice": "The average price of each token from all commitments. "
      },
      "tokensClaimable(address)": {
        "notice": "How many tokens the user is able to claim"
      },
      "totalTokensCommitted()": {
        "notice": "Total amount of tokens committed at current auction price"
      },
      "withdrawTokens()": {
        "notice": "Withdraw your tokens once the Auction has ended."
      }
    },
    "stateVariables": {
      "ETH_ADDRESS": {
        "details": "The placeholder ETH address."
      }
    },
    "version": 1
  },
  "opcodes": "PUSH1 0x80 PUSH1 0x40 MSTORE PUSH1 0x4 CALLDATASIZE LT PUSH2 0x1BB JUMPI PUSH1 0x0 CALLDATALOAD PUSH1 0xE0 SHR DUP1 PUSH4 0x7E1C0C09 GT PUSH2 0xEC JUMPI DUP1 PUSH4 0xA9D87EE6 GT PUSH2 0x8A JUMPI DUP1 PUSH4 0xCC30CDF7 GT PUSH2 0x64 JUMPI DUP1 PUSH4 0xCC30CDF7 EQ PUSH2 0x4EC JUMPI DUP1 PUSH4 0xD7568B6E EQ PUSH2 0x512 JUMPI DUP1 PUSH4 0xE8FCF723 EQ PUSH2 0x527 JUMPI DUP1 PUSH4 0xF1A9AF89 EQ PUSH2 0x55A JUMPI PUSH2 0x1CB JUMP JUMPDEST DUP1 PUSH4 0xA9D87EE6 EQ PUSH2 0x48F JUMPI DUP1 PUSH4 0xC24A0F8B EQ PUSH2 0x4A4 JUMPI DUP1 PUSH4 0xC884EF83 EQ PUSH2 0x4B9 JUMPI PUSH2 0x1CB JUMP JUMPDEST DUP1 PUSH4 0x86433374 GT PUSH2 0xC6 JUMPI DUP1 PUSH4 0x86433374 EQ PUSH2 0x43B JUMPI DUP1 PUSH4 0x8D8F2ADB EQ PUSH2 0x450 JUMPI DUP1 PUSH4 0x919E93B5 EQ PUSH2 0x465 JUMPI DUP1 PUSH4 0x99FDB320 EQ PUSH2 0x47A JUMPI PUSH2 0x1CB JUMP JUMPDEST DUP1 PUSH4 0x7E1C0C09 EQ PUSH2 0x3FC JUMPI DUP1 PUSH4 0x7F386B6C EQ PUSH2 0x411 JUMPI DUP1 PUSH4 0x7FF9B596 EQ PUSH2 0x426 JUMPI PUSH2 0x1CB JUMP JUMPDEST DUP1 PUSH4 0x3D15CC6D GT PUSH2 0x159 JUMPI DUP1 PUSH4 0x4DC80E15 GT PUSH2 0x133 JUMPI DUP1 PUSH4 0x4DC80E15 EQ PUSH2 0x375 JUMPI DUP1 PUSH4 0x521EB273 EQ PUSH2 0x3A8 JUMPI DUP1 PUSH4 0x5228733F EQ PUSH2 0x3BD JUMPI DUP1 PUSH4 0x73973FCB EQ PUSH2 0x3D2 JUMPI PUSH2 0x1CB JUMP JUMPDEST DUP1 PUSH4 0x3D15CC6D EQ PUSH2 0x29E JUMPI DUP1 PUSH4 0x46467839 EQ PUSH2 0x2CF JUMPI DUP1 PUSH4 0x4CE5505F EQ PUSH2 0x308 JUMPI PUSH2 0x1CB JUMP JUMPDEST DUP1 PUSH4 0x214BB60F GT PUSH2 0x195 JUMPI DUP1 PUSH4 0x214BB60F EQ PUSH2 0x236 JUMPI DUP1 PUSH4 0x23BB46B6 EQ PUSH2 0x25F JUMPI DUP1 PUSH4 0x32A0F2D7 EQ PUSH2 0x274 JUMPI DUP1 PUSH4 0x36D0054B EQ PUSH2 0x289 JUMPI PUSH2 0x1CB JUMP JUMPDEST DUP1 PUSH4 0x482A787 EQ PUSH2 0x1D0 JUMPI DUP1 PUSH4 0xB97BC86 EQ PUSH2 0x1FA JUMPI DUP1 PUSH4 0x1B3E460E EQ PUSH2 0x221 JUMPI PUSH2 0x1CB JUMP JUMPDEST CALLDATASIZE PUSH2 0x1CB JUMPI PUSH2 0x1C9 CALLER PUSH2 0x56F JUMP JUMPDEST STOP JUMPDEST PUSH1 0x0 DUP1 REVERT JUMPDEST CALLVALUE DUP1 ISZERO PUSH2 0x1DC JUMPI PUSH1 0x0 DUP1 REVERT JUMPDEST POP PUSH2 0x1C9 PUSH1 0x4 DUP1 CALLDATASIZE SUB PUSH1 0x20 DUP2 LT ISZERO PUSH2 0x1F3 JUMPI PUSH1 0x0 DUP1 REVERT JUMPDEST POP CALLDATALOAD PUSH2 0x608 JUMP JUMPDEST CALLVALUE DUP1 ISZERO PUSH2 0x206 JUMPI PUSH1 0x0 DUP1 REVERT JUMPDEST POP PUSH2 0x20F PUSH2 0x615 JUMP JUMPDEST PUSH1 0x40 DUP1 MLOAD SWAP2 DUP3 MSTORE MLOAD SWAP1 DUP2 SWAP1 SUB PUSH1 0x20 ADD SWAP1 RETURN JUMPDEST CALLVALUE DUP1 ISZERO PUSH2 0x22D JUMPI PUSH1 0x0 DUP1 REVERT JUMPDEST POP PUSH2 0x20F PUSH2 0x61B JUMP JUMPDEST CALLVALUE DUP1 ISZERO PUSH2 0x242 JUMPI PUSH1 0x0 DUP1 REVERT JUMPDEST POP PUSH2 0x24B PUSH2 0x620 JUMP JUMPDEST PUSH1 0x40 DUP1 MLOAD SWAP2 ISZERO ISZERO DUP3 MSTORE MLOAD SWAP1 DUP2 SWAP1 SUB PUSH1 0x20 ADD SWAP1 RETURN JUMPDEST CALLVALUE DUP1 ISZERO PUSH2 0x26B JUMPI PUSH1 0x0 DUP1 REVERT JUMPDEST POP PUSH2 0x20F PUSH2 0x62E JUMP JUMPDEST CALLVALUE DUP1 ISZERO PUSH2 0x280 JUMPI PUSH1 0x0 DUP1 REVERT JUMPDEST POP PUSH2 0x20F PUSH2 0x634 JUMP JUMPDEST CALLVALUE DUP1 ISZERO PUSH2 0x295 JUMPI PUSH1 0x0 DUP1 REVERT JUMPDEST POP PUSH2 0x24B PUSH2 0x669 JUMP JUMPDEST CALLVALUE DUP1 ISZERO PUSH2 0x2AA JUMPI PUSH1 0x0 DUP1 REVERT JUMPDEST POP PUSH2 0x2B3 PUSH2 0x6A3 JUMP JUMPDEST PUSH1 0x40 DUP1 MLOAD PUSH1 0x1 PUSH1 0x1 PUSH1 0xA0 SHL SUB SWAP1 SWAP3 AND DUP3 MSTORE MLOAD SWAP1 DUP2 SWAP1 SUB PUSH1 0x20 ADD SWAP1 RETURN JUMPDEST CALLVALUE DUP1 ISZERO PUSH2 0x2DB JUMPI PUSH1 0x0 DUP1 REVERT JUMPDEST POP PUSH2 0x1C9 PUSH1 0x4 DUP1 CALLDATASIZE SUB PUSH1 0x40 DUP2 LT ISZERO PUSH2 0x2F2 JUMPI PUSH1 0x0 DUP1 REVERT JUMPDEST POP PUSH1 0x1 PUSH1 0x1 PUSH1 0xA0 SHL SUB DUP2 CALLDATALOAD AND SWAP1 PUSH1 0x20 ADD CALLDATALOAD PUSH2 0x6B2 JUMP JUMPDEST CALLVALUE DUP1 ISZERO PUSH2 0x314 JUMPI PUSH1 0x0 DUP1 REVERT JUMPDEST POP PUSH2 0x1C9 PUSH1 0x4 DUP1 CALLDATASIZE SUB PUSH2 0x120 DUP2 LT ISZERO PUSH2 0x32C JUMPI PUSH1 0x0 DUP1 REVERT JUMPDEST POP PUSH1 0x1 PUSH1 0x1 PUSH1 0xA0 SHL SUB DUP2 CALLDATALOAD DUP2 AND SWAP2 PUSH1 0x20 DUP2 ADD CALLDATALOAD DUP3 AND SWAP2 PUSH1 0x40 DUP3 ADD CALLDATALOAD SWAP2 PUSH1 0x60 DUP2 ADD CALLDATALOAD SWAP2 PUSH1 0x80 DUP3 ADD CALLDATALOAD SWAP2 PUSH1 0xA0 DUP2 ADD CALLDATALOAD DUP3 AND SWAP2 PUSH1 0xC0 DUP3 ADD CALLDATALOAD SWAP2 PUSH1 0xE0 DUP2 ADD CALLDATALOAD SWAP2 PUSH2 0x100 SWAP1 SWAP2 ADD CALLDATALOAD AND PUSH2 0x712 JUMP JUMPDEST CALLVALUE DUP1 ISZERO PUSH2 0x381 JUMPI PUSH1 0x0 DUP1 REVERT JUMPDEST POP PUSH2 0x20F PUSH1 0x4 DUP1 CALLDATASIZE SUB PUSH1 0x20 DUP2 LT ISZERO PUSH2 0x398 JUMPI PUSH1 0x0 DUP1 REVERT JUMPDEST POP CALLDATALOAD PUSH1 0x1 PUSH1 0x1 PUSH1 0xA0 SHL SUB AND PUSH2 0x81C JUMP JUMPDEST CALLVALUE DUP1 ISZERO PUSH2 0x3B4 JUMPI PUSH1 0x0 DUP1 REVERT JUMPDEST POP PUSH2 0x2B3 PUSH2 0x87C JUMP JUMPDEST CALLVALUE DUP1 ISZERO PUSH2 0x3C9 JUMPI PUSH1 0x0 DUP1 REVERT JUMPDEST POP PUSH2 0x1C9 PUSH2 0x88B JUMP JUMPDEST CALLVALUE DUP1 ISZERO PUSH2 0x3DE JUMPI PUSH1 0x0 DUP1 REVERT JUMPDEST POP PUSH2 0x20F PUSH1 0x4 DUP1 CALLDATASIZE SUB PUSH1 0x20 DUP2 LT ISZERO PUSH2 0x3F5 JUMPI PUSH1 0x0 DUP1 REVERT JUMPDEST POP CALLDATALOAD PUSH2 0x917 JUMP JUMPDEST CALLVALUE DUP1 ISZERO PUSH2 0x408 JUMPI PUSH1 0x0 DUP1 REVERT JUMPDEST POP PUSH2 0x20F PUSH2 0x975 JUMP JUMPDEST CALLVALUE DUP1 ISZERO PUSH2 0x41D JUMPI PUSH1 0x0 DUP1 REVERT JUMPDEST POP PUSH2 0x20F PUSH2 0x97B JUMP JUMPDEST CALLVALUE DUP1 ISZERO PUSH2 0x432 JUMPI PUSH1 0x0 DUP1 REVERT JUMPDEST POP PUSH2 0x20F PUSH2 0x981 JUMP JUMPDEST CALLVALUE DUP1 ISZERO PUSH2 0x447 JUMPI PUSH1 0x0 DUP1 REVERT JUMPDEST POP PUSH2 0x24B PUSH2 0x9A6 JUMP JUMPDEST CALLVALUE DUP1 ISZERO PUSH2 0x45C JUMPI PUSH1 0x0 DUP1 REVERT JUMPDEST POP PUSH2 0x1C9 PUSH2 0x9BF JUMP JUMPDEST CALLVALUE DUP1 ISZERO PUSH2 0x471 JUMPI PUSH1 0x0 DUP1 REVERT JUMPDEST POP PUSH2 0x20F PUSH2 0xA59 JUMP JUMPDEST CALLVALUE DUP1 ISZERO PUSH2 0x486 JUMPI PUSH1 0x0 DUP1 REVERT JUMPDEST POP PUSH2 0x2B3 PUSH2 0xA7B JUMP JUMPDEST CALLVALUE DUP1 ISZERO PUSH2 0x49B JUMPI PUSH1 0x0 DUP1 REVERT JUMPDEST POP PUSH2 0x20F PUSH2 0xA90 JUMP JUMPDEST CALLVALUE DUP1 ISZERO PUSH2 0x4B0 JUMPI PUSH1 0x0 DUP1 REVERT JUMPDEST POP PUSH2 0x20F PUSH2 0xAEE JUMP JUMPDEST CALLVALUE DUP1 ISZERO PUSH2 0x4C5 JUMPI PUSH1 0x0 DUP1 REVERT JUMPDEST POP PUSH2 0x20F PUSH1 0x4 DUP1 CALLDATASIZE SUB PUSH1 0x20 DUP2 LT ISZERO PUSH2 0x4DC JUMPI PUSH1 0x0 DUP1 REVERT JUMPDEST POP CALLDATALOAD PUSH1 0x1 PUSH1 0x1 PUSH1 0xA0 SHL SUB AND PUSH2 0xAF4 JUMP JUMPDEST PUSH2 0x1C9 PUSH1 0x4 DUP1 CALLDATASIZE SUB PUSH1 0x20 DUP2 LT ISZERO PUSH2 0x502 JUMPI PUSH1 0x0 DUP1 REVERT JUMPDEST POP CALLDATALOAD PUSH1 0x1 PUSH1 0x1 PUSH1 0xA0 SHL SUB AND PUSH2 0x56F JUMP JUMPDEST CALLVALUE DUP1 ISZERO PUSH2 0x51E JUMPI PUSH1 0x0 DUP1 REVERT JUMPDEST POP PUSH2 0x20F PUSH2 0xB06 JUMP JUMPDEST CALLVALUE DUP1 ISZERO PUSH2 0x533 JUMPI PUSH1 0x0 DUP1 REVERT JUMPDEST POP PUSH2 0x20F PUSH1 0x4 DUP1 CALLDATASIZE SUB PUSH1 0x20 DUP2 LT ISZERO PUSH2 0x54A JUMPI PUSH1 0x0 DUP1 REVERT JUMPDEST POP CALLDATALOAD PUSH1 0x1 PUSH1 0x1 PUSH1 0xA0 SHL SUB AND PUSH2 0xB0C JUMP JUMPDEST CALLVALUE DUP1 ISZERO PUSH2 0x566 JUMPI PUSH1 0x0 DUP1 REVERT JUMPDEST POP PUSH2 0x20F PUSH2 0xB1E JUMP JUMPDEST PUSH1 0x8 SLOAD PUSH1 0x1 PUSH1 0x1 PUSH1 0xA0 SHL SUB AND PUSH20 0xEEEEEEEEEEEEEEEEEEEEEEEEEEEEEEEEEEEEEEEE EQ PUSH2 0x59A JUMPI PUSH1 0x0 DUP1 REVERT JUMPDEST PUSH1 0x0 PUSH2 0x5A5 CALLVALUE PUSH2 0x917 JUMP JUMPDEST SWAP1 POP PUSH1 0x0 PUSH2 0x5B3 CALLVALUE DUP4 PUSH2 0xB24 JUMP JUMPDEST SWAP1 POP DUP2 ISZERO PUSH2 0x5C5 JUMPI PUSH2 0x5C5 DUP4 DUP4 PUSH2 0xB6F JUMP JUMPDEST DUP1 ISZERO PUSH2 0x603 JUMPI PUSH1 0x40 MLOAD PUSH1 0x1 PUSH1 0x1 PUSH1 0xA0 SHL SUB DUP5 AND SWAP1 DUP3 ISZERO PUSH2 0x8FC MUL SWAP1 DUP4 SWAP1 PUSH1 0x0 DUP2 DUP2 DUP2 DUP6 DUP9 DUP9 CALL SWAP4 POP POP POP POP ISZERO DUP1 ISZERO PUSH2 0x601 JUMPI RETURNDATASIZE PUSH1 0x0 DUP1 RETURNDATACOPY RETURNDATASIZE PUSH1 0x0 REVERT JUMPDEST POP JUMPDEST POP POP POP JUMP JUMPDEST PUSH2 0x612 CALLER DUP3 PUSH2 0x6B2 JUMP JUMPDEST POP JUMP JUMPDEST PUSH1 0x0 SLOAD DUP2 JUMP JUMPDEST PUSH1 0x2 DUP2 JUMP JUMPDEST PUSH1 0x7 SLOAD PUSH2 0x100 SWAP1 DIV PUSH1 0xFF AND DUP2 JUMP JUMPDEST PUSH1 0x6 SLOAD DUP2 JUMP JUMPDEST PUSH1 0x0 PUSH2 0x63E PUSH2 0xA90 JUMP JUMPDEST PUSH2 0x646 PUSH2 0x981 JUMP JUMPDEST GT ISZERO PUSH2 0x65B JUMPI PUSH2 0x654 PUSH2 0x981 JUMP JUMPDEST SWAP1 POP PUSH2 0x666 JUMP JUMPDEST PUSH2 0x663 PUSH2 0xA90 JUMP JUMPDEST SWAP1 POP JUMPDEST SWAP1 JUMP JUMPDEST PUSH1 0x0 PUSH2 0x673 PUSH2 0x634 JUMP JUMPDEST PUSH2 0x69C PUSH1 0x4 SLOAD PUSH2 0x696 PUSH8 0xDE0B6B3A7640000 PUSH1 0x6 SLOAD PUSH2 0xC20 SWAP1 SWAP2 SWAP1 PUSH4 0xFFFFFFFF AND JUMP JUMPDEST SWAP1 PUSH2 0xC79 JUMP JUMPDEST LT ISZERO SWAP1 POP SWAP1 JUMP JUMPDEST PUSH1 0x8 SLOAD PUSH1 0x1 PUSH1 0x1 PUSH1 0xA0 SHL SUB AND DUP2 JUMP JUMPDEST PUSH1 0x8 SLOAD PUSH1 0x1 PUSH1 0x1 PUSH1 0xA0 SHL SUB AND PUSH20 0xEEEEEEEEEEEEEEEEEEEEEEEEEEEEEEEEEEEEEEEE EQ ISZERO PUSH2 0x6DE JUMPI PUSH1 0x0 DUP1 REVERT JUMPDEST PUSH1 0x0 PUSH2 0x6E9 DUP3 PUSH2 0x917 JUMP JUMPDEST SWAP1 POP DUP1 ISZERO PUSH2 0x603 JUMPI PUSH1 0x8 SLOAD PUSH2 0x708 SWAP1 PUSH1 0x1 PUSH1 0x1 PUSH1 0xA0 SHL SUB AND DUP5 DUP5 PUSH2 0xCBB JUMP JUMPDEST PUSH2 0x603 DUP4 DUP3 PUSH2 0xB6F JUMP JUMPDEST PUSH1 0x7 SLOAD PUSH1 0xFF AND ISZERO PUSH2 0x722 JUMPI PUSH1 0x0 DUP1 REVERT JUMPDEST DUP6 DUP6 GT PUSH2 0x72E JUMPI PUSH1 0x0 DUP1 REVERT JUMPDEST DUP2 DUP4 GT PUSH2 0x73A JUMPI PUSH1 0x0 DUP1 REVERT JUMPDEST PUSH1 0x0 DUP3 GT PUSH2 0x747 JUMPI PUSH1 0x0 DUP1 REVERT JUMPDEST PUSH1 0x7 DUP1 SLOAD PUSH1 0x1 PUSH1 0x1 PUSH1 0xA0 SHL SUB DUP1 DUP12 AND PUSH3 0x10000 MUL PUSH3 0x10000 PUSH1 0x1 PUSH1 0xB0 SHL SUB NOT SWAP1 SWAP3 AND SWAP2 SWAP1 SWAP2 OR SWAP1 SWAP2 SSTORE PUSH1 0x8 DUP1 SLOAD DUP7 DUP4 AND PUSH1 0x1 PUSH1 0x1 PUSH1 0xA0 SHL SUB NOT SWAP2 DUP3 AND OR SWAP1 SWAP2 SSTORE PUSH1 0x4 DUP10 SWAP1 SSTORE PUSH1 0x0 DUP9 DUP2 SSTORE PUSH1 0x1 DUP9 SWAP1 SSTORE PUSH1 0x2 DUP7 SWAP1 SSTORE PUSH1 0x3 DUP6 SWAP1 SSTORE PUSH1 0x9 DUP1 SLOAD SWAP4 DUP6 AND SWAP4 SWAP1 SWAP3 AND SWAP3 SWAP1 SWAP3 OR SWAP1 SSTORE PUSH2 0x7BB DUP5 DUP5 PUSH2 0xB24 JUMP JUMPDEST SWAP1 POP PUSH1 0x0 PUSH2 0x7D6 PUSH1 0x0 SLOAD PUSH1 0x1 SLOAD PUSH2 0xB24 SWAP1 SWAP2 SWAP1 PUSH4 0xFFFFFFFF AND JUMP JUMPDEST SWAP1 POP PUSH2 0x7E2 DUP3 DUP3 PUSH2 0xC79 JUMP JUMPDEST PUSH1 0x5 SSTORE PUSH1 0x7 SLOAD PUSH2 0x802 SWAP1 PUSH3 0x10000 SWAP1 DIV PUSH1 0x1 PUSH1 0x1 PUSH1 0xA0 SHL SUB AND DUP13 DUP12 PUSH2 0xCBB JUMP JUMPDEST POP POP PUSH1 0x7 DUP1 SLOAD PUSH1 0xFF NOT AND PUSH1 0x1 OR SWAP1 SSTORE POP POP POP POP POP POP POP POP POP JUMP JUMPDEST PUSH1 0x0 DUP1 PUSH2 0x855 PUSH2 0x82A PUSH2 0x634 JUMP JUMPDEST PUSH1 0x1 PUSH1 0x1 PUSH1 0xA0 SHL SUB DUP6 AND PUSH1 0x0 SWAP1 DUP2 MSTORE PUSH1 0xA PUSH1 0x20 MSTORE PUSH1 0x40 SWAP1 KECCAK256 SLOAD PUSH2 0x696 SWAP1 PUSH8 0xDE0B6B3A7640000 PUSH2 0xC20 JUMP JUMPDEST CALLER PUSH1 0x0 SWAP1 DUP2 MSTORE PUSH1 0xB PUSH1 0x20 MSTORE PUSH1 0x40 SWAP1 KECCAK256 SLOAD SWAP1 SWAP2 POP PUSH2 0x873 SWAP1 DUP3 SWAP1 PUSH2 0xB24 JUMP JUMPDEST SWAP2 POP POP JUMPDEST SWAP2 SWAP1 POP JUMP JUMPDEST PUSH1 0x9 SLOAD PUSH1 0x1 PUSH1 0x1 PUSH1 0xA0 SHL SUB AND DUP2 JUMP JUMPDEST PUSH1 0x7 SLOAD PUSH2 0x100 SWAP1 DIV PUSH1 0xFF AND ISZERO PUSH2 0x8A0 JUMPI PUSH1 0x0 DUP1 REVERT JUMPDEST PUSH2 0x8A8 PUSH2 0x669 JUMP JUMPDEST ISZERO PUSH2 0x8D2 JUMPI PUSH1 0x8 SLOAD PUSH1 0x9 SLOAD PUSH1 0x6 SLOAD PUSH2 0x8CD SWAP3 PUSH1 0x1 PUSH1 0x1 PUSH1 0xA0 SHL SUB SWAP1 DUP2 AND SWAP3 AND SWAP1 PUSH2 0xDE3 JUMP JUMPDEST PUSH2 0x906 JUMP JUMPDEST PUSH1 0x1 SLOAD TIMESTAMP GT PUSH2 0x8E0 JUMPI PUSH1 0x0 DUP1 REVERT JUMPDEST PUSH1 0x7 SLOAD PUSH1 0x9 SLOAD PUSH1 0x4 SLOAD PUSH2 0x906 SWAP3 PUSH1 0x1 PUSH1 0x1 PUSH1 0xA0 SHL SUB PUSH3 0x10000 SWAP1 SWAP2 DIV DUP2 AND SWAP3 AND SWAP1 PUSH2 0xDE3 JUMP JUMPDEST PUSH1 0x7 DUP1 SLOAD PUSH2 0xFF00 NOT AND PUSH2 0x100 OR SWAP1 SSTORE JUMP JUMPDEST PUSH1 0x0 DUP1 PUSH2 0x93A PUSH8 0xDE0B6B3A7640000 PUSH2 0x696 PUSH2 0x931 PUSH2 0x634 JUMP JUMPDEST PUSH1 0x4 SLOAD SWAP1 PUSH2 0xC20 JUMP JUMPDEST SWAP1 POP DUP1 PUSH2 0x952 DUP5 PUSH1 0x6 SLOAD PUSH2 0xE4F SWAP1 SWAP2 SWAP1 PUSH4 0xFFFFFFFF AND JUMP JUMPDEST GT ISZERO PUSH2 0x96E JUMPI PUSH1 0x6 SLOAD PUSH2 0x966 SWAP1 DUP3 SWAP1 PUSH2 0xB24 JUMP JUMPDEST SWAP2 POP POP PUSH2 0x877 JUMP JUMPDEST POP SWAP1 SWAP2 SWAP1 POP JUMP JUMPDEST PUSH1 0x4 SLOAD DUP2 JUMP JUMPDEST PUSH1 0x3 SLOAD DUP2 JUMP JUMPDEST PUSH1 0x0 PUSH2 0x663 PUSH1 0x4 SLOAD PUSH2 0x696 PUSH8 0xDE0B6B3A7640000 PUSH1 0x6 SLOAD PUSH2 0xC20 SWAP1 SWAP2 SWAP1 PUSH4 0xFFFFFFFF AND JUMP JUMPDEST PUSH1 0x0 PUSH2 0x9B0 PUSH2 0x669 JUMP JUMPDEST DUP1 PUSH2 0x663 JUMPI POP POP PUSH1 0x1 SLOAD TIMESTAMP GT SWAP1 JUMP JUMPDEST PUSH2 0x9C7 PUSH2 0x669 JUMP JUMPDEST ISZERO PUSH2 0xA1C JUMPI PUSH1 0x0 PUSH2 0x9D7 CALLER PUSH2 0x81C JUMP JUMPDEST SWAP1 POP PUSH1 0x0 DUP2 GT PUSH2 0x9E6 JUMPI PUSH1 0x0 DUP1 REVERT JUMPDEST CALLER PUSH1 0x0 DUP2 DUP2 MSTORE PUSH1 0xB PUSH1 0x20 MSTORE PUSH1 0x40 SWAP1 KECCAK256 DUP3 SWAP1 SSTORE PUSH1 0x7 SLOAD PUSH2 0xA16 SWAP2 PUSH3 0x10000 SWAP1 SWAP2 DIV PUSH1 0x1 PUSH1 0x1 PUSH1 0xA0 SHL SUB AND SWAP1 DUP4 PUSH2 0xDE3 JUMP JUMPDEST POP PUSH2 0xA57 JUMP JUMPDEST PUSH1 0x1 SLOAD TIMESTAMP GT PUSH2 0xA2A JUMPI PUSH1 0x0 DUP1 REVERT JUMPDEST CALLER PUSH1 0x0 DUP2 DUP2 MSTORE PUSH1 0xA PUSH1 0x20 MSTORE PUSH1 0x40 DUP2 KECCAK256 DUP1 SLOAD SWAP2 SWAP1 SSTORE PUSH1 0x8 SLOAD SWAP1 SWAP2 PUSH2 0x612 SWAP2 PUSH1 0x1 PUSH1 0x1 PUSH1 0xA0 SHL SUB AND SWAP1 DUP4 PUSH2 0xDE3 JUMP JUMPDEST JUMP JUMPDEST PUSH1 0x0 PUSH2 0x663 PUSH2 0xA66 PUSH2 0x634 JUMP JUMPDEST PUSH1 0x6 SLOAD PUSH2 0x696 SWAP1 PUSH8 0xDE0B6B3A7640000 PUSH2 0xC20 JUMP JUMPDEST PUSH1 0x7 SLOAD PUSH3 0x10000 SWAP1 DIV PUSH1 0x1 PUSH1 0x1 PUSH1 0xA0 SHL SUB AND DUP2 JUMP JUMPDEST PUSH1 0x0 DUP1 SLOAD TIMESTAMP GT PUSH2 0xAA3 JUMPI POP PUSH1 0x2 SLOAD PUSH2 0x666 JUMP JUMPDEST PUSH1 0x1 SLOAD TIMESTAMP LT PUSH2 0xAB5 JUMPI POP PUSH1 0x3 SLOAD PUSH2 0x666 JUMP JUMPDEST PUSH1 0x0 PUSH2 0xAD8 PUSH1 0x5 SLOAD PUSH2 0xAD2 PUSH1 0x0 SLOAD TIMESTAMP PUSH2 0xB24 SWAP1 SWAP2 SWAP1 PUSH4 0xFFFFFFFF AND JUMP JUMPDEST SWAP1 PUSH2 0xC20 JUMP JUMPDEST PUSH1 0x2 SLOAD SWAP1 SWAP2 POP PUSH2 0xAE8 SWAP1 DUP3 PUSH2 0xB24 JUMP JUMPDEST SWAP2 POP POP SWAP1 JUMP JUMPDEST PUSH1 0x1 SLOAD DUP2 JUMP JUMPDEST PUSH1 0xB PUSH1 0x20 MSTORE PUSH1 0x0 SWAP1 DUP2 MSTORE PUSH1 0x40 SWAP1 KECCAK256 SLOAD DUP2 JUMP JUMPDEST PUSH1 0x5 SLOAD DUP2 JUMP JUMPDEST PUSH1 0xA PUSH1 0x20 MSTORE PUSH1 0x0 SWAP1 DUP2 MSTORE PUSH1 0x40 SWAP1 KECCAK256 SLOAD DUP2 JUMP JUMPDEST PUSH1 0x2 SLOAD DUP2 JUMP JUMPDEST PUSH1 0x0 PUSH2 0xB66 DUP4 DUP4 PUSH1 0x40 MLOAD DUP1 PUSH1 0x40 ADD PUSH1 0x40 MSTORE DUP1 PUSH1 0x1E DUP2 MSTORE PUSH1 0x20 ADD PUSH32 0x536166654D6174683A207375627472616374696F6E206F766572666C6F770000 DUP2 MSTORE POP PUSH2 0xEA9 JUMP JUMPDEST SWAP1 POP JUMPDEST SWAP3 SWAP2 POP POP JUMP JUMPDEST PUSH1 0x0 SLOAD TIMESTAMP LT ISZERO DUP1 ISZERO PUSH2 0xB83 JUMPI POP PUSH1 0x1 SLOAD TIMESTAMP GT ISZERO JUMPDEST PUSH2 0xB8C JUMPI PUSH1 0x0 DUP1 REVERT JUMPDEST PUSH1 0x1 PUSH1 0x1 PUSH1 0xA0 SHL SUB DUP3 AND PUSH1 0x0 SWAP1 DUP2 MSTORE PUSH1 0xA PUSH1 0x20 MSTORE PUSH1 0x40 SWAP1 KECCAK256 SLOAD PUSH2 0xBAF SWAP1 DUP3 PUSH2 0xE4F JUMP JUMPDEST PUSH1 0x1 PUSH1 0x1 PUSH1 0xA0 SHL SUB DUP4 AND PUSH1 0x0 SWAP1 DUP2 MSTORE PUSH1 0xA PUSH1 0x20 MSTORE PUSH1 0x40 SWAP1 KECCAK256 SSTORE PUSH1 0x6 SLOAD PUSH2 0xBD5 SWAP1 DUP3 PUSH2 0xE4F JUMP JUMPDEST PUSH1 0x6 SSTORE PUSH1 0x40 DUP1 MLOAD PUSH1 0x1 PUSH1 0x1 PUSH1 0xA0 SHL SUB DUP5 AND DUP2 MSTORE PUSH1 0x20 DUP2 ADD DUP4 SWAP1 MSTORE DUP2 MLOAD PUSH32 0x77511A636BA1F10551CC7B89C13FF66A6AC9344E8A917527817A9690B15AF7A SWAP3 SWAP2 DUP2 SWAP1 SUB SWAP1 SWAP2 ADD SWAP1 LOG1 POP POP JUMP JUMPDEST PUSH1 0x0 DUP3 PUSH2 0xC2F JUMPI POP PUSH1 0x0 PUSH2 0xB69 JUMP JUMPDEST DUP3 DUP3 MUL DUP3 DUP5 DUP3 DUP2 PUSH2 0xC3C JUMPI INVALID JUMPDEST DIV EQ PUSH2 0xB66 JUMPI PUSH1 0x40 MLOAD PUSH3 0x461BCD PUSH1 0xE5 SHL DUP2 MSTORE PUSH1 0x4 ADD DUP1 DUP1 PUSH1 0x20 ADD DUP3 DUP2 SUB DUP3 MSTORE PUSH1 0x21 DUP2 MSTORE PUSH1 0x20 ADD DUP1 PUSH2 0x1022 PUSH1 0x21 SWAP2 CODECOPY PUSH1 0x40 ADD SWAP2 POP POP PUSH1 0x40 MLOAD DUP1 SWAP2 SUB SWAP1 REVERT JUMPDEST PUSH1 0x0 PUSH2 0xB66 DUP4 DUP4 PUSH1 0x40 MLOAD DUP1 PUSH1 0x40 ADD PUSH1 0x40 MSTORE DUP1 PUSH1 0x1A DUP2 MSTORE PUSH1 0x20 ADD PUSH32 0x536166654D6174683A206469766973696F6E206279207A65726F000000000000 DUP2 MSTORE POP PUSH2 0xF40 JUMP JUMPDEST PUSH1 0x40 DUP1 MLOAD PUSH1 0x1 PUSH1 0x1 PUSH1 0xA0 SHL SUB DUP5 DUP2 AND PUSH1 0x24 DUP4 ADD MSTORE ADDRESS PUSH1 0x44 DUP4 ADD MSTORE PUSH1 0x64 DUP1 DUP4 ADD DUP6 SWAP1 MSTORE DUP4 MLOAD DUP1 DUP5 SUB SWAP1 SWAP2 ADD DUP2 MSTORE PUSH1 0x84 SWAP1 SWAP3 ADD DUP4 MSTORE PUSH1 0x20 DUP3 ADD DUP1 MLOAD PUSH1 0x1 PUSH1 0x1 PUSH1 0xE0 SHL SUB AND PUSH4 0x23B872DD PUSH1 0xE0 SHL OR DUP2 MSTORE SWAP3 MLOAD DUP3 MLOAD PUSH1 0x0 SWAP5 PUSH1 0x60 SWAP5 SWAP4 DUP10 AND SWAP4 SWAP3 SWAP2 DUP3 SWAP2 SWAP1 DUP1 DUP4 DUP4 JUMPDEST PUSH1 0x20 DUP4 LT PUSH2 0xD3E JUMPI DUP1 MLOAD DUP3 MSTORE PUSH1 0x1F NOT SWAP1 SWAP3 ADD SWAP2 PUSH1 0x20 SWAP2 DUP3 ADD SWAP2 ADD PUSH2 0xD1F JUMP JUMPDEST PUSH1 0x1 DUP4 PUSH1 0x20 SUB PUSH2 0x100 EXP SUB DUP1 NOT DUP3 MLOAD AND DUP2 DUP5 MLOAD AND DUP1 DUP3 OR DUP6 MSTORE POP POP POP POP POP POP SWAP1 POP ADD SWAP2 POP POP PUSH1 0x0 PUSH1 0x40 MLOAD DUP1 DUP4 SUB DUP2 PUSH1 0x0 DUP7 GAS CALL SWAP2 POP POP RETURNDATASIZE DUP1 PUSH1 0x0 DUP2 EQ PUSH2 0xDA0 JUMPI PUSH1 0x40 MLOAD SWAP2 POP PUSH1 0x1F NOT PUSH1 0x3F RETURNDATASIZE ADD AND DUP3 ADD PUSH1 0x40 MSTORE RETURNDATASIZE DUP3 MSTORE RETURNDATASIZE PUSH1 0x0 PUSH1 0x20 DUP5 ADD RETURNDATACOPY PUSH2 0xDA5 JUMP JUMPDEST PUSH1 0x60 SWAP2 POP JUMPDEST POP SWAP2 POP SWAP2 POP DUP2 DUP1 ISZERO PUSH2 0xDD3 JUMPI POP DUP1 MLOAD ISZERO DUP1 PUSH2 0xDD3 JUMPI POP DUP1 DUP1 PUSH1 0x20 ADD SWAP1 MLOAD PUSH1 0x20 DUP2 LT ISZERO PUSH2 0xDD0 JUMPI PUSH1 0x0 DUP1 REVERT JUMPDEST POP MLOAD JUMPDEST PUSH2 0xDDC JUMPI PUSH1 0x0 DUP1 REVERT JUMPDEST POP POP POP POP POP JUMP JUMPDEST PUSH1 0x1 PUSH1 0x1 PUSH1 0xA0 SHL SUB DUP4 AND PUSH20 0xEEEEEEEEEEEEEEEEEEEEEEEEEEEEEEEEEEEEEEEE EQ ISZERO PUSH2 0xE44 JUMPI PUSH1 0x40 MLOAD PUSH1 0x1 PUSH1 0x1 PUSH1 0xA0 SHL SUB DUP4 AND SWAP1 DUP3 ISZERO PUSH2 0x8FC MUL SWAP1 DUP4 SWAP1 PUSH1 0x0 DUP2 DUP2 DUP2 DUP6 DUP9 DUP9 CALL SWAP4 POP POP POP POP ISZERO DUP1 ISZERO PUSH2 0xE3E JUMPI RETURNDATASIZE PUSH1 0x0 DUP1 RETURNDATACOPY RETURNDATASIZE PUSH1 0x0 REVERT JUMPDEST POP PUSH2 0x603 JUMP JUMPDEST PUSH2 0x603 DUP4 DUP4 DUP4 PUSH2 0xFA5 JUMP JUMPDEST PUSH1 0x0 DUP3 DUP3 ADD DUP4 DUP2 LT ISZERO PUSH2 0xB66 JUMPI PUSH1 0x40 DUP1 MLOAD PUSH3 0x461BCD PUSH1 0xE5 SHL DUP2 MSTORE PUSH1 0x20 PUSH1 0x4 DUP3 ADD MSTORE PUSH1 0x1B PUSH1 0x24 DUP3 ADD MSTORE PUSH32 0x536166654D6174683A206164646974696F6E206F766572666C6F770000000000 PUSH1 0x44 DUP3 ADD MSTORE SWAP1 MLOAD SWAP1 DUP2 SWAP1 SUB PUSH1 0x64 ADD SWAP1 REVERT JUMPDEST PUSH1 0x0 DUP2 DUP5 DUP5 GT ISZERO PUSH2 0xF38 JUMPI PUSH1 0x40 MLOAD PUSH3 0x461BCD PUSH1 0xE5 SHL DUP2 MSTORE PUSH1 0x4 ADD DUP1 DUP1 PUSH1 0x20 ADD DUP3 DUP2 SUB DUP3 MSTORE DUP4 DUP2 DUP2 MLOAD DUP2 MSTORE PUSH1 0x20 ADD SWAP2 POP DUP1 MLOAD SWAP1 PUSH1 0x20 ADD SWAP1 DUP1 DUP4 DUP4 PUSH1 0x0 JUMPDEST DUP4 DUP2 LT ISZERO PUSH2 0xEFD JUMPI DUP2 DUP2 ADD MLOAD DUP4 DUP3 ADD MSTORE PUSH1 0x20 ADD PUSH2 0xEE5 JUMP JUMPDEST POP POP POP POP SWAP1 POP SWAP1 DUP2 ADD SWAP1 PUSH1 0x1F AND DUP1 ISZERO PUSH2 0xF2A JUMPI DUP1 DUP3 SUB DUP1 MLOAD PUSH1 0x1 DUP4 PUSH1 0x20 SUB PUSH2 0x100 EXP SUB NOT AND DUP2 MSTORE PUSH1 0x20 ADD SWAP2 POP JUMPDEST POP SWAP3 POP POP POP PUSH1 0x40 MLOAD DUP1 SWAP2 SUB SWAP1 REVERT JUMPDEST POP POP POP SWAP1 SUB SWAP1 JUMP JUMPDEST PUSH1 0x0 DUP2 DUP4 PUSH2 0xF8F JUMPI PUSH1 0x40 MLOAD PUSH3 0x461BCD PUSH1 0xE5 SHL DUP2 MSTORE PUSH1 0x20 PUSH1 0x4 DUP3 ADD DUP2 DUP2 MSTORE DUP4 MLOAD PUSH1 0x24 DUP5 ADD MSTORE DUP4 MLOAD SWAP1 SWAP3 DUP4 SWAP3 PUSH1 0x44 SWAP1 SWAP2 ADD SWAP2 SWAP1 DUP6 ADD SWAP1 DUP1 DUP4 DUP4 PUSH1 0x0 DUP4 ISZERO PUSH2 0xEFD JUMPI DUP2 DUP2 ADD MLOAD DUP4 DUP3 ADD MSTORE PUSH1 0x20 ADD PUSH2 0xEE5 JUMP JUMPDEST POP PUSH1 0x0 DUP4 DUP6 DUP2 PUSH2 0xF9B JUMPI INVALID JUMPDEST DIV SWAP6 SWAP5 POP POP POP POP POP JUMP JUMPDEST PUSH1 0x40 DUP1 MLOAD PUSH1 0x1 PUSH1 0x1 PUSH1 0xA0 SHL SUB DUP5 DUP2 AND PUSH1 0x24 DUP4 ADD MSTORE PUSH1 0x44 DUP1 DUP4 ADD DUP6 SWAP1 MSTORE DUP4 MLOAD DUP1 DUP5 SUB SWAP1 SWAP2 ADD DUP2 MSTORE PUSH1 0x64 SWAP1 SWAP3 ADD DUP4 MSTORE PUSH1 0x20 DUP3 ADD DUP1 MLOAD PUSH1 0x1 PUSH1 0x1 PUSH1 0xE0 SHL SUB AND PUSH4 0xA9059CBB PUSH1 0xE0 SHL OR DUP2 MSTORE SWAP3 MLOAD DUP3 MLOAD PUSH1 0x0 SWAP5 PUSH1 0x60 SWAP5 SWAP4 DUP10 AND SWAP4 SWAP3 SWAP2 DUP3 SWAP2 SWAP1 DUP1 DUP4 DUP4 PUSH1 0x20 DUP4 LT PUSH2 0xD3E JUMPI DUP1 MLOAD DUP3 MSTORE PUSH1 0x1F NOT SWAP1 SWAP3 ADD SWAP2 PUSH1 0x20 SWAP2 DUP3 ADD SWAP2 ADD PUSH2 0xD1F JUMP INVALID MSTORE8 PUSH2 0x6665 0x4D PUSH2 0x7468 GASPRICE KECCAK256 PUSH14 0x756C7469706C69636174696F6E20 PUSH16 0x766572666C6F77A26469706673582212 KECCAK256 CALLCODE 0xFC 0x27 SHR 0xC5 DUP5 0x4D PUSH5 0xB5E567F7BB 0xD6 SWAP15 CODESIZE EXTCODECOPY 0x24 0xB5 PUSH19 0x9E054694D87A9EBFCF17CDC364736F6C634300 MOD 0xC STOP CALLER ",
  "sha1": "c62ffe02a8cacb0e914efaff12b6dfa3833f08d2",
  "source": "pragma solidity ^0.6.9;\n\n// import \"../../interfaces/IMisoAuction.sol\";\n// import \"../Utils/SafeMathPlus.sol\";\n// import \"@openzeppelin/contracts/utils/ReentrancyGuard.sol\";\nimport \"@openzeppelin/contracts/math/SafeMath.sol\";\n\ncontract DutchAuction {\n\n    using SafeMath for uint256;\n    /// @dev The placeholder ETH address.\n    address private constant ETH_ADDRESS = 0xEeeeeEeeeEeEeeEeEeEeeEEEeeeeEeeeeeeeEEeE;\n\n    uint256 public startDate;\n    uint256 public endDate;\n    uint256 public startPrice;\n    uint256 public minimumPrice;\n    uint256 public totalTokens;  // Amount to be sold\n    uint256 public priceDrop; // Price reduction from startPrice at endDate\n    uint256 public commitmentsTotal;\n    bool private initialised;    // AG: should be private\n    bool public finalised;\n    address public auctionToken;\n    address public paymentCurrency;\n    address payable public wallet;  // Where the auction funds will get paid\n    mapping(address => uint256) public commitments;\n    mapping(address => uint256) public claimed;\n\n    // MISOMarket template id\n    uint256 public constant marketTemplate = 2;\n\n    event AddedCommitment(address addr, uint256 commitment);\n\n    /// @dev Init function\n    function initAuction(\n        address _funder,\n        address _token,\n        uint256 _totalTokens,\n        uint256 _startDate,\n        uint256 _endDate,\n        address _paymentCurrency,\n        uint256 _startPrice,\n        uint256 _minimumPrice,\n        address payable _wallet\n    )\n        external\n    {\n        require(!initialised);                // Already Initialised\n        require(_endDate > _startDate);       // End date earlier than start date\n        require(_startPrice > _minimumPrice); // Starting price lower than minimum price\n        require(_minimumPrice > 0);           // Minimum price must be greater than 0\n        auctionToken = _token;\n        paymentCurrency = _paymentCurrency;\n        totalTokens = _totalTokens;\n        startDate = _startDate;\n        endDate = _endDate;\n        startPrice = _startPrice;\n        minimumPrice = _minimumPrice;\n        wallet = _wallet;\n\n        uint256 numerator = startPrice.sub(minimumPrice);\n        uint256 denominator = endDate.sub(startDate);\n        priceDrop = numerator.div(denominator);\n\n        // There are many non-compliant ERC20 tokens... this can handle most, adapted from UniSwap V2\n        _safeTransferFrom(auctionToken, _funder, _totalTokens);\n        initialised = true;\n\n    }\n\n    // Dutch Auction Price Function\n    // ============================\n    //\n    // Start Price -----\n    //                   \\\n    //                    \\\n    //                     \\\n    //                      \\ ------------ Clearing Price\n    //                     / \\            = AmountRaised/TokenSupply\n    //      Token Price  --   \\\n    //                  /      \\\n    //                --        ----------- Minimum Price\n    // Amount raised /          End Time\n    //\n\n    /// @notice The average price of each token from all commitments. \n    function tokenPrice() public view returns (uint256) {\n        return commitmentsTotal.mul(1e18).div(totalTokens);\n    }\n\n      /// @notice Returns price during the auction \n    function priceFunction() public view returns (uint256) {\n        /// @dev Return Auction Price\n        if (block.timestamp <= startDate) {\n            return startPrice;\n        }\n        if (block.timestamp >= endDate) {\n            return minimumPrice;\n        }\n        uint256 priceDiff = block.timestamp.sub(startDate).mul(priceDrop);\n        return startPrice.sub(priceDiff);\n    }\n\n    /// @notice The current clearing price of the Dutch auction\n    function clearingPrice() public view returns (uint256) {\n        /// @dev If auction successful, return tokenPrice\n        if (tokenPrice() > priceFunction()) {\n            return tokenPrice();\n        }\n        return priceFunction();\n    }\n\n    /// @notice How many tokens the user is able to claim\n    function tokensClaimable(address _user) public view returns (uint256) {\n        uint256 tokensAvailable = commitments[_user].mul(1e18).div(clearingPrice());\n        return tokensAvailable.sub(claimed[msg.sender]);\n    }\n\n    /// @notice Total amount of tokens committed at current auction price\n    function totalTokensCommitted() public view returns(uint256) {\n        return commitmentsTotal.mul(1e18).div(clearingPrice());\n    }\n\n\n    //--------------------------------------------------------\n    // Commit to buying tokens! \n    //--------------------------------------------------------\n\n    /// @notice Buy Tokens by committing ETH to this contract address \n    /// @dev Needs sufficient gas limit for additional state changes\n    receive () external payable {\n        commitEth(msg.sender);\n    }\n\n    /// @notice Commit ETH to buy tokens on sale\n    function commitEth (address payable _from) public payable {\n        require(address(paymentCurrency) == ETH_ADDRESS);       // Payment currency is not ETH\n        // Get ETH able to be committed\n        uint256 ethToTransfer = calculateCommitment( msg.value);\n\n        // Accept ETH Payments\n        uint256 ethToRefund = msg.value.sub(ethToTransfer);\n        if (ethToTransfer > 0) {\n            _addCommitment(_from, ethToTransfer);\n        }\n        // Return any ETH to be refunded\n        if (ethToRefund > 0) {\n            _from.transfer(ethToRefund);\n        }\n    }\n\n    /// @notice Commits to an amount during an auction\n    function _addCommitment(address _addr,  uint256 _commitment) internal {\n        require(block.timestamp >= startDate && block.timestamp <= endDate);  // Outside auction hours\n        commitments[_addr] = commitments[_addr].add(_commitment);\n        commitmentsTotal = commitmentsTotal.add(_commitment);\n        emit AddedCommitment(_addr, _commitment);\n    }\n\n    /// @notice Commit approved ERC20 tokens to buy tokens on sale\n    function commitTokens(uint256 _amount) public {\n        commitTokensFrom(msg.sender, _amount);\n    }\n\n    /// @dev Users must approve contract prior to committing tokens to auction\n    function commitTokensFrom(address _from, uint256 _amount) public /* nonReentrant */{\n        require(address(paymentCurrency) != ETH_ADDRESS);          // Only token transfers\n        uint256 tokensToTransfer = calculateCommitment( _amount);\n        if (tokensToTransfer > 0) {\n            _safeTransferFrom(paymentCurrency, _from, _amount);\n            _addCommitment(_from, tokensToTransfer);\n        }\n    }\n\n    /// @notice Returns the amout able to be committed during an auction\n    function calculateCommitment( uint256 _commitment) \n        public view returns (uint256 committed) \n    {\n        uint256 maxCommitment = totalTokens.mul(clearingPrice()).div(1e18);\n        if (commitmentsTotal.add(_commitment) > maxCommitment) {\n            return maxCommitment.sub(commitmentsTotal);\n        }\n        return _commitment;\n    }\n\n\n    //--------------------------------------------------------\n    // Finalise Auction\n    //--------------------------------------------------------\n\n    /// @notice Successful if tokens sold equals totalTokens\n    function auctionSuccessful() public view returns (bool){\n        return commitmentsTotal.mul(1e18).div(totalTokens) >= clearingPrice();\n    }\n\n    /// @notice Returns bool if successful or time has ended\n    function auctionEnded() public view returns (bool){\n        return auctionSuccessful() || block.timestamp > endDate;\n    }\n\n    /// @notice Auction finishes successfully above the reserve\n    /// @dev Transfer contract funds to initialised wallet. \n    function finaliseAuction () public /* nonReentrant */ {\n        require(!finalised);                                  // Auction already finalised\n        if( auctionSuccessful() ) \n        {\n            /// @dev Successful auction\n            /// @dev Transfer contributed tokens to wallet.\n            _tokenPayment(paymentCurrency, wallet, commitmentsTotal);\n        }\n        else\n        {\n            /// @dev Failed auction\n            /// @dev Return auction tokens back to wallet.\n            require(block.timestamp > endDate);               // Auction not yet finished\n            _tokenPayment(auctionToken, wallet, totalTokens);\n        }\n        finalised = true;\n    }\n\n    /// @notice Withdraw your tokens once the Auction has ended.\n    function withdrawTokens() public /* nonReentrant */ {\n        if( auctionSuccessful() ) \n        {\n            /// @dev Successful auction! Transfer claimed tokens.\n            /// @dev AG: Could be only > min to allow early withdraw\n            uint256 tokensToClaim = tokensClaimable(msg.sender);\n            require(tokensToClaim > 0 );                      // No tokens to claim\n            claimed[ msg.sender] = tokensToClaim;\n            _tokenPayment(auctionToken, msg.sender, tokensToClaim);\n        }\n        else \n        {\n            /// @dev Auction did not meet reserve price.\n            /// @dev Return committed funds back to user.\n            require(block.timestamp > endDate);               // Auction not yet finished\n            uint256 fundsCommitted = commitments[ msg.sender];\n            commitments[msg.sender] = 0; // Stop multiple withdrawals and free some gas\n            _tokenPayment(paymentCurrency, msg.sender, fundsCommitted);       \n        }\n    }\n\n\n    //--------------------------------------------------------\n    // Helper Functions\n    //--------------------------------------------------------\n\n    // There are many non-compliant ERC20 tokens... this can handle most, adapted from UniSwap V2\n    // Im trying to make it a habit to put external calls last (reentrancy)\n    // You can put this in an internal function if you like.\n    function _safeTransfer(address token, address to, uint256 amount) internal {\n        // solium-disable-next-line security/no-low-level-calls\n        (bool success, bytes memory data) = token.call(\n            // 0xa9059cbb = bytes4(keccak256(\"transferFrom(address,address,uint256)\"))\n            abi.encodeWithSelector(0xa9059cbb, to, amount)\n        );\n        require(success && (data.length == 0 || abi.decode(data, (bool)))); // ERC20 Transfer failed \n    }\n\n    function _safeTransferFrom(address token, address from, uint256 amount) internal {\n        // solium-disable-next-line security/no-low-level-calls\n        (bool success, bytes memory data) = token.call(\n            // 0x23b872dd = bytes4(keccak256(\"transferFrom(address,address,uint256)\"))\n            abi.encodeWithSelector(0x23b872dd, from, address(this), amount)\n        );\n        require(success && (data.length == 0 || abi.decode(data, (bool)))); // ERC20 TransferFrom failed \n    }\n\n    /// @dev Helper function to handle both ETH and ERC20 payments\n    function _tokenPayment(address _token, address payable _to, uint256 _amount) internal {\n        if (address(_token) == ETH_ADDRESS) {\n            _to.transfer(_amount);\n        } else {\n            _safeTransfer(_token, _to, _amount);\n        }\n    }\n}",
  "sourcePath": "contracts/Auctions/DutchAuction.sol",
  "type": "contract"
}