{
  "abi": [
    {
      "anonymous": false,
      "inputs": [
        {
          "indexed": false,
          "internalType": "address",
          "name": "addr",
          "type": "address"
        },
        {
          "indexed": false,
          "internalType": "uint256",
          "name": "commitment",
          "type": "uint256"
        }
      ],
      "name": "AddedCommitment",
      "type": "event"
    },
    {
      "inputs": [],
      "name": "auctionEnded",
      "outputs": [
        {
          "internalType": "bool",
          "name": "",
          "type": "bool"
        }
      ],
      "stateMutability": "view",
      "type": "function"
    },
    {
      "inputs": [],
      "name": "auctionSuccessful",
      "outputs": [
        {
          "internalType": "bool",
          "name": "",
          "type": "bool"
        }
      ],
      "stateMutability": "view",
      "type": "function"
    },
    {
      "inputs": [],
      "name": "auctionToken",
      "outputs": [
        {
          "internalType": "address",
          "name": "",
          "type": "address"
        }
      ],
      "stateMutability": "view",
      "type": "function"
    },
    {
      "inputs": [
        {
          "internalType": "uint256",
          "name": "_commitment",
          "type": "uint256"
        }
      ],
      "name": "calculateCommitment",
      "outputs": [
        {
          "internalType": "uint256",
          "name": "committed",
          "type": "uint256"
        }
      ],
      "stateMutability": "view",
      "type": "function"
    },
    {
      "inputs": [
        {
          "internalType": "address",
          "name": "",
          "type": "address"
        }
      ],
      "name": "claimed",
      "outputs": [
        {
          "internalType": "uint256",
          "name": "",
          "type": "uint256"
        }
      ],
      "stateMutability": "view",
      "type": "function"
    },
    {
      "inputs": [],
      "name": "clearingPrice",
      "outputs": [
        {
          "internalType": "uint256",
          "name": "",
          "type": "uint256"
        }
      ],
      "stateMutability": "view",
      "type": "function"
    },
    {
      "inputs": [
        {
          "internalType": "address payable",
          "name": "_from",
          "type": "address"
        }
      ],
      "name": "commitEth",
      "outputs": [],
      "stateMutability": "payable",
      "type": "function"
    },
    {
      "inputs": [
        {
          "internalType": "uint256",
          "name": "_amount",
          "type": "uint256"
        }
      ],
      "name": "commitTokens",
      "outputs": [],
      "stateMutability": "nonpayable",
      "type": "function"
    },
    {
      "inputs": [
        {
          "internalType": "address",
          "name": "_from",
          "type": "address"
        },
        {
          "internalType": "uint256",
          "name": "_amount",
          "type": "uint256"
        }
      ],
      "name": "commitTokensFrom",
      "outputs": [],
      "stateMutability": "nonpayable",
      "type": "function"
    },
    {
      "inputs": [
        {
          "internalType": "address",
          "name": "",
          "type": "address"
        }
      ],
      "name": "commitments",
      "outputs": [
        {
          "internalType": "uint256",
          "name": "",
          "type": "uint256"
        }
      ],
      "stateMutability": "view",
      "type": "function"
    },
    {
      "inputs": [],
      "name": "commitmentsTotal",
      "outputs": [
        {
          "internalType": "uint256",
          "name": "",
          "type": "uint256"
        }
      ],
      "stateMutability": "view",
      "type": "function"
    },
    {
      "inputs": [],
      "name": "endDate",
      "outputs": [
        {
          "internalType": "uint256",
          "name": "",
          "type": "uint256"
        }
      ],
      "stateMutability": "view",
      "type": "function"
    },
    {
      "inputs": [],
      "name": "finaliseAuction",
      "outputs": [],
      "stateMutability": "nonpayable",
      "type": "function"
    },
    {
      "inputs": [],
      "name": "finalised",
      "outputs": [
        {
          "internalType": "bool",
          "name": "",
          "type": "bool"
        }
      ],
      "stateMutability": "view",
      "type": "function"
    },
    {
      "inputs": [
        {
          "internalType": "address",
          "name": "_funder",
          "type": "address"
        },
        {
          "internalType": "address",
          "name": "_token",
          "type": "address"
        },
        {
          "internalType": "uint256",
          "name": "_totalTokens",
          "type": "uint256"
        },
        {
          "internalType": "uint256",
          "name": "_startDate",
          "type": "uint256"
        },
        {
          "internalType": "uint256",
          "name": "_endDate",
          "type": "uint256"
        },
        {
          "internalType": "address",
          "name": "_paymentCurrency",
          "type": "address"
        },
        {
          "internalType": "uint256",
          "name": "_startPrice",
          "type": "uint256"
        },
        {
          "internalType": "uint256",
          "name": "_minimumPrice",
          "type": "uint256"
        },
        {
          "internalType": "address payable",
          "name": "_wallet",
          "type": "address"
        }
      ],
      "name": "initAuction",
      "outputs": [],
      "stateMutability": "nonpayable",
      "type": "function"
    },
    {
      "inputs": [],
      "name": "minimumPrice",
      "outputs": [
        {
          "internalType": "uint256",
          "name": "",
          "type": "uint256"
        }
      ],
      "stateMutability": "view",
      "type": "function"
    },
    {
      "inputs": [],
      "name": "paymentCurrency",
      "outputs": [
        {
          "internalType": "address",
          "name": "",
          "type": "address"
        }
      ],
      "stateMutability": "view",
      "type": "function"
    },
    {
      "inputs": [],
      "name": "priceDrop",
      "outputs": [
        {
          "internalType": "uint256",
          "name": "",
          "type": "uint256"
        }
      ],
      "stateMutability": "view",
      "type": "function"
    },
    {
      "inputs": [],
      "name": "priceFunction",
      "outputs": [
        {
          "internalType": "uint256",
          "name": "",
          "type": "uint256"
        }
      ],
      "stateMutability": "view",
      "type": "function"
    },
    {
      "inputs": [],
      "name": "startDate",
      "outputs": [
        {
          "internalType": "uint256",
          "name": "",
          "type": "uint256"
        }
      ],
      "stateMutability": "view",
      "type": "function"
    },
    {
      "inputs": [],
      "name": "startPrice",
      "outputs": [
        {
          "internalType": "uint256",
          "name": "",
          "type": "uint256"
        }
      ],
      "stateMutability": "view",
      "type": "function"
    },
    {
      "inputs": [],
      "name": "tokenPrice",
      "outputs": [
        {
          "internalType": "uint256",
          "name": "",
          "type": "uint256"
        }
      ],
      "stateMutability": "view",
      "type": "function"
    },
    {
      "inputs": [
        {
          "internalType": "address",
          "name": "_user",
          "type": "address"
        }
      ],
      "name": "tokensClaimable",
      "outputs": [
        {
          "internalType": "uint256",
          "name": "",
          "type": "uint256"
        }
      ],
      "stateMutability": "view",
      "type": "function"
    },
    {
      "inputs": [],
      "name": "totalTokens",
      "outputs": [
        {
          "internalType": "uint256",
          "name": "",
          "type": "uint256"
        }
      ],
      "stateMutability": "view",
      "type": "function"
    },
    {
      "inputs": [],
      "name": "totalTokensCommitted",
      "outputs": [
        {
          "internalType": "uint256",
          "name": "",
          "type": "uint256"
        }
      ],
      "stateMutability": "view",
      "type": "function"
    },
    {
      "inputs": [],
      "name": "wallet",
      "outputs": [
        {
          "internalType": "address payable",
          "name": "",
          "type": "address"
        }
      ],
      "stateMutability": "view",
      "type": "function"
    },
    {
      "inputs": [],
      "name": "withdrawTokens",
      "outputs": [],
      "stateMutability": "nonpayable",
      "type": "function"
    },
    {
      "stateMutability": "payable",
      "type": "receive"
    }
  ],
  "bytecode": "608060405234801561001057600080fd5b50611043806100206000396000f3fe6080604052600436106101a05760003560e01c80637e1c0c09116100ec578063a9d87ee61161008a578063cc30cdf711610064578063cc30cdf7146104bc578063d7568b6e146104e2578063e8fcf723146104f7578063f1a9af891461052a576101b0565b8063a9d87ee61461045f578063c24a0f8b14610474578063c884ef8314610489576101b0565b806386433374116100c6578063864333741461040b5780638d8f2adb14610420578063919e93b51461043557806399fdb3201461044a576101b0565b80637e1c0c09146103cc5780637f386b6c146103e15780637ff9b596146103f6576101b0565b80633d15cc6d116101595780634dc80e15116101335780634dc80e1514610345578063521eb273146103785780635228733f1461038d57806373973fcb146103a2576101b0565b80633d15cc6d1461026e578063464678391461029f5780634ce5505f146102d8576101b0565b80630482a787146101b55780630b97bc86146101df578063214bb60f1461020657806323bb46b61461022f57806332a0f2d71461024457806336d0054b14610259576101b0565b366101b0576101ae3361053f565b005b600080fd5b3480156101c157600080fd5b506101ae600480360360208110156101d857600080fd5b50356105d8565b3480156101eb57600080fd5b506101f46105e5565b60408051918252519081900360200190f35b34801561021257600080fd5b5061021b6105eb565b604080519115158252519081900360200190f35b34801561023b57600080fd5b506101f46105f9565b34801561025057600080fd5b506101f46105ff565b34801561026557600080fd5b5061021b610634565b34801561027a57600080fd5b5061028361066e565b604080516001600160a01b039092168252519081900360200190f35b3480156102ab57600080fd5b506101ae600480360360408110156102c257600080fd5b506001600160a01b03813516906020013561067d565b3480156102e457600080fd5b506101ae60048036036101208110156102fc57600080fd5b506001600160a01b038135811691602081013582169160408201359160608101359160808201359160a081013582169160c08201359160e08101359161010090910135166106dd565b34801561035157600080fd5b506101f46004803603602081101561036857600080fd5b50356001600160a01b03166107e7565b34801561038457600080fd5b50610283610847565b34801561039957600080fd5b506101ae610856565b3480156103ae57600080fd5b506101f4600480360360208110156103c557600080fd5b50356108e2565b3480156103d857600080fd5b506101f4610940565b3480156103ed57600080fd5b506101f4610946565b34801561040257600080fd5b506101f461094c565b34801561041757600080fd5b5061021b610971565b34801561042c57600080fd5b506101ae61098a565b34801561044157600080fd5b506101f4610a24565b34801561045657600080fd5b50610283610a46565b34801561046b57600080fd5b506101f4610a5b565b34801561048057600080fd5b506101f4610ab9565b34801561049557600080fd5b506101f4600480360360208110156104ac57600080fd5b50356001600160a01b0316610abf565b6101ae600480360360208110156104d257600080fd5b50356001600160a01b031661053f565b3480156104ee57600080fd5b506101f4610ad1565b34801561050357600080fd5b506101f46004803603602081101561051a57600080fd5b50356001600160a01b0316610ad7565b34801561053657600080fd5b506101f4610ae9565b6008546001600160a01b031673eeeeeeeeeeeeeeeeeeeeeeeeeeeeeeeeeeeeeeee1461056a57600080fd5b6000610575346108e2565b905060006105833483610aef565b90508115610595576105958383610b3a565b80156105d3576040516001600160a01b0384169082156108fc029083906000818181858888f193505050501580156105d1573d6000803e3d6000fd5b505b505050565b6105e2338261067d565b50565b60005481565b600754610100900460ff1681565b60065481565b6000610609610a5b565b61061161094c565b11156106265761061f61094c565b9050610631565b61062e610a5b565b90505b90565b600061063e6105ff565b610667600454610661670de0b6b3a7640000600654610beb90919063ffffffff16565b90610c44565b1015905090565b6008546001600160a01b031681565b6008546001600160a01b031673eeeeeeeeeeeeeeeeeeeeeeeeeeeeeeeeeeeeeeee14156106a957600080fd5b60006106b4826108e2565b905080156105d3576008546106d3906001600160a01b03168484610c86565b6105d38382610b3a565b60075460ff16156106ed57600080fd5b8585116106f957600080fd5b81831161070557600080fd5b6000821161071257600080fd5b600780546001600160a01b03808b16620100000262010000600160b01b031990921691909117909155600880548683166001600160a01b0319918216179091556004899055600088815560018890556002869055600385905560098054938516939092169290921790556107868484610aef565b905060006107a1600054600154610aef90919063ffffffff16565b90506107ad8282610c44565b6005556007546107cd906201000090046001600160a01b03168c8b610c86565b50506007805460ff19166001179055505050505050505050565b6000806108206107f56105ff565b6001600160a01b0385166000908152600a602052604090205461066190670de0b6b3a7640000610beb565b336000908152600b602052604090205490915061083e908290610aef565b9150505b919050565b6009546001600160a01b031681565b600754610100900460ff161561086b57600080fd5b610873610634565b1561089d57600854600954600654610898926001600160a01b03908116921690610dae565b6108d1565b60015442116108ab57600080fd5b6007546009546004546108d1926001600160a01b03620100009091048116921690610dae565b6007805461ff001916610100179055565b600080610905670de0b6b3a76400006106616108fc6105ff565b60045490610beb565b90508061091d84600654610e1a90919063ffffffff16565b111561093957600654610931908290610aef565b915050610842565b5090919050565b60045481565b60035481565b600061062e600454610661670de0b6b3a7640000600654610beb90919063ffffffff16565b600061097b610634565b8061062e575050600154421190565b610992610634565b156109e75760006109a2336107e7565b9050600081116109b157600080fd5b336000818152600b602052604090208290556007546109e191620100009091046001600160a01b03169083610dae565b50610a22565b60015442116109f557600080fd5b336000818152600a60205260408120805491905560085490916105e2916001600160a01b03169083610dae565b565b600061062e610a316105ff565b60065461066190670de0b6b3a7640000610beb565b6007546201000090046001600160a01b031681565b600080544211610a6e5750600254610631565b6001544210610a805750600354610631565b6000610aa3600554610a9d60005442610aef90919063ffffffff16565b90610beb565b600254909150610ab39082610aef565b91505090565b60015481565b600b6020526000908152604090205481565b60055481565b600a6020526000908152604090205481565b60025481565b6000610b3183836040518060400160405280601e81526020017f536166654d6174683a207375627472616374696f6e206f766572666c6f770000815250610e74565b90505b92915050565b6000544210158015610b4e57506001544211155b610b5757600080fd5b6001600160a01b0382166000908152600a6020526040902054610b7a9082610e1a565b6001600160a01b0383166000908152600a6020526040902055600654610ba09082610e1a565b600655604080516001600160a01b03841681526020810183905281517f077511a636ba1f10551cc7b89c13ff66a6ac9344e8a917527817a9690b15af7a929181900390910190a15050565b600082610bfa57506000610b34565b82820282848281610c0757fe5b0414610b315760405162461bcd60e51b8152600401808060200182810382526021815260200180610fed6021913960400191505060405180910390fd5b6000610b3183836040518060400160405280601a81526020017f536166654d6174683a206469766973696f6e206279207a65726f000000000000815250610f0b565b604080516001600160a01b038481166024830152306044830152606480830185905283518084039091018152608490920183526020820180516001600160e01b03166323b872dd60e01b178152925182516000946060949389169392918291908083835b60208310610d095780518252601f199092019160209182019101610cea565b6001836020036101000a0380198251168184511680821785525050505050509050019150506000604051808303816000865af19150503d8060008114610d6b576040519150601f19603f3d011682016040523d82523d6000602084013e610d70565b606091505b5091509150818015610d9e575080511580610d9e5750808060200190516020811015610d9b57600080fd5b50515b610da757600080fd5b5050505050565b6001600160a01b03831673eeeeeeeeeeeeeeeeeeeeeeeeeeeeeeeeeeeeeeee1415610e0f576040516001600160a01b0383169082156108fc029083906000818181858888f19350505050158015610e09573d6000803e3d6000fd5b506105d3565b6105d3838383610f70565b600082820183811015610b31576040805162461bcd60e51b815260206004820152601b60248201527f536166654d6174683a206164646974696f6e206f766572666c6f770000000000604482015290519081900360640190fd5b60008184841115610f035760405162461bcd60e51b81526004018080602001828103825283818151815260200191508051906020019080838360005b83811015610ec8578181015183820152602001610eb0565b50505050905090810190601f168015610ef55780820380516001836020036101000a031916815260200191505b509250505060405180910390fd5b505050900390565b60008183610f5a5760405162461bcd60e51b8152602060048201818152835160248401528351909283926044909101919085019080838360008315610ec8578181015183820152602001610eb0565b506000838581610f6657fe5b0495945050505050565b604080516001600160a01b038481166024830152604480830185905283518084039091018152606490920183526020820180516001600160e01b031663a9059cbb60e01b1781529251825160009460609493891693929182919080838360208310610d095780518252601f199092019160209182019101610cea56fe536166654d6174683a206d756c7469706c69636174696f6e206f766572666c6f77a264697066735822122052d142f74c368639565f555aa5142c2f6d08d77b62cf7b2b942f4c8e731aa02864736f6c634300060c0033",
  "bytecodeSha1": "be520b1a4491627da9c0308a6343ba7574f5433f",
  "compiler": {
    "evm_version": "istanbul",
    "optimizer": {
      "enabled": true,
      "runs": 200
    },
    "version": "0.6.12"
  },
  "contractName": "DutchAuction",
  "language": "Solidity",
  "natspec": {
    "kind": "dev",
    "methods": {
      "auctionEnded()": {
        "notice": "Returns bool if successful or time has ended"
      },
      "auctionSuccessful()": {
        "notice": "Successful if tokens sold equals totalTokens"
      },
      "calculateCommitment(uint256)": {
        "notice": "Returns the amout able to be committed during an auction"
      },
      "clearingPrice()": {
        "notice": "The current clearing price of the Dutch auction"
      },
      "commitEth(address)": {
        "notice": "Commit ETH to buy tokens on sale"
      },
      "commitTokens(uint256)": {
        "notice": "Commit approved ERC20 tokens to buy tokens on sale"
      },
      "commitTokensFrom(address,uint256)": {
        "details": "Users must approve contract prior to committing tokens to auction"
      },
      "finaliseAuction()": {
        "details": "Transfer contract funds to initialised wallet. ",
        "notice": "Auction finishes successfully above the reserve"
      },
      "initAuction(address,address,uint256,uint256,uint256,address,uint256,uint256,address)": {
        "details": "Init function"
      },
      "priceFunction()": {
        "notice": "Returns price during the auction "
      },
      "tokenPrice()": {
        "notice": "The average price of each token from all commitments. "
      },
      "tokensClaimable(address)": {
        "notice": "How many tokens the user is able to claim"
      },
      "totalTokensCommitted()": {
        "notice": "Total amount of tokens committed at current auction price"
      },
      "withdrawTokens()": {
        "notice": "Withdraw your tokens once the Auction has ended."
      }
    },
    "stateVariables": {
      "ETH_ADDRESS": {
        "details": "The placeholder ETH address."
      }
    },
    "version": 1
  },
  "opcodes": "PUSH1 0x80 PUSH1 0x40 MSTORE PUSH1 0x4 CALLDATASIZE LT PUSH2 0x1A0 JUMPI PUSH1 0x0 CALLDATALOAD PUSH1 0xE0 SHR DUP1 PUSH4 0x7E1C0C09 GT PUSH2 0xEC JUMPI DUP1 PUSH4 0xA9D87EE6 GT PUSH2 0x8A JUMPI DUP1 PUSH4 0xCC30CDF7 GT PUSH2 0x64 JUMPI DUP1 PUSH4 0xCC30CDF7 EQ PUSH2 0x4BC JUMPI DUP1 PUSH4 0xD7568B6E EQ PUSH2 0x4E2 JUMPI DUP1 PUSH4 0xE8FCF723 EQ PUSH2 0x4F7 JUMPI DUP1 PUSH4 0xF1A9AF89 EQ PUSH2 0x52A JUMPI PUSH2 0x1B0 JUMP JUMPDEST DUP1 PUSH4 0xA9D87EE6 EQ PUSH2 0x45F JUMPI DUP1 PUSH4 0xC24A0F8B EQ PUSH2 0x474 JUMPI DUP1 PUSH4 0xC884EF83 EQ PUSH2 0x489 JUMPI PUSH2 0x1B0 JUMP JUMPDEST DUP1 PUSH4 0x86433374 GT PUSH2 0xC6 JUMPI DUP1 PUSH4 0x86433374 EQ PUSH2 0x40B JUMPI DUP1 PUSH4 0x8D8F2ADB EQ PUSH2 0x420 JUMPI DUP1 PUSH4 0x919E93B5 EQ PUSH2 0x435 JUMPI DUP1 PUSH4 0x99FDB320 EQ PUSH2 0x44A JUMPI PUSH2 0x1B0 JUMP JUMPDEST DUP1 PUSH4 0x7E1C0C09 EQ PUSH2 0x3CC JUMPI DUP1 PUSH4 0x7F386B6C EQ PUSH2 0x3E1 JUMPI DUP1 PUSH4 0x7FF9B596 EQ PUSH2 0x3F6 JUMPI PUSH2 0x1B0 JUMP JUMPDEST DUP1 PUSH4 0x3D15CC6D GT PUSH2 0x159 JUMPI DUP1 PUSH4 0x4DC80E15 GT PUSH2 0x133 JUMPI DUP1 PUSH4 0x4DC80E15 EQ PUSH2 0x345 JUMPI DUP1 PUSH4 0x521EB273 EQ PUSH2 0x378 JUMPI DUP1 PUSH4 0x5228733F EQ PUSH2 0x38D JUMPI DUP1 PUSH4 0x73973FCB EQ PUSH2 0x3A2 JUMPI PUSH2 0x1B0 JUMP JUMPDEST DUP1 PUSH4 0x3D15CC6D EQ PUSH2 0x26E JUMPI DUP1 PUSH4 0x46467839 EQ PUSH2 0x29F JUMPI DUP1 PUSH4 0x4CE5505F EQ PUSH2 0x2D8 JUMPI PUSH2 0x1B0 JUMP JUMPDEST DUP1 PUSH4 0x482A787 EQ PUSH2 0x1B5 JUMPI DUP1 PUSH4 0xB97BC86 EQ PUSH2 0x1DF JUMPI DUP1 PUSH4 0x214BB60F EQ PUSH2 0x206 JUMPI DUP1 PUSH4 0x23BB46B6 EQ PUSH2 0x22F JUMPI DUP1 PUSH4 0x32A0F2D7 EQ PUSH2 0x244 JUMPI DUP1 PUSH4 0x36D0054B EQ PUSH2 0x259 JUMPI PUSH2 0x1B0 JUMP JUMPDEST CALLDATASIZE PUSH2 0x1B0 JUMPI PUSH2 0x1AE CALLER PUSH2 0x53F JUMP JUMPDEST STOP JUMPDEST PUSH1 0x0 DUP1 REVERT JUMPDEST CALLVALUE DUP1 ISZERO PUSH2 0x1C1 JUMPI PUSH1 0x0 DUP1 REVERT JUMPDEST POP PUSH2 0x1AE PUSH1 0x4 DUP1 CALLDATASIZE SUB PUSH1 0x20 DUP2 LT ISZERO PUSH2 0x1D8 JUMPI PUSH1 0x0 DUP1 REVERT JUMPDEST POP CALLDATALOAD PUSH2 0x5D8 JUMP JUMPDEST CALLVALUE DUP1 ISZERO PUSH2 0x1EB JUMPI PUSH1 0x0 DUP1 REVERT JUMPDEST POP PUSH2 0x1F4 PUSH2 0x5E5 JUMP JUMPDEST PUSH1 0x40 DUP1 MLOAD SWAP2 DUP3 MSTORE MLOAD SWAP1 DUP2 SWAP1 SUB PUSH1 0x20 ADD SWAP1 RETURN JUMPDEST CALLVALUE DUP1 ISZERO PUSH2 0x212 JUMPI PUSH1 0x0 DUP1 REVERT JUMPDEST POP PUSH2 0x21B PUSH2 0x5EB JUMP JUMPDEST PUSH1 0x40 DUP1 MLOAD SWAP2 ISZERO ISZERO DUP3 MSTORE MLOAD SWAP1 DUP2 SWAP1 SUB PUSH1 0x20 ADD SWAP1 RETURN JUMPDEST CALLVALUE DUP1 ISZERO PUSH2 0x23B JUMPI PUSH1 0x0 DUP1 REVERT JUMPDEST POP PUSH2 0x1F4 PUSH2 0x5F9 JUMP JUMPDEST CALLVALUE DUP1 ISZERO PUSH2 0x250 JUMPI PUSH1 0x0 DUP1 REVERT JUMPDEST POP PUSH2 0x1F4 PUSH2 0x5FF JUMP JUMPDEST CALLVALUE DUP1 ISZERO PUSH2 0x265 JUMPI PUSH1 0x0 DUP1 REVERT JUMPDEST POP PUSH2 0x21B PUSH2 0x634 JUMP JUMPDEST CALLVALUE DUP1 ISZERO PUSH2 0x27A JUMPI PUSH1 0x0 DUP1 REVERT JUMPDEST POP PUSH2 0x283 PUSH2 0x66E JUMP JUMPDEST PUSH1 0x40 DUP1 MLOAD PUSH1 0x1 PUSH1 0x1 PUSH1 0xA0 SHL SUB SWAP1 SWAP3 AND DUP3 MSTORE MLOAD SWAP1 DUP2 SWAP1 SUB PUSH1 0x20 ADD SWAP1 RETURN JUMPDEST CALLVALUE DUP1 ISZERO PUSH2 0x2AB JUMPI PUSH1 0x0 DUP1 REVERT JUMPDEST POP PUSH2 0x1AE PUSH1 0x4 DUP1 CALLDATASIZE SUB PUSH1 0x40 DUP2 LT ISZERO PUSH2 0x2C2 JUMPI PUSH1 0x0 DUP1 REVERT JUMPDEST POP PUSH1 0x1 PUSH1 0x1 PUSH1 0xA0 SHL SUB DUP2 CALLDATALOAD AND SWAP1 PUSH1 0x20 ADD CALLDATALOAD PUSH2 0x67D JUMP JUMPDEST CALLVALUE DUP1 ISZERO PUSH2 0x2E4 JUMPI PUSH1 0x0 DUP1 REVERT JUMPDEST POP PUSH2 0x1AE PUSH1 0x4 DUP1 CALLDATASIZE SUB PUSH2 0x120 DUP2 LT ISZERO PUSH2 0x2FC JUMPI PUSH1 0x0 DUP1 REVERT JUMPDEST POP PUSH1 0x1 PUSH1 0x1 PUSH1 0xA0 SHL SUB DUP2 CALLDATALOAD DUP2 AND SWAP2 PUSH1 0x20 DUP2 ADD CALLDATALOAD DUP3 AND SWAP2 PUSH1 0x40 DUP3 ADD CALLDATALOAD SWAP2 PUSH1 0x60 DUP2 ADD CALLDATALOAD SWAP2 PUSH1 0x80 DUP3 ADD CALLDATALOAD SWAP2 PUSH1 0xA0 DUP2 ADD CALLDATALOAD DUP3 AND SWAP2 PUSH1 0xC0 DUP3 ADD CALLDATALOAD SWAP2 PUSH1 0xE0 DUP2 ADD CALLDATALOAD SWAP2 PUSH2 0x100 SWAP1 SWAP2 ADD CALLDATALOAD AND PUSH2 0x6DD JUMP JUMPDEST CALLVALUE DUP1 ISZERO PUSH2 0x351 JUMPI PUSH1 0x0 DUP1 REVERT JUMPDEST POP PUSH2 0x1F4 PUSH1 0x4 DUP1 CALLDATASIZE SUB PUSH1 0x20 DUP2 LT ISZERO PUSH2 0x368 JUMPI PUSH1 0x0 DUP1 REVERT JUMPDEST POP CALLDATALOAD PUSH1 0x1 PUSH1 0x1 PUSH1 0xA0 SHL SUB AND PUSH2 0x7E7 JUMP JUMPDEST CALLVALUE DUP1 ISZERO PUSH2 0x384 JUMPI PUSH1 0x0 DUP1 REVERT JUMPDEST POP PUSH2 0x283 PUSH2 0x847 JUMP JUMPDEST CALLVALUE DUP1 ISZERO PUSH2 0x399 JUMPI PUSH1 0x0 DUP1 REVERT JUMPDEST POP PUSH2 0x1AE PUSH2 0x856 JUMP JUMPDEST CALLVALUE DUP1 ISZERO PUSH2 0x3AE JUMPI PUSH1 0x0 DUP1 REVERT JUMPDEST POP PUSH2 0x1F4 PUSH1 0x4 DUP1 CALLDATASIZE SUB PUSH1 0x20 DUP2 LT ISZERO PUSH2 0x3C5 JUMPI PUSH1 0x0 DUP1 REVERT JUMPDEST POP CALLDATALOAD PUSH2 0x8E2 JUMP JUMPDEST CALLVALUE DUP1 ISZERO PUSH2 0x3D8 JUMPI PUSH1 0x0 DUP1 REVERT JUMPDEST POP PUSH2 0x1F4 PUSH2 0x940 JUMP JUMPDEST CALLVALUE DUP1 ISZERO PUSH2 0x3ED JUMPI PUSH1 0x0 DUP1 REVERT JUMPDEST POP PUSH2 0x1F4 PUSH2 0x946 JUMP JUMPDEST CALLVALUE DUP1 ISZERO PUSH2 0x402 JUMPI PUSH1 0x0 DUP1 REVERT JUMPDEST POP PUSH2 0x1F4 PUSH2 0x94C JUMP JUMPDEST CALLVALUE DUP1 ISZERO PUSH2 0x417 JUMPI PUSH1 0x0 DUP1 REVERT JUMPDEST POP PUSH2 0x21B PUSH2 0x971 JUMP JUMPDEST CALLVALUE DUP1 ISZERO PUSH2 0x42C JUMPI PUSH1 0x0 DUP1 REVERT JUMPDEST POP PUSH2 0x1AE PUSH2 0x98A JUMP JUMPDEST CALLVALUE DUP1 ISZERO PUSH2 0x441 JUMPI PUSH1 0x0 DUP1 REVERT JUMPDEST POP PUSH2 0x1F4 PUSH2 0xA24 JUMP JUMPDEST CALLVALUE DUP1 ISZERO PUSH2 0x456 JUMPI PUSH1 0x0 DUP1 REVERT JUMPDEST POP PUSH2 0x283 PUSH2 0xA46 JUMP JUMPDEST CALLVALUE DUP1 ISZERO PUSH2 0x46B JUMPI PUSH1 0x0 DUP1 REVERT JUMPDEST POP PUSH2 0x1F4 PUSH2 0xA5B JUMP JUMPDEST CALLVALUE DUP1 ISZERO PUSH2 0x480 JUMPI PUSH1 0x0 DUP1 REVERT JUMPDEST POP PUSH2 0x1F4 PUSH2 0xAB9 JUMP JUMPDEST CALLVALUE DUP1 ISZERO PUSH2 0x495 JUMPI PUSH1 0x0 DUP1 REVERT JUMPDEST POP PUSH2 0x1F4 PUSH1 0x4 DUP1 CALLDATASIZE SUB PUSH1 0x20 DUP2 LT ISZERO PUSH2 0x4AC JUMPI PUSH1 0x0 DUP1 REVERT JUMPDEST POP CALLDATALOAD PUSH1 0x1 PUSH1 0x1 PUSH1 0xA0 SHL SUB AND PUSH2 0xABF JUMP JUMPDEST PUSH2 0x1AE PUSH1 0x4 DUP1 CALLDATASIZE SUB PUSH1 0x20 DUP2 LT ISZERO PUSH2 0x4D2 JUMPI PUSH1 0x0 DUP1 REVERT JUMPDEST POP CALLDATALOAD PUSH1 0x1 PUSH1 0x1 PUSH1 0xA0 SHL SUB AND PUSH2 0x53F JUMP JUMPDEST CALLVALUE DUP1 ISZERO PUSH2 0x4EE JUMPI PUSH1 0x0 DUP1 REVERT JUMPDEST POP PUSH2 0x1F4 PUSH2 0xAD1 JUMP JUMPDEST CALLVALUE DUP1 ISZERO PUSH2 0x503 JUMPI PUSH1 0x0 DUP1 REVERT JUMPDEST POP PUSH2 0x1F4 PUSH1 0x4 DUP1 CALLDATASIZE SUB PUSH1 0x20 DUP2 LT ISZERO PUSH2 0x51A JUMPI PUSH1 0x0 DUP1 REVERT JUMPDEST POP CALLDATALOAD PUSH1 0x1 PUSH1 0x1 PUSH1 0xA0 SHL SUB AND PUSH2 0xAD7 JUMP JUMPDEST CALLVALUE DUP1 ISZERO PUSH2 0x536 JUMPI PUSH1 0x0 DUP1 REVERT JUMPDEST POP PUSH2 0x1F4 PUSH2 0xAE9 JUMP JUMPDEST PUSH1 0x8 SLOAD PUSH1 0x1 PUSH1 0x1 PUSH1 0xA0 SHL SUB AND PUSH20 0xEEEEEEEEEEEEEEEEEEEEEEEEEEEEEEEEEEEEEEEE EQ PUSH2 0x56A JUMPI PUSH1 0x0 DUP1 REVERT JUMPDEST PUSH1 0x0 PUSH2 0x575 CALLVALUE PUSH2 0x8E2 JUMP JUMPDEST SWAP1 POP PUSH1 0x0 PUSH2 0x583 CALLVALUE DUP4 PUSH2 0xAEF JUMP JUMPDEST SWAP1 POP DUP2 ISZERO PUSH2 0x595 JUMPI PUSH2 0x595 DUP4 DUP4 PUSH2 0xB3A JUMP JUMPDEST DUP1 ISZERO PUSH2 0x5D3 JUMPI PUSH1 0x40 MLOAD PUSH1 0x1 PUSH1 0x1 PUSH1 0xA0 SHL SUB DUP5 AND SWAP1 DUP3 ISZERO PUSH2 0x8FC MUL SWAP1 DUP4 SWAP1 PUSH1 0x0 DUP2 DUP2 DUP2 DUP6 DUP9 DUP9 CALL SWAP4 POP POP POP POP ISZERO DUP1 ISZERO PUSH2 0x5D1 JUMPI RETURNDATASIZE PUSH1 0x0 DUP1 RETURNDATACOPY RETURNDATASIZE PUSH1 0x0 REVERT JUMPDEST POP JUMPDEST POP POP POP JUMP JUMPDEST PUSH2 0x5E2 CALLER DUP3 PUSH2 0x67D JUMP JUMPDEST POP JUMP JUMPDEST PUSH1 0x0 SLOAD DUP2 JUMP JUMPDEST PUSH1 0x7 SLOAD PUSH2 0x100 SWAP1 DIV PUSH1 0xFF AND DUP2 JUMP JUMPDEST PUSH1 0x6 SLOAD DUP2 JUMP JUMPDEST PUSH1 0x0 PUSH2 0x609 PUSH2 0xA5B JUMP JUMPDEST PUSH2 0x611 PUSH2 0x94C JUMP JUMPDEST GT ISZERO PUSH2 0x626 JUMPI PUSH2 0x61F PUSH2 0x94C JUMP JUMPDEST SWAP1 POP PUSH2 0x631 JUMP JUMPDEST PUSH2 0x62E PUSH2 0xA5B JUMP JUMPDEST SWAP1 POP JUMPDEST SWAP1 JUMP JUMPDEST PUSH1 0x0 PUSH2 0x63E PUSH2 0x5FF JUMP JUMPDEST PUSH2 0x667 PUSH1 0x4 SLOAD PUSH2 0x661 PUSH8 0xDE0B6B3A7640000 PUSH1 0x6 SLOAD PUSH2 0xBEB SWAP1 SWAP2 SWAP1 PUSH4 0xFFFFFFFF AND JUMP JUMPDEST SWAP1 PUSH2 0xC44 JUMP JUMPDEST LT ISZERO SWAP1 POP SWAP1 JUMP JUMPDEST PUSH1 0x8 SLOAD PUSH1 0x1 PUSH1 0x1 PUSH1 0xA0 SHL SUB AND DUP2 JUMP JUMPDEST PUSH1 0x8 SLOAD PUSH1 0x1 PUSH1 0x1 PUSH1 0xA0 SHL SUB AND PUSH20 0xEEEEEEEEEEEEEEEEEEEEEEEEEEEEEEEEEEEEEEEE EQ ISZERO PUSH2 0x6A9 JUMPI PUSH1 0x0 DUP1 REVERT JUMPDEST PUSH1 0x0 PUSH2 0x6B4 DUP3 PUSH2 0x8E2 JUMP JUMPDEST SWAP1 POP DUP1 ISZERO PUSH2 0x5D3 JUMPI PUSH1 0x8 SLOAD PUSH2 0x6D3 SWAP1 PUSH1 0x1 PUSH1 0x1 PUSH1 0xA0 SHL SUB AND DUP5 DUP5 PUSH2 0xC86 JUMP JUMPDEST PUSH2 0x5D3 DUP4 DUP3 PUSH2 0xB3A JUMP JUMPDEST PUSH1 0x7 SLOAD PUSH1 0xFF AND ISZERO PUSH2 0x6ED JUMPI PUSH1 0x0 DUP1 REVERT JUMPDEST DUP6 DUP6 GT PUSH2 0x6F9 JUMPI PUSH1 0x0 DUP1 REVERT JUMPDEST DUP2 DUP4 GT PUSH2 0x705 JUMPI PUSH1 0x0 DUP1 REVERT JUMPDEST PUSH1 0x0 DUP3 GT PUSH2 0x712 JUMPI PUSH1 0x0 DUP1 REVERT JUMPDEST PUSH1 0x7 DUP1 SLOAD PUSH1 0x1 PUSH1 0x1 PUSH1 0xA0 SHL SUB DUP1 DUP12 AND PUSH3 0x10000 MUL PUSH3 0x10000 PUSH1 0x1 PUSH1 0xB0 SHL SUB NOT SWAP1 SWAP3 AND SWAP2 SWAP1 SWAP2 OR SWAP1 SWAP2 SSTORE PUSH1 0x8 DUP1 SLOAD DUP7 DUP4 AND PUSH1 0x1 PUSH1 0x1 PUSH1 0xA0 SHL SUB NOT SWAP2 DUP3 AND OR SWAP1 SWAP2 SSTORE PUSH1 0x4 DUP10 SWAP1 SSTORE PUSH1 0x0 DUP9 DUP2 SSTORE PUSH1 0x1 DUP9 SWAP1 SSTORE PUSH1 0x2 DUP7 SWAP1 SSTORE PUSH1 0x3 DUP6 SWAP1 SSTORE PUSH1 0x9 DUP1 SLOAD SWAP4 DUP6 AND SWAP4 SWAP1 SWAP3 AND SWAP3 SWAP1 SWAP3 OR SWAP1 SSTORE PUSH2 0x786 DUP5 DUP5 PUSH2 0xAEF JUMP JUMPDEST SWAP1 POP PUSH1 0x0 PUSH2 0x7A1 PUSH1 0x0 SLOAD PUSH1 0x1 SLOAD PUSH2 0xAEF SWAP1 SWAP2 SWAP1 PUSH4 0xFFFFFFFF AND JUMP JUMPDEST SWAP1 POP PUSH2 0x7AD DUP3 DUP3 PUSH2 0xC44 JUMP JUMPDEST PUSH1 0x5 SSTORE PUSH1 0x7 SLOAD PUSH2 0x7CD SWAP1 PUSH3 0x10000 SWAP1 DIV PUSH1 0x1 PUSH1 0x1 PUSH1 0xA0 SHL SUB AND DUP13 DUP12 PUSH2 0xC86 JUMP JUMPDEST POP POP PUSH1 0x7 DUP1 SLOAD PUSH1 0xFF NOT AND PUSH1 0x1 OR SWAP1 SSTORE POP POP POP POP POP POP POP POP POP JUMP JUMPDEST PUSH1 0x0 DUP1 PUSH2 0x820 PUSH2 0x7F5 PUSH2 0x5FF JUMP JUMPDEST PUSH1 0x1 PUSH1 0x1 PUSH1 0xA0 SHL SUB DUP6 AND PUSH1 0x0 SWAP1 DUP2 MSTORE PUSH1 0xA PUSH1 0x20 MSTORE PUSH1 0x40 SWAP1 KECCAK256 SLOAD PUSH2 0x661 SWAP1 PUSH8 0xDE0B6B3A7640000 PUSH2 0xBEB JUMP JUMPDEST CALLER PUSH1 0x0 SWAP1 DUP2 MSTORE PUSH1 0xB PUSH1 0x20 MSTORE PUSH1 0x40 SWAP1 KECCAK256 SLOAD SWAP1 SWAP2 POP PUSH2 0x83E SWAP1 DUP3 SWAP1 PUSH2 0xAEF JUMP JUMPDEST SWAP2 POP POP JUMPDEST SWAP2 SWAP1 POP JUMP JUMPDEST PUSH1 0x9 SLOAD PUSH1 0x1 PUSH1 0x1 PUSH1 0xA0 SHL SUB AND DUP2 JUMP JUMPDEST PUSH1 0x7 SLOAD PUSH2 0x100 SWAP1 DIV PUSH1 0xFF AND ISZERO PUSH2 0x86B JUMPI PUSH1 0x0 DUP1 REVERT JUMPDEST PUSH2 0x873 PUSH2 0x634 JUMP JUMPDEST ISZERO PUSH2 0x89D JUMPI PUSH1 0x8 SLOAD PUSH1 0x9 SLOAD PUSH1 0x6 SLOAD PUSH2 0x898 SWAP3 PUSH1 0x1 PUSH1 0x1 PUSH1 0xA0 SHL SUB SWAP1 DUP2 AND SWAP3 AND SWAP1 PUSH2 0xDAE JUMP JUMPDEST PUSH2 0x8D1 JUMP JUMPDEST PUSH1 0x1 SLOAD TIMESTAMP GT PUSH2 0x8AB JUMPI PUSH1 0x0 DUP1 REVERT JUMPDEST PUSH1 0x7 SLOAD PUSH1 0x9 SLOAD PUSH1 0x4 SLOAD PUSH2 0x8D1 SWAP3 PUSH1 0x1 PUSH1 0x1 PUSH1 0xA0 SHL SUB PUSH3 0x10000 SWAP1 SWAP2 DIV DUP2 AND SWAP3 AND SWAP1 PUSH2 0xDAE JUMP JUMPDEST PUSH1 0x7 DUP1 SLOAD PUSH2 0xFF00 NOT AND PUSH2 0x100 OR SWAP1 SSTORE JUMP JUMPDEST PUSH1 0x0 DUP1 PUSH2 0x905 PUSH8 0xDE0B6B3A7640000 PUSH2 0x661 PUSH2 0x8FC PUSH2 0x5FF JUMP JUMPDEST PUSH1 0x4 SLOAD SWAP1 PUSH2 0xBEB JUMP JUMPDEST SWAP1 POP DUP1 PUSH2 0x91D DUP5 PUSH1 0x6 SLOAD PUSH2 0xE1A SWAP1 SWAP2 SWAP1 PUSH4 0xFFFFFFFF AND JUMP JUMPDEST GT ISZERO PUSH2 0x939 JUMPI PUSH1 0x6 SLOAD PUSH2 0x931 SWAP1 DUP3 SWAP1 PUSH2 0xAEF JUMP JUMPDEST SWAP2 POP POP PUSH2 0x842 JUMP JUMPDEST POP SWAP1 SWAP2 SWAP1 POP JUMP JUMPDEST PUSH1 0x4 SLOAD DUP2 JUMP JUMPDEST PUSH1 0x3 SLOAD DUP2 JUMP JUMPDEST PUSH1 0x0 PUSH2 0x62E PUSH1 0x4 SLOAD PUSH2 0x661 PUSH8 0xDE0B6B3A7640000 PUSH1 0x6 SLOAD PUSH2 0xBEB SWAP1 SWAP2 SWAP1 PUSH4 0xFFFFFFFF AND JUMP JUMPDEST PUSH1 0x0 PUSH2 0x97B PUSH2 0x634 JUMP JUMPDEST DUP1 PUSH2 0x62E JUMPI POP POP PUSH1 0x1 SLOAD TIMESTAMP GT SWAP1 JUMP JUMPDEST PUSH2 0x992 PUSH2 0x634 JUMP JUMPDEST ISZERO PUSH2 0x9E7 JUMPI PUSH1 0x0 PUSH2 0x9A2 CALLER PUSH2 0x7E7 JUMP JUMPDEST SWAP1 POP PUSH1 0x0 DUP2 GT PUSH2 0x9B1 JUMPI PUSH1 0x0 DUP1 REVERT JUMPDEST CALLER PUSH1 0x0 DUP2 DUP2 MSTORE PUSH1 0xB PUSH1 0x20 MSTORE PUSH1 0x40 SWAP1 KECCAK256 DUP3 SWAP1 SSTORE PUSH1 0x7 SLOAD PUSH2 0x9E1 SWAP2 PUSH3 0x10000 SWAP1 SWAP2 DIV PUSH1 0x1 PUSH1 0x1 PUSH1 0xA0 SHL SUB AND SWAP1 DUP4 PUSH2 0xDAE JUMP JUMPDEST POP PUSH2 0xA22 JUMP JUMPDEST PUSH1 0x1 SLOAD TIMESTAMP GT PUSH2 0x9F5 JUMPI PUSH1 0x0 DUP1 REVERT JUMPDEST CALLER PUSH1 0x0 DUP2 DUP2 MSTORE PUSH1 0xA PUSH1 0x20 MSTORE PUSH1 0x40 DUP2 KECCAK256 DUP1 SLOAD SWAP2 SWAP1 SSTORE PUSH1 0x8 SLOAD SWAP1 SWAP2 PUSH2 0x5E2 SWAP2 PUSH1 0x1 PUSH1 0x1 PUSH1 0xA0 SHL SUB AND SWAP1 DUP4 PUSH2 0xDAE JUMP JUMPDEST JUMP JUMPDEST PUSH1 0x0 PUSH2 0x62E PUSH2 0xA31 PUSH2 0x5FF JUMP JUMPDEST PUSH1 0x6 SLOAD PUSH2 0x661 SWAP1 PUSH8 0xDE0B6B3A7640000 PUSH2 0xBEB JUMP JUMPDEST PUSH1 0x7 SLOAD PUSH3 0x10000 SWAP1 DIV PUSH1 0x1 PUSH1 0x1 PUSH1 0xA0 SHL SUB AND DUP2 JUMP JUMPDEST PUSH1 0x0 DUP1 SLOAD TIMESTAMP GT PUSH2 0xA6E JUMPI POP PUSH1 0x2 SLOAD PUSH2 0x631 JUMP JUMPDEST PUSH1 0x1 SLOAD TIMESTAMP LT PUSH2 0xA80 JUMPI POP PUSH1 0x3 SLOAD PUSH2 0x631 JUMP JUMPDEST PUSH1 0x0 PUSH2 0xAA3 PUSH1 0x5 SLOAD PUSH2 0xA9D PUSH1 0x0 SLOAD TIMESTAMP PUSH2 0xAEF SWAP1 SWAP2 SWAP1 PUSH4 0xFFFFFFFF AND JUMP JUMPDEST SWAP1 PUSH2 0xBEB JUMP JUMPDEST PUSH1 0x2 SLOAD SWAP1 SWAP2 POP PUSH2 0xAB3 SWAP1 DUP3 PUSH2 0xAEF JUMP JUMPDEST SWAP2 POP POP SWAP1 JUMP JUMPDEST PUSH1 0x1 SLOAD DUP2 JUMP JUMPDEST PUSH1 0xB PUSH1 0x20 MSTORE PUSH1 0x0 SWAP1 DUP2 MSTORE PUSH1 0x40 SWAP1 KECCAK256 SLOAD DUP2 JUMP JUMPDEST PUSH1 0x5 SLOAD DUP2 JUMP JUMPDEST PUSH1 0xA PUSH1 0x20 MSTORE PUSH1 0x0 SWAP1 DUP2 MSTORE PUSH1 0x40 SWAP1 KECCAK256 SLOAD DUP2 JUMP JUMPDEST PUSH1 0x2 SLOAD DUP2 JUMP JUMPDEST PUSH1 0x0 PUSH2 0xB31 DUP4 DUP4 PUSH1 0x40 MLOAD DUP1 PUSH1 0x40 ADD PUSH1 0x40 MSTORE DUP1 PUSH1 0x1E DUP2 MSTORE PUSH1 0x20 ADD PUSH32 0x536166654D6174683A207375627472616374696F6E206F766572666C6F770000 DUP2 MSTORE POP PUSH2 0xE74 JUMP JUMPDEST SWAP1 POP JUMPDEST SWAP3 SWAP2 POP POP JUMP JUMPDEST PUSH1 0x0 SLOAD TIMESTAMP LT ISZERO DUP1 ISZERO PUSH2 0xB4E JUMPI POP PUSH1 0x1 SLOAD TIMESTAMP GT ISZERO JUMPDEST PUSH2 0xB57 JUMPI PUSH1 0x0 DUP1 REVERT JUMPDEST PUSH1 0x1 PUSH1 0x1 PUSH1 0xA0 SHL SUB DUP3 AND PUSH1 0x0 SWAP1 DUP2 MSTORE PUSH1 0xA PUSH1 0x20 MSTORE PUSH1 0x40 SWAP1 KECCAK256 SLOAD PUSH2 0xB7A SWAP1 DUP3 PUSH2 0xE1A JUMP JUMPDEST PUSH1 0x1 PUSH1 0x1 PUSH1 0xA0 SHL SUB DUP4 AND PUSH1 0x0 SWAP1 DUP2 MSTORE PUSH1 0xA PUSH1 0x20 MSTORE PUSH1 0x40 SWAP1 KECCAK256 SSTORE PUSH1 0x6 SLOAD PUSH2 0xBA0 SWAP1 DUP3 PUSH2 0xE1A JUMP JUMPDEST PUSH1 0x6 SSTORE PUSH1 0x40 DUP1 MLOAD PUSH1 0x1 PUSH1 0x1 PUSH1 0xA0 SHL SUB DUP5 AND DUP2 MSTORE PUSH1 0x20 DUP2 ADD DUP4 SWAP1 MSTORE DUP2 MLOAD PUSH32 0x77511A636BA1F10551CC7B89C13FF66A6AC9344E8A917527817A9690B15AF7A SWAP3 SWAP2 DUP2 SWAP1 SUB SWAP1 SWAP2 ADD SWAP1 LOG1 POP POP JUMP JUMPDEST PUSH1 0x0 DUP3 PUSH2 0xBFA JUMPI POP PUSH1 0x0 PUSH2 0xB34 JUMP JUMPDEST DUP3 DUP3 MUL DUP3 DUP5 DUP3 DUP2 PUSH2 0xC07 JUMPI INVALID JUMPDEST DIV EQ PUSH2 0xB31 JUMPI PUSH1 0x40 MLOAD PUSH3 0x461BCD PUSH1 0xE5 SHL DUP2 MSTORE PUSH1 0x4 ADD DUP1 DUP1 PUSH1 0x20 ADD DUP3 DUP2 SUB DUP3 MSTORE PUSH1 0x21 DUP2 MSTORE PUSH1 0x20 ADD DUP1 PUSH2 0xFED PUSH1 0x21 SWAP2 CODECOPY PUSH1 0x40 ADD SWAP2 POP POP PUSH1 0x40 MLOAD DUP1 SWAP2 SUB SWAP1 REVERT JUMPDEST PUSH1 0x0 PUSH2 0xB31 DUP4 DUP4 PUSH1 0x40 MLOAD DUP1 PUSH1 0x40 ADD PUSH1 0x40 MSTORE DUP1 PUSH1 0x1A DUP2 MSTORE PUSH1 0x20 ADD PUSH32 0x536166654D6174683A206469766973696F6E206279207A65726F000000000000 DUP2 MSTORE POP PUSH2 0xF0B JUMP JUMPDEST PUSH1 0x40 DUP1 MLOAD PUSH1 0x1 PUSH1 0x1 PUSH1 0xA0 SHL SUB DUP5 DUP2 AND PUSH1 0x24 DUP4 ADD MSTORE ADDRESS PUSH1 0x44 DUP4 ADD MSTORE PUSH1 0x64 DUP1 DUP4 ADD DUP6 SWAP1 MSTORE DUP4 MLOAD DUP1 DUP5 SUB SWAP1 SWAP2 ADD DUP2 MSTORE PUSH1 0x84 SWAP1 SWAP3 ADD DUP4 MSTORE PUSH1 0x20 DUP3 ADD DUP1 MLOAD PUSH1 0x1 PUSH1 0x1 PUSH1 0xE0 SHL SUB AND PUSH4 0x23B872DD PUSH1 0xE0 SHL OR DUP2 MSTORE SWAP3 MLOAD DUP3 MLOAD PUSH1 0x0 SWAP5 PUSH1 0x60 SWAP5 SWAP4 DUP10 AND SWAP4 SWAP3 SWAP2 DUP3 SWAP2 SWAP1 DUP1 DUP4 DUP4 JUMPDEST PUSH1 0x20 DUP4 LT PUSH2 0xD09 JUMPI DUP1 MLOAD DUP3 MSTORE PUSH1 0x1F NOT SWAP1 SWAP3 ADD SWAP2 PUSH1 0x20 SWAP2 DUP3 ADD SWAP2 ADD PUSH2 0xCEA JUMP JUMPDEST PUSH1 0x1 DUP4 PUSH1 0x20 SUB PUSH2 0x100 EXP SUB DUP1 NOT DUP3 MLOAD AND DUP2 DUP5 MLOAD AND DUP1 DUP3 OR DUP6 MSTORE POP POP POP POP POP POP SWAP1 POP ADD SWAP2 POP POP PUSH1 0x0 PUSH1 0x40 MLOAD DUP1 DUP4 SUB DUP2 PUSH1 0x0 DUP7 GAS CALL SWAP2 POP POP RETURNDATASIZE DUP1 PUSH1 0x0 DUP2 EQ PUSH2 0xD6B JUMPI PUSH1 0x40 MLOAD SWAP2 POP PUSH1 0x1F NOT PUSH1 0x3F RETURNDATASIZE ADD AND DUP3 ADD PUSH1 0x40 MSTORE RETURNDATASIZE DUP3 MSTORE RETURNDATASIZE PUSH1 0x0 PUSH1 0x20 DUP5 ADD RETURNDATACOPY PUSH2 0xD70 JUMP JUMPDEST PUSH1 0x60 SWAP2 POP JUMPDEST POP SWAP2 POP SWAP2 POP DUP2 DUP1 ISZERO PUSH2 0xD9E JUMPI POP DUP1 MLOAD ISZERO DUP1 PUSH2 0xD9E JUMPI POP DUP1 DUP1 PUSH1 0x20 ADD SWAP1 MLOAD PUSH1 0x20 DUP2 LT ISZERO PUSH2 0xD9B JUMPI PUSH1 0x0 DUP1 REVERT JUMPDEST POP MLOAD JUMPDEST PUSH2 0xDA7 JUMPI PUSH1 0x0 DUP1 REVERT JUMPDEST POP POP POP POP POP JUMP JUMPDEST PUSH1 0x1 PUSH1 0x1 PUSH1 0xA0 SHL SUB DUP4 AND PUSH20 0xEEEEEEEEEEEEEEEEEEEEEEEEEEEEEEEEEEEEEEEE EQ ISZERO PUSH2 0xE0F JUMPI PUSH1 0x40 MLOAD PUSH1 0x1 PUSH1 0x1 PUSH1 0xA0 SHL SUB DUP4 AND SWAP1 DUP3 ISZERO PUSH2 0x8FC MUL SWAP1 DUP4 SWAP1 PUSH1 0x0 DUP2 DUP2 DUP2 DUP6 DUP9 DUP9 CALL SWAP4 POP POP POP POP ISZERO DUP1 ISZERO PUSH2 0xE09 JUMPI RETURNDATASIZE PUSH1 0x0 DUP1 RETURNDATACOPY RETURNDATASIZE PUSH1 0x0 REVERT JUMPDEST POP PUSH2 0x5D3 JUMP JUMPDEST PUSH2 0x5D3 DUP4 DUP4 DUP4 PUSH2 0xF70 JUMP JUMPDEST PUSH1 0x0 DUP3 DUP3 ADD DUP4 DUP2 LT ISZERO PUSH2 0xB31 JUMPI PUSH1 0x40 DUP1 MLOAD PUSH3 0x461BCD PUSH1 0xE5 SHL DUP2 MSTORE PUSH1 0x20 PUSH1 0x4 DUP3 ADD MSTORE PUSH1 0x1B PUSH1 0x24 DUP3 ADD MSTORE PUSH32 0x536166654D6174683A206164646974696F6E206F766572666C6F770000000000 PUSH1 0x44 DUP3 ADD MSTORE SWAP1 MLOAD SWAP1 DUP2 SWAP1 SUB PUSH1 0x64 ADD SWAP1 REVERT JUMPDEST PUSH1 0x0 DUP2 DUP5 DUP5 GT ISZERO PUSH2 0xF03 JUMPI PUSH1 0x40 MLOAD PUSH3 0x461BCD PUSH1 0xE5 SHL DUP2 MSTORE PUSH1 0x4 ADD DUP1 DUP1 PUSH1 0x20 ADD DUP3 DUP2 SUB DUP3 MSTORE DUP4 DUP2 DUP2 MLOAD DUP2 MSTORE PUSH1 0x20 ADD SWAP2 POP DUP1 MLOAD SWAP1 PUSH1 0x20 ADD SWAP1 DUP1 DUP4 DUP4 PUSH1 0x0 JUMPDEST DUP4 DUP2 LT ISZERO PUSH2 0xEC8 JUMPI DUP2 DUP2 ADD MLOAD DUP4 DUP3 ADD MSTORE PUSH1 0x20 ADD PUSH2 0xEB0 JUMP JUMPDEST POP POP POP POP SWAP1 POP SWAP1 DUP2 ADD SWAP1 PUSH1 0x1F AND DUP1 ISZERO PUSH2 0xEF5 JUMPI DUP1 DUP3 SUB DUP1 MLOAD PUSH1 0x1 DUP4 PUSH1 0x20 SUB PUSH2 0x100 EXP SUB NOT AND DUP2 MSTORE PUSH1 0x20 ADD SWAP2 POP JUMPDEST POP SWAP3 POP POP POP PUSH1 0x40 MLOAD DUP1 SWAP2 SUB SWAP1 REVERT JUMPDEST POP POP POP SWAP1 SUB SWAP1 JUMP JUMPDEST PUSH1 0x0 DUP2 DUP4 PUSH2 0xF5A JUMPI PUSH1 0x40 MLOAD PUSH3 0x461BCD PUSH1 0xE5 SHL DUP2 MSTORE PUSH1 0x20 PUSH1 0x4 DUP3 ADD DUP2 DUP2 MSTORE DUP4 MLOAD PUSH1 0x24 DUP5 ADD MSTORE DUP4 MLOAD SWAP1 SWAP3 DUP4 SWAP3 PUSH1 0x44 SWAP1 SWAP2 ADD SWAP2 SWAP1 DUP6 ADD SWAP1 DUP1 DUP4 DUP4 PUSH1 0x0 DUP4 ISZERO PUSH2 0xEC8 JUMPI DUP2 DUP2 ADD MLOAD DUP4 DUP3 ADD MSTORE PUSH1 0x20 ADD PUSH2 0xEB0 JUMP JUMPDEST POP PUSH1 0x0 DUP4 DUP6 DUP2 PUSH2 0xF66 JUMPI INVALID JUMPDEST DIV SWAP6 SWAP5 POP POP POP POP POP JUMP JUMPDEST PUSH1 0x40 DUP1 MLOAD PUSH1 0x1 PUSH1 0x1 PUSH1 0xA0 SHL SUB DUP5 DUP2 AND PUSH1 0x24 DUP4 ADD MSTORE PUSH1 0x44 DUP1 DUP4 ADD DUP6 SWAP1 MSTORE DUP4 MLOAD DUP1 DUP5 SUB SWAP1 SWAP2 ADD DUP2 MSTORE PUSH1 0x64 SWAP1 SWAP3 ADD DUP4 MSTORE PUSH1 0x20 DUP3 ADD DUP1 MLOAD PUSH1 0x1 PUSH1 0x1 PUSH1 0xE0 SHL SUB AND PUSH4 0xA9059CBB PUSH1 0xE0 SHL OR DUP2 MSTORE SWAP3 MLOAD DUP3 MLOAD PUSH1 0x0 SWAP5 PUSH1 0x60 SWAP5 SWAP4 DUP10 AND SWAP4 SWAP3 SWAP2 DUP3 SWAP2 SWAP1 DUP1 DUP4 DUP4 PUSH1 0x20 DUP4 LT PUSH2 0xD09 JUMPI DUP1 MLOAD DUP3 MSTORE PUSH1 0x1F NOT SWAP1 SWAP3 ADD SWAP2 PUSH1 0x20 SWAP2 DUP3 ADD SWAP2 ADD PUSH2 0xCEA JUMP INVALID MSTORE8 PUSH2 0x6665 0x4D PUSH2 0x7468 GASPRICE KECCAK256 PUSH14 0x756C7469706C69636174696F6E20 PUSH16 0x766572666C6F77A26469706673582212 KECCAK256 MSTORE 0xD1 TIMESTAMP 0xF7 0x4C CALLDATASIZE DUP7 CODECOPY JUMP 0x5F SSTORE GAS 0xA5 EQ 0x2C 0x2F PUSH14 0x8D77B62CF7B2B942F4C8E731AA0 0x28 PUSH5 0x736F6C6343 STOP MOD 0xC STOP CALLER ",
  "sha1": "26338f09b256d63b64fbda95a8a42d85d45c3bcd",
  "source": "pragma solidity ^0.6.9;\n\n// import \"../../interfaces/IMisoAuction.sol\";\n// import \"../Utils/SafeMathPlus.sol\";\n// import \"@openzeppelin/contracts/utils/ReentrancyGuard.sol\";\nimport \"@openzeppelin/contracts/math/SafeMath.sol\";\n\ncontract DutchAuction {\n\n    using SafeMath for uint256;\n    /// @dev The placeholder ETH address.\n    address private constant ETH_ADDRESS = 0xEeeeeEeeeEeEeeEeEeEeeEEEeeeeEeeeeeeeEEeE;\n\n    uint256 public startDate;\n    uint256 public endDate;\n    uint256 public startPrice;\n    uint256 public minimumPrice;\n    uint256 public totalTokens;  // Amount to be sold\n    uint256 public priceDrop; // Price reduction from startPrice at endDate\n    uint256 public commitmentsTotal;\n    bool private initialised;    // AG: should be private\n    bool public finalised;\n    address public auctionToken;\n    address public paymentCurrency;\n    address payable public wallet;  // Where the auction funds will get paid\n    mapping(address => uint256) public commitments;\n    mapping(address => uint256) public claimed;\n\n    event AddedCommitment(address addr, uint256 commitment);\n\n    /// @dev Init function\n    function initAuction(\n        address _funder,\n        address _token,\n        uint256 _totalTokens,\n        uint256 _startDate,\n        uint256 _endDate,\n        address _paymentCurrency,\n        uint256 _startPrice,\n        uint256 _minimumPrice,\n        address payable _wallet\n    )\n        external\n    {\n        require(!initialised);                // Already Initialised\n        require(_endDate > _startDate);       // End date earlier than start date\n        require(_startPrice > _minimumPrice); // Starting price lower than minimum price\n        require(_minimumPrice > 0);           // Minimum price must be greater than 0\n        auctionToken = _token;\n        paymentCurrency = _paymentCurrency;\n        totalTokens = _totalTokens;\n        startDate = _startDate;\n        endDate = _endDate;\n        startPrice = _startPrice;\n        minimumPrice = _minimumPrice;\n        wallet = _wallet;\n\n        uint256 numerator = startPrice.sub(minimumPrice);\n        uint256 denominator = endDate.sub(startDate);\n        priceDrop = numerator.div(denominator);\n\n        // There are many non-compliant ERC20 tokens... this can handle most, adapted from UniSwap V2\n        _safeTransferFrom(auctionToken, _funder, _totalTokens);\n        initialised = true;\n\n    }\n\n    // Dutch Auction Price Function\n    // ============================\n    //\n    // Start Price -----\n    //                   \\\n    //                    \\\n    //                     \\\n    //                      \\ ------------ Clearing Price\n    //                     / \\            = AmountRaised/TokenSupply\n    //      Token Price  --   \\\n    //                  /      \\\n    //                --        ----------- Minimum Price\n    // Amount raised /          End Time\n    //\n\n    /// @notice The average price of each token from all commitments. \n    function tokenPrice() public view returns (uint256) {\n        return commitmentsTotal.mul(1e18).div(totalTokens);\n    }\n\n      /// @notice Returns price during the auction \n    function priceFunction() public view returns (uint256) {\n        /// @dev Return Auction Price\n        if (block.timestamp <= startDate) {\n            return startPrice;\n        }\n        if (block.timestamp >= endDate) {\n            return minimumPrice;\n        }\n        uint256 priceDiff = block.timestamp.sub(startDate).mul(priceDrop);\n        return startPrice.sub(priceDiff);\n    }\n\n    /// @notice The current clearing price of the Dutch auction\n    function clearingPrice() public view returns (uint256) {\n        /// @dev If auction successful, return tokenPrice\n        if (tokenPrice() > priceFunction()) {\n            return tokenPrice();\n        }\n        return priceFunction();\n    }\n\n    /// @notice How many tokens the user is able to claim\n    function tokensClaimable(address _user) public view returns (uint256) {\n        uint256 tokensAvailable = commitments[_user].mul(1e18).div(clearingPrice());\n        return tokensAvailable.sub(claimed[msg.sender]);\n    }\n\n    /// @notice Total amount of tokens committed at current auction price\n    function totalTokensCommitted() public view returns(uint256) {\n        return commitmentsTotal.mul(1e18).div(clearingPrice());\n    }\n\n\n    //--------------------------------------------------------\n    // Commit to buying tokens! \n    //--------------------------------------------------------\n\n    /// @notice Buy Tokens by committing ETH to this contract address \n    /// @dev Needs sufficient gas limit for additional state changes\n    receive () external payable {\n        commitEth(msg.sender);\n    }\n\n    /// @notice Commit ETH to buy tokens on sale\n    function commitEth (address payable _from) public payable {\n        require(address(paymentCurrency) == ETH_ADDRESS);       // Payment currency is not ETH\n        // Get ETH able to be committed\n        uint256 ethToTransfer = calculateCommitment( msg.value);\n\n        // Accept ETH Payments\n        uint256 ethToRefund = msg.value.sub(ethToTransfer);\n        if (ethToTransfer > 0) {\n            _addCommitment(_from, ethToTransfer);\n        }\n        // Return any ETH to be refunded\n        if (ethToRefund > 0) {\n            _from.transfer(ethToRefund);\n        }\n    }\n\n    /// @notice Commits to an amount during an auction\n    function _addCommitment(address _addr,  uint256 _commitment) internal {\n        require(block.timestamp >= startDate && block.timestamp <= endDate);  // Outside auction hours\n        commitments[_addr] = commitments[_addr].add(_commitment);\n        commitmentsTotal = commitmentsTotal.add(_commitment);\n        emit AddedCommitment(_addr, _commitment);\n    }\n\n    /// @notice Commit approved ERC20 tokens to buy tokens on sale\n    function commitTokens(uint256 _amount) public {\n        commitTokensFrom(msg.sender, _amount);\n    }\n\n    /// @dev Users must approve contract prior to committing tokens to auction\n    function commitTokensFrom(address _from, uint256 _amount) public /* nonReentrant */{\n        require(address(paymentCurrency) != ETH_ADDRESS);          // Only token transfers\n        uint256 tokensToTransfer = calculateCommitment( _amount);\n        if (tokensToTransfer > 0) {\n            _safeTransferFrom(paymentCurrency, _from, _amount);\n            _addCommitment(_from, tokensToTransfer);\n        }\n    }\n\n    /// @notice Returns the amout able to be committed during an auction\n    function calculateCommitment( uint256 _commitment) \n        public view returns (uint256 committed) \n    {\n        uint256 maxCommitment = totalTokens.mul(clearingPrice()).div(1e18);\n        if (commitmentsTotal.add(_commitment) > maxCommitment) {\n            return maxCommitment.sub(commitmentsTotal);\n        }\n        return _commitment;\n    }\n\n\n    //--------------------------------------------------------\n    // Finalise Auction\n    //--------------------------------------------------------\n\n    /// @notice Successful if tokens sold equals totalTokens\n    function auctionSuccessful() public view returns (bool){\n        return commitmentsTotal.mul(1e18).div(totalTokens) >= clearingPrice();\n    }\n\n    /// @notice Returns bool if successful or time has ended\n    function auctionEnded() public view returns (bool){\n        return auctionSuccessful() || block.timestamp > endDate;\n    }\n\n    /// @notice Auction finishes successfully above the reserve\n    /// @dev Transfer contract funds to initialised wallet. \n    function finaliseAuction () public /* nonReentrant */ {\n        require(!finalised);                                  // Auction already finalised\n        if( auctionSuccessful() ) \n        {\n            /// @dev Successful auction\n            /// @dev Transfer contributed tokens to wallet.\n            _tokenPayment(paymentCurrency, wallet, commitmentsTotal);\n        }\n        else\n        {\n            /// @dev Failed auction\n            /// @dev Return auction tokens back to wallet.\n            require(block.timestamp > endDate);               // Auction not yet finished\n            _tokenPayment(auctionToken, wallet, totalTokens);\n        }\n        finalised = true;\n    }\n\n    /// @notice Withdraw your tokens once the Auction has ended.\n    function withdrawTokens() public /* nonReentrant */ {\n        if( auctionSuccessful() ) \n        {\n            /// @dev Successful auction! Transfer claimed tokens.\n            /// @dev AG: Could be only > min to allow early withdraw\n            uint256 tokensToClaim = tokensClaimable(msg.sender);\n            require(tokensToClaim > 0 );                      // No tokens to claim\n            claimed[ msg.sender] = tokensToClaim;\n            _tokenPayment(auctionToken, msg.sender, tokensToClaim);\n        }\n        else \n        {\n            /// @dev Auction did not meet reserve price.\n            /// @dev Return committed funds back to user.\n            require(block.timestamp > endDate);               // Auction not yet finished\n            uint256 fundsCommitted = commitments[ msg.sender];\n            commitments[msg.sender] = 0; // Stop multiple withdrawals and free some gas\n            _tokenPayment(paymentCurrency, msg.sender, fundsCommitted);       \n        }\n    }\n\n\n    //--------------------------------------------------------\n    // Helper Functions\n    //--------------------------------------------------------\n\n    // There are many non-compliant ERC20 tokens... this can handle most, adapted from UniSwap V2\n    // I'm trying to make it a habit to put external calls last (reentrancy)\n    // You can put this in an internal function if you like.\n    function _safeTransfer(address token, address to, uint256 amount) internal {\n        // solium-disable-next-line security/no-low-level-calls\n        (bool success, bytes memory data) = token.call(\n            // 0xa9059cbb = bytes4(keccak256(\"transferFrom(address,address,uint256)\"))\n            abi.encodeWithSelector(0xa9059cbb, to, amount)\n        );\n        require(success && (data.length == 0 || abi.decode(data, (bool)))); // ERC20 Transfer failed \n    }\n\n    function _safeTransferFrom(address token, address from, uint256 amount) internal {\n        // solium-disable-next-line security/no-low-level-calls\n        (bool success, bytes memory data) = token.call(\n            // 0x23b872dd = bytes4(keccak256(\"transferFrom(address,address,uint256)\"))\n            abi.encodeWithSelector(0x23b872dd, from, address(this), amount)\n        );\n        require(success && (data.length == 0 || abi.decode(data, (bool)))); // ERC20 TransferFrom failed \n    }\n\n    /// @dev Helper function to handle both ETH and ERC20 payments\n    function _tokenPayment(address _token, address payable _to, uint256 _amount) internal {\n        if (address(_token) == ETH_ADDRESS) {\n            _to.transfer(_amount);\n        } else {\n            _safeTransfer(_token, _to, _amount);\n        }\n    }\n}",
  "sourcePath": "contracts/Auctions/DutchAuction.sol",
  "type": "contract"
}