{
  "abi": [
    {
      "anonymous": false,
      "inputs": [
        {
          "indexed": true,
          "internalType": "address",
          "name": "user",
          "type": "address"
        },
        {
          "indexed": true,
          "internalType": "address",
          "name": "proxy",
          "type": "address"
        },
        {
          "indexed": false,
          "internalType": "address",
          "name": "safeGnosis",
          "type": "address"
        },
        {
          "indexed": false,
          "internalType": "address",
          "name": "proxyFactory",
          "type": "address"
        }
      ],
      "name": "GnosisSafeCreated",
      "type": "event"
    },
    {
      "anonymous": false,
      "inputs": [
        {
          "indexed": false,
          "internalType": "address",
          "name": "sender",
          "type": "address"
        }
      ],
      "name": "MisoInitGnosisVault",
      "type": "event"
    },
    {
      "anonymous": false,
      "inputs": [
        {
          "indexed": true,
          "internalType": "address",
          "name": "sender",
          "type": "address"
        },
        {
          "indexed": false,
          "internalType": "address",
          "name": "oldProxyFactory",
          "type": "address"
        },
        {
          "indexed": false,
          "internalType": "address",
          "name": "newProxyFactory",
          "type": "address"
        }
      ],
      "name": "ProxyFactoryUpdated",
      "type": "event"
    },
    {
      "anonymous": false,
      "inputs": [
        {
          "indexed": true,
          "internalType": "address",
          "name": "sender",
          "type": "address"
        },
        {
          "indexed": false,
          "internalType": "address",
          "name": "oldSafeGnosis",
          "type": "address"
        },
        {
          "indexed": false,
          "internalType": "address",
          "name": "newSafeGnosis",
          "type": "address"
        }
      ],
      "name": "SafeGnosisUpdated",
      "type": "event"
    },
    {
      "inputs": [],
      "name": "accessControls",
      "outputs": [
        {
          "internalType": "contract MISOAccessControls",
          "name": "",
          "type": "address"
        }
      ],
      "stateMutability": "view",
      "type": "function"
    },
    {
      "inputs": [
        {
          "internalType": "address[]",
          "name": "_owners",
          "type": "address[]"
        },
        {
          "internalType": "uint256",
          "name": "_threshold",
          "type": "uint256"
        },
        {
          "internalType": "address",
          "name": "to",
          "type": "address"
        },
        {
          "internalType": "bytes",
          "name": "data",
          "type": "bytes"
        },
        {
          "internalType": "address",
          "name": "fallbackHandler",
          "type": "address"
        },
        {
          "internalType": "address",
          "name": "paymentToken",
          "type": "address"
        },
        {
          "internalType": "uint256",
          "name": "payment",
          "type": "uint256"
        },
        {
          "internalType": "address payable",
          "name": "paymentReceiver",
          "type": "address"
        }
      ],
      "name": "createSafe",
      "outputs": [
        {
          "internalType": "contract ISafeGnosis",
          "name": "proxy",
          "type": "address"
        }
      ],
      "stateMutability": "nonpayable",
      "type": "function"
    },
    {
      "inputs": [
        {
          "internalType": "address",
          "name": "_accessControls",
          "type": "address"
        },
        {
          "internalType": "address",
          "name": "_safeGnosis",
          "type": "address"
        },
        {
          "internalType": "address",
          "name": "_proxyFactory",
          "type": "address"
        }
      ],
      "name": "initGnosisVault",
      "outputs": [],
      "stateMutability": "nonpayable",
      "type": "function"
    },
    {
      "inputs": [],
      "name": "proxyFactory",
      "outputs": [
        {
          "internalType": "contract IGnosisProxyFactory",
          "name": "",
          "type": "address"
        }
      ],
      "stateMutability": "view",
      "type": "function"
    },
    {
      "inputs": [],
      "name": "safeGnosis",
      "outputs": [
        {
          "internalType": "contract ISafeGnosis",
          "name": "",
          "type": "address"
        }
      ],
      "stateMutability": "view",
      "type": "function"
    },
    {
      "inputs": [
        {
          "internalType": "address",
          "name": "_proxyFactory",
          "type": "address"
        }
      ],
      "name": "setProxyFactory",
      "outputs": [],
      "stateMutability": "nonpayable",
      "type": "function"
    },
    {
      "inputs": [
        {
          "internalType": "address",
          "name": "_safeGnosis",
          "type": "address"
        }
      ],
      "name": "setSafeGnosis",
      "outputs": [],
      "stateMutability": "nonpayable",
      "type": "function"
    }
  ],
  "bytecode": "608060405234801561001057600080fd5b5061088a806100206000396000f3fe608060405234801561001057600080fd5b506004361061007d5760003560e01c806385ae71dc1161005b57806385ae71dc146101d7578063c10f1a75146101fd578063c54eb13914610205578063fbddd7511461020d5761007d565b8063115eda4d1461008257806315cdde8014610195578063748365ef146101cf575b600080fd5b610179600480360361010081101561009957600080fd5b8101906020810181356401000000008111156100b457600080fd5b8201836020820111156100c657600080fd5b803590602001918460208302840111640100000000831117156100e857600080fd5b919390928235926001600160a01b0360208201351692919060608101906040013564010000000081111561011b57600080fd5b82018360208201111561012d57600080fd5b8035906020019184600183028401116401000000008311171561014f57600080fd5b91935091506001600160a01b03813581169160208101358216916040820135916060013516610233565b604080516001600160a01b039092168252519081900360200190f35b6101cd600480360360608110156101ab57600080fd5b506001600160a01b0381358116916020810135821691604090910135166104b7565b005b610179610551565b6101cd600480360360208110156101ed57600080fd5b50356001600160a01b0316610560565b610179610675565b610179610684565b6101cd6004803603602081101561022357600080fd5b50356001600160a01b0316610693565b600060608b8b8b8b8b8b8b8b8b8b6040516020018080602001806020018b81526020018a6001600160a01b0316815260200180602001886001600160a01b03168152602001876001600160a01b03168152602001868152602001856001600160a01b031681526020018481038452604681526020018061080f6046913960600184810383528e8e82818152602001925060200280828437600083820152601f01601f191690910185810383528a815260200190508a8a80828437600081840152601f19601f8201169050808301925050509d50505050505050505050505050506040516020818303038152906040529050600160009054906101000a90046001600160a01b03166001600160a01b03166361b69abd60008054906101000a90046001600160a01b0316836040518363ffffffff1660e01b815260040180836001600160a01b0316815260200180602001828103825283818151815260200191508051906020019080838360005b838110156103b85781810151838201526020016103a0565b50505050905090810190601f1680156103e55780820380516001836020036101000a031916815260200191505b509350505050602060405180830381600087803b15801561040557600080fd5b505af1158015610419573d6000803e3d6000fd5b505050506040513d602081101561042f57600080fd5b505133600081815260036020908152604080832080546001600160a01b0319166001600160a01b0380881691821790925593546001548351918316825290911692810192909252805194965091937ffaca5c644c0ff31b7bf7b1189f2ed2dbc1d6226dc231e6af5f4a6f277088a7bf929181900390910190a3509a9950505050505050505050565b600254600160a01b900460ff16156104ce57600080fd5b600080546001600160a01b038085166001600160a01b031992831617909255600180548484169083161790556002805460ff60a01b1993871692169190911791909116600160a01b1790556040805133815290517ff3a7f17e80eaecf1dc0b6f31b3542225cfeacbff0aaf06bc52727bbac1afa38b9181900360200190a1505050565b6002546001600160a01b031681565b60025460408051637e271f0560e11b815233600482015290516001600160a01b039092169163fc4e3e0a91602480820192602092909190829003018186803b1580156105ab57600080fd5b505afa1580156105bf573d6000803e3d6000fd5b505050506040513d60208110156105d557600080fd5b50516106125760405162461bcd60e51b81526004018080602001828103825260328152602001806107a96032913960400191505060405180910390fd5b600080546001600160a01b038381166001600160a01b03198316179283905560408051928216808452939091166020830152805133927fb15d4762c790f8d8e3db790e685fa4aeb87d3e704ce8a25dd64c1ce6d9f9b6e692908290030190a25050565b6001546001600160a01b031681565b6000546001600160a01b031681565b60025460408051637e271f0560e11b815233600482015290516001600160a01b039092169163fc4e3e0a91602480820192602092909190829003018186803b1580156106de57600080fd5b505afa1580156106f2573d6000803e3d6000fd5b505050506040513d602081101561070857600080fd5b50516107455760405162461bcd60e51b81526004018080602001828103825260348152602001806107db6034913960400191505060405180910390fd5b600180546001600160a01b038381166001600160a01b03198316179283905560408051928216808452939091166020830152805133927f433a1443462da55041a586a5a566005aeda3132ec57b6afb76e7f51ae63fe6fb92908290030190a2505056fe476e6f7369735661756c742e73657453616665476e6f7369733a2053656e646572206d757374206265206f70657261746f72476e6f7369735661756c742e73657450726f7879466163746f72793a2053656e646572206d757374206265206f70657261746f72736574757028616464726573735b5d2c75696e743235362c616464726573732c62797465732c616464726573732c616464726573732c75696e743235362c6164647265737329a26469706673582212209a152bc863cd977c99f581e3d2a37b1ff6b015f56f3ba10ce0dd2ffb0f34a66764736f6c634300060c0033",
  "bytecodeSha1": "a199e3f68bd6c2cc865c61754a55983c39514852",
  "compiler": {
    "evm_version": "istanbul",
    "optimizer": {
      "enabled": true,
      "runs": 200
    },
    "version": "0.6.12+commit.27d51765"
  },
  "contractName": "GnosisVault",
  "language": "Solidity",
  "natspec": {
    "kind": "dev",
    "methods": {
      "createSafe(address[],uint256,address,bytes,address,address,uint256,address)": {
        "details": "Setup function sets initial storage of contract.",
        "params": {
          "_owners": "List of Safe owners.",
          "_threshold": "Number of required confirmations for a Safe transaction.",
          "data": "Data payload for optional delegate call.",
          "fallbackHandler": "Handler for fallback calls to this contract",
          "payment": "Value that should be paid",
          "paymentReceiver": "Adddress that should receive the payment (or 0 if tx.origin)",
          "paymentToken": "Token that should be used for the payment (0 is ETH)",
          "to": "Contract address for optional delegate call."
        }
      },
      "setSafeGnosis(address)": {
        "details": "Setup function sets initial storage of contract."
      }
    },
    "version": 1
  },
  "opcodes": "PUSH1 0x80 PUSH1 0x40 MSTORE CALLVALUE DUP1 ISZERO PUSH2 0x10 JUMPI PUSH1 0x0 DUP1 REVERT JUMPDEST POP PUSH1 0x4 CALLDATASIZE LT PUSH2 0x7D JUMPI PUSH1 0x0 CALLDATALOAD PUSH1 0xE0 SHR DUP1 PUSH4 0x85AE71DC GT PUSH2 0x5B JUMPI DUP1 PUSH4 0x85AE71DC EQ PUSH2 0x1D7 JUMPI DUP1 PUSH4 0xC10F1A75 EQ PUSH2 0x1FD JUMPI DUP1 PUSH4 0xC54EB139 EQ PUSH2 0x205 JUMPI DUP1 PUSH4 0xFBDDD751 EQ PUSH2 0x20D JUMPI PUSH2 0x7D JUMP JUMPDEST DUP1 PUSH4 0x115EDA4D EQ PUSH2 0x82 JUMPI DUP1 PUSH4 0x15CDDE80 EQ PUSH2 0x195 JUMPI DUP1 PUSH4 0x748365EF EQ PUSH2 0x1CF JUMPI JUMPDEST PUSH1 0x0 DUP1 REVERT JUMPDEST PUSH2 0x179 PUSH1 0x4 DUP1 CALLDATASIZE SUB PUSH2 0x100 DUP2 LT ISZERO PUSH2 0x99 JUMPI PUSH1 0x0 DUP1 REVERT JUMPDEST DUP2 ADD SWAP1 PUSH1 0x20 DUP2 ADD DUP2 CALLDATALOAD PUSH5 0x100000000 DUP2 GT ISZERO PUSH2 0xB4 JUMPI PUSH1 0x0 DUP1 REVERT JUMPDEST DUP3 ADD DUP4 PUSH1 0x20 DUP3 ADD GT ISZERO PUSH2 0xC6 JUMPI PUSH1 0x0 DUP1 REVERT JUMPDEST DUP1 CALLDATALOAD SWAP1 PUSH1 0x20 ADD SWAP2 DUP5 PUSH1 0x20 DUP4 MUL DUP5 ADD GT PUSH5 0x100000000 DUP4 GT OR ISZERO PUSH2 0xE8 JUMPI PUSH1 0x0 DUP1 REVERT JUMPDEST SWAP2 SWAP4 SWAP1 SWAP3 DUP3 CALLDATALOAD SWAP3 PUSH1 0x1 PUSH1 0x1 PUSH1 0xA0 SHL SUB PUSH1 0x20 DUP3 ADD CALLDATALOAD AND SWAP3 SWAP2 SWAP1 PUSH1 0x60 DUP2 ADD SWAP1 PUSH1 0x40 ADD CALLDATALOAD PUSH5 0x100000000 DUP2 GT ISZERO PUSH2 0x11B JUMPI PUSH1 0x0 DUP1 REVERT JUMPDEST DUP3 ADD DUP4 PUSH1 0x20 DUP3 ADD GT ISZERO PUSH2 0x12D JUMPI PUSH1 0x0 DUP1 REVERT JUMPDEST DUP1 CALLDATALOAD SWAP1 PUSH1 0x20 ADD SWAP2 DUP5 PUSH1 0x1 DUP4 MUL DUP5 ADD GT PUSH5 0x100000000 DUP4 GT OR ISZERO PUSH2 0x14F JUMPI PUSH1 0x0 DUP1 REVERT JUMPDEST SWAP2 SWAP4 POP SWAP2 POP PUSH1 0x1 PUSH1 0x1 PUSH1 0xA0 SHL SUB DUP2 CALLDATALOAD DUP2 AND SWAP2 PUSH1 0x20 DUP2 ADD CALLDATALOAD DUP3 AND SWAP2 PUSH1 0x40 DUP3 ADD CALLDATALOAD SWAP2 PUSH1 0x60 ADD CALLDATALOAD AND PUSH2 0x233 JUMP JUMPDEST PUSH1 0x40 DUP1 MLOAD PUSH1 0x1 PUSH1 0x1 PUSH1 0xA0 SHL SUB SWAP1 SWAP3 AND DUP3 MSTORE MLOAD SWAP1 DUP2 SWAP1 SUB PUSH1 0x20 ADD SWAP1 RETURN JUMPDEST PUSH2 0x1CD PUSH1 0x4 DUP1 CALLDATASIZE SUB PUSH1 0x60 DUP2 LT ISZERO PUSH2 0x1AB JUMPI PUSH1 0x0 DUP1 REVERT JUMPDEST POP PUSH1 0x1 PUSH1 0x1 PUSH1 0xA0 SHL SUB DUP2 CALLDATALOAD DUP2 AND SWAP2 PUSH1 0x20 DUP2 ADD CALLDATALOAD DUP3 AND SWAP2 PUSH1 0x40 SWAP1 SWAP2 ADD CALLDATALOAD AND PUSH2 0x4B7 JUMP JUMPDEST STOP JUMPDEST PUSH2 0x179 PUSH2 0x551 JUMP JUMPDEST PUSH2 0x1CD PUSH1 0x4 DUP1 CALLDATASIZE SUB PUSH1 0x20 DUP2 LT ISZERO PUSH2 0x1ED JUMPI PUSH1 0x0 DUP1 REVERT JUMPDEST POP CALLDATALOAD PUSH1 0x1 PUSH1 0x1 PUSH1 0xA0 SHL SUB AND PUSH2 0x560 JUMP JUMPDEST PUSH2 0x179 PUSH2 0x675 JUMP JUMPDEST PUSH2 0x179 PUSH2 0x684 JUMP JUMPDEST PUSH2 0x1CD PUSH1 0x4 DUP1 CALLDATASIZE SUB PUSH1 0x20 DUP2 LT ISZERO PUSH2 0x223 JUMPI PUSH1 0x0 DUP1 REVERT JUMPDEST POP CALLDATALOAD PUSH1 0x1 PUSH1 0x1 PUSH1 0xA0 SHL SUB AND PUSH2 0x693 JUMP JUMPDEST PUSH1 0x0 PUSH1 0x60 DUP12 DUP12 DUP12 DUP12 DUP12 DUP12 DUP12 DUP12 DUP12 DUP12 PUSH1 0x40 MLOAD PUSH1 0x20 ADD DUP1 DUP1 PUSH1 0x20 ADD DUP1 PUSH1 0x20 ADD DUP12 DUP2 MSTORE PUSH1 0x20 ADD DUP11 PUSH1 0x1 PUSH1 0x1 PUSH1 0xA0 SHL SUB AND DUP2 MSTORE PUSH1 0x20 ADD DUP1 PUSH1 0x20 ADD DUP9 PUSH1 0x1 PUSH1 0x1 PUSH1 0xA0 SHL SUB AND DUP2 MSTORE PUSH1 0x20 ADD DUP8 PUSH1 0x1 PUSH1 0x1 PUSH1 0xA0 SHL SUB AND DUP2 MSTORE PUSH1 0x20 ADD DUP7 DUP2 MSTORE PUSH1 0x20 ADD DUP6 PUSH1 0x1 PUSH1 0x1 PUSH1 0xA0 SHL SUB AND DUP2 MSTORE PUSH1 0x20 ADD DUP5 DUP2 SUB DUP5 MSTORE PUSH1 0x46 DUP2 MSTORE PUSH1 0x20 ADD DUP1 PUSH2 0x80F PUSH1 0x46 SWAP2 CODECOPY PUSH1 0x60 ADD DUP5 DUP2 SUB DUP4 MSTORE DUP15 DUP15 DUP3 DUP2 DUP2 MSTORE PUSH1 0x20 ADD SWAP3 POP PUSH1 0x20 MUL DUP1 DUP3 DUP5 CALLDATACOPY PUSH1 0x0 DUP4 DUP3 ADD MSTORE PUSH1 0x1F ADD PUSH1 0x1F NOT AND SWAP1 SWAP2 ADD DUP6 DUP2 SUB DUP4 MSTORE DUP11 DUP2 MSTORE PUSH1 0x20 ADD SWAP1 POP DUP11 DUP11 DUP1 DUP3 DUP5 CALLDATACOPY PUSH1 0x0 DUP2 DUP5 ADD MSTORE PUSH1 0x1F NOT PUSH1 0x1F DUP3 ADD AND SWAP1 POP DUP1 DUP4 ADD SWAP3 POP POP POP SWAP14 POP POP POP POP POP POP POP POP POP POP POP POP POP POP PUSH1 0x40 MLOAD PUSH1 0x20 DUP2 DUP4 SUB SUB DUP2 MSTORE SWAP1 PUSH1 0x40 MSTORE SWAP1 POP PUSH1 0x1 PUSH1 0x0 SWAP1 SLOAD SWAP1 PUSH2 0x100 EXP SWAP1 DIV PUSH1 0x1 PUSH1 0x1 PUSH1 0xA0 SHL SUB AND PUSH1 0x1 PUSH1 0x1 PUSH1 0xA0 SHL SUB AND PUSH4 0x61B69ABD PUSH1 0x0 DUP1 SLOAD SWAP1 PUSH2 0x100 EXP SWAP1 DIV PUSH1 0x1 PUSH1 0x1 PUSH1 0xA0 SHL SUB AND DUP4 PUSH1 0x40 MLOAD DUP4 PUSH4 0xFFFFFFFF AND PUSH1 0xE0 SHL DUP2 MSTORE PUSH1 0x4 ADD DUP1 DUP4 PUSH1 0x1 PUSH1 0x1 PUSH1 0xA0 SHL SUB AND DUP2 MSTORE PUSH1 0x20 ADD DUP1 PUSH1 0x20 ADD DUP3 DUP2 SUB DUP3 MSTORE DUP4 DUP2 DUP2 MLOAD DUP2 MSTORE PUSH1 0x20 ADD SWAP2 POP DUP1 MLOAD SWAP1 PUSH1 0x20 ADD SWAP1 DUP1 DUP4 DUP4 PUSH1 0x0 JUMPDEST DUP4 DUP2 LT ISZERO PUSH2 0x3B8 JUMPI DUP2 DUP2 ADD MLOAD DUP4 DUP3 ADD MSTORE PUSH1 0x20 ADD PUSH2 0x3A0 JUMP JUMPDEST POP POP POP POP SWAP1 POP SWAP1 DUP2 ADD SWAP1 PUSH1 0x1F AND DUP1 ISZERO PUSH2 0x3E5 JUMPI DUP1 DUP3 SUB DUP1 MLOAD PUSH1 0x1 DUP4 PUSH1 0x20 SUB PUSH2 0x100 EXP SUB NOT AND DUP2 MSTORE PUSH1 0x20 ADD SWAP2 POP JUMPDEST POP SWAP4 POP POP POP POP PUSH1 0x20 PUSH1 0x40 MLOAD DUP1 DUP4 SUB DUP2 PUSH1 0x0 DUP8 DUP1 EXTCODESIZE ISZERO DUP1 ISZERO PUSH2 0x405 JUMPI PUSH1 0x0 DUP1 REVERT JUMPDEST POP GAS CALL ISZERO DUP1 ISZERO PUSH2 0x419 JUMPI RETURNDATASIZE PUSH1 0x0 DUP1 RETURNDATACOPY RETURNDATASIZE PUSH1 0x0 REVERT JUMPDEST POP POP POP POP PUSH1 0x40 MLOAD RETURNDATASIZE PUSH1 0x20 DUP2 LT ISZERO PUSH2 0x42F JUMPI PUSH1 0x0 DUP1 REVERT JUMPDEST POP MLOAD CALLER PUSH1 0x0 DUP2 DUP2 MSTORE PUSH1 0x3 PUSH1 0x20 SWAP1 DUP2 MSTORE PUSH1 0x40 DUP1 DUP4 KECCAK256 DUP1 SLOAD PUSH1 0x1 PUSH1 0x1 PUSH1 0xA0 SHL SUB NOT AND PUSH1 0x1 PUSH1 0x1 PUSH1 0xA0 SHL SUB DUP1 DUP9 AND SWAP2 DUP3 OR SWAP1 SWAP3 SSTORE SWAP4 SLOAD PUSH1 0x1 SLOAD DUP4 MLOAD SWAP2 DUP4 AND DUP3 MSTORE SWAP1 SWAP2 AND SWAP3 DUP2 ADD SWAP3 SWAP1 SWAP3 MSTORE DUP1 MLOAD SWAP5 SWAP7 POP SWAP2 SWAP4 PUSH32 0xFACA5C644C0FF31B7BF7B1189F2ED2DBC1D6226DC231E6AF5F4A6F277088A7BF SWAP3 SWAP2 DUP2 SWAP1 SUB SWAP1 SWAP2 ADD SWAP1 LOG3 POP SWAP11 SWAP10 POP POP POP POP POP POP POP POP POP POP JUMP JUMPDEST PUSH1 0x2 SLOAD PUSH1 0x1 PUSH1 0xA0 SHL SWAP1 DIV PUSH1 0xFF AND ISZERO PUSH2 0x4CE JUMPI PUSH1 0x0 DUP1 REVERT JUMPDEST PUSH1 0x0 DUP1 SLOAD PUSH1 0x1 PUSH1 0x1 PUSH1 0xA0 SHL SUB DUP1 DUP6 AND PUSH1 0x1 PUSH1 0x1 PUSH1 0xA0 SHL SUB NOT SWAP3 DUP4 AND OR SWAP1 SWAP3 SSTORE PUSH1 0x1 DUP1 SLOAD DUP5 DUP5 AND SWAP1 DUP4 AND OR SWAP1 SSTORE PUSH1 0x2 DUP1 SLOAD PUSH1 0xFF PUSH1 0xA0 SHL NOT SWAP4 DUP8 AND SWAP3 AND SWAP2 SWAP1 SWAP2 OR SWAP2 SWAP1 SWAP2 AND PUSH1 0x1 PUSH1 0xA0 SHL OR SWAP1 SSTORE PUSH1 0x40 DUP1 MLOAD CALLER DUP2 MSTORE SWAP1 MLOAD PUSH32 0xF3A7F17E80EAECF1DC0B6F31B3542225CFEACBFF0AAF06BC52727BBAC1AFA38B SWAP2 DUP2 SWAP1 SUB PUSH1 0x20 ADD SWAP1 LOG1 POP POP POP JUMP JUMPDEST PUSH1 0x2 SLOAD PUSH1 0x1 PUSH1 0x1 PUSH1 0xA0 SHL SUB AND DUP2 JUMP JUMPDEST PUSH1 0x2 SLOAD PUSH1 0x40 DUP1 MLOAD PUSH4 0x7E271F05 PUSH1 0xE1 SHL DUP2 MSTORE CALLER PUSH1 0x4 DUP3 ADD MSTORE SWAP1 MLOAD PUSH1 0x1 PUSH1 0x1 PUSH1 0xA0 SHL SUB SWAP1 SWAP3 AND SWAP2 PUSH4 0xFC4E3E0A SWAP2 PUSH1 0x24 DUP1 DUP3 ADD SWAP3 PUSH1 0x20 SWAP3 SWAP1 SWAP2 SWAP1 DUP3 SWAP1 SUB ADD DUP2 DUP7 DUP1 EXTCODESIZE ISZERO DUP1 ISZERO PUSH2 0x5AB JUMPI PUSH1 0x0 DUP1 REVERT JUMPDEST POP GAS STATICCALL ISZERO DUP1 ISZERO PUSH2 0x5BF JUMPI RETURNDATASIZE PUSH1 0x0 DUP1 RETURNDATACOPY RETURNDATASIZE PUSH1 0x0 REVERT JUMPDEST POP POP POP POP PUSH1 0x40 MLOAD RETURNDATASIZE PUSH1 0x20 DUP2 LT ISZERO PUSH2 0x5D5 JUMPI PUSH1 0x0 DUP1 REVERT JUMPDEST POP MLOAD PUSH2 0x612 JUMPI PUSH1 0x40 MLOAD PUSH3 0x461BCD PUSH1 0xE5 SHL DUP2 MSTORE PUSH1 0x4 ADD DUP1 DUP1 PUSH1 0x20 ADD DUP3 DUP2 SUB DUP3 MSTORE PUSH1 0x32 DUP2 MSTORE PUSH1 0x20 ADD DUP1 PUSH2 0x7A9 PUSH1 0x32 SWAP2 CODECOPY PUSH1 0x40 ADD SWAP2 POP POP PUSH1 0x40 MLOAD DUP1 SWAP2 SUB SWAP1 REVERT JUMPDEST PUSH1 0x0 DUP1 SLOAD PUSH1 0x1 PUSH1 0x1 PUSH1 0xA0 SHL SUB DUP4 DUP2 AND PUSH1 0x1 PUSH1 0x1 PUSH1 0xA0 SHL SUB NOT DUP4 AND OR SWAP3 DUP4 SWAP1 SSTORE PUSH1 0x40 DUP1 MLOAD SWAP3 DUP3 AND DUP1 DUP5 MSTORE SWAP4 SWAP1 SWAP2 AND PUSH1 0x20 DUP4 ADD MSTORE DUP1 MLOAD CALLER SWAP3 PUSH32 0xB15D4762C790F8D8E3DB790E685FA4AEB87D3E704CE8A25DD64C1CE6D9F9B6E6 SWAP3 SWAP1 DUP3 SWAP1 SUB ADD SWAP1 LOG2 POP POP JUMP JUMPDEST PUSH1 0x1 SLOAD PUSH1 0x1 PUSH1 0x1 PUSH1 0xA0 SHL SUB AND DUP2 JUMP JUMPDEST PUSH1 0x0 SLOAD PUSH1 0x1 PUSH1 0x1 PUSH1 0xA0 SHL SUB AND DUP2 JUMP JUMPDEST PUSH1 0x2 SLOAD PUSH1 0x40 DUP1 MLOAD PUSH4 0x7E271F05 PUSH1 0xE1 SHL DUP2 MSTORE CALLER PUSH1 0x4 DUP3 ADD MSTORE SWAP1 MLOAD PUSH1 0x1 PUSH1 0x1 PUSH1 0xA0 SHL SUB SWAP1 SWAP3 AND SWAP2 PUSH4 0xFC4E3E0A SWAP2 PUSH1 0x24 DUP1 DUP3 ADD SWAP3 PUSH1 0x20 SWAP3 SWAP1 SWAP2 SWAP1 DUP3 SWAP1 SUB ADD DUP2 DUP7 DUP1 EXTCODESIZE ISZERO DUP1 ISZERO PUSH2 0x6DE JUMPI PUSH1 0x0 DUP1 REVERT JUMPDEST POP GAS STATICCALL ISZERO DUP1 ISZERO PUSH2 0x6F2 JUMPI RETURNDATASIZE PUSH1 0x0 DUP1 RETURNDATACOPY RETURNDATASIZE PUSH1 0x0 REVERT JUMPDEST POP POP POP POP PUSH1 0x40 MLOAD RETURNDATASIZE PUSH1 0x20 DUP2 LT ISZERO PUSH2 0x708 JUMPI PUSH1 0x0 DUP1 REVERT JUMPDEST POP MLOAD PUSH2 0x745 JUMPI PUSH1 0x40 MLOAD PUSH3 0x461BCD PUSH1 0xE5 SHL DUP2 MSTORE PUSH1 0x4 ADD DUP1 DUP1 PUSH1 0x20 ADD DUP3 DUP2 SUB DUP3 MSTORE PUSH1 0x34 DUP2 MSTORE PUSH1 0x20 ADD DUP1 PUSH2 0x7DB PUSH1 0x34 SWAP2 CODECOPY PUSH1 0x40 ADD SWAP2 POP POP PUSH1 0x40 MLOAD DUP1 SWAP2 SUB SWAP1 REVERT JUMPDEST PUSH1 0x1 DUP1 SLOAD PUSH1 0x1 PUSH1 0x1 PUSH1 0xA0 SHL SUB DUP4 DUP2 AND PUSH1 0x1 PUSH1 0x1 PUSH1 0xA0 SHL SUB NOT DUP4 AND OR SWAP3 DUP4 SWAP1 SSTORE PUSH1 0x40 DUP1 MLOAD SWAP3 DUP3 AND DUP1 DUP5 MSTORE SWAP4 SWAP1 SWAP2 AND PUSH1 0x20 DUP4 ADD MSTORE DUP1 MLOAD CALLER SWAP3 PUSH32 0x433A1443462DA55041A586A5A566005AEDA3132EC57B6AFB76E7F51AE63FE6FB SWAP3 SWAP1 DUP3 SWAP1 SUB ADD SWAP1 LOG2 POP POP JUMP INVALID SELFBALANCE PUSH15 0x6F7369735661756C742E7365745361 PUSH7 0x65476E6F736973 GASPRICE KECCAK256 MSTORE8 PUSH6 0x6E646572206D PUSH22 0x7374206265206F70657261746F72476E6F7369735661 PUSH22 0x6C742E73657450726F7879466163746F72793A205365 PUSH15 0x646572206D757374206265206F7065 PUSH19 0x61746F72736574757028616464726573735B5D 0x2C PUSH22 0x696E743235362C616464726573732C62797465732C61 PUSH5 0x6472657373 0x2C PUSH2 0x6464 PUSH19 0x6573732C75696E743235362C61646472657373 0x29 LOG2 PUSH5 0x6970667358 0x22 SLT KECCAK256 SWAP11 ISZERO 0x2B 0xC8 PUSH4 0xCD977C99 CREATE2 DUP2 0xE3 0xD2 LOG3 PUSH28 0x1FF6B015F56F3BA10CE0DD2FFB0F34A66764736F6C634300060C0033 ",
  "sha1": "1374aa809f400a5ed27c6e089e2fad95e3b4326d",
  "source": "pragma solidity ^0.6.9;\n\n\nimport \"../../interfaces/IGnosisProxyFactory.sol\";\nimport \"../../interfaces/ISafeGnosis.sol\";\nimport \"../Access/MISOAccessControls.sol\";\nimport \"../../interfaces/IERC20.sol\";\n\ncontract GnosisVault {\n    \n    ISafeGnosis public safeGnosis;\n    IGnosisProxyFactory public proxyFactory;\n    MISOAccessControls public accessControls;\n\n    bool private initialised;    \n    mapping(address => ISafeGnosis) userToProxy;\n\n    event GnosisSafeCreated(address indexed user, address indexed proxy, address safeGnosis, address proxyFactory);\n    event MisoInitGnosisVault(address sender);\n    event SafeGnosisUpdated(address indexed sender, address oldSafeGnosis, address newSafeGnosis);\n    event ProxyFactoryUpdated(address indexed sender, address oldProxyFactory, address newProxyFactory);\n\n\n    function initGnosisVault(address _accessControls, address _safeGnosis, address _proxyFactory) public{\n        require(!initialised);\n        safeGnosis = ISafeGnosis(_safeGnosis);\n        proxyFactory = IGnosisProxyFactory(_proxyFactory);\n        accessControls = MISOAccessControls(_accessControls);\n        initialised = true;\n        emit MisoInitGnosisVault(msg.sender);\n\n    }\n\n    /// @dev Setup function sets initial storage of contract.\n    function setSafeGnosis(address _safeGnosis) external {\n        require(\n            accessControls.hasOperatorRole(msg.sender),\n            \"GnosisVault.setSafeGnosis: Sender must be operator\"\n        );\n        address oldSafeGnosis = address(safeGnosis);\n        safeGnosis = ISafeGnosis(_safeGnosis);\n        emit SafeGnosisUpdated(msg.sender, oldSafeGnosis, address(safeGnosis));\n\n    }\n    \n    function setProxyFactory(address _proxyFactory) external {\n        require(\n            accessControls.hasOperatorRole(msg.sender),\n            \"GnosisVault.setProxyFactory: Sender must be operator\"\n        );\n        address oldProxyFactory = address(proxyFactory);\n        proxyFactory = IGnosisProxyFactory(_proxyFactory);\n        emit ProxyFactoryUpdated(msg.sender, oldProxyFactory, address(proxyFactory));\n\n    }\n    \n\n    /// @dev Setup function sets initial storage of contract.\n    /// @param _owners List of Safe owners.\n    /// @param _threshold Number of required confirmations for a Safe transaction.\n    /// @param to Contract address for optional delegate call.\n    /// @param data Data payload for optional delegate call.\n    /// @param fallbackHandler Handler for fallback calls to this contract\n    /// @param paymentToken Token that should be used for the payment (0 is ETH)\n    /// @param payment Value that should be paid\n    /// @param paymentReceiver Adddress that should receive the payment (or 0 if tx.origin)\n    function createSafe(address[] calldata _owners,\n        uint256 _threshold,\n        address to,\n        bytes calldata data,\n        address fallbackHandler,\n        address paymentToken,\n        uint256 payment,\n        address payable paymentReceiver\n    ) \n        public\n        returns (ISafeGnosis proxy)\n    {\n\n        bytes memory safeGnosisData = abi.encode(\"setup(address[],uint256,address,bytes,address,address,uint256,address)\",\n        _owners,_threshold,to,data,fallbackHandler,paymentToken,payment,paymentReceiver);\n        proxy = proxyFactory.createProxy(\n            safeGnosis,\n            safeGnosisData\n        );\n        userToProxy[msg.sender] = proxy;\n        emit GnosisSafeCreated(msg.sender, address(proxy), address(safeGnosis), address(proxyFactory));\n        return proxy;\n    }\n\n\n    /// GP: Can we also use the proxy with a nonce? Incase we need it.\n    /// GP: Can we have a simplifed version with a few things already set? eg an ETH by default verision.\n    /// GP: Can we set empty data or preset the feedback handler? Whats the minimum feilds required?\n\n}",
  "sourcePath": "contracts/Vault/GnosisVault.sol",
  "type": "contract"
}