{
  "abi": [
    {
      "anonymous": false,
      "inputs": [
        {
          "indexed": true,
          "internalType": "address",
          "name": "user",
          "type": "address"
        },
        {
          "indexed": true,
          "internalType": "uint256",
          "name": "pid",
          "type": "uint256"
        },
        {
          "indexed": false,
          "internalType": "uint256",
          "name": "amount",
          "type": "uint256"
        }
      ],
      "name": "Deposit",
      "type": "event"
    },
    {
      "anonymous": false,
      "inputs": [
        {
          "indexed": true,
          "internalType": "address",
          "name": "user",
          "type": "address"
        },
        {
          "indexed": true,
          "internalType": "uint256",
          "name": "pid",
          "type": "uint256"
        },
        {
          "indexed": false,
          "internalType": "uint256",
          "name": "amount",
          "type": "uint256"
        }
      ],
      "name": "EmergencyWithdraw",
      "type": "event"
    },
    {
      "anonymous": false,
      "inputs": [
        {
          "indexed": true,
          "internalType": "address",
          "name": "user",
          "type": "address"
        },
        {
          "indexed": true,
          "internalType": "uint256",
          "name": "pid",
          "type": "uint256"
        },
        {
          "indexed": false,
          "internalType": "uint256",
          "name": "amount",
          "type": "uint256"
        }
      ],
      "name": "Withdraw",
      "type": "event"
    },
    {
      "inputs": [],
      "name": "BONUS_MULTIPLIER",
      "outputs": [
        {
          "internalType": "uint256",
          "name": "",
          "type": "uint256"
        }
      ],
      "stateMutability": "view",
      "type": "function"
    },
    {
      "inputs": [],
      "name": "accessControls",
      "outputs": [
        {
          "internalType": "contract MISOAccessControls",
          "name": "",
          "type": "address"
        }
      ],
      "stateMutability": "view",
      "type": "function"
    },
    {
      "inputs": [
        {
          "internalType": "uint256",
          "name": "_allocPoint",
          "type": "uint256"
        },
        {
          "internalType": "contract IERC20",
          "name": "_lpToken",
          "type": "address"
        },
        {
          "internalType": "bool",
          "name": "_withUpdate",
          "type": "bool"
        }
      ],
      "name": "addToken",
      "outputs": [],
      "stateMutability": "nonpayable",
      "type": "function"
    },
    {
      "inputs": [],
      "name": "blocksRemaining",
      "outputs": [
        {
          "internalType": "uint256",
          "name": "",
          "type": "uint256"
        }
      ],
      "stateMutability": "nonpayable",
      "type": "function"
    },
    {
      "inputs": [],
      "name": "bonusEndBlock",
      "outputs": [
        {
          "internalType": "uint256",
          "name": "",
          "type": "uint256"
        }
      ],
      "stateMutability": "view",
      "type": "function"
    },
    {
      "inputs": [],
      "name": "claimTips",
      "outputs": [],
      "stateMutability": "nonpayable",
      "type": "function"
    },
    {
      "inputs": [
        {
          "internalType": "uint256",
          "name": "_pid",
          "type": "uint256"
        },
        {
          "internalType": "uint256",
          "name": "_amount",
          "type": "uint256"
        }
      ],
      "name": "deposit",
      "outputs": [],
      "stateMutability": "nonpayable",
      "type": "function"
    },
    {
      "inputs": [
        {
          "internalType": "address",
          "name": "_devaddr",
          "type": "address"
        }
      ],
      "name": "dev",
      "outputs": [],
      "stateMutability": "nonpayable",
      "type": "function"
    },
    {
      "inputs": [],
      "name": "devPercentage",
      "outputs": [
        {
          "internalType": "uint256",
          "name": "",
          "type": "uint256"
        }
      ],
      "stateMutability": "view",
      "type": "function"
    },
    {
      "inputs": [],
      "name": "devaddr",
      "outputs": [
        {
          "internalType": "address",
          "name": "",
          "type": "address"
        }
      ],
      "stateMutability": "view",
      "type": "function"
    },
    {
      "inputs": [
        {
          "internalType": "uint256",
          "name": "_pid",
          "type": "uint256"
        }
      ],
      "name": "emergencyWithdraw",
      "outputs": [],
      "stateMutability": "nonpayable",
      "type": "function"
    },
    {
      "inputs": [
        {
          "internalType": "uint256",
          "name": "_from",
          "type": "uint256"
        },
        {
          "internalType": "uint256",
          "name": "_to",
          "type": "uint256"
        }
      ],
      "name": "getMultiplier",
      "outputs": [
        {
          "internalType": "uint256",
          "name": "",
          "type": "uint256"
        }
      ],
      "stateMutability": "view",
      "type": "function"
    },
    {
      "inputs": [
        {
          "internalType": "address",
          "name": "_rewards",
          "type": "address"
        },
        {
          "internalType": "uint256",
          "name": "_rewardsPerBlock",
          "type": "uint256"
        },
        {
          "internalType": "uint256",
          "name": "_startBlock",
          "type": "uint256"
        },
        {
          "internalType": "address",
          "name": "_devaddr",
          "type": "address"
        },
        {
          "internalType": "address",
          "name": "_accessControls",
          "type": "address"
        }
      ],
      "name": "initFarm",
      "outputs": [],
      "stateMutability": "nonpayable",
      "type": "function"
    },
    {
      "inputs": [],
      "name": "massUpdatePools",
      "outputs": [],
      "stateMutability": "nonpayable",
      "type": "function"
    },
    {
      "inputs": [
        {
          "internalType": "uint256",
          "name": "_pid",
          "type": "uint256"
        },
        {
          "internalType": "address",
          "name": "_user",
          "type": "address"
        }
      ],
      "name": "pendingRewards",
      "outputs": [
        {
          "internalType": "uint256",
          "name": "",
          "type": "uint256"
        }
      ],
      "stateMutability": "view",
      "type": "function"
    },
    {
      "inputs": [
        {
          "internalType": "uint256",
          "name": "",
          "type": "uint256"
        }
      ],
      "name": "poolInfo",
      "outputs": [
        {
          "internalType": "contract IERC20",
          "name": "lpToken",
          "type": "address"
        },
        {
          "internalType": "uint256",
          "name": "allocPoint",
          "type": "uint256"
        },
        {
          "internalType": "uint256",
          "name": "lastRewardBlock",
          "type": "uint256"
        },
        {
          "internalType": "uint256",
          "name": "accRewardsPerShare",
          "type": "uint256"
        }
      ],
      "stateMutability": "view",
      "type": "function"
    },
    {
      "inputs": [],
      "name": "poolLength",
      "outputs": [
        {
          "internalType": "uint256",
          "name": "",
          "type": "uint256"
        }
      ],
      "stateMutability": "view",
      "type": "function"
    },
    {
      "inputs": [],
      "name": "rewards",
      "outputs": [
        {
          "internalType": "contract IERC20",
          "name": "",
          "type": "address"
        }
      ],
      "stateMutability": "view",
      "type": "function"
    },
    {
      "inputs": [],
      "name": "rewardsPerBlock",
      "outputs": [
        {
          "internalType": "uint256",
          "name": "",
          "type": "uint256"
        }
      ],
      "stateMutability": "view",
      "type": "function"
    },
    {
      "inputs": [
        {
          "internalType": "uint256",
          "name": "_pid",
          "type": "uint256"
        },
        {
          "internalType": "uint256",
          "name": "_allocPoint",
          "type": "uint256"
        },
        {
          "internalType": "bool",
          "name": "_withUpdate",
          "type": "bool"
        }
      ],
      "name": "set",
      "outputs": [],
      "stateMutability": "nonpayable",
      "type": "function"
    },
    {
      "inputs": [
        {
          "internalType": "uint256",
          "name": "_bonusEndBlock",
          "type": "uint256"
        },
        {
          "internalType": "uint256",
          "name": "_bonusMultiplier",
          "type": "uint256"
        }
      ],
      "name": "setBonus",
      "outputs": [],
      "stateMutability": "nonpayable",
      "type": "function"
    },
    {
      "inputs": [],
      "name": "startBlock",
      "outputs": [
        {
          "internalType": "uint256",
          "name": "",
          "type": "uint256"
        }
      ],
      "stateMutability": "view",
      "type": "function"
    },
    {
      "inputs": [],
      "name": "tips",
      "outputs": [
        {
          "internalType": "uint256",
          "name": "",
          "type": "uint256"
        }
      ],
      "stateMutability": "view",
      "type": "function"
    },
    {
      "inputs": [],
      "name": "totalAllocPoint",
      "outputs": [
        {
          "internalType": "uint256",
          "name": "",
          "type": "uint256"
        }
      ],
      "stateMutability": "view",
      "type": "function"
    },
    {
      "inputs": [
        {
          "internalType": "uint256",
          "name": "_pid",
          "type": "uint256"
        }
      ],
      "name": "updatePool",
      "outputs": [],
      "stateMutability": "nonpayable",
      "type": "function"
    },
    {
      "inputs": [
        {
          "internalType": "uint256",
          "name": "",
          "type": "uint256"
        },
        {
          "internalType": "address",
          "name": "",
          "type": "address"
        }
      ],
      "name": "userInfo",
      "outputs": [
        {
          "internalType": "uint256",
          "name": "amount",
          "type": "uint256"
        },
        {
          "internalType": "uint256",
          "name": "rewardDebt",
          "type": "uint256"
        }
      ],
      "stateMutability": "view",
      "type": "function"
    },
    {
      "inputs": [
        {
          "internalType": "uint256",
          "name": "_pid",
          "type": "uint256"
        },
        {
          "internalType": "uint256",
          "name": "_amount",
          "type": "uint256"
        }
      ],
      "name": "withdraw",
      "outputs": [],
      "stateMutability": "nonpayable",
      "type": "function"
    }
  ],
  "bytecode": "608060405234801561001057600080fd5b506119b1806100206000396000f3fe608060405234801561001057600080fd5b50600436106101a95760003560e01c8063630b5ba1116100f95780639ec5a89411610097578063d18df53c11610071578063d18df53c14610410578063d49e77cd1461043c578063d69de7e714610444578063e2bbb15814610478576101a9565b80639ec5a894146103f8578063c3a4382414610400578063d086358014610408576101a9565b80638aa28550116100d35780638aa28550146103625780638d88a90e1461036a5780638dbb1e3a1461039057806393f1a40b146103b3576101a9565b8063630b5ba11461030b57806364482f7914610313578063748365ef1461033e576101a9565b80631aed65531161016657806351eb05a61161014057806351eb05a6146102855780635312ea8e146102a25780635befdbca146102bf5780635eeb671014610303576101a9565b80631aed655314610252578063441a3e701461025a57806348cd4cb11461027d576101a9565b8063037c99b0146101ae57806306af3dfd146101d3578063081e3eda146101db5780631526fe27146101f557806317caf6f1146102425780631a4e1e781461024a575b600080fd5b6101d1600480360360408110156101c457600080fd5b508035906020013561049b565b005b6101d1610558565b6101e3610609565b60408051918252519081900360200190f35b6102126004803603602081101561020b57600080fd5b5035610610565b604080516001600160a01b0390951685526020850193909352838301919091526060830152519081900360800190f35b6101e3610651565b6101e3610657565b6101e361065d565b6101d16004803603604081101561027057600080fd5b5080359060200135610663565b6101e36107c2565b6101d16004803603602081101561029b57600080fd5b50356107c8565b6101d1600480360360208110156102b857600080fd5b503561092b565b6101d1600480360360a08110156102d557600080fd5b506001600160a01b0381358116916020810135916040820135916060810135821691608090910135166109c7565b6101e3610a34565b6101d1610a3a565b6101d16004803603606081101561032957600080fd5b50803590602081013590604001351515610a5d565b610346610b88565b604080516001600160a01b039092168252519081900360200190f35b6101e3610b97565b6101d16004803603602081101561038057600080fd5b50356001600160a01b0316610b9d565b6101e3600480360360408110156103a657600080fd5b5080359060200135610c0a565b6103df600480360360408110156103c957600080fd5b50803590602001356001600160a01b0316610c79565b6040805192835260208301919091528051918290030190f35b610346610c9d565b6101e3610cac565b6101e3610cb2565b6101e36004803603604081101561042657600080fd5b50803590602001356001600160a01b0316610d57565b610346610eb9565b6101d16004803603606081101561045a57600080fd5b508035906001600160a01b0360208201351690604001351515610ec8565b6101d16004803603604081101561048e57600080fd5b508035906020013561111b565b6000546040805163c395fcb360e01b815233600482015290516001600160a01b039092169163c395fcb391602480820192602092909190829003018186803b1580156104e657600080fd5b505afa1580156104fa573d6000803e3d6000fd5b505050506040513d602081101561051057600080fd5b505161054d5760405162461bcd60e51b81526004018080602001828103825260248152602001806118e66024913960400191505060405180910390fd5b600591909155600755565b6002546001600160a01b031633146105a3576040805162461bcd60e51b81526020600482015260096024820152686465763a207775743f60b81b604482015290519081900360640190fd5b6000600454116105e7576040805162461bcd60e51b815260206004820152600a6024820152696465763a2062726f6b6560b01b604482015290519081900360640190fd5b600480546000909155600254610606906001600160a01b03168261122d565b50565b6009545b90565b6009818154811061061d57fe5b600091825260209091206004909102018054600182015460028301546003909301546001600160a01b039092169350919084565b600b5481565b60045481565b60055481565b60006009838154811061067257fe5b60009182526020808320868452600a8252604080852033865290925292208054600490920290920192508311156106e5576040805162461bcd60e51b81526020600482015260126024820152711dda5d1a191c985dce881b9bdd0819dbdbd960721b604482015290519081900360640190fd5b6106ee846107c8565b6000610728826001015461072264e8d4a5100061071c876003015487600001546113be90919063ffffffff16565b9061141e565b90611460565b9050801561073a5761073a338261122d565b831561076457815461074c9085611460565b82558254610764906001600160a01b031633866114a2565b6003830154825461077f9164e8d4a510009161071c916113be565b6001830155604080518581529051869133917ff279e6a1f5e320cca91135676d9cb6e44ca8a08c0b88342bcdb1144f6511b5689181900360200190a35050505050565b600c5481565b6000600982815481106107d757fe5b90600052602060002090600402019050806002015443116107f85750610606565b8054604080516370a0823160e01b815230600482015290516000926001600160a01b0316916370a08231916024808301926020929190829003018186803b15801561084257600080fd5b505afa158015610856573d6000803e3d6000fd5b505050506040513d602081101561086c57600080fd5b5051905080610882575043600290910155610606565b6000610892836002015443610c0a565b905060006108bf600b5461071c86600101546108b9600654876113be90919063ffffffff16565b906113be565b600354909150156108f5576108f16108e86103e861071c600354856113be90919063ffffffff16565b600454906114f4565b6004555b61091661090b8461071c8464e8d4a510006113be565b6003860154906114f4565b60038501555050436002909201919091555050565b60006009828154811061093a57fe5b60009182526020808320858452600a82526040808520338087529352842080548582556001820195909555600490930201805490945091929161098a916001600160a01b039190911690836114a2565b604080518281529051859133917fbb757047c2b5f3974fe26b7c10f732e7bce710b0952a71082702781e62ae05959181900360200190a350505050565b60085460ff16156109d757600080fd5b600180546001600160a01b03199081166001600160a01b039788161782556000600b8190556008805460ff1916909317909255600695909555600c9390935560028054851692861692909217909155815490921691909216179055565b60065481565b60095460005b81811015610a5957610a51816107c8565b600101610a40565b5050565b60005460408051637e271f0560e11b815233600482015290516001600160a01b039092169163fc4e3e0a91602480820192602092909190829003018186803b158015610aa857600080fd5b505afa158015610abc573d6000803e3d6000fd5b505050506040513d6020811015610ad257600080fd5b5051610b0f5760405162461bcd60e51b81526004018080602001828103825260278152602001806119556027913960400191505060405180910390fd5b8015610b1d57610b1d610a3a565b610b5a82610b5460098681548110610b3157fe5b906000526020600020906004020160010154600b5461146090919063ffffffff16565b906114f4565b600b819055508160098481548110610b6e57fe5b906000526020600020906004020160010181905550505050565b6000546001600160a01b031681565b60075481565b6002546001600160a01b03163314610be8576040805162461bcd60e51b81526020600482015260096024820152686465763a207775743f60b81b604482015290519081900360640190fd5b600280546001600160a01b0319166001600160a01b0392909216919091179055565b60006005548211610c2d57600754610c26906108b98486611460565b9050610c73565b6005548310610c4057610c268284611460565b610c26610c586005548461146090919063ffffffff16565b610b546007546108b98760055461146090919063ffffffff16565b92915050565b600a6020908152600092835260408084209091529082529020805460019091015482565b6001546001600160a01b031681565b60035481565b600154604080516370a0823160e01b8152306004820152905160009283926001600160a01b03909116916370a0823191602480820192602092909190829003018186803b158015610d0257600080fd5b505afa158015610d16573d6000803e3d6000fd5b505050506040513d6020811015610d2c57600080fd5b505160065490915015610d4d576006548181610d4457fe5b0491505061060d565b600091505061060d565b60008060098481548110610d6757fe5b60009182526020808320878452600a825260408085206001600160a01b03898116875290845281862060049586029093016003810154815484516370a0823160e01b81523098810198909852935191985093969395939492909116926370a08231926024808301939192829003018186803b158015610de557600080fd5b505afa158015610df9573d6000803e3d6000fd5b505050506040513d6020811015610e0f57600080fd5b5051600285015490915043118015610e2657508015155b15610e86576000610e3b856002015443610c0a565b90506000610e62600b5461071c88600101546108b9600654876113be90919063ffffffff16565b9050610e81610e7a8461071c8464e8d4a510006113be565b85906114f4565b935050505b610eae836001015461072264e8d4a5100061071c8688600001546113be90919063ffffffff16565b979650505050505050565b6002546001600160a01b031681565b6000546040805163c395fcb360e01b815233600482015290516001600160a01b039092169163c395fcb391602480820192602092909190829003018186803b158015610f1357600080fd5b505afa158015610f27573d6000803e3d6000fd5b505050506040513d6020811015610f3d57600080fd5b505180610fbd57506000546040805163089d855960e11b815233600482015290516001600160a01b039092169163113b0ab291602480820192602092909190829003018186803b158015610f9057600080fd5b505afa158015610fa4573d6000803e3d6000fd5b505050506040513d6020811015610fba57600080fd5b50515b610ff85760405162461bcd60e51b81526004018080602001828103825260248152602001806118e66024913960400191505060405180910390fd5b801561100657611006610a3a565b6000600c54431161101957600c5461101b565b435b600b5490915061102b90856114f4565b600b55604080516080810182526001600160a01b0394851681526020810195865290810191825260006060820181815260098054600181018255925291517f6e1540171b6c0c960b71a7020d9f60077f6af931a8bbf590da0223dacf75c7af600490920291820180546001600160a01b031916919096161790945593517f6e1540171b6c0c960b71a7020d9f60077f6af931a8bbf590da0223dacf75c7b0840155517f6e1540171b6c0c960b71a7020d9f60077f6af931a8bbf590da0223dacf75c7b18301555090517f6e1540171b6c0c960b71a7020d9f60077f6af931a8bbf590da0223dacf75c7b290910155565b60006009838154811061112a57fe5b60009182526020808320868452600a8252604080852033865290925292206004909102909101915061115b846107c8565b8054156111a4576000611190826001015461072264e8d4a5100061071c876003015487600001546113be90919063ffffffff16565b905080156111a2576111a2338261122d565b505b82156111d05781546111c1906001600160a01b031633308661154e565b80546111cd90846114f4565b81555b600382015481546111eb9164e8d4a510009161071c916113be565b6001820155604080518481529051859133917f90890809c654f11d6e72a28fa60149770a0d11ec6c92319d6ceb2bb0a4ea1a159181900360200190a350505050565b600154604080516370a0823160e01b815230600482015290516000926001600160a01b0316916370a08231916024808301926020929190829003018186803b15801561127857600080fd5b505afa15801561128c573d6000803e3d6000fd5b505050506040513d60208110156112a257600080fd5b5051905080821115611336576001546040805163a9059cbb60e01b81526001600160a01b038681166004830152602482018590529151919092169163a9059cbb9160448083019260209291908290030181600087803b15801561130457600080fd5b505af1158015611318573d6000803e3d6000fd5b505050506040513d602081101561132e57600080fd5b506113b99050565b6001546040805163a9059cbb60e01b81526001600160a01b038681166004830152602482018690529151919092169163a9059cbb9160448083019260209291908290030181600087803b15801561138c57600080fd5b505af11580156113a0573d6000803e3d6000fd5b505050506040513d60208110156113b657600080fd5b50505b505050565b6000826113cd57506000610c73565b828202828482816113da57fe5b04146114175760405162461bcd60e51b815260040180806020018281038252602181526020018061190a6021913960400191505060405180910390fd5b9392505050565b600061141783836040518060400160405280601a81526020017f536166654d6174683a206469766973696f6e206279207a65726f0000000000008152506115ae565b600061141783836040518060400160405280601e81526020017f536166654d6174683a207375627472616374696f6e206f766572666c6f770000815250611650565b604080516001600160a01b038416602482015260448082018490528251808303909101815260649091019091526020810180516001600160e01b031663a9059cbb60e01b1790526113b99084906116aa565b600082820183811015611417576040805162461bcd60e51b815260206004820152601b60248201527f536166654d6174683a206164646974696f6e206f766572666c6f770000000000604482015290519081900360640190fd5b604080516001600160a01b0380861660248301528416604482015260648082018490528251808303909101815260849091019091526020810180516001600160e01b03166323b872dd60e01b1790526115a89085906116aa565b50505050565b6000818361163a5760405162461bcd60e51b81526004018080602001828103825283818151815260200191508051906020019080838360005b838110156115ff5781810151838201526020016115e7565b50505050905090810190601f16801561162c5780820380516001836020036101000a031916815260200191505b509250505060405180910390fd5b50600083858161164657fe5b0495945050505050565b600081848411156116a25760405162461bcd60e51b81526020600482018181528351602484015283519092839260449091019190850190808383600083156115ff5781810151838201526020016115e7565b505050900390565b60606116ff826040518060400160405280602081526020017f5361666545524332303a206c6f772d6c6576656c2063616c6c206661696c6564815250856001600160a01b031661175b9092919063ffffffff16565b8051909150156113b95780806020019051602081101561171e57600080fd5b50516113b95760405162461bcd60e51b815260040180806020018281038252602a81526020018061192b602a913960400191505060405180910390fd5b606061176a8484600085611772565b949350505050565b606061177d856118df565b6117ce576040805162461bcd60e51b815260206004820152601d60248201527f416464726573733a2063616c6c20746f206e6f6e2d636f6e7472616374000000604482015290519081900360640190fd5b60006060866001600160a01b031685876040518082805190602001908083835b6020831061180d5780518252601f1990920191602091820191016117ee565b6001836020036101000a03801982511681845116808217855250505050505090500191505060006040518083038185875af1925050503d806000811461186f576040519150601f19603f3d011682016040523d82523d6000602084013e611874565b606091505b5091509150811561188857915061176a9050565b8051156118985780518082602001fd5b60405162461bcd60e51b81526020600482018181528651602484015286518793919283926044019190850190808383600083156115ff5781810151838201526020016115e7565b3b15159056fe4d6173746572436865662e6164643a2053656e646572206d7573742062652061646d696e536166654d6174683a206d756c7469706c69636174696f6e206f766572666c6f775361666545524332303a204552433230206f7065726174696f6e20646964206e6f7420737563636565644d6173746572436865662e7365743a2053656e646572206d757374206265206f70657261746f72a26469706673582212209d0510aba40d069dd5bd140ffe7eac798090326b7f2240aa51a201964982b29364736f6c634300060c0033",
  "bytecodeSha1": "f11ed45833bd836b0a749accb23fcfb0ab59b3aa",
  "compiler": {
    "evm_version": "istanbul",
    "optimizer": {
      "enabled": true,
      "runs": 200
    },
    "version": "0.6.12"
  },
  "contractName": "MasterChef",
  "language": "Solidity",
  "natspec": {
    "kind": "dev",
    "methods": {},
    "version": 1
  },
  "opcodes": "PUSH1 0x80 PUSH1 0x40 MSTORE CALLVALUE DUP1 ISZERO PUSH2 0x10 JUMPI PUSH1 0x0 DUP1 REVERT JUMPDEST POP PUSH1 0x4 CALLDATASIZE LT PUSH2 0x1A9 JUMPI PUSH1 0x0 CALLDATALOAD PUSH1 0xE0 SHR DUP1 PUSH4 0x630B5BA1 GT PUSH2 0xF9 JUMPI DUP1 PUSH4 0x9EC5A894 GT PUSH2 0x97 JUMPI DUP1 PUSH4 0xD18DF53C GT PUSH2 0x71 JUMPI DUP1 PUSH4 0xD18DF53C EQ PUSH2 0x410 JUMPI DUP1 PUSH4 0xD49E77CD EQ PUSH2 0x43C JUMPI DUP1 PUSH4 0xD69DE7E7 EQ PUSH2 0x444 JUMPI DUP1 PUSH4 0xE2BBB158 EQ PUSH2 0x478 JUMPI PUSH2 0x1A9 JUMP JUMPDEST DUP1 PUSH4 0x9EC5A894 EQ PUSH2 0x3F8 JUMPI DUP1 PUSH4 0xC3A43824 EQ PUSH2 0x400 JUMPI DUP1 PUSH4 0xD0863580 EQ PUSH2 0x408 JUMPI PUSH2 0x1A9 JUMP JUMPDEST DUP1 PUSH4 0x8AA28550 GT PUSH2 0xD3 JUMPI DUP1 PUSH4 0x8AA28550 EQ PUSH2 0x362 JUMPI DUP1 PUSH4 0x8D88A90E EQ PUSH2 0x36A JUMPI DUP1 PUSH4 0x8DBB1E3A EQ PUSH2 0x390 JUMPI DUP1 PUSH4 0x93F1A40B EQ PUSH2 0x3B3 JUMPI PUSH2 0x1A9 JUMP JUMPDEST DUP1 PUSH4 0x630B5BA1 EQ PUSH2 0x30B JUMPI DUP1 PUSH4 0x64482F79 EQ PUSH2 0x313 JUMPI DUP1 PUSH4 0x748365EF EQ PUSH2 0x33E JUMPI PUSH2 0x1A9 JUMP JUMPDEST DUP1 PUSH4 0x1AED6553 GT PUSH2 0x166 JUMPI DUP1 PUSH4 0x51EB05A6 GT PUSH2 0x140 JUMPI DUP1 PUSH4 0x51EB05A6 EQ PUSH2 0x285 JUMPI DUP1 PUSH4 0x5312EA8E EQ PUSH2 0x2A2 JUMPI DUP1 PUSH4 0x5BEFDBCA EQ PUSH2 0x2BF JUMPI DUP1 PUSH4 0x5EEB6710 EQ PUSH2 0x303 JUMPI PUSH2 0x1A9 JUMP JUMPDEST DUP1 PUSH4 0x1AED6553 EQ PUSH2 0x252 JUMPI DUP1 PUSH4 0x441A3E70 EQ PUSH2 0x25A JUMPI DUP1 PUSH4 0x48CD4CB1 EQ PUSH2 0x27D JUMPI PUSH2 0x1A9 JUMP JUMPDEST DUP1 PUSH4 0x37C99B0 EQ PUSH2 0x1AE JUMPI DUP1 PUSH4 0x6AF3DFD EQ PUSH2 0x1D3 JUMPI DUP1 PUSH4 0x81E3EDA EQ PUSH2 0x1DB JUMPI DUP1 PUSH4 0x1526FE27 EQ PUSH2 0x1F5 JUMPI DUP1 PUSH4 0x17CAF6F1 EQ PUSH2 0x242 JUMPI DUP1 PUSH4 0x1A4E1E78 EQ PUSH2 0x24A JUMPI JUMPDEST PUSH1 0x0 DUP1 REVERT JUMPDEST PUSH2 0x1D1 PUSH1 0x4 DUP1 CALLDATASIZE SUB PUSH1 0x40 DUP2 LT ISZERO PUSH2 0x1C4 JUMPI PUSH1 0x0 DUP1 REVERT JUMPDEST POP DUP1 CALLDATALOAD SWAP1 PUSH1 0x20 ADD CALLDATALOAD PUSH2 0x49B JUMP JUMPDEST STOP JUMPDEST PUSH2 0x1D1 PUSH2 0x558 JUMP JUMPDEST PUSH2 0x1E3 PUSH2 0x609 JUMP JUMPDEST PUSH1 0x40 DUP1 MLOAD SWAP2 DUP3 MSTORE MLOAD SWAP1 DUP2 SWAP1 SUB PUSH1 0x20 ADD SWAP1 RETURN JUMPDEST PUSH2 0x212 PUSH1 0x4 DUP1 CALLDATASIZE SUB PUSH1 0x20 DUP2 LT ISZERO PUSH2 0x20B JUMPI PUSH1 0x0 DUP1 REVERT JUMPDEST POP CALLDATALOAD PUSH2 0x610 JUMP JUMPDEST PUSH1 0x40 DUP1 MLOAD PUSH1 0x1 PUSH1 0x1 PUSH1 0xA0 SHL SUB SWAP1 SWAP6 AND DUP6 MSTORE PUSH1 0x20 DUP6 ADD SWAP4 SWAP1 SWAP4 MSTORE DUP4 DUP4 ADD SWAP2 SWAP1 SWAP2 MSTORE PUSH1 0x60 DUP4 ADD MSTORE MLOAD SWAP1 DUP2 SWAP1 SUB PUSH1 0x80 ADD SWAP1 RETURN JUMPDEST PUSH2 0x1E3 PUSH2 0x651 JUMP JUMPDEST PUSH2 0x1E3 PUSH2 0x657 JUMP JUMPDEST PUSH2 0x1E3 PUSH2 0x65D JUMP JUMPDEST PUSH2 0x1D1 PUSH1 0x4 DUP1 CALLDATASIZE SUB PUSH1 0x40 DUP2 LT ISZERO PUSH2 0x270 JUMPI PUSH1 0x0 DUP1 REVERT JUMPDEST POP DUP1 CALLDATALOAD SWAP1 PUSH1 0x20 ADD CALLDATALOAD PUSH2 0x663 JUMP JUMPDEST PUSH2 0x1E3 PUSH2 0x7C2 JUMP JUMPDEST PUSH2 0x1D1 PUSH1 0x4 DUP1 CALLDATASIZE SUB PUSH1 0x20 DUP2 LT ISZERO PUSH2 0x29B JUMPI PUSH1 0x0 DUP1 REVERT JUMPDEST POP CALLDATALOAD PUSH2 0x7C8 JUMP JUMPDEST PUSH2 0x1D1 PUSH1 0x4 DUP1 CALLDATASIZE SUB PUSH1 0x20 DUP2 LT ISZERO PUSH2 0x2B8 JUMPI PUSH1 0x0 DUP1 REVERT JUMPDEST POP CALLDATALOAD PUSH2 0x92B JUMP JUMPDEST PUSH2 0x1D1 PUSH1 0x4 DUP1 CALLDATASIZE SUB PUSH1 0xA0 DUP2 LT ISZERO PUSH2 0x2D5 JUMPI PUSH1 0x0 DUP1 REVERT JUMPDEST POP PUSH1 0x1 PUSH1 0x1 PUSH1 0xA0 SHL SUB DUP2 CALLDATALOAD DUP2 AND SWAP2 PUSH1 0x20 DUP2 ADD CALLDATALOAD SWAP2 PUSH1 0x40 DUP3 ADD CALLDATALOAD SWAP2 PUSH1 0x60 DUP2 ADD CALLDATALOAD DUP3 AND SWAP2 PUSH1 0x80 SWAP1 SWAP2 ADD CALLDATALOAD AND PUSH2 0x9C7 JUMP JUMPDEST PUSH2 0x1E3 PUSH2 0xA34 JUMP JUMPDEST PUSH2 0x1D1 PUSH2 0xA3A JUMP JUMPDEST PUSH2 0x1D1 PUSH1 0x4 DUP1 CALLDATASIZE SUB PUSH1 0x60 DUP2 LT ISZERO PUSH2 0x329 JUMPI PUSH1 0x0 DUP1 REVERT JUMPDEST POP DUP1 CALLDATALOAD SWAP1 PUSH1 0x20 DUP2 ADD CALLDATALOAD SWAP1 PUSH1 0x40 ADD CALLDATALOAD ISZERO ISZERO PUSH2 0xA5D JUMP JUMPDEST PUSH2 0x346 PUSH2 0xB88 JUMP JUMPDEST PUSH1 0x40 DUP1 MLOAD PUSH1 0x1 PUSH1 0x1 PUSH1 0xA0 SHL SUB SWAP1 SWAP3 AND DUP3 MSTORE MLOAD SWAP1 DUP2 SWAP1 SUB PUSH1 0x20 ADD SWAP1 RETURN JUMPDEST PUSH2 0x1E3 PUSH2 0xB97 JUMP JUMPDEST PUSH2 0x1D1 PUSH1 0x4 DUP1 CALLDATASIZE SUB PUSH1 0x20 DUP2 LT ISZERO PUSH2 0x380 JUMPI PUSH1 0x0 DUP1 REVERT JUMPDEST POP CALLDATALOAD PUSH1 0x1 PUSH1 0x1 PUSH1 0xA0 SHL SUB AND PUSH2 0xB9D JUMP JUMPDEST PUSH2 0x1E3 PUSH1 0x4 DUP1 CALLDATASIZE SUB PUSH1 0x40 DUP2 LT ISZERO PUSH2 0x3A6 JUMPI PUSH1 0x0 DUP1 REVERT JUMPDEST POP DUP1 CALLDATALOAD SWAP1 PUSH1 0x20 ADD CALLDATALOAD PUSH2 0xC0A JUMP JUMPDEST PUSH2 0x3DF PUSH1 0x4 DUP1 CALLDATASIZE SUB PUSH1 0x40 DUP2 LT ISZERO PUSH2 0x3C9 JUMPI PUSH1 0x0 DUP1 REVERT JUMPDEST POP DUP1 CALLDATALOAD SWAP1 PUSH1 0x20 ADD CALLDATALOAD PUSH1 0x1 PUSH1 0x1 PUSH1 0xA0 SHL SUB AND PUSH2 0xC79 JUMP JUMPDEST PUSH1 0x40 DUP1 MLOAD SWAP3 DUP4 MSTORE PUSH1 0x20 DUP4 ADD SWAP2 SWAP1 SWAP2 MSTORE DUP1 MLOAD SWAP2 DUP3 SWAP1 SUB ADD SWAP1 RETURN JUMPDEST PUSH2 0x346 PUSH2 0xC9D JUMP JUMPDEST PUSH2 0x1E3 PUSH2 0xCAC JUMP JUMPDEST PUSH2 0x1E3 PUSH2 0xCB2 JUMP JUMPDEST PUSH2 0x1E3 PUSH1 0x4 DUP1 CALLDATASIZE SUB PUSH1 0x40 DUP2 LT ISZERO PUSH2 0x426 JUMPI PUSH1 0x0 DUP1 REVERT JUMPDEST POP DUP1 CALLDATALOAD SWAP1 PUSH1 0x20 ADD CALLDATALOAD PUSH1 0x1 PUSH1 0x1 PUSH1 0xA0 SHL SUB AND PUSH2 0xD57 JUMP JUMPDEST PUSH2 0x346 PUSH2 0xEB9 JUMP JUMPDEST PUSH2 0x1D1 PUSH1 0x4 DUP1 CALLDATASIZE SUB PUSH1 0x60 DUP2 LT ISZERO PUSH2 0x45A JUMPI PUSH1 0x0 DUP1 REVERT JUMPDEST POP DUP1 CALLDATALOAD SWAP1 PUSH1 0x1 PUSH1 0x1 PUSH1 0xA0 SHL SUB PUSH1 0x20 DUP3 ADD CALLDATALOAD AND SWAP1 PUSH1 0x40 ADD CALLDATALOAD ISZERO ISZERO PUSH2 0xEC8 JUMP JUMPDEST PUSH2 0x1D1 PUSH1 0x4 DUP1 CALLDATASIZE SUB PUSH1 0x40 DUP2 LT ISZERO PUSH2 0x48E JUMPI PUSH1 0x0 DUP1 REVERT JUMPDEST POP DUP1 CALLDATALOAD SWAP1 PUSH1 0x20 ADD CALLDATALOAD PUSH2 0x111B JUMP JUMPDEST PUSH1 0x0 SLOAD PUSH1 0x40 DUP1 MLOAD PUSH4 0xC395FCB3 PUSH1 0xE0 SHL DUP2 MSTORE CALLER PUSH1 0x4 DUP3 ADD MSTORE SWAP1 MLOAD PUSH1 0x1 PUSH1 0x1 PUSH1 0xA0 SHL SUB SWAP1 SWAP3 AND SWAP2 PUSH4 0xC395FCB3 SWAP2 PUSH1 0x24 DUP1 DUP3 ADD SWAP3 PUSH1 0x20 SWAP3 SWAP1 SWAP2 SWAP1 DUP3 SWAP1 SUB ADD DUP2 DUP7 DUP1 EXTCODESIZE ISZERO DUP1 ISZERO PUSH2 0x4E6 JUMPI PUSH1 0x0 DUP1 REVERT JUMPDEST POP GAS STATICCALL ISZERO DUP1 ISZERO PUSH2 0x4FA JUMPI RETURNDATASIZE PUSH1 0x0 DUP1 RETURNDATACOPY RETURNDATASIZE PUSH1 0x0 REVERT JUMPDEST POP POP POP POP PUSH1 0x40 MLOAD RETURNDATASIZE PUSH1 0x20 DUP2 LT ISZERO PUSH2 0x510 JUMPI PUSH1 0x0 DUP1 REVERT JUMPDEST POP MLOAD PUSH2 0x54D JUMPI PUSH1 0x40 MLOAD PUSH3 0x461BCD PUSH1 0xE5 SHL DUP2 MSTORE PUSH1 0x4 ADD DUP1 DUP1 PUSH1 0x20 ADD DUP3 DUP2 SUB DUP3 MSTORE PUSH1 0x24 DUP2 MSTORE PUSH1 0x20 ADD DUP1 PUSH2 0x18E6 PUSH1 0x24 SWAP2 CODECOPY PUSH1 0x40 ADD SWAP2 POP POP PUSH1 0x40 MLOAD DUP1 SWAP2 SUB SWAP1 REVERT JUMPDEST PUSH1 0x5 SWAP2 SWAP1 SWAP2 SSTORE PUSH1 0x7 SSTORE JUMP JUMPDEST PUSH1 0x2 SLOAD PUSH1 0x1 PUSH1 0x1 PUSH1 0xA0 SHL SUB AND CALLER EQ PUSH2 0x5A3 JUMPI PUSH1 0x40 DUP1 MLOAD PUSH3 0x461BCD PUSH1 0xE5 SHL DUP2 MSTORE PUSH1 0x20 PUSH1 0x4 DUP3 ADD MSTORE PUSH1 0x9 PUSH1 0x24 DUP3 ADD MSTORE PUSH9 0x6465763A207775743F PUSH1 0xB8 SHL PUSH1 0x44 DUP3 ADD MSTORE SWAP1 MLOAD SWAP1 DUP2 SWAP1 SUB PUSH1 0x64 ADD SWAP1 REVERT JUMPDEST PUSH1 0x0 PUSH1 0x4 SLOAD GT PUSH2 0x5E7 JUMPI PUSH1 0x40 DUP1 MLOAD PUSH3 0x461BCD PUSH1 0xE5 SHL DUP2 MSTORE PUSH1 0x20 PUSH1 0x4 DUP3 ADD MSTORE PUSH1 0xA PUSH1 0x24 DUP3 ADD MSTORE PUSH10 0x6465763A2062726F6B65 PUSH1 0xB0 SHL PUSH1 0x44 DUP3 ADD MSTORE SWAP1 MLOAD SWAP1 DUP2 SWAP1 SUB PUSH1 0x64 ADD SWAP1 REVERT JUMPDEST PUSH1 0x4 DUP1 SLOAD PUSH1 0x0 SWAP1 SWAP2 SSTORE PUSH1 0x2 SLOAD PUSH2 0x606 SWAP1 PUSH1 0x1 PUSH1 0x1 PUSH1 0xA0 SHL SUB AND DUP3 PUSH2 0x122D JUMP JUMPDEST POP JUMP JUMPDEST PUSH1 0x9 SLOAD JUMPDEST SWAP1 JUMP JUMPDEST PUSH1 0x9 DUP2 DUP2 SLOAD DUP2 LT PUSH2 0x61D JUMPI INVALID JUMPDEST PUSH1 0x0 SWAP2 DUP3 MSTORE PUSH1 0x20 SWAP1 SWAP2 KECCAK256 PUSH1 0x4 SWAP1 SWAP2 MUL ADD DUP1 SLOAD PUSH1 0x1 DUP3 ADD SLOAD PUSH1 0x2 DUP4 ADD SLOAD PUSH1 0x3 SWAP1 SWAP4 ADD SLOAD PUSH1 0x1 PUSH1 0x1 PUSH1 0xA0 SHL SUB SWAP1 SWAP3 AND SWAP4 POP SWAP2 SWAP1 DUP5 JUMP JUMPDEST PUSH1 0xB SLOAD DUP2 JUMP JUMPDEST PUSH1 0x4 SLOAD DUP2 JUMP JUMPDEST PUSH1 0x5 SLOAD DUP2 JUMP JUMPDEST PUSH1 0x0 PUSH1 0x9 DUP4 DUP2 SLOAD DUP2 LT PUSH2 0x672 JUMPI INVALID JUMPDEST PUSH1 0x0 SWAP2 DUP3 MSTORE PUSH1 0x20 DUP1 DUP4 KECCAK256 DUP7 DUP5 MSTORE PUSH1 0xA DUP3 MSTORE PUSH1 0x40 DUP1 DUP6 KECCAK256 CALLER DUP7 MSTORE SWAP1 SWAP3 MSTORE SWAP3 KECCAK256 DUP1 SLOAD PUSH1 0x4 SWAP1 SWAP3 MUL SWAP1 SWAP3 ADD SWAP3 POP DUP4 GT ISZERO PUSH2 0x6E5 JUMPI PUSH1 0x40 DUP1 MLOAD PUSH3 0x461BCD PUSH1 0xE5 SHL DUP2 MSTORE PUSH1 0x20 PUSH1 0x4 DUP3 ADD MSTORE PUSH1 0x12 PUSH1 0x24 DUP3 ADD MSTORE PUSH18 0x1DDA5D1A191C985DCE881B9BDD0819DBDBD9 PUSH1 0x72 SHL PUSH1 0x44 DUP3 ADD MSTORE SWAP1 MLOAD SWAP1 DUP2 SWAP1 SUB PUSH1 0x64 ADD SWAP1 REVERT JUMPDEST PUSH2 0x6EE DUP5 PUSH2 0x7C8 JUMP JUMPDEST PUSH1 0x0 PUSH2 0x728 DUP3 PUSH1 0x1 ADD SLOAD PUSH2 0x722 PUSH5 0xE8D4A51000 PUSH2 0x71C DUP8 PUSH1 0x3 ADD SLOAD DUP8 PUSH1 0x0 ADD SLOAD PUSH2 0x13BE SWAP1 SWAP2 SWAP1 PUSH4 0xFFFFFFFF AND JUMP JUMPDEST SWAP1 PUSH2 0x141E JUMP JUMPDEST SWAP1 PUSH2 0x1460 JUMP JUMPDEST SWAP1 POP DUP1 ISZERO PUSH2 0x73A JUMPI PUSH2 0x73A CALLER DUP3 PUSH2 0x122D JUMP JUMPDEST DUP4 ISZERO PUSH2 0x764 JUMPI DUP2 SLOAD PUSH2 0x74C SWAP1 DUP6 PUSH2 0x1460 JUMP JUMPDEST DUP3 SSTORE DUP3 SLOAD PUSH2 0x764 SWAP1 PUSH1 0x1 PUSH1 0x1 PUSH1 0xA0 SHL SUB AND CALLER DUP7 PUSH2 0x14A2 JUMP JUMPDEST PUSH1 0x3 DUP4 ADD SLOAD DUP3 SLOAD PUSH2 0x77F SWAP2 PUSH5 0xE8D4A51000 SWAP2 PUSH2 0x71C SWAP2 PUSH2 0x13BE JUMP JUMPDEST PUSH1 0x1 DUP4 ADD SSTORE PUSH1 0x40 DUP1 MLOAD DUP6 DUP2 MSTORE SWAP1 MLOAD DUP7 SWAP2 CALLER SWAP2 PUSH32 0xF279E6A1F5E320CCA91135676D9CB6E44CA8A08C0B88342BCDB1144F6511B568 SWAP2 DUP2 SWAP1 SUB PUSH1 0x20 ADD SWAP1 LOG3 POP POP POP POP POP JUMP JUMPDEST PUSH1 0xC SLOAD DUP2 JUMP JUMPDEST PUSH1 0x0 PUSH1 0x9 DUP3 DUP2 SLOAD DUP2 LT PUSH2 0x7D7 JUMPI INVALID JUMPDEST SWAP1 PUSH1 0x0 MSTORE PUSH1 0x20 PUSH1 0x0 KECCAK256 SWAP1 PUSH1 0x4 MUL ADD SWAP1 POP DUP1 PUSH1 0x2 ADD SLOAD NUMBER GT PUSH2 0x7F8 JUMPI POP PUSH2 0x606 JUMP JUMPDEST DUP1 SLOAD PUSH1 0x40 DUP1 MLOAD PUSH4 0x70A08231 PUSH1 0xE0 SHL DUP2 MSTORE ADDRESS PUSH1 0x4 DUP3 ADD MSTORE SWAP1 MLOAD PUSH1 0x0 SWAP3 PUSH1 0x1 PUSH1 0x1 PUSH1 0xA0 SHL SUB AND SWAP2 PUSH4 0x70A08231 SWAP2 PUSH1 0x24 DUP1 DUP4 ADD SWAP3 PUSH1 0x20 SWAP3 SWAP2 SWAP1 DUP3 SWAP1 SUB ADD DUP2 DUP7 DUP1 EXTCODESIZE ISZERO DUP1 ISZERO PUSH2 0x842 JUMPI PUSH1 0x0 DUP1 REVERT JUMPDEST POP GAS STATICCALL ISZERO DUP1 ISZERO PUSH2 0x856 JUMPI RETURNDATASIZE PUSH1 0x0 DUP1 RETURNDATACOPY RETURNDATASIZE PUSH1 0x0 REVERT JUMPDEST POP POP POP POP PUSH1 0x40 MLOAD RETURNDATASIZE PUSH1 0x20 DUP2 LT ISZERO PUSH2 0x86C JUMPI PUSH1 0x0 DUP1 REVERT JUMPDEST POP MLOAD SWAP1 POP DUP1 PUSH2 0x882 JUMPI POP NUMBER PUSH1 0x2 SWAP1 SWAP2 ADD SSTORE PUSH2 0x606 JUMP JUMPDEST PUSH1 0x0 PUSH2 0x892 DUP4 PUSH1 0x2 ADD SLOAD NUMBER PUSH2 0xC0A JUMP JUMPDEST SWAP1 POP PUSH1 0x0 PUSH2 0x8BF PUSH1 0xB SLOAD PUSH2 0x71C DUP7 PUSH1 0x1 ADD SLOAD PUSH2 0x8B9 PUSH1 0x6 SLOAD DUP8 PUSH2 0x13BE SWAP1 SWAP2 SWAP1 PUSH4 0xFFFFFFFF AND JUMP JUMPDEST SWAP1 PUSH2 0x13BE JUMP JUMPDEST PUSH1 0x3 SLOAD SWAP1 SWAP2 POP ISZERO PUSH2 0x8F5 JUMPI PUSH2 0x8F1 PUSH2 0x8E8 PUSH2 0x3E8 PUSH2 0x71C PUSH1 0x3 SLOAD DUP6 PUSH2 0x13BE SWAP1 SWAP2 SWAP1 PUSH4 0xFFFFFFFF AND JUMP JUMPDEST PUSH1 0x4 SLOAD SWAP1 PUSH2 0x14F4 JUMP JUMPDEST PUSH1 0x4 SSTORE JUMPDEST PUSH2 0x916 PUSH2 0x90B DUP5 PUSH2 0x71C DUP5 PUSH5 0xE8D4A51000 PUSH2 0x13BE JUMP JUMPDEST PUSH1 0x3 DUP7 ADD SLOAD SWAP1 PUSH2 0x14F4 JUMP JUMPDEST PUSH1 0x3 DUP6 ADD SSTORE POP POP NUMBER PUSH1 0x2 SWAP1 SWAP3 ADD SWAP2 SWAP1 SWAP2 SSTORE POP POP JUMP JUMPDEST PUSH1 0x0 PUSH1 0x9 DUP3 DUP2 SLOAD DUP2 LT PUSH2 0x93A JUMPI INVALID JUMPDEST PUSH1 0x0 SWAP2 DUP3 MSTORE PUSH1 0x20 DUP1 DUP4 KECCAK256 DUP6 DUP5 MSTORE PUSH1 0xA DUP3 MSTORE PUSH1 0x40 DUP1 DUP6 KECCAK256 CALLER DUP1 DUP8 MSTORE SWAP4 MSTORE DUP5 KECCAK256 DUP1 SLOAD DUP6 DUP3 SSTORE PUSH1 0x1 DUP3 ADD SWAP6 SWAP1 SWAP6 SSTORE PUSH1 0x4 SWAP1 SWAP4 MUL ADD DUP1 SLOAD SWAP1 SWAP5 POP SWAP2 SWAP3 SWAP2 PUSH2 0x98A SWAP2 PUSH1 0x1 PUSH1 0x1 PUSH1 0xA0 SHL SUB SWAP2 SWAP1 SWAP2 AND SWAP1 DUP4 PUSH2 0x14A2 JUMP JUMPDEST PUSH1 0x40 DUP1 MLOAD DUP3 DUP2 MSTORE SWAP1 MLOAD DUP6 SWAP2 CALLER SWAP2 PUSH32 0xBB757047C2B5F3974FE26B7C10F732E7BCE710B0952A71082702781E62AE0595 SWAP2 DUP2 SWAP1 SUB PUSH1 0x20 ADD SWAP1 LOG3 POP POP POP POP JUMP JUMPDEST PUSH1 0x8 SLOAD PUSH1 0xFF AND ISZERO PUSH2 0x9D7 JUMPI PUSH1 0x0 DUP1 REVERT JUMPDEST PUSH1 0x1 DUP1 SLOAD PUSH1 0x1 PUSH1 0x1 PUSH1 0xA0 SHL SUB NOT SWAP1 DUP2 AND PUSH1 0x1 PUSH1 0x1 PUSH1 0xA0 SHL SUB SWAP8 DUP9 AND OR DUP3 SSTORE PUSH1 0x0 PUSH1 0xB DUP2 SWAP1 SSTORE PUSH1 0x8 DUP1 SLOAD PUSH1 0xFF NOT AND SWAP1 SWAP4 OR SWAP1 SWAP3 SSTORE PUSH1 0x6 SWAP6 SWAP1 SWAP6 SSTORE PUSH1 0xC SWAP4 SWAP1 SWAP4 SSTORE PUSH1 0x2 DUP1 SLOAD DUP6 AND SWAP3 DUP7 AND SWAP3 SWAP1 SWAP3 OR SWAP1 SWAP2 SSTORE DUP2 SLOAD SWAP1 SWAP3 AND SWAP2 SWAP1 SWAP3 AND OR SWAP1 SSTORE JUMP JUMPDEST PUSH1 0x6 SLOAD DUP2 JUMP JUMPDEST PUSH1 0x9 SLOAD PUSH1 0x0 JUMPDEST DUP2 DUP2 LT ISZERO PUSH2 0xA59 JUMPI PUSH2 0xA51 DUP2 PUSH2 0x7C8 JUMP JUMPDEST PUSH1 0x1 ADD PUSH2 0xA40 JUMP JUMPDEST POP POP JUMP JUMPDEST PUSH1 0x0 SLOAD PUSH1 0x40 DUP1 MLOAD PUSH4 0x7E271F05 PUSH1 0xE1 SHL DUP2 MSTORE CALLER PUSH1 0x4 DUP3 ADD MSTORE SWAP1 MLOAD PUSH1 0x1 PUSH1 0x1 PUSH1 0xA0 SHL SUB SWAP1 SWAP3 AND SWAP2 PUSH4 0xFC4E3E0A SWAP2 PUSH1 0x24 DUP1 DUP3 ADD SWAP3 PUSH1 0x20 SWAP3 SWAP1 SWAP2 SWAP1 DUP3 SWAP1 SUB ADD DUP2 DUP7 DUP1 EXTCODESIZE ISZERO DUP1 ISZERO PUSH2 0xAA8 JUMPI PUSH1 0x0 DUP1 REVERT JUMPDEST POP GAS STATICCALL ISZERO DUP1 ISZERO PUSH2 0xABC JUMPI RETURNDATASIZE PUSH1 0x0 DUP1 RETURNDATACOPY RETURNDATASIZE PUSH1 0x0 REVERT JUMPDEST POP POP POP POP PUSH1 0x40 MLOAD RETURNDATASIZE PUSH1 0x20 DUP2 LT ISZERO PUSH2 0xAD2 JUMPI PUSH1 0x0 DUP1 REVERT JUMPDEST POP MLOAD PUSH2 0xB0F JUMPI PUSH1 0x40 MLOAD PUSH3 0x461BCD PUSH1 0xE5 SHL DUP2 MSTORE PUSH1 0x4 ADD DUP1 DUP1 PUSH1 0x20 ADD DUP3 DUP2 SUB DUP3 MSTORE PUSH1 0x27 DUP2 MSTORE PUSH1 0x20 ADD DUP1 PUSH2 0x1955 PUSH1 0x27 SWAP2 CODECOPY PUSH1 0x40 ADD SWAP2 POP POP PUSH1 0x40 MLOAD DUP1 SWAP2 SUB SWAP1 REVERT JUMPDEST DUP1 ISZERO PUSH2 0xB1D JUMPI PUSH2 0xB1D PUSH2 0xA3A JUMP JUMPDEST PUSH2 0xB5A DUP3 PUSH2 0xB54 PUSH1 0x9 DUP7 DUP2 SLOAD DUP2 LT PUSH2 0xB31 JUMPI INVALID JUMPDEST SWAP1 PUSH1 0x0 MSTORE PUSH1 0x20 PUSH1 0x0 KECCAK256 SWAP1 PUSH1 0x4 MUL ADD PUSH1 0x1 ADD SLOAD PUSH1 0xB SLOAD PUSH2 0x1460 SWAP1 SWAP2 SWAP1 PUSH4 0xFFFFFFFF AND JUMP JUMPDEST SWAP1 PUSH2 0x14F4 JUMP JUMPDEST PUSH1 0xB DUP2 SWAP1 SSTORE POP DUP2 PUSH1 0x9 DUP5 DUP2 SLOAD DUP2 LT PUSH2 0xB6E JUMPI INVALID JUMPDEST SWAP1 PUSH1 0x0 MSTORE PUSH1 0x20 PUSH1 0x0 KECCAK256 SWAP1 PUSH1 0x4 MUL ADD PUSH1 0x1 ADD DUP2 SWAP1 SSTORE POP POP POP POP JUMP JUMPDEST PUSH1 0x0 SLOAD PUSH1 0x1 PUSH1 0x1 PUSH1 0xA0 SHL SUB AND DUP2 JUMP JUMPDEST PUSH1 0x7 SLOAD DUP2 JUMP JUMPDEST PUSH1 0x2 SLOAD PUSH1 0x1 PUSH1 0x1 PUSH1 0xA0 SHL SUB AND CALLER EQ PUSH2 0xBE8 JUMPI PUSH1 0x40 DUP1 MLOAD PUSH3 0x461BCD PUSH1 0xE5 SHL DUP2 MSTORE PUSH1 0x20 PUSH1 0x4 DUP3 ADD MSTORE PUSH1 0x9 PUSH1 0x24 DUP3 ADD MSTORE PUSH9 0x6465763A207775743F PUSH1 0xB8 SHL PUSH1 0x44 DUP3 ADD MSTORE SWAP1 MLOAD SWAP1 DUP2 SWAP1 SUB PUSH1 0x64 ADD SWAP1 REVERT JUMPDEST PUSH1 0x2 DUP1 SLOAD PUSH1 0x1 PUSH1 0x1 PUSH1 0xA0 SHL SUB NOT AND PUSH1 0x1 PUSH1 0x1 PUSH1 0xA0 SHL SUB SWAP3 SWAP1 SWAP3 AND SWAP2 SWAP1 SWAP2 OR SWAP1 SSTORE JUMP JUMPDEST PUSH1 0x0 PUSH1 0x5 SLOAD DUP3 GT PUSH2 0xC2D JUMPI PUSH1 0x7 SLOAD PUSH2 0xC26 SWAP1 PUSH2 0x8B9 DUP5 DUP7 PUSH2 0x1460 JUMP JUMPDEST SWAP1 POP PUSH2 0xC73 JUMP JUMPDEST PUSH1 0x5 SLOAD DUP4 LT PUSH2 0xC40 JUMPI PUSH2 0xC26 DUP3 DUP5 PUSH2 0x1460 JUMP JUMPDEST PUSH2 0xC26 PUSH2 0xC58 PUSH1 0x5 SLOAD DUP5 PUSH2 0x1460 SWAP1 SWAP2 SWAP1 PUSH4 0xFFFFFFFF AND JUMP JUMPDEST PUSH2 0xB54 PUSH1 0x7 SLOAD PUSH2 0x8B9 DUP8 PUSH1 0x5 SLOAD PUSH2 0x1460 SWAP1 SWAP2 SWAP1 PUSH4 0xFFFFFFFF AND JUMP JUMPDEST SWAP3 SWAP2 POP POP JUMP JUMPDEST PUSH1 0xA PUSH1 0x20 SWAP1 DUP2 MSTORE PUSH1 0x0 SWAP3 DUP4 MSTORE PUSH1 0x40 DUP1 DUP5 KECCAK256 SWAP1 SWAP2 MSTORE SWAP1 DUP3 MSTORE SWAP1 KECCAK256 DUP1 SLOAD PUSH1 0x1 SWAP1 SWAP2 ADD SLOAD DUP3 JUMP JUMPDEST PUSH1 0x1 SLOAD PUSH1 0x1 PUSH1 0x1 PUSH1 0xA0 SHL SUB AND DUP2 JUMP JUMPDEST PUSH1 0x3 SLOAD DUP2 JUMP JUMPDEST PUSH1 0x1 SLOAD PUSH1 0x40 DUP1 MLOAD PUSH4 0x70A08231 PUSH1 0xE0 SHL DUP2 MSTORE ADDRESS PUSH1 0x4 DUP3 ADD MSTORE SWAP1 MLOAD PUSH1 0x0 SWAP3 DUP4 SWAP3 PUSH1 0x1 PUSH1 0x1 PUSH1 0xA0 SHL SUB SWAP1 SWAP2 AND SWAP2 PUSH4 0x70A08231 SWAP2 PUSH1 0x24 DUP1 DUP3 ADD SWAP3 PUSH1 0x20 SWAP3 SWAP1 SWAP2 SWAP1 DUP3 SWAP1 SUB ADD DUP2 DUP7 DUP1 EXTCODESIZE ISZERO DUP1 ISZERO PUSH2 0xD02 JUMPI PUSH1 0x0 DUP1 REVERT JUMPDEST POP GAS STATICCALL ISZERO DUP1 ISZERO PUSH2 0xD16 JUMPI RETURNDATASIZE PUSH1 0x0 DUP1 RETURNDATACOPY RETURNDATASIZE PUSH1 0x0 REVERT JUMPDEST POP POP POP POP PUSH1 0x40 MLOAD RETURNDATASIZE PUSH1 0x20 DUP2 LT ISZERO PUSH2 0xD2C JUMPI PUSH1 0x0 DUP1 REVERT JUMPDEST POP MLOAD PUSH1 0x6 SLOAD SWAP1 SWAP2 POP ISZERO PUSH2 0xD4D JUMPI PUSH1 0x6 SLOAD DUP2 DUP2 PUSH2 0xD44 JUMPI INVALID JUMPDEST DIV SWAP2 POP POP PUSH2 0x60D JUMP JUMPDEST PUSH1 0x0 SWAP2 POP POP PUSH2 0x60D JUMP JUMPDEST PUSH1 0x0 DUP1 PUSH1 0x9 DUP5 DUP2 SLOAD DUP2 LT PUSH2 0xD67 JUMPI INVALID JUMPDEST PUSH1 0x0 SWAP2 DUP3 MSTORE PUSH1 0x20 DUP1 DUP4 KECCAK256 DUP8 DUP5 MSTORE PUSH1 0xA DUP3 MSTORE PUSH1 0x40 DUP1 DUP6 KECCAK256 PUSH1 0x1 PUSH1 0x1 PUSH1 0xA0 SHL SUB DUP10 DUP2 AND DUP8 MSTORE SWAP1 DUP5 MSTORE DUP2 DUP7 KECCAK256 PUSH1 0x4 SWAP6 DUP7 MUL SWAP1 SWAP4 ADD PUSH1 0x3 DUP2 ADD SLOAD DUP2 SLOAD DUP5 MLOAD PUSH4 0x70A08231 PUSH1 0xE0 SHL DUP2 MSTORE ADDRESS SWAP9 DUP2 ADD SWAP9 SWAP1 SWAP9 MSTORE SWAP4 MLOAD SWAP2 SWAP9 POP SWAP4 SWAP7 SWAP4 SWAP6 SWAP4 SWAP5 SWAP3 SWAP1 SWAP2 AND SWAP3 PUSH4 0x70A08231 SWAP3 PUSH1 0x24 DUP1 DUP4 ADD SWAP4 SWAP2 SWAP3 DUP3 SWAP1 SUB ADD DUP2 DUP7 DUP1 EXTCODESIZE ISZERO DUP1 ISZERO PUSH2 0xDE5 JUMPI PUSH1 0x0 DUP1 REVERT JUMPDEST POP GAS STATICCALL ISZERO DUP1 ISZERO PUSH2 0xDF9 JUMPI RETURNDATASIZE PUSH1 0x0 DUP1 RETURNDATACOPY RETURNDATASIZE PUSH1 0x0 REVERT JUMPDEST POP POP POP POP PUSH1 0x40 MLOAD RETURNDATASIZE PUSH1 0x20 DUP2 LT ISZERO PUSH2 0xE0F JUMPI PUSH1 0x0 DUP1 REVERT JUMPDEST POP MLOAD PUSH1 0x2 DUP6 ADD SLOAD SWAP1 SWAP2 POP NUMBER GT DUP1 ISZERO PUSH2 0xE26 JUMPI POP DUP1 ISZERO ISZERO JUMPDEST ISZERO PUSH2 0xE86 JUMPI PUSH1 0x0 PUSH2 0xE3B DUP6 PUSH1 0x2 ADD SLOAD NUMBER PUSH2 0xC0A JUMP JUMPDEST SWAP1 POP PUSH1 0x0 PUSH2 0xE62 PUSH1 0xB SLOAD PUSH2 0x71C DUP9 PUSH1 0x1 ADD SLOAD PUSH2 0x8B9 PUSH1 0x6 SLOAD DUP8 PUSH2 0x13BE SWAP1 SWAP2 SWAP1 PUSH4 0xFFFFFFFF AND JUMP JUMPDEST SWAP1 POP PUSH2 0xE81 PUSH2 0xE7A DUP5 PUSH2 0x71C DUP5 PUSH5 0xE8D4A51000 PUSH2 0x13BE JUMP JUMPDEST DUP6 SWAP1 PUSH2 0x14F4 JUMP JUMPDEST SWAP4 POP POP POP JUMPDEST PUSH2 0xEAE DUP4 PUSH1 0x1 ADD SLOAD PUSH2 0x722 PUSH5 0xE8D4A51000 PUSH2 0x71C DUP7 DUP9 PUSH1 0x0 ADD SLOAD PUSH2 0x13BE SWAP1 SWAP2 SWAP1 PUSH4 0xFFFFFFFF AND JUMP JUMPDEST SWAP8 SWAP7 POP POP POP POP POP POP POP JUMP JUMPDEST PUSH1 0x2 SLOAD PUSH1 0x1 PUSH1 0x1 PUSH1 0xA0 SHL SUB AND DUP2 JUMP JUMPDEST PUSH1 0x0 SLOAD PUSH1 0x40 DUP1 MLOAD PUSH4 0xC395FCB3 PUSH1 0xE0 SHL DUP2 MSTORE CALLER PUSH1 0x4 DUP3 ADD MSTORE SWAP1 MLOAD PUSH1 0x1 PUSH1 0x1 PUSH1 0xA0 SHL SUB SWAP1 SWAP3 AND SWAP2 PUSH4 0xC395FCB3 SWAP2 PUSH1 0x24 DUP1 DUP3 ADD SWAP3 PUSH1 0x20 SWAP3 SWAP1 SWAP2 SWAP1 DUP3 SWAP1 SUB ADD DUP2 DUP7 DUP1 EXTCODESIZE ISZERO DUP1 ISZERO PUSH2 0xF13 JUMPI PUSH1 0x0 DUP1 REVERT JUMPDEST POP GAS STATICCALL ISZERO DUP1 ISZERO PUSH2 0xF27 JUMPI RETURNDATASIZE PUSH1 0x0 DUP1 RETURNDATACOPY RETURNDATASIZE PUSH1 0x0 REVERT JUMPDEST POP POP POP POP PUSH1 0x40 MLOAD RETURNDATASIZE PUSH1 0x20 DUP2 LT ISZERO PUSH2 0xF3D JUMPI PUSH1 0x0 DUP1 REVERT JUMPDEST POP MLOAD DUP1 PUSH2 0xFBD JUMPI POP PUSH1 0x0 SLOAD PUSH1 0x40 DUP1 MLOAD PUSH4 0x89D8559 PUSH1 0xE1 SHL DUP2 MSTORE CALLER PUSH1 0x4 DUP3 ADD MSTORE SWAP1 MLOAD PUSH1 0x1 PUSH1 0x1 PUSH1 0xA0 SHL SUB SWAP1 SWAP3 AND SWAP2 PUSH4 0x113B0AB2 SWAP2 PUSH1 0x24 DUP1 DUP3 ADD SWAP3 PUSH1 0x20 SWAP3 SWAP1 SWAP2 SWAP1 DUP3 SWAP1 SUB ADD DUP2 DUP7 DUP1 EXTCODESIZE ISZERO DUP1 ISZERO PUSH2 0xF90 JUMPI PUSH1 0x0 DUP1 REVERT JUMPDEST POP GAS STATICCALL ISZERO DUP1 ISZERO PUSH2 0xFA4 JUMPI RETURNDATASIZE PUSH1 0x0 DUP1 RETURNDATACOPY RETURNDATASIZE PUSH1 0x0 REVERT JUMPDEST POP POP POP POP PUSH1 0x40 MLOAD RETURNDATASIZE PUSH1 0x20 DUP2 LT ISZERO PUSH2 0xFBA JUMPI PUSH1 0x0 DUP1 REVERT JUMPDEST POP MLOAD JUMPDEST PUSH2 0xFF8 JUMPI PUSH1 0x40 MLOAD PUSH3 0x461BCD PUSH1 0xE5 SHL DUP2 MSTORE PUSH1 0x4 ADD DUP1 DUP1 PUSH1 0x20 ADD DUP3 DUP2 SUB DUP3 MSTORE PUSH1 0x24 DUP2 MSTORE PUSH1 0x20 ADD DUP1 PUSH2 0x18E6 PUSH1 0x24 SWAP2 CODECOPY PUSH1 0x40 ADD SWAP2 POP POP PUSH1 0x40 MLOAD DUP1 SWAP2 SUB SWAP1 REVERT JUMPDEST DUP1 ISZERO PUSH2 0x1006 JUMPI PUSH2 0x1006 PUSH2 0xA3A JUMP JUMPDEST PUSH1 0x0 PUSH1 0xC SLOAD NUMBER GT PUSH2 0x1019 JUMPI PUSH1 0xC SLOAD PUSH2 0x101B JUMP JUMPDEST NUMBER JUMPDEST PUSH1 0xB SLOAD SWAP1 SWAP2 POP PUSH2 0x102B SWAP1 DUP6 PUSH2 0x14F4 JUMP JUMPDEST PUSH1 0xB SSTORE PUSH1 0x40 DUP1 MLOAD PUSH1 0x80 DUP2 ADD DUP3 MSTORE PUSH1 0x1 PUSH1 0x1 PUSH1 0xA0 SHL SUB SWAP5 DUP6 AND DUP2 MSTORE PUSH1 0x20 DUP2 ADD SWAP6 DUP7 MSTORE SWAP1 DUP2 ADD SWAP2 DUP3 MSTORE PUSH1 0x0 PUSH1 0x60 DUP3 ADD DUP2 DUP2 MSTORE PUSH1 0x9 DUP1 SLOAD PUSH1 0x1 DUP2 ADD DUP3 SSTORE SWAP3 MSTORE SWAP2 MLOAD PUSH32 0x6E1540171B6C0C960B71A7020D9F60077F6AF931A8BBF590DA0223DACF75C7AF PUSH1 0x4 SWAP1 SWAP3 MUL SWAP2 DUP3 ADD DUP1 SLOAD PUSH1 0x1 PUSH1 0x1 PUSH1 0xA0 SHL SUB NOT AND SWAP2 SWAP1 SWAP7 AND OR SWAP1 SWAP5 SSTORE SWAP4 MLOAD PUSH32 0x6E1540171B6C0C960B71A7020D9F60077F6AF931A8BBF590DA0223DACF75C7B0 DUP5 ADD SSTORE MLOAD PUSH32 0x6E1540171B6C0C960B71A7020D9F60077F6AF931A8BBF590DA0223DACF75C7B1 DUP4 ADD SSTORE POP SWAP1 MLOAD PUSH32 0x6E1540171B6C0C960B71A7020D9F60077F6AF931A8BBF590DA0223DACF75C7B2 SWAP1 SWAP2 ADD SSTORE JUMP JUMPDEST PUSH1 0x0 PUSH1 0x9 DUP4 DUP2 SLOAD DUP2 LT PUSH2 0x112A JUMPI INVALID JUMPDEST PUSH1 0x0 SWAP2 DUP3 MSTORE PUSH1 0x20 DUP1 DUP4 KECCAK256 DUP7 DUP5 MSTORE PUSH1 0xA DUP3 MSTORE PUSH1 0x40 DUP1 DUP6 KECCAK256 CALLER DUP7 MSTORE SWAP1 SWAP3 MSTORE SWAP3 KECCAK256 PUSH1 0x4 SWAP1 SWAP2 MUL SWAP1 SWAP2 ADD SWAP2 POP PUSH2 0x115B DUP5 PUSH2 0x7C8 JUMP JUMPDEST DUP1 SLOAD ISZERO PUSH2 0x11A4 JUMPI PUSH1 0x0 PUSH2 0x1190 DUP3 PUSH1 0x1 ADD SLOAD PUSH2 0x722 PUSH5 0xE8D4A51000 PUSH2 0x71C DUP8 PUSH1 0x3 ADD SLOAD DUP8 PUSH1 0x0 ADD SLOAD PUSH2 0x13BE SWAP1 SWAP2 SWAP1 PUSH4 0xFFFFFFFF AND JUMP JUMPDEST SWAP1 POP DUP1 ISZERO PUSH2 0x11A2 JUMPI PUSH2 0x11A2 CALLER DUP3 PUSH2 0x122D JUMP JUMPDEST POP JUMPDEST DUP3 ISZERO PUSH2 0x11D0 JUMPI DUP2 SLOAD PUSH2 0x11C1 SWAP1 PUSH1 0x1 PUSH1 0x1 PUSH1 0xA0 SHL SUB AND CALLER ADDRESS DUP7 PUSH2 0x154E JUMP JUMPDEST DUP1 SLOAD PUSH2 0x11CD SWAP1 DUP5 PUSH2 0x14F4 JUMP JUMPDEST DUP2 SSTORE JUMPDEST PUSH1 0x3 DUP3 ADD SLOAD DUP2 SLOAD PUSH2 0x11EB SWAP2 PUSH5 0xE8D4A51000 SWAP2 PUSH2 0x71C SWAP2 PUSH2 0x13BE JUMP JUMPDEST PUSH1 0x1 DUP3 ADD SSTORE PUSH1 0x40 DUP1 MLOAD DUP5 DUP2 MSTORE SWAP1 MLOAD DUP6 SWAP2 CALLER SWAP2 PUSH32 0x90890809C654F11D6E72A28FA60149770A0D11EC6C92319D6CEB2BB0A4EA1A15 SWAP2 DUP2 SWAP1 SUB PUSH1 0x20 ADD SWAP1 LOG3 POP POP POP POP JUMP JUMPDEST PUSH1 0x1 SLOAD PUSH1 0x40 DUP1 MLOAD PUSH4 0x70A08231 PUSH1 0xE0 SHL DUP2 MSTORE ADDRESS PUSH1 0x4 DUP3 ADD MSTORE SWAP1 MLOAD PUSH1 0x0 SWAP3 PUSH1 0x1 PUSH1 0x1 PUSH1 0xA0 SHL SUB AND SWAP2 PUSH4 0x70A08231 SWAP2 PUSH1 0x24 DUP1 DUP4 ADD SWAP3 PUSH1 0x20 SWAP3 SWAP2 SWAP1 DUP3 SWAP1 SUB ADD DUP2 DUP7 DUP1 EXTCODESIZE ISZERO DUP1 ISZERO PUSH2 0x1278 JUMPI PUSH1 0x0 DUP1 REVERT JUMPDEST POP GAS STATICCALL ISZERO DUP1 ISZERO PUSH2 0x128C JUMPI RETURNDATASIZE PUSH1 0x0 DUP1 RETURNDATACOPY RETURNDATASIZE PUSH1 0x0 REVERT JUMPDEST POP POP POP POP PUSH1 0x40 MLOAD RETURNDATASIZE PUSH1 0x20 DUP2 LT ISZERO PUSH2 0x12A2 JUMPI PUSH1 0x0 DUP1 REVERT JUMPDEST POP MLOAD SWAP1 POP DUP1 DUP3 GT ISZERO PUSH2 0x1336 JUMPI PUSH1 0x1 SLOAD PUSH1 0x40 DUP1 MLOAD PUSH4 0xA9059CBB PUSH1 0xE0 SHL DUP2 MSTORE PUSH1 0x1 PUSH1 0x1 PUSH1 0xA0 SHL SUB DUP7 DUP2 AND PUSH1 0x4 DUP4 ADD MSTORE PUSH1 0x24 DUP3 ADD DUP6 SWAP1 MSTORE SWAP2 MLOAD SWAP2 SWAP1 SWAP3 AND SWAP2 PUSH4 0xA9059CBB SWAP2 PUSH1 0x44 DUP1 DUP4 ADD SWAP3 PUSH1 0x20 SWAP3 SWAP2 SWAP1 DUP3 SWAP1 SUB ADD DUP2 PUSH1 0x0 DUP8 DUP1 EXTCODESIZE ISZERO DUP1 ISZERO PUSH2 0x1304 JUMPI PUSH1 0x0 DUP1 REVERT JUMPDEST POP GAS CALL ISZERO DUP1 ISZERO PUSH2 0x1318 JUMPI RETURNDATASIZE PUSH1 0x0 DUP1 RETURNDATACOPY RETURNDATASIZE PUSH1 0x0 REVERT JUMPDEST POP POP POP POP PUSH1 0x40 MLOAD RETURNDATASIZE PUSH1 0x20 DUP2 LT ISZERO PUSH2 0x132E JUMPI PUSH1 0x0 DUP1 REVERT JUMPDEST POP PUSH2 0x13B9 SWAP1 POP JUMP JUMPDEST PUSH1 0x1 SLOAD PUSH1 0x40 DUP1 MLOAD PUSH4 0xA9059CBB PUSH1 0xE0 SHL DUP2 MSTORE PUSH1 0x1 PUSH1 0x1 PUSH1 0xA0 SHL SUB DUP7 DUP2 AND PUSH1 0x4 DUP4 ADD MSTORE PUSH1 0x24 DUP3 ADD DUP7 SWAP1 MSTORE SWAP2 MLOAD SWAP2 SWAP1 SWAP3 AND SWAP2 PUSH4 0xA9059CBB SWAP2 PUSH1 0x44 DUP1 DUP4 ADD SWAP3 PUSH1 0x20 SWAP3 SWAP2 SWAP1 DUP3 SWAP1 SUB ADD DUP2 PUSH1 0x0 DUP8 DUP1 EXTCODESIZE ISZERO DUP1 ISZERO PUSH2 0x138C JUMPI PUSH1 0x0 DUP1 REVERT JUMPDEST POP GAS CALL ISZERO DUP1 ISZERO PUSH2 0x13A0 JUMPI RETURNDATASIZE PUSH1 0x0 DUP1 RETURNDATACOPY RETURNDATASIZE PUSH1 0x0 REVERT JUMPDEST POP POP POP POP PUSH1 0x40 MLOAD RETURNDATASIZE PUSH1 0x20 DUP2 LT ISZERO PUSH2 0x13B6 JUMPI PUSH1 0x0 DUP1 REVERT JUMPDEST POP POP JUMPDEST POP POP POP JUMP JUMPDEST PUSH1 0x0 DUP3 PUSH2 0x13CD JUMPI POP PUSH1 0x0 PUSH2 0xC73 JUMP JUMPDEST DUP3 DUP3 MUL DUP3 DUP5 DUP3 DUP2 PUSH2 0x13DA JUMPI INVALID JUMPDEST DIV EQ PUSH2 0x1417 JUMPI PUSH1 0x40 MLOAD PUSH3 0x461BCD PUSH1 0xE5 SHL DUP2 MSTORE PUSH1 0x4 ADD DUP1 DUP1 PUSH1 0x20 ADD DUP3 DUP2 SUB DUP3 MSTORE PUSH1 0x21 DUP2 MSTORE PUSH1 0x20 ADD DUP1 PUSH2 0x190A PUSH1 0x21 SWAP2 CODECOPY PUSH1 0x40 ADD SWAP2 POP POP PUSH1 0x40 MLOAD DUP1 SWAP2 SUB SWAP1 REVERT JUMPDEST SWAP4 SWAP3 POP POP POP JUMP JUMPDEST PUSH1 0x0 PUSH2 0x1417 DUP4 DUP4 PUSH1 0x40 MLOAD DUP1 PUSH1 0x40 ADD PUSH1 0x40 MSTORE DUP1 PUSH1 0x1A DUP2 MSTORE PUSH1 0x20 ADD PUSH32 0x536166654D6174683A206469766973696F6E206279207A65726F000000000000 DUP2 MSTORE POP PUSH2 0x15AE JUMP JUMPDEST PUSH1 0x0 PUSH2 0x1417 DUP4 DUP4 PUSH1 0x40 MLOAD DUP1 PUSH1 0x40 ADD PUSH1 0x40 MSTORE DUP1 PUSH1 0x1E DUP2 MSTORE PUSH1 0x20 ADD PUSH32 0x536166654D6174683A207375627472616374696F6E206F766572666C6F770000 DUP2 MSTORE POP PUSH2 0x1650 JUMP JUMPDEST PUSH1 0x40 DUP1 MLOAD PUSH1 0x1 PUSH1 0x1 PUSH1 0xA0 SHL SUB DUP5 AND PUSH1 0x24 DUP3 ADD MSTORE PUSH1 0x44 DUP1 DUP3 ADD DUP5 SWAP1 MSTORE DUP3 MLOAD DUP1 DUP4 SUB SWAP1 SWAP2 ADD DUP2 MSTORE PUSH1 0x64 SWAP1 SWAP2 ADD SWAP1 SWAP2 MSTORE PUSH1 0x20 DUP2 ADD DUP1 MLOAD PUSH1 0x1 PUSH1 0x1 PUSH1 0xE0 SHL SUB AND PUSH4 0xA9059CBB PUSH1 0xE0 SHL OR SWAP1 MSTORE PUSH2 0x13B9 SWAP1 DUP5 SWAP1 PUSH2 0x16AA JUMP JUMPDEST PUSH1 0x0 DUP3 DUP3 ADD DUP4 DUP2 LT ISZERO PUSH2 0x1417 JUMPI PUSH1 0x40 DUP1 MLOAD PUSH3 0x461BCD PUSH1 0xE5 SHL DUP2 MSTORE PUSH1 0x20 PUSH1 0x4 DUP3 ADD MSTORE PUSH1 0x1B PUSH1 0x24 DUP3 ADD MSTORE PUSH32 0x536166654D6174683A206164646974696F6E206F766572666C6F770000000000 PUSH1 0x44 DUP3 ADD MSTORE SWAP1 MLOAD SWAP1 DUP2 SWAP1 SUB PUSH1 0x64 ADD SWAP1 REVERT JUMPDEST PUSH1 0x40 DUP1 MLOAD PUSH1 0x1 PUSH1 0x1 PUSH1 0xA0 SHL SUB DUP1 DUP7 AND PUSH1 0x24 DUP4 ADD MSTORE DUP5 AND PUSH1 0x44 DUP3 ADD MSTORE PUSH1 0x64 DUP1 DUP3 ADD DUP5 SWAP1 MSTORE DUP3 MLOAD DUP1 DUP4 SUB SWAP1 SWAP2 ADD DUP2 MSTORE PUSH1 0x84 SWAP1 SWAP2 ADD SWAP1 SWAP2 MSTORE PUSH1 0x20 DUP2 ADD DUP1 MLOAD PUSH1 0x1 PUSH1 0x1 PUSH1 0xE0 SHL SUB AND PUSH4 0x23B872DD PUSH1 0xE0 SHL OR SWAP1 MSTORE PUSH2 0x15A8 SWAP1 DUP6 SWAP1 PUSH2 0x16AA JUMP JUMPDEST POP POP POP POP JUMP JUMPDEST PUSH1 0x0 DUP2 DUP4 PUSH2 0x163A JUMPI PUSH1 0x40 MLOAD PUSH3 0x461BCD PUSH1 0xE5 SHL DUP2 MSTORE PUSH1 0x4 ADD DUP1 DUP1 PUSH1 0x20 ADD DUP3 DUP2 SUB DUP3 MSTORE DUP4 DUP2 DUP2 MLOAD DUP2 MSTORE PUSH1 0x20 ADD SWAP2 POP DUP1 MLOAD SWAP1 PUSH1 0x20 ADD SWAP1 DUP1 DUP4 DUP4 PUSH1 0x0 JUMPDEST DUP4 DUP2 LT ISZERO PUSH2 0x15FF JUMPI DUP2 DUP2 ADD MLOAD DUP4 DUP3 ADD MSTORE PUSH1 0x20 ADD PUSH2 0x15E7 JUMP JUMPDEST POP POP POP POP SWAP1 POP SWAP1 DUP2 ADD SWAP1 PUSH1 0x1F AND DUP1 ISZERO PUSH2 0x162C JUMPI DUP1 DUP3 SUB DUP1 MLOAD PUSH1 0x1 DUP4 PUSH1 0x20 SUB PUSH2 0x100 EXP SUB NOT AND DUP2 MSTORE PUSH1 0x20 ADD SWAP2 POP JUMPDEST POP SWAP3 POP POP POP PUSH1 0x40 MLOAD DUP1 SWAP2 SUB SWAP1 REVERT JUMPDEST POP PUSH1 0x0 DUP4 DUP6 DUP2 PUSH2 0x1646 JUMPI INVALID JUMPDEST DIV SWAP6 SWAP5 POP POP POP POP POP JUMP JUMPDEST PUSH1 0x0 DUP2 DUP5 DUP5 GT ISZERO PUSH2 0x16A2 JUMPI PUSH1 0x40 MLOAD PUSH3 0x461BCD PUSH1 0xE5 SHL DUP2 MSTORE PUSH1 0x20 PUSH1 0x4 DUP3 ADD DUP2 DUP2 MSTORE DUP4 MLOAD PUSH1 0x24 DUP5 ADD MSTORE DUP4 MLOAD SWAP1 SWAP3 DUP4 SWAP3 PUSH1 0x44 SWAP1 SWAP2 ADD SWAP2 SWAP1 DUP6 ADD SWAP1 DUP1 DUP4 DUP4 PUSH1 0x0 DUP4 ISZERO PUSH2 0x15FF JUMPI DUP2 DUP2 ADD MLOAD DUP4 DUP3 ADD MSTORE PUSH1 0x20 ADD PUSH2 0x15E7 JUMP JUMPDEST POP POP POP SWAP1 SUB SWAP1 JUMP JUMPDEST PUSH1 0x60 PUSH2 0x16FF DUP3 PUSH1 0x40 MLOAD DUP1 PUSH1 0x40 ADD PUSH1 0x40 MSTORE DUP1 PUSH1 0x20 DUP2 MSTORE PUSH1 0x20 ADD PUSH32 0x5361666545524332303A206C6F772D6C6576656C2063616C6C206661696C6564 DUP2 MSTORE POP DUP6 PUSH1 0x1 PUSH1 0x1 PUSH1 0xA0 SHL SUB AND PUSH2 0x175B SWAP1 SWAP3 SWAP2 SWAP1 PUSH4 0xFFFFFFFF AND JUMP JUMPDEST DUP1 MLOAD SWAP1 SWAP2 POP ISZERO PUSH2 0x13B9 JUMPI DUP1 DUP1 PUSH1 0x20 ADD SWAP1 MLOAD PUSH1 0x20 DUP2 LT ISZERO PUSH2 0x171E JUMPI PUSH1 0x0 DUP1 REVERT JUMPDEST POP MLOAD PUSH2 0x13B9 JUMPI PUSH1 0x40 MLOAD PUSH3 0x461BCD PUSH1 0xE5 SHL DUP2 MSTORE PUSH1 0x4 ADD DUP1 DUP1 PUSH1 0x20 ADD DUP3 DUP2 SUB DUP3 MSTORE PUSH1 0x2A DUP2 MSTORE PUSH1 0x20 ADD DUP1 PUSH2 0x192B PUSH1 0x2A SWAP2 CODECOPY PUSH1 0x40 ADD SWAP2 POP POP PUSH1 0x40 MLOAD DUP1 SWAP2 SUB SWAP1 REVERT JUMPDEST PUSH1 0x60 PUSH2 0x176A DUP5 DUP5 PUSH1 0x0 DUP6 PUSH2 0x1772 JUMP JUMPDEST SWAP5 SWAP4 POP POP POP POP JUMP JUMPDEST PUSH1 0x60 PUSH2 0x177D DUP6 PUSH2 0x18DF JUMP JUMPDEST PUSH2 0x17CE JUMPI PUSH1 0x40 DUP1 MLOAD PUSH3 0x461BCD PUSH1 0xE5 SHL DUP2 MSTORE PUSH1 0x20 PUSH1 0x4 DUP3 ADD MSTORE PUSH1 0x1D PUSH1 0x24 DUP3 ADD MSTORE PUSH32 0x416464726573733A2063616C6C20746F206E6F6E2D636F6E7472616374000000 PUSH1 0x44 DUP3 ADD MSTORE SWAP1 MLOAD SWAP1 DUP2 SWAP1 SUB PUSH1 0x64 ADD SWAP1 REVERT JUMPDEST PUSH1 0x0 PUSH1 0x60 DUP7 PUSH1 0x1 PUSH1 0x1 PUSH1 0xA0 SHL SUB AND DUP6 DUP8 PUSH1 0x40 MLOAD DUP1 DUP3 DUP1 MLOAD SWAP1 PUSH1 0x20 ADD SWAP1 DUP1 DUP4 DUP4 JUMPDEST PUSH1 0x20 DUP4 LT PUSH2 0x180D JUMPI DUP1 MLOAD DUP3 MSTORE PUSH1 0x1F NOT SWAP1 SWAP3 ADD SWAP2 PUSH1 0x20 SWAP2 DUP3 ADD SWAP2 ADD PUSH2 0x17EE JUMP JUMPDEST PUSH1 0x1 DUP4 PUSH1 0x20 SUB PUSH2 0x100 EXP SUB DUP1 NOT DUP3 MLOAD AND DUP2 DUP5 MLOAD AND DUP1 DUP3 OR DUP6 MSTORE POP POP POP POP POP POP SWAP1 POP ADD SWAP2 POP POP PUSH1 0x0 PUSH1 0x40 MLOAD DUP1 DUP4 SUB DUP2 DUP6 DUP8 GAS CALL SWAP3 POP POP POP RETURNDATASIZE DUP1 PUSH1 0x0 DUP2 EQ PUSH2 0x186F JUMPI PUSH1 0x40 MLOAD SWAP2 POP PUSH1 0x1F NOT PUSH1 0x3F RETURNDATASIZE ADD AND DUP3 ADD PUSH1 0x40 MSTORE RETURNDATASIZE DUP3 MSTORE RETURNDATASIZE PUSH1 0x0 PUSH1 0x20 DUP5 ADD RETURNDATACOPY PUSH2 0x1874 JUMP JUMPDEST PUSH1 0x60 SWAP2 POP JUMPDEST POP SWAP2 POP SWAP2 POP DUP2 ISZERO PUSH2 0x1888 JUMPI SWAP2 POP PUSH2 0x176A SWAP1 POP JUMP JUMPDEST DUP1 MLOAD ISZERO PUSH2 0x1898 JUMPI DUP1 MLOAD DUP1 DUP3 PUSH1 0x20 ADD REVERT JUMPDEST PUSH1 0x40 MLOAD PUSH3 0x461BCD PUSH1 0xE5 SHL DUP2 MSTORE PUSH1 0x20 PUSH1 0x4 DUP3 ADD DUP2 DUP2 MSTORE DUP7 MLOAD PUSH1 0x24 DUP5 ADD MSTORE DUP7 MLOAD DUP8 SWAP4 SWAP2 SWAP3 DUP4 SWAP3 PUSH1 0x44 ADD SWAP2 SWAP1 DUP6 ADD SWAP1 DUP1 DUP4 DUP4 PUSH1 0x0 DUP4 ISZERO PUSH2 0x15FF JUMPI DUP2 DUP2 ADD MLOAD DUP4 DUP3 ADD MSTORE PUSH1 0x20 ADD PUSH2 0x15E7 JUMP JUMPDEST EXTCODESIZE ISZERO ISZERO SWAP1 JUMP INVALID 0x4D PUSH2 0x7374 PUSH6 0x72436865662E PUSH2 0x6464 GASPRICE KECCAK256 MSTORE8 PUSH6 0x6E646572206D PUSH22 0x73742062652061646D696E536166654D6174683A206D PUSH22 0x6C7469706C69636174696F6E206F766572666C6F7753 PUSH2 0x6665 GASLIMIT MSTORE NUMBER ORIGIN ADDRESS GASPRICE KECCAK256 GASLIMIT MSTORE NUMBER ORIGIN ADDRESS KECCAK256 PUSH16 0x7065726174696F6E20646964206E6F74 KECCAK256 PUSH20 0x7563636565644D6173746572436865662E736574 GASPRICE KECCAK256 MSTORE8 PUSH6 0x6E646572206D PUSH22 0x7374206265206F70657261746F72A264697066735822 SLT KECCAK256 SWAP14 SDIV LT 0xAB LOG4 0xD MOD SWAP14 0xD5 0xBD EQ 0xF INVALID PUSH31 0xAC798090326B7F2240AA51A201964982B29364736F6C634300060C00330000 ",
  "sha1": "03c2a80990a6063eff504bf5e95ce84d0d6ace72",
  "source": "pragma solidity 0.6.12;\n\n\nimport \"@openzeppelin/contracts/token/ERC20/IERC20.sol\";\nimport \"@openzeppelin/contracts/token/ERC20/SafeERC20.sol\";\nimport \"@openzeppelin/contracts/utils/EnumerableSet.sol\";\nimport \"@openzeppelin/contracts/math/SafeMath.sol\";\nimport \"@openzeppelin/contracts/access/Ownable.sol\";\n\nimport \"../Access/MISOAccessControls.sol\";\nimport \"../../interfaces/IMisoFarm.sol\";\n\n\n// MasterChef is the master of Rewards. He can make Rewards and he is a fair guy.\n//\n// Note that it's ownable and the owner wields tremendous power. The ownership\n// will be transferred to a governance smart contract once tokens are sufficiently\n// distributed and the community can show to govern itself.\n//\n// Have fun reading it. Hopefully it's bug-free. God bless.\n//\n// MISO Update - Removed LP migrator\n// MISO Update - Removed minter - Contract holds token\n// MISO Update - Dev tips parameterised\n// MISO Update - Replaced owner with access controls\n\ncontract MasterChef is IMisoFarm {\n    using SafeMath for uint256;\n    using SafeERC20 for IERC20;\n\n    MISOAccessControls public accessControls;\n\n\n    // Info of each user.\n    struct UserInfo {\n        uint256 amount;     // How many LP tokens the user has provided.\n        uint256 rewardDebt; // Reward debt. See explanation below.\n        //\n        // We do some fancy math here. Basically, any point in time, the amount of tokens\n        // entitled to a user but is pending to be distributed is:\n        //\n        //   pending reward = (user.amount * pool.accRewardsPerShare) - user.rewardDebt\n        //\n        // Whenever a user deposits or withdraws LP tokens to a pool. Here's what happens:\n        //   1. The pool's `accRewardsPerShare` (and `lastRewardBlock`) gets updated.\n        //   2. User receives the pending reward sent to his/her address.\n        //   3. User's `amount` gets updated.\n        //   4. User's `rewardDebt` gets updated.\n    }\n\n    // Info of each pool.\n    struct PoolInfo {\n        IERC20 lpToken;           // Address of LP token contract.\n        uint256 allocPoint;       // How many allocation points assigned to this pool. tokens to distribute per block.\n        uint256 lastRewardBlock;  // Last block number that tokens distribution occurs.\n        uint256 accRewardsPerShare; // Accumulated tokens per share, times 1e12. See below.\n    }\n\n    // The rewards token\n    IERC20 public rewards;\n    // Dev address.\n    address public devaddr;\n    // Percentage amount to be tipped to devs.\n    uint256 public devPercentage;\n    // Tips owed to develpers.\n    uint256 public tips;\n\n    // Block number when bonus tokens period ends.\n    uint256 public bonusEndBlock;\n    // Reward tokens created per block.\n    uint256 public rewardsPerBlock;\n    // Bonus muliplier for early rewards makers.\n    uint256 public BONUS_MULTIPLIER;\n\n\n    bool private initialised;\n\n    // Info of each pool.\n    PoolInfo[] public poolInfo;\n    // Info of each user that stakes LP tokens.\n    mapping (uint256 => mapping (address => UserInfo)) public userInfo;\n    // Total allocation poitns. Must be the sum of all allocation points in all pools.\n    uint256 public totalAllocPoint;\n    // The block number when rewards mining starts.\n    uint256 public startBlock;\n\n    event Deposit(address indexed user, uint256 indexed pid, uint256 amount);\n    event Withdraw(address indexed user, uint256 indexed pid, uint256 amount);\n    event EmergencyWithdraw(address indexed user, uint256 indexed pid, uint256 amount);\n\n    function initFarm(\n        address _rewards,\n        uint256 _rewardsPerBlock,\n        uint256 _startBlock,\n        address _devaddr,\n        address _accessControls\n    ) public override {\n        require(!initialised);\n        rewards = IERC20(_rewards);\n        totalAllocPoint = 0;\n        initialised = true;\n        rewardsPerBlock = _rewardsPerBlock;\n        startBlock = _startBlock;\n        devaddr = _devaddr;\n        accessControls = MISOAccessControls(_accessControls);\n    }\n\n    function setBonus(\n        uint256 _bonusEndBlock,\n        uint256 _bonusMultiplier\n    ) public {\n        require(\n            accessControls.hasAdminRole(msg.sender),\n            \"MasterChef.add: Sender must be admin\"\n        );\n\n        bonusEndBlock = _bonusEndBlock;\n        BONUS_MULTIPLIER = _bonusMultiplier;\n    }\n\n    function poolLength() external view returns (uint256) {\n        return poolInfo.length;\n    }\n\n    // Add a new lp to the pool. Can only be called by the owner.\n    // XXX DO NOT add the same LP token more than once. Rewards will be messed up if you do.\n    function addToken(uint256 _allocPoint, IERC20 _lpToken, bool _withUpdate) public  {\n        require(\n            accessControls.hasAdminRole(msg.sender) || accessControls.hasSmartContractRole(msg.sender),\n            \"MasterChef.add: Sender must be admin\"\n        );\n        if (_withUpdate) {\n            massUpdatePools();\n        }\n        uint256 lastRewardBlock = block.number > startBlock ? block.number : startBlock;\n        totalAllocPoint = totalAllocPoint.add(_allocPoint);\n        poolInfo.push(PoolInfo({\n            lpToken: _lpToken,\n            allocPoint: _allocPoint,\n            lastRewardBlock: lastRewardBlock,\n            accRewardsPerShare: 0\n        }));\n    }\n\n    // Update the given pool's token allocation point. Can only be called by the operator.\n    function set(uint256 _pid, uint256 _allocPoint, bool _withUpdate) public  {\n        require(\n            accessControls.hasOperatorRole(msg.sender),\n            \"MasterChef.set: Sender must be operator\"\n        );\n        if (_withUpdate) {\n            massUpdatePools();\n        }\n        totalAllocPoint = totalAllocPoint.sub(poolInfo[_pid].allocPoint).add(_allocPoint);\n        poolInfo[_pid].allocPoint = _allocPoint;\n    }\n\n\n    // Return reward multiplier over the given _from to _to block.\n    function getMultiplier(uint256 _from, uint256 _to) public view returns (uint256) {\n        if (_to <= bonusEndBlock) {\n            return _to.sub(_from).mul(BONUS_MULTIPLIER);\n        } else if (_from >= bonusEndBlock) {\n            return _to.sub(_from);\n        } else {\n            return bonusEndBlock.sub(_from).mul(BONUS_MULTIPLIER).add(\n                _to.sub(bonusEndBlock)\n            );\n        }\n    }\n\n    // View function to see pending tokens on frontend.\n    function pendingRewards(uint256 _pid, address _user) external view returns (uint256) {\n        PoolInfo storage pool = poolInfo[_pid];\n        UserInfo storage user = userInfo[_pid][_user];\n        uint256 accRewardsPerShare = pool.accRewardsPerShare;\n        uint256 lpSupply = pool.lpToken.balanceOf(address(this));\n        if (block.number > pool.lastRewardBlock && lpSupply != 0) {\n            uint256 multiplier = getMultiplier(pool.lastRewardBlock, block.number);\n            uint256 rewardsAccum = multiplier.mul(rewardsPerBlock).mul(pool.allocPoint).div(totalAllocPoint);\n            accRewardsPerShare = accRewardsPerShare.add(rewardsAccum.mul(1e12).div(lpSupply));\n        }\n        return user.amount.mul(accRewardsPerShare).div(1e12).sub(user.rewardDebt);\n    }\n\n    // Update reward vairables for all pools. Be careful of gas spending!\n    function massUpdatePools() public {\n        uint256 length = poolInfo.length;\n        for (uint256 pid = 0; pid < length; ++pid) {\n            updatePool(pid);\n        }\n    }\n\n    // Update reward variables of the given pool to be up-to-date.\n    function updatePool(uint256 _pid) public {\n        PoolInfo storage pool = poolInfo[_pid];\n        if (block.number <= pool.lastRewardBlock) {\n            return;\n        }\n        uint256 lpSupply = pool.lpToken.balanceOf(address(this));\n        if (lpSupply == 0) {\n            pool.lastRewardBlock = block.number;\n            return;\n        }\n        uint256 multiplier = getMultiplier(pool.lastRewardBlock, block.number);\n        uint256 rewardsAccum = multiplier.mul(rewardsPerBlock).mul(pool.allocPoint).div(totalAllocPoint);\n        if (devPercentage > 0) {\n            tips = tips.add(rewardsAccum.mul(devPercentage).div(1000));\n        }\n        pool.accRewardsPerShare = pool.accRewardsPerShare.add(rewardsAccum.mul(1e12).div(lpSupply));\n        pool.lastRewardBlock = block.number;\n    }\n\n    // Deposit LP tokens to MasterChef for rewards allocation.\n    function deposit(uint256 _pid, uint256 _amount) public {\n        PoolInfo storage pool = poolInfo[_pid];\n        UserInfo storage user = userInfo[_pid][msg.sender];\n        updatePool(_pid);\n        if (user.amount > 0) {\n            uint256 pending = user.amount.mul(pool.accRewardsPerShare).div(1e12).sub(user.rewardDebt);\n            if(pending > 0) {\n                safeRewardsTransfer(msg.sender, pending);\n            }\n        }\n        if(_amount > 0) {\n            pool.lpToken.safeTransferFrom(address(msg.sender), address(this), _amount);\n            user.amount = user.amount.add(_amount);\n        }\n        user.rewardDebt = user.amount.mul(pool.accRewardsPerShare).div(1e12);\n        emit Deposit(msg.sender, _pid, _amount);\n    }\n\n    // Withdraw LP tokens from MasterChef.\n    function withdraw(uint256 _pid, uint256 _amount) public {\n        PoolInfo storage pool = poolInfo[_pid];\n        UserInfo storage user = userInfo[_pid][msg.sender];\n        require(user.amount >= _amount, \"withdraw: not good\");\n        updatePool(_pid);\n        uint256 pending = user.amount.mul(pool.accRewardsPerShare).div(1e12).sub(user.rewardDebt);\n        if(pending > 0) {\n            safeRewardsTransfer(msg.sender, pending);\n        }\n        if(_amount > 0) {\n            user.amount = user.amount.sub(_amount);\n            pool.lpToken.safeTransfer(address(msg.sender), _amount);\n        }\n        user.rewardDebt = user.amount.mul(pool.accRewardsPerShare).div(1e12);\n        emit Withdraw(msg.sender, _pid, _amount);\n    }\n\n    // Withdraw without caring about rewards. EMERGENCY ONLY.\n    function emergencyWithdraw(uint256 _pid) public {\n        PoolInfo storage pool = poolInfo[_pid];\n        UserInfo storage user = userInfo[_pid][msg.sender];\n        uint256 amount = user.amount;\n        user.amount = 0;\n        user.rewardDebt = 0;\n        pool.lpToken.safeTransfer(address(msg.sender), amount);\n        emit EmergencyWithdraw(msg.sender, _pid, amount);\n    }\n\n    // Safe rewards transfer function, just in case if rounding error causes pool to not have enough tokens.\n    function safeRewardsTransfer(address _to, uint256 _amount) internal {\n        uint256 rewardsBal = rewards.balanceOf(address(this));\n        if (_amount > rewardsBal) {\n            rewards.transfer(_to, rewardsBal);\n        } else {\n            rewards.transfer(_to, _amount);\n        }\n    }\n\n    // Returns the number of blocks remaining with the current rewards balance\n    function blocksRemaining() public returns (uint256){\n        uint256 rewardsBal = rewards.balanceOf(address(this));\n        if (rewardsPerBlock > 0) {\n            return rewardsBal / rewardsPerBlock;\n        } else {\n            return 0;\n        }\n    }\n\n    // Claims any rewards for the developer\n    function claimTips() public {\n        require(msg.sender == devaddr, \"dev: wut?\");\n        require(tips > 0, \"dev: broke\");\n        uint256 claimable = tips;\n        tips = 0;\n        safeRewardsTransfer(devaddr, claimable);\n    }\n\n    // Update dev address by the previous dev.\n    function dev(address _devaddr) public {\n        require(msg.sender == devaddr, \"dev: wut?\");\n        devaddr = _devaddr;\n    }\n}",
  "sourcePath": "contracts/Farms/MasterChef.sol",
  "type": "contract"
}