{
  "abi": [
    {
      "anonymous": false,
      "inputs": [
        {
          "indexed": true,
          "internalType": "address",
          "name": "owner",
          "type": "address"
        },
        {
          "indexed": true,
          "internalType": "address",
          "name": "addr",
          "type": "address"
        },
        {
          "indexed": false,
          "internalType": "address",
          "name": "escrowTemplate",
          "type": "address"
        }
      ],
      "name": "EscrowCreated",
      "type": "event"
    },
    {
      "anonymous": false,
      "inputs": [
        {
          "indexed": false,
          "internalType": "address",
          "name": "newTemplate",
          "type": "address"
        },
        {
          "indexed": false,
          "internalType": "uint256",
          "name": "templateId",
          "type": "uint256"
        }
      ],
      "name": "EscrowTemplateAdded",
      "type": "event"
    },
    {
      "anonymous": false,
      "inputs": [
        {
          "indexed": false,
          "internalType": "address",
          "name": "template",
          "type": "address"
        },
        {
          "indexed": false,
          "internalType": "uint256",
          "name": "templateId",
          "type": "uint256"
        }
      ],
      "name": "EscrowTemplateRemoved",
      "type": "event"
    },
    {
      "anonymous": false,
      "inputs": [
        {
          "indexed": false,
          "internalType": "address",
          "name": "sender",
          "type": "address"
        }
      ],
      "name": "MisoInitFermenter",
      "type": "event"
    },
    {
      "anonymous": false,
      "inputs": [
        {
          "indexed": true,
          "internalType": "address",
          "name": "previousOwner",
          "type": "address"
        },
        {
          "indexed": true,
          "internalType": "address",
          "name": "newOwner",
          "type": "address"
        }
      ],
      "name": "OwnershipTransferred",
      "type": "event"
    },
    {
      "inputs": [],
      "name": "_initMISOFermenter",
      "outputs": [],
      "stateMutability": "nonpayable",
      "type": "function"
    },
    {
      "inputs": [],
      "name": "acceptOwnership",
      "outputs": [],
      "stateMutability": "nonpayable",
      "type": "function"
    },
    {
      "inputs": [
        {
          "internalType": "address",
          "name": "_escrowTemplate",
          "type": "address"
        }
      ],
      "name": "addEscrowTemplate",
      "outputs": [],
      "stateMutability": "nonpayable",
      "type": "function"
    },
    {
      "inputs": [
        {
          "internalType": "uint256",
          "name": "_templateId",
          "type": "uint256"
        }
      ],
      "name": "createEscrow",
      "outputs": [
        {
          "internalType": "address",
          "name": "newEscrow",
          "type": "address"
        }
      ],
      "stateMutability": "nonpayable",
      "type": "function"
    },
    {
      "inputs": [],
      "name": "escrowTemplateId",
      "outputs": [
        {
          "internalType": "uint256",
          "name": "",
          "type": "uint256"
        }
      ],
      "stateMutability": "view",
      "type": "function"
    },
    {
      "inputs": [
        {
          "internalType": "uint256",
          "name": "",
          "type": "uint256"
        }
      ],
      "name": "escrows",
      "outputs": [
        {
          "internalType": "address",
          "name": "",
          "type": "address"
        }
      ],
      "stateMutability": "view",
      "type": "function"
    },
    {
      "inputs": [
        {
          "internalType": "uint256",
          "name": "_templateId",
          "type": "uint256"
        }
      ],
      "name": "getEscrowTemplate",
      "outputs": [
        {
          "internalType": "address",
          "name": "escrowTemplate",
          "type": "address"
        }
      ],
      "stateMutability": "view",
      "type": "function"
    },
    {
      "inputs": [
        {
          "internalType": "address",
          "name": "_escrowTemplate",
          "type": "address"
        }
      ],
      "name": "getTemplateId",
      "outputs": [
        {
          "internalType": "uint256",
          "name": "templateId",
          "type": "uint256"
        }
      ],
      "stateMutability": "view",
      "type": "function"
    },
    {
      "inputs": [
        {
          "internalType": "address",
          "name": "",
          "type": "address"
        }
      ],
      "name": "isChildEscrow",
      "outputs": [
        {
          "internalType": "bool",
          "name": "exists",
          "type": "bool"
        },
        {
          "internalType": "uint256",
          "name": "templateId",
          "type": "uint256"
        },
        {
          "internalType": "uint256",
          "name": "index",
          "type": "uint256"
        }
      ],
      "stateMutability": "view",
      "type": "function"
    },
    {
      "inputs": [],
      "name": "isOwner",
      "outputs": [
        {
          "internalType": "bool",
          "name": "",
          "type": "bool"
        }
      ],
      "stateMutability": "view",
      "type": "function"
    },
    {
      "inputs": [],
      "name": "newOwner",
      "outputs": [
        {
          "internalType": "address",
          "name": "",
          "type": "address"
        }
      ],
      "stateMutability": "view",
      "type": "function"
    },
    {
      "inputs": [],
      "name": "owner",
      "outputs": [
        {
          "internalType": "address",
          "name": "",
          "type": "address"
        }
      ],
      "stateMutability": "view",
      "type": "function"
    },
    {
      "inputs": [
        {
          "internalType": "uint256",
          "name": "_templateId",
          "type": "uint256"
        }
      ],
      "name": "removeEscrowTemplate",
      "outputs": [],
      "stateMutability": "nonpayable",
      "type": "function"
    },
    {
      "inputs": [
        {
          "internalType": "address",
          "name": "_newOwner",
          "type": "address"
        }
      ],
      "name": "transferOwnership",
      "outputs": [],
      "stateMutability": "nonpayable",
      "type": "function"
    }
  ],
  "bytecode": "608060405234801561001057600080fd5b506106f5806100206000396000f3fe608060405234801561001057600080fd5b50600436106100ea5760003560e01c80638da5cb5b1161008c578063d335ebda11610066578063d335ebda14610215578063d4ee1d901461023b578063f2fde38b14610243578063ff6a639214610269576100ea565b80638da5cb5b146101d45780638f32d59b146101dc578063c4668964146101f8576100ea565b806349192928116100c8578063491929281461014f57806379ba5097146101695780637a082911146101715780638da2c873146101b7576100ea565b8063012f52ee146100ef5780632667ce27146101285780633bfcd9b514610132575b600080fd5b61010c6004803603602081101561010557600080fd5b503561028f565b604080516001600160a01b039092168252519081900360200190f35b6101306102b6565b005b6101306004803603602081101561014857600080fd5b503561031a565b6101576103a4565b60408051918252519081900360200190f35b6101306103aa565b6101976004803603602081101561018757600080fd5b50356001600160a01b0316610425565b604080519315158452602084019290925282820152519081900360600190f35b61010c600480360360208110156101cd57600080fd5b503561044a565b61010c610567565b6101e4610576565b604080519115158252519081900360200190f35b61010c6004803603602081101561020e57600080fd5b5035610587565b6101576004803603602081101561022b57600080fd5b50356001600160a01b03166105a2565b61010c6105a8565b6101306004803603602081101561025957600080fd5b50356001600160a01b03166105b7565b6101306004803603602081101561027f57600080fd5b50356001600160a01b03166105ea565b6002818154811061029c57fe5b6000918252602090912001546001600160a01b0316905081565b600154600160a01b900460ff16156102cd57600080fd5b6001805460ff60a01b1916600160a01b17905560006003556040805133815290517ffa8ab7cc751ede85da4b5e1d508e9357f84a9e554d793aac0e484b8013fa77b09181900360200190a1565b6000818152600460205260409020546001600160a01b031661033b57600080fd5b60008181526004602090815260409182902080546001600160a01b0319811690915582516001600160a01b03909116808252918101849052825191927f3f5a556fd0475f028f62c9ca9bdf824a2c3fd93a5a26fa74b0aa07703b8d11ea92918290030190a15050565b60035481565b6001546001600160a01b031633146103c157600080fd5b600154600080546040516001600160a01b0393841693909116917f8be0079c531659141344cd1fd0a4f28419497f9722a3daafe3b4186f6b6457e091a360018054600080546001600160a01b03199081166001600160a01b03841617909155169055565b60056020526000908152604090208054600182015460029092015460ff909116919083565b6000818152600460205260408120546001600160a01b031661046b57600080fd5b60008281526004602052604090205461048c906001600160a01b031661066d565b604080516060810182526001808252602080830187815260028054600019018587019081526001600160a01b038881166000818152600587528981209851895460ff191690151517895594518888015591519683019690965581549485019091557f405787fa12a823e0f2b7631cc41b3ba8828b3321ca811111fa75cd3aa3bb5ace90930180546001600160a01b03191684179055878152600482528490205484519316835292519394509233927f4743c0c2884de4f19f280dbd2cc93bc24491cdf876ed107046fe8194183c09e9928290030190a3919050565b6000546001600160a01b031690565b6000546001600160a01b0316331490565b6000908152600460205260409020546001600160a01b031690565b50600090565b6001546001600160a01b031681565b6105bf610576565b6105c857600080fd5b600180546001600160a01b0319166001600160a01b0392909216919091179055565b6105f2610576565b6105fb57600080fd5b6003805460010180825560009081526004602090815260409182902080546001600160a01b0319166001600160a01b038616908117909155925482519384529083015280517f439cb22d4d440cdda8508c466333dca53d6f577c7c91274ac9feaec3946a67039281900390910190a150565b6000808260601b9050604051733d602d80600a3d3981f3363d3d373d3d3d363d7360601b81528160148201526e5af43d82803e903d91602b57fd5bf360881b60288201526037816000f094935050505056fea264697066735822122020570224fd477a6d31701231b11a5fc0b8ca6e2404422c6d9602bc108e6140f364736f6c634300060c0033",
  "bytecodeSha1": "ebf99cffff8d81af35a661bf08aea12108e4d1e3",
  "compiler": {
    "evm_version": "istanbul",
    "optimizer": {
      "enabled": true,
      "runs": 200
    },
    "version": "0.6.12"
  },
  "contractName": "MISOFermenter",
  "language": "Solidity",
  "natspec": {
    "kind": "dev",
    "methods": {},
    "version": 1
  },
  "opcodes": "PUSH1 0x80 PUSH1 0x40 MSTORE CALLVALUE DUP1 ISZERO PUSH2 0x10 JUMPI PUSH1 0x0 DUP1 REVERT JUMPDEST POP PUSH1 0x4 CALLDATASIZE LT PUSH2 0xEA JUMPI PUSH1 0x0 CALLDATALOAD PUSH1 0xE0 SHR DUP1 PUSH4 0x8DA5CB5B GT PUSH2 0x8C JUMPI DUP1 PUSH4 0xD335EBDA GT PUSH2 0x66 JUMPI DUP1 PUSH4 0xD335EBDA EQ PUSH2 0x215 JUMPI DUP1 PUSH4 0xD4EE1D90 EQ PUSH2 0x23B JUMPI DUP1 PUSH4 0xF2FDE38B EQ PUSH2 0x243 JUMPI DUP1 PUSH4 0xFF6A6392 EQ PUSH2 0x269 JUMPI PUSH2 0xEA JUMP JUMPDEST DUP1 PUSH4 0x8DA5CB5B EQ PUSH2 0x1D4 JUMPI DUP1 PUSH4 0x8F32D59B EQ PUSH2 0x1DC JUMPI DUP1 PUSH4 0xC4668964 EQ PUSH2 0x1F8 JUMPI PUSH2 0xEA JUMP JUMPDEST DUP1 PUSH4 0x49192928 GT PUSH2 0xC8 JUMPI DUP1 PUSH4 0x49192928 EQ PUSH2 0x14F JUMPI DUP1 PUSH4 0x79BA5097 EQ PUSH2 0x169 JUMPI DUP1 PUSH4 0x7A082911 EQ PUSH2 0x171 JUMPI DUP1 PUSH4 0x8DA2C873 EQ PUSH2 0x1B7 JUMPI PUSH2 0xEA JUMP JUMPDEST DUP1 PUSH4 0x12F52EE EQ PUSH2 0xEF JUMPI DUP1 PUSH4 0x2667CE27 EQ PUSH2 0x128 JUMPI DUP1 PUSH4 0x3BFCD9B5 EQ PUSH2 0x132 JUMPI JUMPDEST PUSH1 0x0 DUP1 REVERT JUMPDEST PUSH2 0x10C PUSH1 0x4 DUP1 CALLDATASIZE SUB PUSH1 0x20 DUP2 LT ISZERO PUSH2 0x105 JUMPI PUSH1 0x0 DUP1 REVERT JUMPDEST POP CALLDATALOAD PUSH2 0x28F JUMP JUMPDEST PUSH1 0x40 DUP1 MLOAD PUSH1 0x1 PUSH1 0x1 PUSH1 0xA0 SHL SUB SWAP1 SWAP3 AND DUP3 MSTORE MLOAD SWAP1 DUP2 SWAP1 SUB PUSH1 0x20 ADD SWAP1 RETURN JUMPDEST PUSH2 0x130 PUSH2 0x2B6 JUMP JUMPDEST STOP JUMPDEST PUSH2 0x130 PUSH1 0x4 DUP1 CALLDATASIZE SUB PUSH1 0x20 DUP2 LT ISZERO PUSH2 0x148 JUMPI PUSH1 0x0 DUP1 REVERT JUMPDEST POP CALLDATALOAD PUSH2 0x31A JUMP JUMPDEST PUSH2 0x157 PUSH2 0x3A4 JUMP JUMPDEST PUSH1 0x40 DUP1 MLOAD SWAP2 DUP3 MSTORE MLOAD SWAP1 DUP2 SWAP1 SUB PUSH1 0x20 ADD SWAP1 RETURN JUMPDEST PUSH2 0x130 PUSH2 0x3AA JUMP JUMPDEST PUSH2 0x197 PUSH1 0x4 DUP1 CALLDATASIZE SUB PUSH1 0x20 DUP2 LT ISZERO PUSH2 0x187 JUMPI PUSH1 0x0 DUP1 REVERT JUMPDEST POP CALLDATALOAD PUSH1 0x1 PUSH1 0x1 PUSH1 0xA0 SHL SUB AND PUSH2 0x425 JUMP JUMPDEST PUSH1 0x40 DUP1 MLOAD SWAP4 ISZERO ISZERO DUP5 MSTORE PUSH1 0x20 DUP5 ADD SWAP3 SWAP1 SWAP3 MSTORE DUP3 DUP3 ADD MSTORE MLOAD SWAP1 DUP2 SWAP1 SUB PUSH1 0x60 ADD SWAP1 RETURN JUMPDEST PUSH2 0x10C PUSH1 0x4 DUP1 CALLDATASIZE SUB PUSH1 0x20 DUP2 LT ISZERO PUSH2 0x1CD JUMPI PUSH1 0x0 DUP1 REVERT JUMPDEST POP CALLDATALOAD PUSH2 0x44A JUMP JUMPDEST PUSH2 0x10C PUSH2 0x567 JUMP JUMPDEST PUSH2 0x1E4 PUSH2 0x576 JUMP JUMPDEST PUSH1 0x40 DUP1 MLOAD SWAP2 ISZERO ISZERO DUP3 MSTORE MLOAD SWAP1 DUP2 SWAP1 SUB PUSH1 0x20 ADD SWAP1 RETURN JUMPDEST PUSH2 0x10C PUSH1 0x4 DUP1 CALLDATASIZE SUB PUSH1 0x20 DUP2 LT ISZERO PUSH2 0x20E JUMPI PUSH1 0x0 DUP1 REVERT JUMPDEST POP CALLDATALOAD PUSH2 0x587 JUMP JUMPDEST PUSH2 0x157 PUSH1 0x4 DUP1 CALLDATASIZE SUB PUSH1 0x20 DUP2 LT ISZERO PUSH2 0x22B JUMPI PUSH1 0x0 DUP1 REVERT JUMPDEST POP CALLDATALOAD PUSH1 0x1 PUSH1 0x1 PUSH1 0xA0 SHL SUB AND PUSH2 0x5A2 JUMP JUMPDEST PUSH2 0x10C PUSH2 0x5A8 JUMP JUMPDEST PUSH2 0x130 PUSH1 0x4 DUP1 CALLDATASIZE SUB PUSH1 0x20 DUP2 LT ISZERO PUSH2 0x259 JUMPI PUSH1 0x0 DUP1 REVERT JUMPDEST POP CALLDATALOAD PUSH1 0x1 PUSH1 0x1 PUSH1 0xA0 SHL SUB AND PUSH2 0x5B7 JUMP JUMPDEST PUSH2 0x130 PUSH1 0x4 DUP1 CALLDATASIZE SUB PUSH1 0x20 DUP2 LT ISZERO PUSH2 0x27F JUMPI PUSH1 0x0 DUP1 REVERT JUMPDEST POP CALLDATALOAD PUSH1 0x1 PUSH1 0x1 PUSH1 0xA0 SHL SUB AND PUSH2 0x5EA JUMP JUMPDEST PUSH1 0x2 DUP2 DUP2 SLOAD DUP2 LT PUSH2 0x29C JUMPI INVALID JUMPDEST PUSH1 0x0 SWAP2 DUP3 MSTORE PUSH1 0x20 SWAP1 SWAP2 KECCAK256 ADD SLOAD PUSH1 0x1 PUSH1 0x1 PUSH1 0xA0 SHL SUB AND SWAP1 POP DUP2 JUMP JUMPDEST PUSH1 0x1 SLOAD PUSH1 0x1 PUSH1 0xA0 SHL SWAP1 DIV PUSH1 0xFF AND ISZERO PUSH2 0x2CD JUMPI PUSH1 0x0 DUP1 REVERT JUMPDEST PUSH1 0x1 DUP1 SLOAD PUSH1 0xFF PUSH1 0xA0 SHL NOT AND PUSH1 0x1 PUSH1 0xA0 SHL OR SWAP1 SSTORE PUSH1 0x0 PUSH1 0x3 SSTORE PUSH1 0x40 DUP1 MLOAD CALLER DUP2 MSTORE SWAP1 MLOAD PUSH32 0xFA8AB7CC751EDE85DA4B5E1D508E9357F84A9E554D793AAC0E484B8013FA77B0 SWAP2 DUP2 SWAP1 SUB PUSH1 0x20 ADD SWAP1 LOG1 JUMP JUMPDEST PUSH1 0x0 DUP2 DUP2 MSTORE PUSH1 0x4 PUSH1 0x20 MSTORE PUSH1 0x40 SWAP1 KECCAK256 SLOAD PUSH1 0x1 PUSH1 0x1 PUSH1 0xA0 SHL SUB AND PUSH2 0x33B JUMPI PUSH1 0x0 DUP1 REVERT JUMPDEST PUSH1 0x0 DUP2 DUP2 MSTORE PUSH1 0x4 PUSH1 0x20 SWAP1 DUP2 MSTORE PUSH1 0x40 SWAP2 DUP3 SWAP1 KECCAK256 DUP1 SLOAD PUSH1 0x1 PUSH1 0x1 PUSH1 0xA0 SHL SUB NOT DUP2 AND SWAP1 SWAP2 SSTORE DUP3 MLOAD PUSH1 0x1 PUSH1 0x1 PUSH1 0xA0 SHL SUB SWAP1 SWAP2 AND DUP1 DUP3 MSTORE SWAP2 DUP2 ADD DUP5 SWAP1 MSTORE DUP3 MLOAD SWAP2 SWAP3 PUSH32 0x3F5A556FD0475F028F62C9CA9BDF824A2C3FD93A5A26FA74B0AA07703B8D11EA SWAP3 SWAP2 DUP3 SWAP1 SUB ADD SWAP1 LOG1 POP POP JUMP JUMPDEST PUSH1 0x3 SLOAD DUP2 JUMP JUMPDEST PUSH1 0x1 SLOAD PUSH1 0x1 PUSH1 0x1 PUSH1 0xA0 SHL SUB AND CALLER EQ PUSH2 0x3C1 JUMPI PUSH1 0x0 DUP1 REVERT JUMPDEST PUSH1 0x1 SLOAD PUSH1 0x0 DUP1 SLOAD PUSH1 0x40 MLOAD PUSH1 0x1 PUSH1 0x1 PUSH1 0xA0 SHL SUB SWAP4 DUP5 AND SWAP4 SWAP1 SWAP2 AND SWAP2 PUSH32 0x8BE0079C531659141344CD1FD0A4F28419497F9722A3DAAFE3B4186F6B6457E0 SWAP2 LOG3 PUSH1 0x1 DUP1 SLOAD PUSH1 0x0 DUP1 SLOAD PUSH1 0x1 PUSH1 0x1 PUSH1 0xA0 SHL SUB NOT SWAP1 DUP2 AND PUSH1 0x1 PUSH1 0x1 PUSH1 0xA0 SHL SUB DUP5 AND OR SWAP1 SWAP2 SSTORE AND SWAP1 SSTORE JUMP JUMPDEST PUSH1 0x5 PUSH1 0x20 MSTORE PUSH1 0x0 SWAP1 DUP2 MSTORE PUSH1 0x40 SWAP1 KECCAK256 DUP1 SLOAD PUSH1 0x1 DUP3 ADD SLOAD PUSH1 0x2 SWAP1 SWAP3 ADD SLOAD PUSH1 0xFF SWAP1 SWAP2 AND SWAP2 SWAP1 DUP4 JUMP JUMPDEST PUSH1 0x0 DUP2 DUP2 MSTORE PUSH1 0x4 PUSH1 0x20 MSTORE PUSH1 0x40 DUP2 KECCAK256 SLOAD PUSH1 0x1 PUSH1 0x1 PUSH1 0xA0 SHL SUB AND PUSH2 0x46B JUMPI PUSH1 0x0 DUP1 REVERT JUMPDEST PUSH1 0x0 DUP3 DUP2 MSTORE PUSH1 0x4 PUSH1 0x20 MSTORE PUSH1 0x40 SWAP1 KECCAK256 SLOAD PUSH2 0x48C SWAP1 PUSH1 0x1 PUSH1 0x1 PUSH1 0xA0 SHL SUB AND PUSH2 0x66D JUMP JUMPDEST PUSH1 0x40 DUP1 MLOAD PUSH1 0x60 DUP2 ADD DUP3 MSTORE PUSH1 0x1 DUP1 DUP3 MSTORE PUSH1 0x20 DUP1 DUP4 ADD DUP8 DUP2 MSTORE PUSH1 0x2 DUP1 SLOAD PUSH1 0x0 NOT ADD DUP6 DUP8 ADD SWAP1 DUP2 MSTORE PUSH1 0x1 PUSH1 0x1 PUSH1 0xA0 SHL SUB DUP9 DUP2 AND PUSH1 0x0 DUP2 DUP2 MSTORE PUSH1 0x5 DUP8 MSTORE DUP10 DUP2 KECCAK256 SWAP9 MLOAD DUP10 SLOAD PUSH1 0xFF NOT AND SWAP1 ISZERO ISZERO OR DUP10 SSTORE SWAP5 MLOAD DUP9 DUP9 ADD SSTORE SWAP2 MLOAD SWAP7 DUP4 ADD SWAP7 SWAP1 SWAP7 SSTORE DUP2 SLOAD SWAP5 DUP6 ADD SWAP1 SWAP2 SSTORE PUSH32 0x405787FA12A823E0F2B7631CC41B3BA8828B3321CA811111FA75CD3AA3BB5ACE SWAP1 SWAP4 ADD DUP1 SLOAD PUSH1 0x1 PUSH1 0x1 PUSH1 0xA0 SHL SUB NOT AND DUP5 OR SWAP1 SSTORE DUP8 DUP2 MSTORE PUSH1 0x4 DUP3 MSTORE DUP5 SWAP1 KECCAK256 SLOAD DUP5 MLOAD SWAP4 AND DUP4 MSTORE SWAP3 MLOAD SWAP4 SWAP5 POP SWAP3 CALLER SWAP3 PUSH32 0x4743C0C2884DE4F19F280DBD2CC93BC24491CDF876ED107046FE8194183C09E9 SWAP3 DUP3 SWAP1 SUB ADD SWAP1 LOG3 SWAP2 SWAP1 POP JUMP JUMPDEST PUSH1 0x0 SLOAD PUSH1 0x1 PUSH1 0x1 PUSH1 0xA0 SHL SUB AND SWAP1 JUMP JUMPDEST PUSH1 0x0 SLOAD PUSH1 0x1 PUSH1 0x1 PUSH1 0xA0 SHL SUB AND CALLER EQ SWAP1 JUMP JUMPDEST PUSH1 0x0 SWAP1 DUP2 MSTORE PUSH1 0x4 PUSH1 0x20 MSTORE PUSH1 0x40 SWAP1 KECCAK256 SLOAD PUSH1 0x1 PUSH1 0x1 PUSH1 0xA0 SHL SUB AND SWAP1 JUMP JUMPDEST POP PUSH1 0x0 SWAP1 JUMP JUMPDEST PUSH1 0x1 SLOAD PUSH1 0x1 PUSH1 0x1 PUSH1 0xA0 SHL SUB AND DUP2 JUMP JUMPDEST PUSH2 0x5BF PUSH2 0x576 JUMP JUMPDEST PUSH2 0x5C8 JUMPI PUSH1 0x0 DUP1 REVERT JUMPDEST PUSH1 0x1 DUP1 SLOAD PUSH1 0x1 PUSH1 0x1 PUSH1 0xA0 SHL SUB NOT AND PUSH1 0x1 PUSH1 0x1 PUSH1 0xA0 SHL SUB SWAP3 SWAP1 SWAP3 AND SWAP2 SWAP1 SWAP2 OR SWAP1 SSTORE JUMP JUMPDEST PUSH2 0x5F2 PUSH2 0x576 JUMP JUMPDEST PUSH2 0x5FB JUMPI PUSH1 0x0 DUP1 REVERT JUMPDEST PUSH1 0x3 DUP1 SLOAD PUSH1 0x1 ADD DUP1 DUP3 SSTORE PUSH1 0x0 SWAP1 DUP2 MSTORE PUSH1 0x4 PUSH1 0x20 SWAP1 DUP2 MSTORE PUSH1 0x40 SWAP2 DUP3 SWAP1 KECCAK256 DUP1 SLOAD PUSH1 0x1 PUSH1 0x1 PUSH1 0xA0 SHL SUB NOT AND PUSH1 0x1 PUSH1 0x1 PUSH1 0xA0 SHL SUB DUP7 AND SWAP1 DUP2 OR SWAP1 SWAP2 SSTORE SWAP3 SLOAD DUP3 MLOAD SWAP4 DUP5 MSTORE SWAP1 DUP4 ADD MSTORE DUP1 MLOAD PUSH32 0x439CB22D4D440CDDA8508C466333DCA53D6F577C7C91274AC9FEAEC3946A6703 SWAP3 DUP2 SWAP1 SUB SWAP1 SWAP2 ADD SWAP1 LOG1 POP JUMP JUMPDEST PUSH1 0x0 DUP1 DUP3 PUSH1 0x60 SHL SWAP1 POP PUSH1 0x40 MLOAD PUSH20 0x3D602D80600A3D3981F3363D3D373D3D3D363D73 PUSH1 0x60 SHL DUP2 MSTORE DUP2 PUSH1 0x14 DUP3 ADD MSTORE PUSH15 0x5AF43D82803E903D91602B57FD5BF3 PUSH1 0x88 SHL PUSH1 0x28 DUP3 ADD MSTORE PUSH1 0x37 DUP2 PUSH1 0x0 CREATE SWAP5 SWAP4 POP POP POP POP JUMP INVALID LOG2 PUSH5 0x6970667358 0x22 SLT KECCAK256 KECCAK256 JUMPI MUL 0x24 REVERT SELFBALANCE PUSH27 0x6D31701231B11A5FC0B8CA6E2404422C6D9602BC108E6140F36473 PUSH16 0x6C634300060C00330000000000000000 ",
  "sha1": "7776d9d6e53d5e593bf08dd3486dd9548bc93e1d",
  "source": "pragma solidity ^0.6.9;\n\n// GP: Use clone factory to save user gas\n// GP: Token escrow, lock up tokens for a period of time\nimport \"./Utils/CloneFactory.sol\";\nimport \"./Utils/Owned.sol\";\n\ncontract MISOFermenter is Owned, CloneFactory{\n\n    bool private initialised; \n    struct Fermenter{\n        bool exists;\n        uint256 templateId;\n        uint256 index;\n    }\n\n\n    address[] public escrows;\n    uint256 public escrowTemplateId;\n    \n    mapping(uint256 => address) private escrowTemplates;\n    mapping(address => Fermenter) public isChildEscrow;\n    \n    event MisoInitFermenter(address sender);\n\n    // GP: Add more data to events\n    event EscrowTemplateAdded(address newTemplate, uint256 templateId);\n    event EscrowTemplateRemoved(address template, uint256 templateId);\n    event EscrowCreated(address indexed owner, address indexed addr,address escrowTemplate);\n\n    function _initMISOFermenter() external {\n        require(!initialised);\n        initialised = true;\n        escrowTemplateId = 0;\n        emit MisoInitFermenter(msg.sender);\n    }\n\n    // Sample functions\n    function createEscrow(uint256 _templateId) external returns (address newEscrow){\n        require(escrowTemplates[_templateId]!= address(0));\n        newEscrow = createClone(escrowTemplates[_templateId]);\n        isChildEscrow[address(newEscrow)] = Fermenter(true,_templateId,escrows.length-1);\n        escrows.push(newEscrow);\n        emit EscrowCreated(msg.sender,address(newEscrow),escrowTemplates[_templateId]);\n    }\n    function addEscrowTemplate(address _escrowTemplate) external onlyOwner{\n    //        require(!isChildEscrow[_escrowTemplate].exists);\n        escrowTemplateId++;\n        escrowTemplates[escrowTemplateId] = _escrowTemplate;\n        emit EscrowTemplateAdded(_escrowTemplate, escrowTemplateId);\n    }\n    function removeEscrowTemplate(uint256 _templateId) external {\n        require(escrowTemplates[_templateId] != address(0));\n        address template = escrowTemplates[_templateId];\n        escrowTemplates[_templateId] = address(0);\n        emit EscrowTemplateRemoved(template, _templateId);\n    }\n\n    // getter functions\n    function getEscrowTemplate(uint256 _templateId) public view returns (address escrowTemplate) {\n        return escrowTemplates[_templateId];\n    }\n    function getTemplateId(address _escrowTemplate) public view returns (uint256 templateId) {}\n\n\n}\n",
  "sourcePath": "contracts/MISOFermenter.sol",
  "type": "contract"
}