{
  "abi": [
    {
      "anonymous": false,
      "inputs": [
        {
          "indexed": true,
          "internalType": "address",
          "name": "owner",
          "type": "address"
        },
        {
          "indexed": true,
          "internalType": "address",
          "name": "addr",
          "type": "address"
        },
        {
          "indexed": false,
          "internalType": "address",
          "name": "escrowTemplate",
          "type": "address"
        }
      ],
      "name": "EscrowCreated",
      "type": "event"
    },
    {
      "anonymous": false,
      "inputs": [
        {
          "indexed": false,
          "internalType": "address",
          "name": "newTemplate",
          "type": "address"
        },
        {
          "indexed": false,
          "internalType": "uint256",
          "name": "templateId",
          "type": "uint256"
        }
      ],
      "name": "EscrowTemplateAdded",
      "type": "event"
    },
    {
      "anonymous": false,
      "inputs": [
        {
          "indexed": false,
          "internalType": "address",
          "name": "template",
          "type": "address"
        },
        {
          "indexed": false,
          "internalType": "uint256",
          "name": "templateId",
          "type": "uint256"
        }
      ],
      "name": "EscrowTemplateRemoved",
      "type": "event"
    },
    {
      "anonymous": false,
      "inputs": [
        {
          "indexed": false,
          "internalType": "address",
          "name": "sender",
          "type": "address"
        }
      ],
      "name": "MisoInitFermenter",
      "type": "event"
    },
    {
      "anonymous": false,
      "inputs": [
        {
          "indexed": true,
          "internalType": "address",
          "name": "previousOwner",
          "type": "address"
        },
        {
          "indexed": true,
          "internalType": "address",
          "name": "newOwner",
          "type": "address"
        }
      ],
      "name": "OwnershipTransferred",
      "type": "event"
    },
    {
      "inputs": [
        {
          "internalType": "address",
          "name": "_accessControls",
          "type": "address"
        }
      ],
      "name": "_initMISOFermenter",
      "outputs": [],
      "stateMutability": "nonpayable",
      "type": "function"
    },
    {
      "inputs": [],
      "name": "acceptOwnership",
      "outputs": [],
      "stateMutability": "nonpayable",
      "type": "function"
    },
    {
      "inputs": [],
      "name": "accessControls",
      "outputs": [
        {
          "internalType": "contract MISOAccessControls",
          "name": "",
          "type": "address"
        }
      ],
      "stateMutability": "view",
      "type": "function"
    },
    {
      "inputs": [
        {
          "internalType": "address",
          "name": "_escrowTemplate",
          "type": "address"
        }
      ],
      "name": "addEscrowTemplate",
      "outputs": [],
      "stateMutability": "nonpayable",
      "type": "function"
    },
    {
      "inputs": [
        {
          "internalType": "uint256",
          "name": "_templateId",
          "type": "uint256"
        }
      ],
      "name": "createEscrow",
      "outputs": [
        {
          "internalType": "address",
          "name": "newEscrow",
          "type": "address"
        }
      ],
      "stateMutability": "nonpayable",
      "type": "function"
    },
    {
      "inputs": [],
      "name": "escrowTemplateId",
      "outputs": [
        {
          "internalType": "uint256",
          "name": "",
          "type": "uint256"
        }
      ],
      "stateMutability": "view",
      "type": "function"
    },
    {
      "inputs": [
        {
          "internalType": "uint256",
          "name": "",
          "type": "uint256"
        }
      ],
      "name": "escrows",
      "outputs": [
        {
          "internalType": "address",
          "name": "",
          "type": "address"
        }
      ],
      "stateMutability": "view",
      "type": "function"
    },
    {
      "inputs": [
        {
          "internalType": "uint256",
          "name": "_templateId",
          "type": "uint256"
        }
      ],
      "name": "getEscrowTemplate",
      "outputs": [
        {
          "internalType": "address",
          "name": "escrowTemplate",
          "type": "address"
        }
      ],
      "stateMutability": "view",
      "type": "function"
    },
    {
      "inputs": [
        {
          "internalType": "address",
          "name": "_escrowTemplate",
          "type": "address"
        }
      ],
      "name": "getTemplateId",
      "outputs": [
        {
          "internalType": "uint256",
          "name": "templateId",
          "type": "uint256"
        }
      ],
      "stateMutability": "view",
      "type": "function"
    },
    {
      "inputs": [
        {
          "internalType": "address",
          "name": "",
          "type": "address"
        }
      ],
      "name": "isChildEscrow",
      "outputs": [
        {
          "internalType": "bool",
          "name": "exists",
          "type": "bool"
        },
        {
          "internalType": "uint256",
          "name": "templateId",
          "type": "uint256"
        },
        {
          "internalType": "uint256",
          "name": "index",
          "type": "uint256"
        }
      ],
      "stateMutability": "view",
      "type": "function"
    },
    {
      "inputs": [],
      "name": "isOwner",
      "outputs": [
        {
          "internalType": "bool",
          "name": "",
          "type": "bool"
        }
      ],
      "stateMutability": "view",
      "type": "function"
    },
    {
      "inputs": [],
      "name": "newOwner",
      "outputs": [
        {
          "internalType": "address",
          "name": "",
          "type": "address"
        }
      ],
      "stateMutability": "view",
      "type": "function"
    },
    {
      "inputs": [],
      "name": "numberOfTokens",
      "outputs": [
        {
          "internalType": "uint256",
          "name": "",
          "type": "uint256"
        }
      ],
      "stateMutability": "view",
      "type": "function"
    },
    {
      "inputs": [],
      "name": "owner",
      "outputs": [
        {
          "internalType": "address",
          "name": "",
          "type": "address"
        }
      ],
      "stateMutability": "view",
      "type": "function"
    },
    {
      "inputs": [
        {
          "internalType": "uint256",
          "name": "_templateId",
          "type": "uint256"
        }
      ],
      "name": "removeEscrowTemplate",
      "outputs": [],
      "stateMutability": "nonpayable",
      "type": "function"
    },
    {
      "inputs": [
        {
          "internalType": "address",
          "name": "_newOwner",
          "type": "address"
        }
      ],
      "name": "transferOwnership",
      "outputs": [],
      "stateMutability": "nonpayable",
      "type": "function"
    }
  ],
  "bytecode": "608060405234801561001057600080fd5b50610851806100206000396000f3fe608060405234801561001057600080fd5b50600436106101005760003560e01c80638da5cb5b11610097578063d4ee1d9011610066578063d4ee1d9014610277578063f2fde38b1461027f578063f9f16ef2146102a5578063ff6a6392146102ad57610100565b80638da5cb5b146102105780638f32d59b14610218578063c466896414610234578063d335ebda1461025157610100565b8063748365ef116100d3578063748365ef1461019d57806379ba5097146101a55780637a082911146101ad5780638da2c873146101f357610100565b8063012f52ee1461010557806310ea65321461013e5780633bfcd9b5146101665780634919292814610183575b600080fd5b6101226004803603602081101561011b57600080fd5b50356102d3565b604080516001600160a01b039092168252519081900360200190f35b6101646004803603602081101561015457600080fd5b50356001600160a01b03166102fa565b005b6101646004803603602081101561017c57600080fd5b5035610372565b61018b6103fc565b60408051918252519081900360200190f35b610122610402565b610164610411565b6101d3600480360360208110156101c357600080fd5b50356001600160a01b031661048c565b604080519315158452602084019290925282820152519081900360600190f35b6101226004803603602081101561020957600080fd5b50356104b1565b6101226105d0565b6102206105df565b604080519115158252519081900360200190f35b6101226004803603602081101561024a57600080fd5b50356105f0565b61018b6004803603602081101561026757600080fd5b50356001600160a01b031661060b565b610122610611565b6101646004803603602081101561029557600080fd5b50356001600160a01b0316610620565b61018b610653565b610164600480360360208110156102c357600080fd5b50356001600160a01b0316610659565b600381815481106102e057fe5b6000918252602090912001546001600160a01b0316905081565b600254600160a01b900460ff161561031157600080fd5b60028054600160a01b60ff60a01b19909116176001600160a01b0319166001600160a01b0383161790556040805133815290517ffa8ab7cc751ede85da4b5e1d508e9357f84a9e554d793aac0e484b8013fa77b0916020908290030190a150565b6000818152600560205260409020546001600160a01b031661039357600080fd5b60008181526005602090815260409182902080546001600160a01b0319811690915582516001600160a01b03909116808252918101849052825191927f3f5a556fd0475f028f62c9ca9bdf824a2c3fd93a5a26fa74b0aa07703b8d11ea92918290030190a15050565b60045481565b6002546001600160a01b031681565b6001546001600160a01b0316331461042857600080fd5b600154600080546040516001600160a01b0393841693909116917f8be0079c531659141344cd1fd0a4f28419497f9722a3daafe3b4186f6b6457e091a360018054600080546001600160a01b03199081166001600160a01b03841617909155169055565b60066020526000908152604090208054600182015460029092015460ff909116919083565b6000818152600560205260408120546001600160a01b03166104d257600080fd5b6000828152600560205260409020546104f3906001600160a01b031661078e565b604080516060810182526001808252602080830187815260038054600019018587019081526001600160a01b038881166000818152600687528981209851895460ff1916901515178955945188880155915160029097019690965581549485019091557fc2575a0e9e593c00f959f8c92f12db2869c3395a3b0502d05e2516446f71f85b90930180546001600160a01b03191684179055878152600582528490205484519316835292519394509233927f4743c0c2884de4f19f280dbd2cc93bc24491cdf876ed107046fe8194183c09e9928290030190a3919050565b6000546001600160a01b031690565b6000546001600160a01b0316331490565b6000908152600560205260409020546001600160a01b031690565b50600090565b6001546001600160a01b031681565b6106286105df565b61063157600080fd5b600180546001600160a01b0319166001600160a01b0392909216919091179055565b60035490565b6106616105df565b61066a57600080fd5b60025460408051637e271f0560e11b815233600482015290516001600160a01b039092169163fc4e3e0a91602480820192602092909190829003018186803b1580156106b557600080fd5b505afa1580156106c9573d6000803e3d6000fd5b505050506040513d60208110156106df57600080fd5b505161071c5760405162461bcd60e51b815260040180806020018281038252603b8152602001806107e1603b913960400191505060405180910390fd5b6004805460010180825560009081526005602090815260409182902080546001600160a01b0319166001600160a01b038616908117909155925482519384529083015280517f439cb22d4d440cdda8508c466333dca53d6f577c7c91274ac9feaec3946a67039281900390910190a150565b6000808260601b9050604051733d602d80600a3d3981f3363d3d373d3d3d363d7360601b81528160148201526e5af43d82803e903d91602b57fd5bf360881b60288201526037816000f094935050505056fe4d49534f546f6b656e466163746f72792e616464457363726f7754656d706c6174653a2053656e646572206d757374206265206f70657261746f72a2646970667358221220f43f62d5aa673a34246f97399bd0be1efd2c8037516e4133ccce3c0ff657d92a64736f6c634300060c0033",
  "bytecodeSha1": "9cc59341201f6986d5099098a5bcf6965be61e10",
  "compiler": {
    "evm_version": "istanbul",
    "optimizer": {
      "enabled": true,
      "runs": 200
    },
    "version": "0.6.12+commit.27d51765"
  },
  "contractName": "MISOFermenter",
  "language": "Solidity",
  "natspec": {
    "kind": "dev",
    "methods": {
      "_initMISOFermenter(address)": {
        "details": "Single gateway to initialize the MISO Market with proper addressCan only be initialized once"
      },
      "accessControls()": {
        "notice": "Responsible for access rights to the contract"
      },
      "addEscrowTemplate(address)": {
        "details": "Function to add a escrow template to create through factoryShould have operator access",
        "params": {
          "_escrowTemplate": "Escrow template to create a token"
        }
      },
      "createEscrow(uint256)": {
        "details": "Creates a new escrow corresponding to template Id"
      },
      "escrowTemplateId()": {
        "notice": "Template id to track respective escrow template"
      },
      "escrows(uint256)": {
        "notice": "Escrows created using the factory"
      },
      "getEscrowTemplate(uint256)": {
        "details": "Get the address of the escrow template"
      },
      "isChildEscrow(address)": {
        "notice": "mapping from escrow address to struct Fermenter"
      },
      "numberOfTokens()": {
        "details": "Get the total number of escrows in the factory"
      },
      "removeEscrowTemplate(uint256)": {
        "details": "Function to remove a escrow templateShould have operator access",
        "params": {
          "_templateId": "Refers to template that is to be deleted"
        }
      }
    },
    "version": 1
  },
  "opcodes": "PUSH1 0x80 PUSH1 0x40 MSTORE CALLVALUE DUP1 ISZERO PUSH2 0x10 JUMPI PUSH1 0x0 DUP1 REVERT JUMPDEST POP PUSH1 0x4 CALLDATASIZE LT PUSH2 0x100 JUMPI PUSH1 0x0 CALLDATALOAD PUSH1 0xE0 SHR DUP1 PUSH4 0x8DA5CB5B GT PUSH2 0x97 JUMPI DUP1 PUSH4 0xD4EE1D90 GT PUSH2 0x66 JUMPI DUP1 PUSH4 0xD4EE1D90 EQ PUSH2 0x277 JUMPI DUP1 PUSH4 0xF2FDE38B EQ PUSH2 0x27F JUMPI DUP1 PUSH4 0xF9F16EF2 EQ PUSH2 0x2A5 JUMPI DUP1 PUSH4 0xFF6A6392 EQ PUSH2 0x2AD JUMPI PUSH2 0x100 JUMP JUMPDEST DUP1 PUSH4 0x8DA5CB5B EQ PUSH2 0x210 JUMPI DUP1 PUSH4 0x8F32D59B EQ PUSH2 0x218 JUMPI DUP1 PUSH4 0xC4668964 EQ PUSH2 0x234 JUMPI DUP1 PUSH4 0xD335EBDA EQ PUSH2 0x251 JUMPI PUSH2 0x100 JUMP JUMPDEST DUP1 PUSH4 0x748365EF GT PUSH2 0xD3 JUMPI DUP1 PUSH4 0x748365EF EQ PUSH2 0x19D JUMPI DUP1 PUSH4 0x79BA5097 EQ PUSH2 0x1A5 JUMPI DUP1 PUSH4 0x7A082911 EQ PUSH2 0x1AD JUMPI DUP1 PUSH4 0x8DA2C873 EQ PUSH2 0x1F3 JUMPI PUSH2 0x100 JUMP JUMPDEST DUP1 PUSH4 0x12F52EE EQ PUSH2 0x105 JUMPI DUP1 PUSH4 0x10EA6532 EQ PUSH2 0x13E JUMPI DUP1 PUSH4 0x3BFCD9B5 EQ PUSH2 0x166 JUMPI DUP1 PUSH4 0x49192928 EQ PUSH2 0x183 JUMPI JUMPDEST PUSH1 0x0 DUP1 REVERT JUMPDEST PUSH2 0x122 PUSH1 0x4 DUP1 CALLDATASIZE SUB PUSH1 0x20 DUP2 LT ISZERO PUSH2 0x11B JUMPI PUSH1 0x0 DUP1 REVERT JUMPDEST POP CALLDATALOAD PUSH2 0x2D3 JUMP JUMPDEST PUSH1 0x40 DUP1 MLOAD PUSH1 0x1 PUSH1 0x1 PUSH1 0xA0 SHL SUB SWAP1 SWAP3 AND DUP3 MSTORE MLOAD SWAP1 DUP2 SWAP1 SUB PUSH1 0x20 ADD SWAP1 RETURN JUMPDEST PUSH2 0x164 PUSH1 0x4 DUP1 CALLDATASIZE SUB PUSH1 0x20 DUP2 LT ISZERO PUSH2 0x154 JUMPI PUSH1 0x0 DUP1 REVERT JUMPDEST POP CALLDATALOAD PUSH1 0x1 PUSH1 0x1 PUSH1 0xA0 SHL SUB AND PUSH2 0x2FA JUMP JUMPDEST STOP JUMPDEST PUSH2 0x164 PUSH1 0x4 DUP1 CALLDATASIZE SUB PUSH1 0x20 DUP2 LT ISZERO PUSH2 0x17C JUMPI PUSH1 0x0 DUP1 REVERT JUMPDEST POP CALLDATALOAD PUSH2 0x372 JUMP JUMPDEST PUSH2 0x18B PUSH2 0x3FC JUMP JUMPDEST PUSH1 0x40 DUP1 MLOAD SWAP2 DUP3 MSTORE MLOAD SWAP1 DUP2 SWAP1 SUB PUSH1 0x20 ADD SWAP1 RETURN JUMPDEST PUSH2 0x122 PUSH2 0x402 JUMP JUMPDEST PUSH2 0x164 PUSH2 0x411 JUMP JUMPDEST PUSH2 0x1D3 PUSH1 0x4 DUP1 CALLDATASIZE SUB PUSH1 0x20 DUP2 LT ISZERO PUSH2 0x1C3 JUMPI PUSH1 0x0 DUP1 REVERT JUMPDEST POP CALLDATALOAD PUSH1 0x1 PUSH1 0x1 PUSH1 0xA0 SHL SUB AND PUSH2 0x48C JUMP JUMPDEST PUSH1 0x40 DUP1 MLOAD SWAP4 ISZERO ISZERO DUP5 MSTORE PUSH1 0x20 DUP5 ADD SWAP3 SWAP1 SWAP3 MSTORE DUP3 DUP3 ADD MSTORE MLOAD SWAP1 DUP2 SWAP1 SUB PUSH1 0x60 ADD SWAP1 RETURN JUMPDEST PUSH2 0x122 PUSH1 0x4 DUP1 CALLDATASIZE SUB PUSH1 0x20 DUP2 LT ISZERO PUSH2 0x209 JUMPI PUSH1 0x0 DUP1 REVERT JUMPDEST POP CALLDATALOAD PUSH2 0x4B1 JUMP JUMPDEST PUSH2 0x122 PUSH2 0x5D0 JUMP JUMPDEST PUSH2 0x220 PUSH2 0x5DF JUMP JUMPDEST PUSH1 0x40 DUP1 MLOAD SWAP2 ISZERO ISZERO DUP3 MSTORE MLOAD SWAP1 DUP2 SWAP1 SUB PUSH1 0x20 ADD SWAP1 RETURN JUMPDEST PUSH2 0x122 PUSH1 0x4 DUP1 CALLDATASIZE SUB PUSH1 0x20 DUP2 LT ISZERO PUSH2 0x24A JUMPI PUSH1 0x0 DUP1 REVERT JUMPDEST POP CALLDATALOAD PUSH2 0x5F0 JUMP JUMPDEST PUSH2 0x18B PUSH1 0x4 DUP1 CALLDATASIZE SUB PUSH1 0x20 DUP2 LT ISZERO PUSH2 0x267 JUMPI PUSH1 0x0 DUP1 REVERT JUMPDEST POP CALLDATALOAD PUSH1 0x1 PUSH1 0x1 PUSH1 0xA0 SHL SUB AND PUSH2 0x60B JUMP JUMPDEST PUSH2 0x122 PUSH2 0x611 JUMP JUMPDEST PUSH2 0x164 PUSH1 0x4 DUP1 CALLDATASIZE SUB PUSH1 0x20 DUP2 LT ISZERO PUSH2 0x295 JUMPI PUSH1 0x0 DUP1 REVERT JUMPDEST POP CALLDATALOAD PUSH1 0x1 PUSH1 0x1 PUSH1 0xA0 SHL SUB AND PUSH2 0x620 JUMP JUMPDEST PUSH2 0x18B PUSH2 0x653 JUMP JUMPDEST PUSH2 0x164 PUSH1 0x4 DUP1 CALLDATASIZE SUB PUSH1 0x20 DUP2 LT ISZERO PUSH2 0x2C3 JUMPI PUSH1 0x0 DUP1 REVERT JUMPDEST POP CALLDATALOAD PUSH1 0x1 PUSH1 0x1 PUSH1 0xA0 SHL SUB AND PUSH2 0x659 JUMP JUMPDEST PUSH1 0x3 DUP2 DUP2 SLOAD DUP2 LT PUSH2 0x2E0 JUMPI INVALID JUMPDEST PUSH1 0x0 SWAP2 DUP3 MSTORE PUSH1 0x20 SWAP1 SWAP2 KECCAK256 ADD SLOAD PUSH1 0x1 PUSH1 0x1 PUSH1 0xA0 SHL SUB AND SWAP1 POP DUP2 JUMP JUMPDEST PUSH1 0x2 SLOAD PUSH1 0x1 PUSH1 0xA0 SHL SWAP1 DIV PUSH1 0xFF AND ISZERO PUSH2 0x311 JUMPI PUSH1 0x0 DUP1 REVERT JUMPDEST PUSH1 0x2 DUP1 SLOAD PUSH1 0x1 PUSH1 0xA0 SHL PUSH1 0xFF PUSH1 0xA0 SHL NOT SWAP1 SWAP2 AND OR PUSH1 0x1 PUSH1 0x1 PUSH1 0xA0 SHL SUB NOT AND PUSH1 0x1 PUSH1 0x1 PUSH1 0xA0 SHL SUB DUP4 AND OR SWAP1 SSTORE PUSH1 0x40 DUP1 MLOAD CALLER DUP2 MSTORE SWAP1 MLOAD PUSH32 0xFA8AB7CC751EDE85DA4B5E1D508E9357F84A9E554D793AAC0E484B8013FA77B0 SWAP2 PUSH1 0x20 SWAP1 DUP3 SWAP1 SUB ADD SWAP1 LOG1 POP JUMP JUMPDEST PUSH1 0x0 DUP2 DUP2 MSTORE PUSH1 0x5 PUSH1 0x20 MSTORE PUSH1 0x40 SWAP1 KECCAK256 SLOAD PUSH1 0x1 PUSH1 0x1 PUSH1 0xA0 SHL SUB AND PUSH2 0x393 JUMPI PUSH1 0x0 DUP1 REVERT JUMPDEST PUSH1 0x0 DUP2 DUP2 MSTORE PUSH1 0x5 PUSH1 0x20 SWAP1 DUP2 MSTORE PUSH1 0x40 SWAP2 DUP3 SWAP1 KECCAK256 DUP1 SLOAD PUSH1 0x1 PUSH1 0x1 PUSH1 0xA0 SHL SUB NOT DUP2 AND SWAP1 SWAP2 SSTORE DUP3 MLOAD PUSH1 0x1 PUSH1 0x1 PUSH1 0xA0 SHL SUB SWAP1 SWAP2 AND DUP1 DUP3 MSTORE SWAP2 DUP2 ADD DUP5 SWAP1 MSTORE DUP3 MLOAD SWAP2 SWAP3 PUSH32 0x3F5A556FD0475F028F62C9CA9BDF824A2C3FD93A5A26FA74B0AA07703B8D11EA SWAP3 SWAP2 DUP3 SWAP1 SUB ADD SWAP1 LOG1 POP POP JUMP JUMPDEST PUSH1 0x4 SLOAD DUP2 JUMP JUMPDEST PUSH1 0x2 SLOAD PUSH1 0x1 PUSH1 0x1 PUSH1 0xA0 SHL SUB AND DUP2 JUMP JUMPDEST PUSH1 0x1 SLOAD PUSH1 0x1 PUSH1 0x1 PUSH1 0xA0 SHL SUB AND CALLER EQ PUSH2 0x428 JUMPI PUSH1 0x0 DUP1 REVERT JUMPDEST PUSH1 0x1 SLOAD PUSH1 0x0 DUP1 SLOAD PUSH1 0x40 MLOAD PUSH1 0x1 PUSH1 0x1 PUSH1 0xA0 SHL SUB SWAP4 DUP5 AND SWAP4 SWAP1 SWAP2 AND SWAP2 PUSH32 0x8BE0079C531659141344CD1FD0A4F28419497F9722A3DAAFE3B4186F6B6457E0 SWAP2 LOG3 PUSH1 0x1 DUP1 SLOAD PUSH1 0x0 DUP1 SLOAD PUSH1 0x1 PUSH1 0x1 PUSH1 0xA0 SHL SUB NOT SWAP1 DUP2 AND PUSH1 0x1 PUSH1 0x1 PUSH1 0xA0 SHL SUB DUP5 AND OR SWAP1 SWAP2 SSTORE AND SWAP1 SSTORE JUMP JUMPDEST PUSH1 0x6 PUSH1 0x20 MSTORE PUSH1 0x0 SWAP1 DUP2 MSTORE PUSH1 0x40 SWAP1 KECCAK256 DUP1 SLOAD PUSH1 0x1 DUP3 ADD SLOAD PUSH1 0x2 SWAP1 SWAP3 ADD SLOAD PUSH1 0xFF SWAP1 SWAP2 AND SWAP2 SWAP1 DUP4 JUMP JUMPDEST PUSH1 0x0 DUP2 DUP2 MSTORE PUSH1 0x5 PUSH1 0x20 MSTORE PUSH1 0x40 DUP2 KECCAK256 SLOAD PUSH1 0x1 PUSH1 0x1 PUSH1 0xA0 SHL SUB AND PUSH2 0x4D2 JUMPI PUSH1 0x0 DUP1 REVERT JUMPDEST PUSH1 0x0 DUP3 DUP2 MSTORE PUSH1 0x5 PUSH1 0x20 MSTORE PUSH1 0x40 SWAP1 KECCAK256 SLOAD PUSH2 0x4F3 SWAP1 PUSH1 0x1 PUSH1 0x1 PUSH1 0xA0 SHL SUB AND PUSH2 0x78E JUMP JUMPDEST PUSH1 0x40 DUP1 MLOAD PUSH1 0x60 DUP2 ADD DUP3 MSTORE PUSH1 0x1 DUP1 DUP3 MSTORE PUSH1 0x20 DUP1 DUP4 ADD DUP8 DUP2 MSTORE PUSH1 0x3 DUP1 SLOAD PUSH1 0x0 NOT ADD DUP6 DUP8 ADD SWAP1 DUP2 MSTORE PUSH1 0x1 PUSH1 0x1 PUSH1 0xA0 SHL SUB DUP9 DUP2 AND PUSH1 0x0 DUP2 DUP2 MSTORE PUSH1 0x6 DUP8 MSTORE DUP10 DUP2 KECCAK256 SWAP9 MLOAD DUP10 SLOAD PUSH1 0xFF NOT AND SWAP1 ISZERO ISZERO OR DUP10 SSTORE SWAP5 MLOAD DUP9 DUP9 ADD SSTORE SWAP2 MLOAD PUSH1 0x2 SWAP1 SWAP8 ADD SWAP7 SWAP1 SWAP7 SSTORE DUP2 SLOAD SWAP5 DUP6 ADD SWAP1 SWAP2 SSTORE PUSH32 0xC2575A0E9E593C00F959F8C92F12DB2869C3395A3B0502D05E2516446F71F85B SWAP1 SWAP4 ADD DUP1 SLOAD PUSH1 0x1 PUSH1 0x1 PUSH1 0xA0 SHL SUB NOT AND DUP5 OR SWAP1 SSTORE DUP8 DUP2 MSTORE PUSH1 0x5 DUP3 MSTORE DUP5 SWAP1 KECCAK256 SLOAD DUP5 MLOAD SWAP4 AND DUP4 MSTORE SWAP3 MLOAD SWAP4 SWAP5 POP SWAP3 CALLER SWAP3 PUSH32 0x4743C0C2884DE4F19F280DBD2CC93BC24491CDF876ED107046FE8194183C09E9 SWAP3 DUP3 SWAP1 SUB ADD SWAP1 LOG3 SWAP2 SWAP1 POP JUMP JUMPDEST PUSH1 0x0 SLOAD PUSH1 0x1 PUSH1 0x1 PUSH1 0xA0 SHL SUB AND SWAP1 JUMP JUMPDEST PUSH1 0x0 SLOAD PUSH1 0x1 PUSH1 0x1 PUSH1 0xA0 SHL SUB AND CALLER EQ SWAP1 JUMP JUMPDEST PUSH1 0x0 SWAP1 DUP2 MSTORE PUSH1 0x5 PUSH1 0x20 MSTORE PUSH1 0x40 SWAP1 KECCAK256 SLOAD PUSH1 0x1 PUSH1 0x1 PUSH1 0xA0 SHL SUB AND SWAP1 JUMP JUMPDEST POP PUSH1 0x0 SWAP1 JUMP JUMPDEST PUSH1 0x1 SLOAD PUSH1 0x1 PUSH1 0x1 PUSH1 0xA0 SHL SUB AND DUP2 JUMP JUMPDEST PUSH2 0x628 PUSH2 0x5DF JUMP JUMPDEST PUSH2 0x631 JUMPI PUSH1 0x0 DUP1 REVERT JUMPDEST PUSH1 0x1 DUP1 SLOAD PUSH1 0x1 PUSH1 0x1 PUSH1 0xA0 SHL SUB NOT AND PUSH1 0x1 PUSH1 0x1 PUSH1 0xA0 SHL SUB SWAP3 SWAP1 SWAP3 AND SWAP2 SWAP1 SWAP2 OR SWAP1 SSTORE JUMP JUMPDEST PUSH1 0x3 SLOAD SWAP1 JUMP JUMPDEST PUSH2 0x661 PUSH2 0x5DF JUMP JUMPDEST PUSH2 0x66A JUMPI PUSH1 0x0 DUP1 REVERT JUMPDEST PUSH1 0x2 SLOAD PUSH1 0x40 DUP1 MLOAD PUSH4 0x7E271F05 PUSH1 0xE1 SHL DUP2 MSTORE CALLER PUSH1 0x4 DUP3 ADD MSTORE SWAP1 MLOAD PUSH1 0x1 PUSH1 0x1 PUSH1 0xA0 SHL SUB SWAP1 SWAP3 AND SWAP2 PUSH4 0xFC4E3E0A SWAP2 PUSH1 0x24 DUP1 DUP3 ADD SWAP3 PUSH1 0x20 SWAP3 SWAP1 SWAP2 SWAP1 DUP3 SWAP1 SUB ADD DUP2 DUP7 DUP1 EXTCODESIZE ISZERO DUP1 ISZERO PUSH2 0x6B5 JUMPI PUSH1 0x0 DUP1 REVERT JUMPDEST POP GAS STATICCALL ISZERO DUP1 ISZERO PUSH2 0x6C9 JUMPI RETURNDATASIZE PUSH1 0x0 DUP1 RETURNDATACOPY RETURNDATASIZE PUSH1 0x0 REVERT JUMPDEST POP POP POP POP PUSH1 0x40 MLOAD RETURNDATASIZE PUSH1 0x20 DUP2 LT ISZERO PUSH2 0x6DF JUMPI PUSH1 0x0 DUP1 REVERT JUMPDEST POP MLOAD PUSH2 0x71C JUMPI PUSH1 0x40 MLOAD PUSH3 0x461BCD PUSH1 0xE5 SHL DUP2 MSTORE PUSH1 0x4 ADD DUP1 DUP1 PUSH1 0x20 ADD DUP3 DUP2 SUB DUP3 MSTORE PUSH1 0x3B DUP2 MSTORE PUSH1 0x20 ADD DUP1 PUSH2 0x7E1 PUSH1 0x3B SWAP2 CODECOPY PUSH1 0x40 ADD SWAP2 POP POP PUSH1 0x40 MLOAD DUP1 SWAP2 SUB SWAP1 REVERT JUMPDEST PUSH1 0x4 DUP1 SLOAD PUSH1 0x1 ADD DUP1 DUP3 SSTORE PUSH1 0x0 SWAP1 DUP2 MSTORE PUSH1 0x5 PUSH1 0x20 SWAP1 DUP2 MSTORE PUSH1 0x40 SWAP2 DUP3 SWAP1 KECCAK256 DUP1 SLOAD PUSH1 0x1 PUSH1 0x1 PUSH1 0xA0 SHL SUB NOT AND PUSH1 0x1 PUSH1 0x1 PUSH1 0xA0 SHL SUB DUP7 AND SWAP1 DUP2 OR SWAP1 SWAP2 SSTORE SWAP3 SLOAD DUP3 MLOAD SWAP4 DUP5 MSTORE SWAP1 DUP4 ADD MSTORE DUP1 MLOAD PUSH32 0x439CB22D4D440CDDA8508C466333DCA53D6F577C7C91274AC9FEAEC3946A6703 SWAP3 DUP2 SWAP1 SUB SWAP1 SWAP2 ADD SWAP1 LOG1 POP JUMP JUMPDEST PUSH1 0x0 DUP1 DUP3 PUSH1 0x60 SHL SWAP1 POP PUSH1 0x40 MLOAD PUSH20 0x3D602D80600A3D3981F3363D3D373D3D3D363D73 PUSH1 0x60 SHL DUP2 MSTORE DUP2 PUSH1 0x14 DUP3 ADD MSTORE PUSH15 0x5AF43D82803E903D91602B57FD5BF3 PUSH1 0x88 SHL PUSH1 0x28 DUP3 ADD MSTORE PUSH1 0x37 DUP2 PUSH1 0x0 CREATE SWAP5 SWAP4 POP POP POP POP JUMP INVALID 0x4D 0x49 MSTORE8 0x4F SLOAD PUSH16 0x6B656E466163746F72792E6164644573 PUSH4 0x726F7754 PUSH6 0x6D706C617465 GASPRICE KECCAK256 MSTORE8 PUSH6 0x6E646572206D PUSH22 0x7374206265206F70657261746F72A264697066735822 SLT KECCAK256 DELEGATECALL EXTCODEHASH PUSH3 0xD5AA67 GASPRICE CALLVALUE 0x24 PUSH16 0x97399BD0BE1EFD2C8037516E4133CCCE EXTCODECOPY 0xF 0xF6 JUMPI 0xD9 0x2A PUSH5 0x736F6C6343 STOP MOD 0xC STOP CALLER ",
  "sha1": "bbd0bee4ca7aa062f29d61c30703737e3bdf3477",
  "source": "pragma solidity ^0.6.9;\n\n// GP: Token escrow, lock up tokens for a period of time\nimport \"./Utils/CloneFactory.sol\";\nimport \"./Utils/Owned.sol\";\nimport \"./Access/MISOAccessControls.sol\";\n\ncontract MISOFermenter is Owned, CloneFactory{\n    /// @notice Responsible for access rights to the contract\n    MISOAccessControls public accessControls;\n\n    bool private initialised; \n    struct Fermenter{\n        bool exists;\n        uint256 templateId;\n        uint256 index;\n    }\n\n    /// @notice Escrows created using the factory\n    address[] public escrows;\n\n    /// @notice Template id to track respective escrow template\n    uint256 public escrowTemplateId;\n    \n    /// @notice mapping from template id to escrow template address\n    mapping(uint256 => address) private escrowTemplates;\n\n    /// @notice mapping from escrow address to struct Fermenter\n    mapping(address => Fermenter) public isChildEscrow;\n    \n    /// @notice event emitted when first initializing MISO fermenter\n    event MisoInitFermenter(address sender);\n\n    /// @notice event emitted when escrow template added\n    event EscrowTemplateAdded(address newTemplate, uint256 templateId);\n\n    /// @notice event emitted when escrow template is removed\n    event EscrowTemplateRemoved(address template, uint256 templateId);\n\n    /// @notice event emitted when escrow is created\n    event EscrowCreated(address indexed owner, address indexed addr,address escrowTemplate);\n\n\n     /**\n     * @dev Single gateway to initialize the MISO Market with proper address\n     * @dev Can only be initialized once\n     */\n    function _initMISOFermenter(address _accessControls) external {\n        require(!initialised);\n        initialised = true;\n        accessControls = MISOAccessControls(_accessControls);\n        emit MisoInitFermenter(msg.sender);\n    }\n\n\n    /**\n     * @dev Creates a new escrow corresponding to template Id\n     */\n    function createEscrow(uint256 _templateId) external returns (address newEscrow){\n        require(escrowTemplates[_templateId]!= address(0));\n        newEscrow = createClone(escrowTemplates[_templateId]);\n        isChildEscrow[address(newEscrow)] = Fermenter(true,_templateId,escrows.length-1);\n        escrows.push(newEscrow);\n        emit EscrowCreated(msg.sender,address(newEscrow),escrowTemplates[_templateId]);\n    }\n\n\n     /**\n     * @dev Function to add a escrow template to create through factory\n     * @dev Should have operator access\n     * @param _escrowTemplate Escrow template to create a token\n    */\n    function addEscrowTemplate(address _escrowTemplate) external onlyOwner{\n         require(\n            accessControls.hasOperatorRole(msg.sender),\n            \"MISOTokenFactory.addEscrowTemplate: Sender must be operator\"\n        );\n        escrowTemplateId++;\n        escrowTemplates[escrowTemplateId] = _escrowTemplate;\n        emit EscrowTemplateAdded(_escrowTemplate, escrowTemplateId);\n    }\n\n    /**\n     * @dev Function to remove a escrow template\n     * @dev Should have operator access\n     * @param _templateId Refers to template that is to be deleted\n    */\n    function removeEscrowTemplate(uint256 _templateId) external {\n        require(escrowTemplates[_templateId] != address(0));\n        address template = escrowTemplates[_templateId];\n        escrowTemplates[_templateId] = address(0);\n        emit EscrowTemplateRemoved(template, _templateId);\n    }\n\n    /// @dev Get the address of the escrow template\n    function getEscrowTemplate(uint256 _templateId) public view returns (address escrowTemplate) {\n        return escrowTemplates[_templateId];\n    }\n    \n    /// @dev Get the total number of escrows in the factory\n    function numberOfTokens() public view returns (uint256) {\n        return escrows.length;\n    }\n\n    function getTemplateId(address _escrowTemplate) public view returns (uint256 templateId) {}\n\n\n}\n",
  "sourcePath": "contracts/MISOFermenter.sol",
  "type": "contract"
}