{
  "abi": [
    {
      "inputs": [],
      "stateMutability": "nonpayable",
      "type": "constructor"
    },
    {
      "anonymous": false,
      "inputs": [
        {
          "indexed": true,
          "internalType": "address",
          "name": "owner",
          "type": "address"
        },
        {
          "indexed": true,
          "internalType": "address",
          "name": "addr",
          "type": "address"
        },
        {
          "indexed": false,
          "internalType": "address",
          "name": "auctionTemplate",
          "type": "address"
        }
      ],
      "name": "AuctionCreated",
      "type": "event"
    },
    {
      "anonymous": false,
      "inputs": [
        {
          "indexed": false,
          "internalType": "address",
          "name": "newAuction",
          "type": "address"
        },
        {
          "indexed": false,
          "internalType": "uint256",
          "name": "templateId",
          "type": "uint256"
        }
      ],
      "name": "AuctionTemplateAdded",
      "type": "event"
    },
    {
      "anonymous": false,
      "inputs": [
        {
          "indexed": false,
          "internalType": "address",
          "name": "auction",
          "type": "address"
        },
        {
          "indexed": false,
          "internalType": "uint256",
          "name": "templateId",
          "type": "uint256"
        }
      ],
      "name": "AuctionTemplateRemoved",
      "type": "event"
    },
    {
      "anonymous": false,
      "inputs": [
        {
          "indexed": false,
          "internalType": "address",
          "name": "sender",
          "type": "address"
        }
      ],
      "name": "MisoInitMarket",
      "type": "event"
    },
    {
      "inputs": [],
      "name": "accessControls",
      "outputs": [
        {
          "internalType": "contract MISOAccessControls",
          "name": "",
          "type": "address"
        }
      ],
      "stateMutability": "view",
      "type": "function"
    },
    {
      "inputs": [
        {
          "internalType": "address",
          "name": "_template",
          "type": "address"
        }
      ],
      "name": "addAuctionTemplate",
      "outputs": [],
      "stateMutability": "nonpayable",
      "type": "function"
    },
    {
      "inputs": [
        {
          "internalType": "address",
          "name": "",
          "type": "address"
        }
      ],
      "name": "auctionInfo",
      "outputs": [
        {
          "internalType": "bool",
          "name": "exists",
          "type": "bool"
        },
        {
          "internalType": "uint256",
          "name": "templateId",
          "type": "uint256"
        },
        {
          "internalType": "uint256",
          "name": "index",
          "type": "uint256"
        }
      ],
      "stateMutability": "view",
      "type": "function"
    },
    {
      "inputs": [],
      "name": "auctionTemplateId",
      "outputs": [
        {
          "internalType": "uint256",
          "name": "",
          "type": "uint256"
        }
      ],
      "stateMutability": "view",
      "type": "function"
    },
    {
      "inputs": [
        {
          "internalType": "uint256",
          "name": "",
          "type": "uint256"
        }
      ],
      "name": "auctions",
      "outputs": [
        {
          "internalType": "address",
          "name": "",
          "type": "address"
        }
      ],
      "stateMutability": "view",
      "type": "function"
    },
    {
      "inputs": [
        {
          "internalType": "address",
          "name": "_token",
          "type": "address"
        },
        {
          "internalType": "uint256",
          "name": "_tokenSupply",
          "type": "uint256"
        },
        {
          "internalType": "uint256",
          "name": "_startDate",
          "type": "uint256"
        },
        {
          "internalType": "uint256",
          "name": "_endDate",
          "type": "uint256"
        },
        {
          "internalType": "address",
          "name": "_paymentCurrency",
          "type": "address"
        },
        {
          "internalType": "uint256",
          "name": "_startPrice",
          "type": "uint256"
        },
        {
          "internalType": "uint256",
          "name": "_minimumPrice",
          "type": "uint256"
        },
        {
          "internalType": "address payable",
          "name": "_wallet",
          "type": "address"
        },
        {
          "internalType": "uint256",
          "name": "_templateId",
          "type": "uint256"
        }
      ],
      "name": "createAuction",
      "outputs": [
        {
          "internalType": "address",
          "name": "newAuction",
          "type": "address"
        }
      ],
      "stateMutability": "nonpayable",
      "type": "function"
    },
    {
      "inputs": [
        {
          "internalType": "address",
          "name": "_token",
          "type": "address"
        },
        {
          "internalType": "uint256",
          "name": "_tokenSupply",
          "type": "uint256"
        },
        {
          "internalType": "address",
          "name": "_paymentCurrency",
          "type": "address"
        },
        {
          "internalType": "uint256",
          "name": "_startDate",
          "type": "uint256"
        },
        {
          "internalType": "uint256",
          "name": "_endDate",
          "type": "uint256"
        },
        {
          "internalType": "uint256",
          "name": "_rate",
          "type": "uint256"
        },
        {
          "internalType": "uint256",
          "name": "_goal",
          "type": "uint256"
        },
        {
          "internalType": "address payable",
          "name": "_wallet",
          "type": "address"
        },
        {
          "internalType": "uint256",
          "name": "_templateId",
          "type": "uint256"
        }
      ],
      "name": "createCrowdsale",
      "outputs": [
        {
          "internalType": "address",
          "name": "newCrowdsale",
          "type": "address"
        }
      ],
      "stateMutability": "nonpayable",
      "type": "function"
    },
    {
      "inputs": [
        {
          "internalType": "uint256",
          "name": "_templateId",
          "type": "uint256"
        }
      ],
      "name": "getAuctionTemplate",
      "outputs": [
        {
          "internalType": "address",
          "name": "tokenTemplate",
          "type": "address"
        }
      ],
      "stateMutability": "view",
      "type": "function"
    },
    {
      "inputs": [
        {
          "internalType": "address",
          "name": "_auctionTemplate",
          "type": "address"
        }
      ],
      "name": "getTemplateId",
      "outputs": [
        {
          "internalType": "uint256",
          "name": "",
          "type": "uint256"
        }
      ],
      "stateMutability": "view",
      "type": "function"
    },
    {
      "inputs": [
        {
          "internalType": "address",
          "name": "_accessControls",
          "type": "address"
        },
        {
          "internalType": "address[]",
          "name": "_templates",
          "type": "address[]"
        }
      ],
      "name": "initMISOMarket",
      "outputs": [],
      "stateMutability": "nonpayable",
      "type": "function"
    },
    {
      "inputs": [],
      "name": "numberOfAuctions",
      "outputs": [
        {
          "internalType": "uint256",
          "name": "",
          "type": "uint256"
        }
      ],
      "stateMutability": "view",
      "type": "function"
    },
    {
      "inputs": [
        {
          "internalType": "uint256",
          "name": "_templateId",
          "type": "uint256"
        }
      ],
      "name": "removeAuctionTemplate",
      "outputs": [],
      "stateMutability": "nonpayable",
      "type": "function"
    }
  ],
  "bytecode": "608060405234801561001057600080fd5b50610e03806100206000396000f3fe608060405234801561001057600080fd5b50600436106100b45760003560e01c8063748365ef11610071578063748365ef146101d5578063a5fd7565146101dd578063b9551d1414610205578063bd3ce92b14610222578063bed197c014610280578063d335ebda14610333576100b4565b80630448e51a146100b95780634b939ed7146100ff57806350d9d47214610138578063571a26a0146101525780635a1220411461016f5780636c2eefe1146101cd575b600080fd5b6100df600480360360208110156100cf57600080fd5b50356001600160a01b0316610359565b604080519315158452602084019290925282820152519081900360600190f35b61011c6004803603602081101561011557600080fd5b503561037e565b604080516001600160a01b039092168252519081900360200190f35b610140610399565b60408051918252519081900360200190f35b61011c6004803603602081101561016857600080fd5b503561039f565b61011c600480360361012081101561018657600080fd5b506001600160a01b038135811691602081013591604082013591606081013591608082013581169160a08101359160c08201359160e08101359091169061010001356103c6565b6101406106ae565b61011c6106b4565b610203600480360360208110156101f357600080fd5b50356001600160a01b03166106c3565b005b6102036004803603602081101561021b57600080fd5b50356107d6565b61011c600480360361012081101561023957600080fd5b506001600160a01b038135811691602081013591604082013581169160608101359160808201359160a08101359160c08201359160e081013590911690610100013561091c565b6102036004803603604081101561029657600080fd5b6001600160a01b0382351691908101906040810160208201356401000000008111156102c157600080fd5b8201836020820111156102d357600080fd5b803590602001918460208302840111640100000000831117156102f557600080fd5b919080806020026020016040519081016040528093929190818152602001838360200280828437600092019190915250929550610b8c945050505050565b6101406004803603602081101561034957600080fd5b50356001600160a01b0316610c3c565b60036020526000908152604090208054600182015460029092015460ff909116919083565b6000908152600160205260409020546001600160a01b031690565b60055490565b600581815481106103ac57fe5b6000918252602090912001546001600160a01b0316905081565b6000818152600160205260408120546001600160a01b03166103e757600080fd5b600082815260016020526040902054610408906001600160a01b0316610c57565b604080516060810182526001808252602080830187815260058054600019018587019081526001600160a01b038881166000818152600387528981209851895460ff19169015151789559451888801559151600290970196909655815494850182559082527f036b6384b5eca791c62761152d0c79bb0604c104a5fb6f4eb0703f3154bb3db090930180546001600160a01b03191690931790925583516323b872dd60e01b8152336004820152306024820152604481018f90529351949550918e16936323b872dd9360648082019493918390030190829087803b1580156104ef57600080fd5b505af1158015610503573d6000803e3d6000fd5b505050506040513d602081101561051957600080fd5b505161052457600080fd5b896001600160a01b031663095ea7b3828b6040518363ffffffff1660e01b815260040180836001600160a01b0316815260200182815260200192505050602060405180830381600087803b15801561057b57600080fd5b505af115801561058f573d6000803e3d6000fd5b505050506040513d60208110156105a557600080fd5b50516105b057600080fd5b60408051634ce5505f60e01b81523060048201526001600160a01b038c81166024830152604482018c9052606482018b9052608482018a905288811660a483015260c4820188905260e48201879052858116610104830152915191831691634ce5505f916101248082019260009290919082900301818387803b15801561063657600080fd5b505af115801561064a573d6000803e3d6000fd5b5050506000838152600160209081526040918290205482516001600160a01b0391821681529251908516935033927f0e87f8cafb4bf66469b7827472c74c529bcb902261be5cd36e4b3dfcbc4ed07f92908290030190a39998505050505050505050565b60045481565b6000546001600160a01b031681565b60005460408051637e271f0560e11b815233600482015290516001600160a01b039092169163fc4e3e0a91602480820192602092909190829003018186803b15801561070e57600080fd5b505afa158015610722573d6000803e3d6000fd5b505050506040513d602081101561073857600080fd5b50516107755760405162461bcd60e51b8152600401808060200182810382526036815260200180610d296036913960400191505060405180910390fd5b6001600160a01b038116600090815260026020526040902054156107ca5760405162461bcd60e51b8152600401808060200182810382526036815260200180610d986036913960400191505060405180910390fd5b6107d381610ca9565b50565b60005460408051637e271f0560e11b815233600482015290516001600160a01b039092169163fc4e3e0a91602480820192602092909190829003018186803b15801561082157600080fd5b505afa158015610835573d6000803e3d6000fd5b505050506040513d602081101561084b57600080fd5b50516108885760405162461bcd60e51b8152600401808060200182810382526039815260200180610d5f6039913960400191505060405180910390fd5b6000818152600160205260409020546001600160a01b03166108a957600080fd5b600081815260016020908152604080832080546001600160a01b031981169091556001600160a01b03168084526002835281842093909355805183815291820184905280517f9e451d330e5bb7320c38b55046b66305a869486110a27e84e383b9b2a329875b9281900390910190a15050565b6000818152600160205260408120546001600160a01b031661093d57600080fd5b60008281526001602052604090205461095e906001600160a01b0316610c57565b604080516060810182526001808252602080830187815260058054600019018587019081526001600160a01b038881166000818152600387528981209851895460ff19169015151789559451888801559151600290970196909655815494850182559082527f036b6384b5eca791c62761152d0c79bb0604c104a5fb6f4eb0703f3154bb3db090930180546001600160a01b03191690931790925583516323b872dd60e01b8152336004820152306024820152604481018f90529351949550918e16936323b872dd9360648082019493918390030190829087803b158015610a4557600080fd5b505af1158015610a59573d6000803e3d6000fd5b505050506040513d6020811015610a6f57600080fd5b5051610a7a57600080fd5b896001600160a01b031663095ea7b3828b6040518363ffffffff1660e01b815260040180836001600160a01b0316815260200182815260200192505050602060405180830381600087803b158015610ad157600080fd5b505af1158015610ae5573d6000803e3d6000fd5b505050506040513d6020811015610afb57600080fd5b5051610b0657600080fd5b6040805163c439848f60e01b81523060048201526001600160a01b038c811660248301528a81166044830152606482018c9052608482018a905260a4820189905260c4820188905260e4820187905285811661010483015291519183169163c439848f916101248082019260009290919082900301818387803b15801561063657600080fd5b600054600160a01b900460ff1615610ba357600080fd5b600080546001600160a01b0319166001600160a01b03841617815560048190555b8151811015610bf157610be9828281518110610bdc57fe5b6020026020010151610ca9565b600101610bc4565b506000805460ff60a01b1916600160a01b1790556040805133815290517f9728848f268715c9f5810670481aba9b347f34c21407e902d679356b7617b6b29181900360200190a15050565b6001600160a01b031660009081526002602052604090205490565b6000808260601b9050604051733d602d80600a3d3981f3363d3d373d3d3d363d7360601b81528160148201526e5af43d82803e903d91602b57fd5bf360881b60288201526037816000f0949350505050565b60048054600190810180835560009081526020918252604080822080546001600160a01b0319166001600160a01b0387169081179091559354848352600284529181902082905580519384529183015280517f893e8595c407d2a22d29ff3ba939d15ec3966113ce988bd39c68e4b0035040079281900390910190a15056fe4d49534f4d61726b65742e61646441756374696f6e54656d706c6174653a2053656e646572206d757374206265206f70657261746f724d49534f4d61726b65742e72656d6f766541756374696f6e54656d706c6174653a2053656e646572206d757374206265206f70657261746f724d49534f4d61726b65742e61646441756374696f6e54656d706c6174653a2054656d706c61746520616c726561647920657869737473a2646970667358221220255a3762817b58371c7285491057256a35c05d5b37fdac2489a07fa2cf32ee5064736f6c634300060c0033",
  "bytecodeSha1": "e5738afc5616e96ee1fa65c34c307ad1ac4c923a",
  "compiler": {
    "evm_version": "istanbul",
    "optimizer": {
      "enabled": true,
      "runs": 200
    },
    "version": "0.6.12+commit.27d51765"
  },
  "contractName": "MISOMarket",
  "language": "Solidity",
  "natspec": {
    "kind": "dev",
    "methods": {
      "accessControls()": {
        "notice": "Responsible for access rights to the contract"
      },
      "addAuctionTemplate(address)": {
        "details": "Function to add a action template to create through factoryShould have operator access",
        "params": {
          "_template": "Auction template to create a auction"
        }
      },
      "auctionInfo(address)": {
        "notice": "mapping from auction created through this contract to Auction struct"
      },
      "auctionTemplateId()": {
        "notice": "Template id to track respective auction template"
      },
      "auctions(uint256)": {
        "notice": "Auctions created using factory"
      },
      "createAuction(address,uint256,uint256,uint256,address,uint256,uint256,address,uint256)": {
        "details": "Creates a Auction cooresponding to _templateIdInitializes auction with the parameters passed",
        "params": {
          "_endDate": "End date for the auction",
          "_minimumPrice": "Minimum price that the token should be valued for successful Auction",
          "_paymentCurrency": "The currency the Auction accepts for payment. Can be ETH or token address",
          "_startDate": "Start date for the auction",
          "_startPrice": "Price you want to start auction. This should be maximum price you want token to be valued at",
          "_templateId": "Id of the auction template to create",
          "_token": "Address of token to be auctioned",
          "_tokenSupply": "Total number of tokens to be auctioned",
          "_wallet": "Address where collected funds will be forwarded to"
        }
      },
      "createCrowdsale(address,uint256,address,uint256,uint256,uint256,uint256,address,uint256)": {
        "details": "Creates a Crowdsale corresponding to _templateIdInitializes Crowdsale with the parameter passed",
        "params": {
          "_endDate": "Crowdsale end date",
          "_goal": "Minimum amount of funds to be raised in weis or tokens",
          "_paymentCurrency": "The currency the crowdsale accepts for payment. Can be ETH or token address",
          "_rate": "Number of token units a buyer gets per wei or token",
          "_startDate": "Crowdsale start date",
          "_templateId": "Id of the crowdsale template to create",
          "_token": "Address of the token for crowdsale",
          "_tokenSupply": "The total number of tokens to sell in crowdsale ",
          "_wallet": "Address where collected funds will be forwarded to"
        }
      },
      "getAuctionTemplate(uint256)": {
        "details": "Get the address of the auction template"
      },
      "getTemplateId(address)": {
        "details": "Get the template id of the auction template"
      },
      "initMISOMarket(address,address[])": {
        "details": "Single gateway to initialize the MISO Market with proper addressCan only be initialized once",
        "params": {
          "_templates": "Initial array of templates that the Market can use"
        }
      },
      "numberOfAuctions()": {
        "details": "Get total number of auctions in the factory"
      },
      "removeAuctionTemplate(uint256)": {
        "details": "Function to remove a Launcher templateShould have operator access",
        "params": {
          "_templateId": "Refers to template that is to be deleted"
        }
      }
    },
    "version": 1
  },
  "opcodes": "PUSH1 0x80 PUSH1 0x40 MSTORE CALLVALUE DUP1 ISZERO PUSH2 0x10 JUMPI PUSH1 0x0 DUP1 REVERT JUMPDEST POP PUSH1 0x4 CALLDATASIZE LT PUSH2 0xB4 JUMPI PUSH1 0x0 CALLDATALOAD PUSH1 0xE0 SHR DUP1 PUSH4 0x748365EF GT PUSH2 0x71 JUMPI DUP1 PUSH4 0x748365EF EQ PUSH2 0x1D5 JUMPI DUP1 PUSH4 0xA5FD7565 EQ PUSH2 0x1DD JUMPI DUP1 PUSH4 0xB9551D14 EQ PUSH2 0x205 JUMPI DUP1 PUSH4 0xBD3CE92B EQ PUSH2 0x222 JUMPI DUP1 PUSH4 0xBED197C0 EQ PUSH2 0x280 JUMPI DUP1 PUSH4 0xD335EBDA EQ PUSH2 0x333 JUMPI PUSH2 0xB4 JUMP JUMPDEST DUP1 PUSH4 0x448E51A EQ PUSH2 0xB9 JUMPI DUP1 PUSH4 0x4B939ED7 EQ PUSH2 0xFF JUMPI DUP1 PUSH4 0x50D9D472 EQ PUSH2 0x138 JUMPI DUP1 PUSH4 0x571A26A0 EQ PUSH2 0x152 JUMPI DUP1 PUSH4 0x5A122041 EQ PUSH2 0x16F JUMPI DUP1 PUSH4 0x6C2EEFE1 EQ PUSH2 0x1CD JUMPI JUMPDEST PUSH1 0x0 DUP1 REVERT JUMPDEST PUSH2 0xDF PUSH1 0x4 DUP1 CALLDATASIZE SUB PUSH1 0x20 DUP2 LT ISZERO PUSH2 0xCF JUMPI PUSH1 0x0 DUP1 REVERT JUMPDEST POP CALLDATALOAD PUSH1 0x1 PUSH1 0x1 PUSH1 0xA0 SHL SUB AND PUSH2 0x359 JUMP JUMPDEST PUSH1 0x40 DUP1 MLOAD SWAP4 ISZERO ISZERO DUP5 MSTORE PUSH1 0x20 DUP5 ADD SWAP3 SWAP1 SWAP3 MSTORE DUP3 DUP3 ADD MSTORE MLOAD SWAP1 DUP2 SWAP1 SUB PUSH1 0x60 ADD SWAP1 RETURN JUMPDEST PUSH2 0x11C PUSH1 0x4 DUP1 CALLDATASIZE SUB PUSH1 0x20 DUP2 LT ISZERO PUSH2 0x115 JUMPI PUSH1 0x0 DUP1 REVERT JUMPDEST POP CALLDATALOAD PUSH2 0x37E JUMP JUMPDEST PUSH1 0x40 DUP1 MLOAD PUSH1 0x1 PUSH1 0x1 PUSH1 0xA0 SHL SUB SWAP1 SWAP3 AND DUP3 MSTORE MLOAD SWAP1 DUP2 SWAP1 SUB PUSH1 0x20 ADD SWAP1 RETURN JUMPDEST PUSH2 0x140 PUSH2 0x399 JUMP JUMPDEST PUSH1 0x40 DUP1 MLOAD SWAP2 DUP3 MSTORE MLOAD SWAP1 DUP2 SWAP1 SUB PUSH1 0x20 ADD SWAP1 RETURN JUMPDEST PUSH2 0x11C PUSH1 0x4 DUP1 CALLDATASIZE SUB PUSH1 0x20 DUP2 LT ISZERO PUSH2 0x168 JUMPI PUSH1 0x0 DUP1 REVERT JUMPDEST POP CALLDATALOAD PUSH2 0x39F JUMP JUMPDEST PUSH2 0x11C PUSH1 0x4 DUP1 CALLDATASIZE SUB PUSH2 0x120 DUP2 LT ISZERO PUSH2 0x186 JUMPI PUSH1 0x0 DUP1 REVERT JUMPDEST POP PUSH1 0x1 PUSH1 0x1 PUSH1 0xA0 SHL SUB DUP2 CALLDATALOAD DUP2 AND SWAP2 PUSH1 0x20 DUP2 ADD CALLDATALOAD SWAP2 PUSH1 0x40 DUP3 ADD CALLDATALOAD SWAP2 PUSH1 0x60 DUP2 ADD CALLDATALOAD SWAP2 PUSH1 0x80 DUP3 ADD CALLDATALOAD DUP2 AND SWAP2 PUSH1 0xA0 DUP2 ADD CALLDATALOAD SWAP2 PUSH1 0xC0 DUP3 ADD CALLDATALOAD SWAP2 PUSH1 0xE0 DUP2 ADD CALLDATALOAD SWAP1 SWAP2 AND SWAP1 PUSH2 0x100 ADD CALLDATALOAD PUSH2 0x3C6 JUMP JUMPDEST PUSH2 0x140 PUSH2 0x6AE JUMP JUMPDEST PUSH2 0x11C PUSH2 0x6B4 JUMP JUMPDEST PUSH2 0x203 PUSH1 0x4 DUP1 CALLDATASIZE SUB PUSH1 0x20 DUP2 LT ISZERO PUSH2 0x1F3 JUMPI PUSH1 0x0 DUP1 REVERT JUMPDEST POP CALLDATALOAD PUSH1 0x1 PUSH1 0x1 PUSH1 0xA0 SHL SUB AND PUSH2 0x6C3 JUMP JUMPDEST STOP JUMPDEST PUSH2 0x203 PUSH1 0x4 DUP1 CALLDATASIZE SUB PUSH1 0x20 DUP2 LT ISZERO PUSH2 0x21B JUMPI PUSH1 0x0 DUP1 REVERT JUMPDEST POP CALLDATALOAD PUSH2 0x7D6 JUMP JUMPDEST PUSH2 0x11C PUSH1 0x4 DUP1 CALLDATASIZE SUB PUSH2 0x120 DUP2 LT ISZERO PUSH2 0x239 JUMPI PUSH1 0x0 DUP1 REVERT JUMPDEST POP PUSH1 0x1 PUSH1 0x1 PUSH1 0xA0 SHL SUB DUP2 CALLDATALOAD DUP2 AND SWAP2 PUSH1 0x20 DUP2 ADD CALLDATALOAD SWAP2 PUSH1 0x40 DUP3 ADD CALLDATALOAD DUP2 AND SWAP2 PUSH1 0x60 DUP2 ADD CALLDATALOAD SWAP2 PUSH1 0x80 DUP3 ADD CALLDATALOAD SWAP2 PUSH1 0xA0 DUP2 ADD CALLDATALOAD SWAP2 PUSH1 0xC0 DUP3 ADD CALLDATALOAD SWAP2 PUSH1 0xE0 DUP2 ADD CALLDATALOAD SWAP1 SWAP2 AND SWAP1 PUSH2 0x100 ADD CALLDATALOAD PUSH2 0x91C JUMP JUMPDEST PUSH2 0x203 PUSH1 0x4 DUP1 CALLDATASIZE SUB PUSH1 0x40 DUP2 LT ISZERO PUSH2 0x296 JUMPI PUSH1 0x0 DUP1 REVERT JUMPDEST PUSH1 0x1 PUSH1 0x1 PUSH1 0xA0 SHL SUB DUP3 CALLDATALOAD AND SWAP2 SWAP1 DUP2 ADD SWAP1 PUSH1 0x40 DUP2 ADD PUSH1 0x20 DUP3 ADD CALLDATALOAD PUSH5 0x100000000 DUP2 GT ISZERO PUSH2 0x2C1 JUMPI PUSH1 0x0 DUP1 REVERT JUMPDEST DUP3 ADD DUP4 PUSH1 0x20 DUP3 ADD GT ISZERO PUSH2 0x2D3 JUMPI PUSH1 0x0 DUP1 REVERT JUMPDEST DUP1 CALLDATALOAD SWAP1 PUSH1 0x20 ADD SWAP2 DUP5 PUSH1 0x20 DUP4 MUL DUP5 ADD GT PUSH5 0x100000000 DUP4 GT OR ISZERO PUSH2 0x2F5 JUMPI PUSH1 0x0 DUP1 REVERT JUMPDEST SWAP2 SWAP1 DUP1 DUP1 PUSH1 0x20 MUL PUSH1 0x20 ADD PUSH1 0x40 MLOAD SWAP1 DUP2 ADD PUSH1 0x40 MSTORE DUP1 SWAP4 SWAP3 SWAP2 SWAP1 DUP2 DUP2 MSTORE PUSH1 0x20 ADD DUP4 DUP4 PUSH1 0x20 MUL DUP1 DUP3 DUP5 CALLDATACOPY PUSH1 0x0 SWAP3 ADD SWAP2 SWAP1 SWAP2 MSTORE POP SWAP3 SWAP6 POP PUSH2 0xB8C SWAP5 POP POP POP POP POP JUMP JUMPDEST PUSH2 0x140 PUSH1 0x4 DUP1 CALLDATASIZE SUB PUSH1 0x20 DUP2 LT ISZERO PUSH2 0x349 JUMPI PUSH1 0x0 DUP1 REVERT JUMPDEST POP CALLDATALOAD PUSH1 0x1 PUSH1 0x1 PUSH1 0xA0 SHL SUB AND PUSH2 0xC3C JUMP JUMPDEST PUSH1 0x3 PUSH1 0x20 MSTORE PUSH1 0x0 SWAP1 DUP2 MSTORE PUSH1 0x40 SWAP1 KECCAK256 DUP1 SLOAD PUSH1 0x1 DUP3 ADD SLOAD PUSH1 0x2 SWAP1 SWAP3 ADD SLOAD PUSH1 0xFF SWAP1 SWAP2 AND SWAP2 SWAP1 DUP4 JUMP JUMPDEST PUSH1 0x0 SWAP1 DUP2 MSTORE PUSH1 0x1 PUSH1 0x20 MSTORE PUSH1 0x40 SWAP1 KECCAK256 SLOAD PUSH1 0x1 PUSH1 0x1 PUSH1 0xA0 SHL SUB AND SWAP1 JUMP JUMPDEST PUSH1 0x5 SLOAD SWAP1 JUMP JUMPDEST PUSH1 0x5 DUP2 DUP2 SLOAD DUP2 LT PUSH2 0x3AC JUMPI INVALID JUMPDEST PUSH1 0x0 SWAP2 DUP3 MSTORE PUSH1 0x20 SWAP1 SWAP2 KECCAK256 ADD SLOAD PUSH1 0x1 PUSH1 0x1 PUSH1 0xA0 SHL SUB AND SWAP1 POP DUP2 JUMP JUMPDEST PUSH1 0x0 DUP2 DUP2 MSTORE PUSH1 0x1 PUSH1 0x20 MSTORE PUSH1 0x40 DUP2 KECCAK256 SLOAD PUSH1 0x1 PUSH1 0x1 PUSH1 0xA0 SHL SUB AND PUSH2 0x3E7 JUMPI PUSH1 0x0 DUP1 REVERT JUMPDEST PUSH1 0x0 DUP3 DUP2 MSTORE PUSH1 0x1 PUSH1 0x20 MSTORE PUSH1 0x40 SWAP1 KECCAK256 SLOAD PUSH2 0x408 SWAP1 PUSH1 0x1 PUSH1 0x1 PUSH1 0xA0 SHL SUB AND PUSH2 0xC57 JUMP JUMPDEST PUSH1 0x40 DUP1 MLOAD PUSH1 0x60 DUP2 ADD DUP3 MSTORE PUSH1 0x1 DUP1 DUP3 MSTORE PUSH1 0x20 DUP1 DUP4 ADD DUP8 DUP2 MSTORE PUSH1 0x5 DUP1 SLOAD PUSH1 0x0 NOT ADD DUP6 DUP8 ADD SWAP1 DUP2 MSTORE PUSH1 0x1 PUSH1 0x1 PUSH1 0xA0 SHL SUB DUP9 DUP2 AND PUSH1 0x0 DUP2 DUP2 MSTORE PUSH1 0x3 DUP8 MSTORE DUP10 DUP2 KECCAK256 SWAP9 MLOAD DUP10 SLOAD PUSH1 0xFF NOT AND SWAP1 ISZERO ISZERO OR DUP10 SSTORE SWAP5 MLOAD DUP9 DUP9 ADD SSTORE SWAP2 MLOAD PUSH1 0x2 SWAP1 SWAP8 ADD SWAP7 SWAP1 SWAP7 SSTORE DUP2 SLOAD SWAP5 DUP6 ADD DUP3 SSTORE SWAP1 DUP3 MSTORE PUSH32 0x36B6384B5ECA791C62761152D0C79BB0604C104A5FB6F4EB0703F3154BB3DB0 SWAP1 SWAP4 ADD DUP1 SLOAD PUSH1 0x1 PUSH1 0x1 PUSH1 0xA0 SHL SUB NOT AND SWAP1 SWAP4 OR SWAP1 SWAP3 SSTORE DUP4 MLOAD PUSH4 0x23B872DD PUSH1 0xE0 SHL DUP2 MSTORE CALLER PUSH1 0x4 DUP3 ADD MSTORE ADDRESS PUSH1 0x24 DUP3 ADD MSTORE PUSH1 0x44 DUP2 ADD DUP16 SWAP1 MSTORE SWAP4 MLOAD SWAP5 SWAP6 POP SWAP2 DUP15 AND SWAP4 PUSH4 0x23B872DD SWAP4 PUSH1 0x64 DUP1 DUP3 ADD SWAP5 SWAP4 SWAP2 DUP4 SWAP1 SUB ADD SWAP1 DUP3 SWAP1 DUP8 DUP1 EXTCODESIZE ISZERO DUP1 ISZERO PUSH2 0x4EF JUMPI PUSH1 0x0 DUP1 REVERT JUMPDEST POP GAS CALL ISZERO DUP1 ISZERO PUSH2 0x503 JUMPI RETURNDATASIZE PUSH1 0x0 DUP1 RETURNDATACOPY RETURNDATASIZE PUSH1 0x0 REVERT JUMPDEST POP POP POP POP PUSH1 0x40 MLOAD RETURNDATASIZE PUSH1 0x20 DUP2 LT ISZERO PUSH2 0x519 JUMPI PUSH1 0x0 DUP1 REVERT JUMPDEST POP MLOAD PUSH2 0x524 JUMPI PUSH1 0x0 DUP1 REVERT JUMPDEST DUP10 PUSH1 0x1 PUSH1 0x1 PUSH1 0xA0 SHL SUB AND PUSH4 0x95EA7B3 DUP3 DUP12 PUSH1 0x40 MLOAD DUP4 PUSH4 0xFFFFFFFF AND PUSH1 0xE0 SHL DUP2 MSTORE PUSH1 0x4 ADD DUP1 DUP4 PUSH1 0x1 PUSH1 0x1 PUSH1 0xA0 SHL SUB AND DUP2 MSTORE PUSH1 0x20 ADD DUP3 DUP2 MSTORE PUSH1 0x20 ADD SWAP3 POP POP POP PUSH1 0x20 PUSH1 0x40 MLOAD DUP1 DUP4 SUB DUP2 PUSH1 0x0 DUP8 DUP1 EXTCODESIZE ISZERO DUP1 ISZERO PUSH2 0x57B JUMPI PUSH1 0x0 DUP1 REVERT JUMPDEST POP GAS CALL ISZERO DUP1 ISZERO PUSH2 0x58F JUMPI RETURNDATASIZE PUSH1 0x0 DUP1 RETURNDATACOPY RETURNDATASIZE PUSH1 0x0 REVERT JUMPDEST POP POP POP POP PUSH1 0x40 MLOAD RETURNDATASIZE PUSH1 0x20 DUP2 LT ISZERO PUSH2 0x5A5 JUMPI PUSH1 0x0 DUP1 REVERT JUMPDEST POP MLOAD PUSH2 0x5B0 JUMPI PUSH1 0x0 DUP1 REVERT JUMPDEST PUSH1 0x40 DUP1 MLOAD PUSH4 0x4CE5505F PUSH1 0xE0 SHL DUP2 MSTORE ADDRESS PUSH1 0x4 DUP3 ADD MSTORE PUSH1 0x1 PUSH1 0x1 PUSH1 0xA0 SHL SUB DUP13 DUP2 AND PUSH1 0x24 DUP4 ADD MSTORE PUSH1 0x44 DUP3 ADD DUP13 SWAP1 MSTORE PUSH1 0x64 DUP3 ADD DUP12 SWAP1 MSTORE PUSH1 0x84 DUP3 ADD DUP11 SWAP1 MSTORE DUP9 DUP2 AND PUSH1 0xA4 DUP4 ADD MSTORE PUSH1 0xC4 DUP3 ADD DUP9 SWAP1 MSTORE PUSH1 0xE4 DUP3 ADD DUP8 SWAP1 MSTORE DUP6 DUP2 AND PUSH2 0x104 DUP4 ADD MSTORE SWAP2 MLOAD SWAP2 DUP4 AND SWAP2 PUSH4 0x4CE5505F SWAP2 PUSH2 0x124 DUP1 DUP3 ADD SWAP3 PUSH1 0x0 SWAP3 SWAP1 SWAP2 SWAP1 DUP3 SWAP1 SUB ADD DUP2 DUP4 DUP8 DUP1 EXTCODESIZE ISZERO DUP1 ISZERO PUSH2 0x636 JUMPI PUSH1 0x0 DUP1 REVERT JUMPDEST POP GAS CALL ISZERO DUP1 ISZERO PUSH2 0x64A JUMPI RETURNDATASIZE PUSH1 0x0 DUP1 RETURNDATACOPY RETURNDATASIZE PUSH1 0x0 REVERT JUMPDEST POP POP POP PUSH1 0x0 DUP4 DUP2 MSTORE PUSH1 0x1 PUSH1 0x20 SWAP1 DUP2 MSTORE PUSH1 0x40 SWAP2 DUP3 SWAP1 KECCAK256 SLOAD DUP3 MLOAD PUSH1 0x1 PUSH1 0x1 PUSH1 0xA0 SHL SUB SWAP2 DUP3 AND DUP2 MSTORE SWAP3 MLOAD SWAP1 DUP6 AND SWAP4 POP CALLER SWAP3 PUSH32 0xE87F8CAFB4BF66469B7827472C74C529BCB902261BE5CD36E4B3DFCBC4ED07F SWAP3 SWAP1 DUP3 SWAP1 SUB ADD SWAP1 LOG3 SWAP10 SWAP9 POP POP POP POP POP POP POP POP POP JUMP JUMPDEST PUSH1 0x4 SLOAD DUP2 JUMP JUMPDEST PUSH1 0x0 SLOAD PUSH1 0x1 PUSH1 0x1 PUSH1 0xA0 SHL SUB AND DUP2 JUMP JUMPDEST PUSH1 0x0 SLOAD PUSH1 0x40 DUP1 MLOAD PUSH4 0x7E271F05 PUSH1 0xE1 SHL DUP2 MSTORE CALLER PUSH1 0x4 DUP3 ADD MSTORE SWAP1 MLOAD PUSH1 0x1 PUSH1 0x1 PUSH1 0xA0 SHL SUB SWAP1 SWAP3 AND SWAP2 PUSH4 0xFC4E3E0A SWAP2 PUSH1 0x24 DUP1 DUP3 ADD SWAP3 PUSH1 0x20 SWAP3 SWAP1 SWAP2 SWAP1 DUP3 SWAP1 SUB ADD DUP2 DUP7 DUP1 EXTCODESIZE ISZERO DUP1 ISZERO PUSH2 0x70E JUMPI PUSH1 0x0 DUP1 REVERT JUMPDEST POP GAS STATICCALL ISZERO DUP1 ISZERO PUSH2 0x722 JUMPI RETURNDATASIZE PUSH1 0x0 DUP1 RETURNDATACOPY RETURNDATASIZE PUSH1 0x0 REVERT JUMPDEST POP POP POP POP PUSH1 0x40 MLOAD RETURNDATASIZE PUSH1 0x20 DUP2 LT ISZERO PUSH2 0x738 JUMPI PUSH1 0x0 DUP1 REVERT JUMPDEST POP MLOAD PUSH2 0x775 JUMPI PUSH1 0x40 MLOAD PUSH3 0x461BCD PUSH1 0xE5 SHL DUP2 MSTORE PUSH1 0x4 ADD DUP1 DUP1 PUSH1 0x20 ADD DUP3 DUP2 SUB DUP3 MSTORE PUSH1 0x36 DUP2 MSTORE PUSH1 0x20 ADD DUP1 PUSH2 0xD29 PUSH1 0x36 SWAP2 CODECOPY PUSH1 0x40 ADD SWAP2 POP POP PUSH1 0x40 MLOAD DUP1 SWAP2 SUB SWAP1 REVERT JUMPDEST PUSH1 0x1 PUSH1 0x1 PUSH1 0xA0 SHL SUB DUP2 AND PUSH1 0x0 SWAP1 DUP2 MSTORE PUSH1 0x2 PUSH1 0x20 MSTORE PUSH1 0x40 SWAP1 KECCAK256 SLOAD ISZERO PUSH2 0x7CA JUMPI PUSH1 0x40 MLOAD PUSH3 0x461BCD PUSH1 0xE5 SHL DUP2 MSTORE PUSH1 0x4 ADD DUP1 DUP1 PUSH1 0x20 ADD DUP3 DUP2 SUB DUP3 MSTORE PUSH1 0x36 DUP2 MSTORE PUSH1 0x20 ADD DUP1 PUSH2 0xD98 PUSH1 0x36 SWAP2 CODECOPY PUSH1 0x40 ADD SWAP2 POP POP PUSH1 0x40 MLOAD DUP1 SWAP2 SUB SWAP1 REVERT JUMPDEST PUSH2 0x7D3 DUP2 PUSH2 0xCA9 JUMP JUMPDEST POP JUMP JUMPDEST PUSH1 0x0 SLOAD PUSH1 0x40 DUP1 MLOAD PUSH4 0x7E271F05 PUSH1 0xE1 SHL DUP2 MSTORE CALLER PUSH1 0x4 DUP3 ADD MSTORE SWAP1 MLOAD PUSH1 0x1 PUSH1 0x1 PUSH1 0xA0 SHL SUB SWAP1 SWAP3 AND SWAP2 PUSH4 0xFC4E3E0A SWAP2 PUSH1 0x24 DUP1 DUP3 ADD SWAP3 PUSH1 0x20 SWAP3 SWAP1 SWAP2 SWAP1 DUP3 SWAP1 SUB ADD DUP2 DUP7 DUP1 EXTCODESIZE ISZERO DUP1 ISZERO PUSH2 0x821 JUMPI PUSH1 0x0 DUP1 REVERT JUMPDEST POP GAS STATICCALL ISZERO DUP1 ISZERO PUSH2 0x835 JUMPI RETURNDATASIZE PUSH1 0x0 DUP1 RETURNDATACOPY RETURNDATASIZE PUSH1 0x0 REVERT JUMPDEST POP POP POP POP PUSH1 0x40 MLOAD RETURNDATASIZE PUSH1 0x20 DUP2 LT ISZERO PUSH2 0x84B JUMPI PUSH1 0x0 DUP1 REVERT JUMPDEST POP MLOAD PUSH2 0x888 JUMPI PUSH1 0x40 MLOAD PUSH3 0x461BCD PUSH1 0xE5 SHL DUP2 MSTORE PUSH1 0x4 ADD DUP1 DUP1 PUSH1 0x20 ADD DUP3 DUP2 SUB DUP3 MSTORE PUSH1 0x39 DUP2 MSTORE PUSH1 0x20 ADD DUP1 PUSH2 0xD5F PUSH1 0x39 SWAP2 CODECOPY PUSH1 0x40 ADD SWAP2 POP POP PUSH1 0x40 MLOAD DUP1 SWAP2 SUB SWAP1 REVERT JUMPDEST PUSH1 0x0 DUP2 DUP2 MSTORE PUSH1 0x1 PUSH1 0x20 MSTORE PUSH1 0x40 SWAP1 KECCAK256 SLOAD PUSH1 0x1 PUSH1 0x1 PUSH1 0xA0 SHL SUB AND PUSH2 0x8A9 JUMPI PUSH1 0x0 DUP1 REVERT JUMPDEST PUSH1 0x0 DUP2 DUP2 MSTORE PUSH1 0x1 PUSH1 0x20 SWAP1 DUP2 MSTORE PUSH1 0x40 DUP1 DUP4 KECCAK256 DUP1 SLOAD PUSH1 0x1 PUSH1 0x1 PUSH1 0xA0 SHL SUB NOT DUP2 AND SWAP1 SWAP2 SSTORE PUSH1 0x1 PUSH1 0x1 PUSH1 0xA0 SHL SUB AND DUP1 DUP5 MSTORE PUSH1 0x2 DUP4 MSTORE DUP2 DUP5 KECCAK256 SWAP4 SWAP1 SWAP4 SSTORE DUP1 MLOAD DUP4 DUP2 MSTORE SWAP2 DUP3 ADD DUP5 SWAP1 MSTORE DUP1 MLOAD PUSH32 0x9E451D330E5BB7320C38B55046B66305A869486110A27E84E383B9B2A329875B SWAP3 DUP2 SWAP1 SUB SWAP1 SWAP2 ADD SWAP1 LOG1 POP POP JUMP JUMPDEST PUSH1 0x0 DUP2 DUP2 MSTORE PUSH1 0x1 PUSH1 0x20 MSTORE PUSH1 0x40 DUP2 KECCAK256 SLOAD PUSH1 0x1 PUSH1 0x1 PUSH1 0xA0 SHL SUB AND PUSH2 0x93D JUMPI PUSH1 0x0 DUP1 REVERT JUMPDEST PUSH1 0x0 DUP3 DUP2 MSTORE PUSH1 0x1 PUSH1 0x20 MSTORE PUSH1 0x40 SWAP1 KECCAK256 SLOAD PUSH2 0x95E SWAP1 PUSH1 0x1 PUSH1 0x1 PUSH1 0xA0 SHL SUB AND PUSH2 0xC57 JUMP JUMPDEST PUSH1 0x40 DUP1 MLOAD PUSH1 0x60 DUP2 ADD DUP3 MSTORE PUSH1 0x1 DUP1 DUP3 MSTORE PUSH1 0x20 DUP1 DUP4 ADD DUP8 DUP2 MSTORE PUSH1 0x5 DUP1 SLOAD PUSH1 0x0 NOT ADD DUP6 DUP8 ADD SWAP1 DUP2 MSTORE PUSH1 0x1 PUSH1 0x1 PUSH1 0xA0 SHL SUB DUP9 DUP2 AND PUSH1 0x0 DUP2 DUP2 MSTORE PUSH1 0x3 DUP8 MSTORE DUP10 DUP2 KECCAK256 SWAP9 MLOAD DUP10 SLOAD PUSH1 0xFF NOT AND SWAP1 ISZERO ISZERO OR DUP10 SSTORE SWAP5 MLOAD DUP9 DUP9 ADD SSTORE SWAP2 MLOAD PUSH1 0x2 SWAP1 SWAP8 ADD SWAP7 SWAP1 SWAP7 SSTORE DUP2 SLOAD SWAP5 DUP6 ADD DUP3 SSTORE SWAP1 DUP3 MSTORE PUSH32 0x36B6384B5ECA791C62761152D0C79BB0604C104A5FB6F4EB0703F3154BB3DB0 SWAP1 SWAP4 ADD DUP1 SLOAD PUSH1 0x1 PUSH1 0x1 PUSH1 0xA0 SHL SUB NOT AND SWAP1 SWAP4 OR SWAP1 SWAP3 SSTORE DUP4 MLOAD PUSH4 0x23B872DD PUSH1 0xE0 SHL DUP2 MSTORE CALLER PUSH1 0x4 DUP3 ADD MSTORE ADDRESS PUSH1 0x24 DUP3 ADD MSTORE PUSH1 0x44 DUP2 ADD DUP16 SWAP1 MSTORE SWAP4 MLOAD SWAP5 SWAP6 POP SWAP2 DUP15 AND SWAP4 PUSH4 0x23B872DD SWAP4 PUSH1 0x64 DUP1 DUP3 ADD SWAP5 SWAP4 SWAP2 DUP4 SWAP1 SUB ADD SWAP1 DUP3 SWAP1 DUP8 DUP1 EXTCODESIZE ISZERO DUP1 ISZERO PUSH2 0xA45 JUMPI PUSH1 0x0 DUP1 REVERT JUMPDEST POP GAS CALL ISZERO DUP1 ISZERO PUSH2 0xA59 JUMPI RETURNDATASIZE PUSH1 0x0 DUP1 RETURNDATACOPY RETURNDATASIZE PUSH1 0x0 REVERT JUMPDEST POP POP POP POP PUSH1 0x40 MLOAD RETURNDATASIZE PUSH1 0x20 DUP2 LT ISZERO PUSH2 0xA6F JUMPI PUSH1 0x0 DUP1 REVERT JUMPDEST POP MLOAD PUSH2 0xA7A JUMPI PUSH1 0x0 DUP1 REVERT JUMPDEST DUP10 PUSH1 0x1 PUSH1 0x1 PUSH1 0xA0 SHL SUB AND PUSH4 0x95EA7B3 DUP3 DUP12 PUSH1 0x40 MLOAD DUP4 PUSH4 0xFFFFFFFF AND PUSH1 0xE0 SHL DUP2 MSTORE PUSH1 0x4 ADD DUP1 DUP4 PUSH1 0x1 PUSH1 0x1 PUSH1 0xA0 SHL SUB AND DUP2 MSTORE PUSH1 0x20 ADD DUP3 DUP2 MSTORE PUSH1 0x20 ADD SWAP3 POP POP POP PUSH1 0x20 PUSH1 0x40 MLOAD DUP1 DUP4 SUB DUP2 PUSH1 0x0 DUP8 DUP1 EXTCODESIZE ISZERO DUP1 ISZERO PUSH2 0xAD1 JUMPI PUSH1 0x0 DUP1 REVERT JUMPDEST POP GAS CALL ISZERO DUP1 ISZERO PUSH2 0xAE5 JUMPI RETURNDATASIZE PUSH1 0x0 DUP1 RETURNDATACOPY RETURNDATASIZE PUSH1 0x0 REVERT JUMPDEST POP POP POP POP PUSH1 0x40 MLOAD RETURNDATASIZE PUSH1 0x20 DUP2 LT ISZERO PUSH2 0xAFB JUMPI PUSH1 0x0 DUP1 REVERT JUMPDEST POP MLOAD PUSH2 0xB06 JUMPI PUSH1 0x0 DUP1 REVERT JUMPDEST PUSH1 0x40 DUP1 MLOAD PUSH4 0xC439848F PUSH1 0xE0 SHL DUP2 MSTORE ADDRESS PUSH1 0x4 DUP3 ADD MSTORE PUSH1 0x1 PUSH1 0x1 PUSH1 0xA0 SHL SUB DUP13 DUP2 AND PUSH1 0x24 DUP4 ADD MSTORE DUP11 DUP2 AND PUSH1 0x44 DUP4 ADD MSTORE PUSH1 0x64 DUP3 ADD DUP13 SWAP1 MSTORE PUSH1 0x84 DUP3 ADD DUP11 SWAP1 MSTORE PUSH1 0xA4 DUP3 ADD DUP10 SWAP1 MSTORE PUSH1 0xC4 DUP3 ADD DUP9 SWAP1 MSTORE PUSH1 0xE4 DUP3 ADD DUP8 SWAP1 MSTORE DUP6 DUP2 AND PUSH2 0x104 DUP4 ADD MSTORE SWAP2 MLOAD SWAP2 DUP4 AND SWAP2 PUSH4 0xC439848F SWAP2 PUSH2 0x124 DUP1 DUP3 ADD SWAP3 PUSH1 0x0 SWAP3 SWAP1 SWAP2 SWAP1 DUP3 SWAP1 SUB ADD DUP2 DUP4 DUP8 DUP1 EXTCODESIZE ISZERO DUP1 ISZERO PUSH2 0x636 JUMPI PUSH1 0x0 DUP1 REVERT JUMPDEST PUSH1 0x0 SLOAD PUSH1 0x1 PUSH1 0xA0 SHL SWAP1 DIV PUSH1 0xFF AND ISZERO PUSH2 0xBA3 JUMPI PUSH1 0x0 DUP1 REVERT JUMPDEST PUSH1 0x0 DUP1 SLOAD PUSH1 0x1 PUSH1 0x1 PUSH1 0xA0 SHL SUB NOT AND PUSH1 0x1 PUSH1 0x1 PUSH1 0xA0 SHL SUB DUP5 AND OR DUP2 SSTORE PUSH1 0x4 DUP2 SWAP1 SSTORE JUMPDEST DUP2 MLOAD DUP2 LT ISZERO PUSH2 0xBF1 JUMPI PUSH2 0xBE9 DUP3 DUP3 DUP2 MLOAD DUP2 LT PUSH2 0xBDC JUMPI INVALID JUMPDEST PUSH1 0x20 MUL PUSH1 0x20 ADD ADD MLOAD PUSH2 0xCA9 JUMP JUMPDEST PUSH1 0x1 ADD PUSH2 0xBC4 JUMP JUMPDEST POP PUSH1 0x0 DUP1 SLOAD PUSH1 0xFF PUSH1 0xA0 SHL NOT AND PUSH1 0x1 PUSH1 0xA0 SHL OR SWAP1 SSTORE PUSH1 0x40 DUP1 MLOAD CALLER DUP2 MSTORE SWAP1 MLOAD PUSH32 0x9728848F268715C9F5810670481ABA9B347F34C21407E902D679356B7617B6B2 SWAP2 DUP2 SWAP1 SUB PUSH1 0x20 ADD SWAP1 LOG1 POP POP JUMP JUMPDEST PUSH1 0x1 PUSH1 0x1 PUSH1 0xA0 SHL SUB AND PUSH1 0x0 SWAP1 DUP2 MSTORE PUSH1 0x2 PUSH1 0x20 MSTORE PUSH1 0x40 SWAP1 KECCAK256 SLOAD SWAP1 JUMP JUMPDEST PUSH1 0x0 DUP1 DUP3 PUSH1 0x60 SHL SWAP1 POP PUSH1 0x40 MLOAD PUSH20 0x3D602D80600A3D3981F3363D3D373D3D3D363D73 PUSH1 0x60 SHL DUP2 MSTORE DUP2 PUSH1 0x14 DUP3 ADD MSTORE PUSH15 0x5AF43D82803E903D91602B57FD5BF3 PUSH1 0x88 SHL PUSH1 0x28 DUP3 ADD MSTORE PUSH1 0x37 DUP2 PUSH1 0x0 CREATE SWAP5 SWAP4 POP POP POP POP JUMP JUMPDEST PUSH1 0x4 DUP1 SLOAD PUSH1 0x1 SWAP1 DUP2 ADD DUP1 DUP4 SSTORE PUSH1 0x0 SWAP1 DUP2 MSTORE PUSH1 0x20 SWAP2 DUP3 MSTORE PUSH1 0x40 DUP1 DUP3 KECCAK256 DUP1 SLOAD PUSH1 0x1 PUSH1 0x1 PUSH1 0xA0 SHL SUB NOT AND PUSH1 0x1 PUSH1 0x1 PUSH1 0xA0 SHL SUB DUP8 AND SWAP1 DUP2 OR SWAP1 SWAP2 SSTORE SWAP4 SLOAD DUP5 DUP4 MSTORE PUSH1 0x2 DUP5 MSTORE SWAP2 DUP2 SWAP1 KECCAK256 DUP3 SWAP1 SSTORE DUP1 MLOAD SWAP4 DUP5 MSTORE SWAP2 DUP4 ADD MSTORE DUP1 MLOAD PUSH32 0x893E8595C407D2A22D29FF3BA939D15EC3966113CE988BD39C68E4B003504007 SWAP3 DUP2 SWAP1 SUB SWAP1 SWAP2 ADD SWAP1 LOG1 POP JUMP INVALID 0x4D 0x49 MSTORE8 0x4F 0x4D PUSH2 0x726B PUSH6 0x742E61646441 PUSH22 0x6374696F6E54656D706C6174653A2053656E64657220 PUSH14 0x757374206265206F70657261746F PUSH19 0x4D49534F4D61726B65742E72656D6F76654175 PUSH4 0x74696F6E SLOAD PUSH6 0x6D706C617465 GASPRICE KECCAK256 MSTORE8 PUSH6 0x6E646572206D PUSH22 0x7374206265206F70657261746F724D49534F4D61726B PUSH6 0x742E61646441 PUSH22 0x6374696F6E54656D706C6174653A2054656D706C6174 PUSH6 0x20616C726561 PUSH5 0x7920657869 PUSH20 0x7473A2646970667358221220255A3762817B5837 SHR PUSH19 0x85491057256A35C05D5B37FDAC2489A07FA2CF ORIGIN 0xEE POP PUSH5 0x736F6C6343 STOP MOD 0xC STOP CALLER ",
  "sha1": "a420e41fbab92db213d4529b2d0a29cf0b53498a",
  "source": "pragma solidity ^0.6.9;\n\nimport \"./Utils/CloneFactory.sol\";\nimport \"../interfaces/IMisoAuction.sol\";\nimport \"../interfaces/IMisoCrowdsale.sol\";\nimport \"../interfaces/IERC20.sol\";\nimport \"./Access/MISOAccessControls.sol\";\n\n\ncontract MISOMarket is CloneFactory {\n\n    /// @notice Responsible for access rights to the contract\n    MISOAccessControls public accessControls;\n\n    bool private initialised;    \n\n    /// @notice Struct to track Auction template\n    struct Auction {\n        bool exists;\n        uint256 templateId;\n        uint256 index;\n    }\n\n    /// @notice mapping from market template id to market template address\n    mapping(uint256 => address) private auctionTemplates;\n\n    /// @notice mapping from market template address to market template id\n    mapping(address => uint256) private auctionTemplateToId;\n\n    /// @notice mapping from auction created through this contract to Auction struct\n    mapping(address => Auction) public auctionInfo;\n    \n    /// @notice Template id to track respective auction template\n    uint256 public auctionTemplateId;\n\n    /// @notice Auctions created using factory\n    address[] public auctions;\n\n    ///@notice event emitted when first initializing the Market factory\n    event MisoInitMarket(address sender);\n\n    /// @notice event emitted when template is added to factory \n    event AuctionTemplateAdded(address newAuction, uint256 templateId);\n\n    /// @notice event emitted when auction template is removed\n    event AuctionTemplateRemoved(address auction, uint256 templateId);\n\n    /// @notice event emitted when auction is created using template id\n    event AuctionCreated(address indexed owner, address indexed addr, address auctionTemplate);\n\n    constructor() public {\n    }\n\n    /**\n     * @dev Single gateway to initialize the MISO Market with proper address\n     * @dev Can only be initialized once\n     * @param _templates Initial array of templates that the Market can use\n     */\n    function initMISOMarket(address _accessControls, address[] memory _templates) external {\n        require(!initialised);\n        accessControls = MISOAccessControls(_accessControls);\n\n        auctionTemplateId = 0;\n        for(uint i = 0; i < _templates.length; i++) {\n            _addAuctionTemplate(_templates[i]);\n        }\n        \n        initialised = true;\n        emit MisoInitMarket(msg.sender);\n    }\n\n\n    /**\n     * @dev Creates a Auction cooresponding to _templateId\n     * @dev Initializes auction with the parameters passed\n     * @param _token Address of token to be auctioned\n     * @param _tokenSupply Total number of tokens to be auctioned\n     * @param _startDate Start date for the auction\n     * @param _endDate End date for the auction\n     * @param _paymentCurrency The currency the Auction accepts for payment. Can be ETH or token address\n     * @param _startPrice Price you want to start auction. This should be maximum price you want token to be valued at\n     * @param _minimumPrice Minimum price that the token should be valued for successful Auction\n     * @param _wallet Address where collected funds will be forwarded to\n     * @param _templateId Id of the auction template to create\n    */\n    function createAuction(\n        address _token, \n        uint256 _tokenSupply, \n        uint256 _startDate, \n        uint256 _endDate, \n        address _paymentCurrency,\n        uint256 _startPrice, \n        uint256 _minimumPrice, \n        address payable _wallet,\n        uint256 _templateId\n    ) external returns (address newAuction) {\n        require(auctionTemplates[_templateId] != address(0));\n        newAuction = createClone(auctionTemplates[_templateId]);\n        auctionInfo[address(newAuction)] = Auction(true, _templateId, auctions.length - 1);\n        auctions.push(address(newAuction));\n        require(IERC20(_token).transferFrom(msg.sender, address(this), _tokenSupply)); \n        require(IERC20(_token).approve(newAuction, _tokenSupply));\n        IMisoAuction(newAuction).initAuction(address(this), _token, _tokenSupply, _startDate, _endDate, _paymentCurrency, _startPrice, _minimumPrice, _wallet);\n        emit AuctionCreated(msg.sender, address(newAuction), auctionTemplates[_templateId]);\n    }\n    \n    /**\n     * @dev Creates a Crowdsale corresponding to _templateId\n     * @dev Initializes Crowdsale with the parameter passed\n     * @param _token Address of the token for crowdsale\n     * @param _tokenSupply The total number of tokens to sell in crowdsale \n     * @param _paymentCurrency The currency the crowdsale accepts for payment. Can be ETH or token address\n     * @param _startDate Crowdsale start date\n     * @param _endDate Crowdsale end date\n     * @param _rate Number of token units a buyer gets per wei or token\n     * @param _goal Minimum amount of funds to be raised in weis or tokens\n     * @param _wallet Address where collected funds will be forwarded to\n     * @param _templateId Id of the crowdsale template to create\n    */\n    function createCrowdsale(\n        address _token, \n        uint256 _tokenSupply, \n        address _paymentCurrency,\n        uint256 _startDate, \n        uint256 _endDate, \n        uint256 _rate, \n        uint256 _goal, \n        address payable _wallet,\n        uint256 _templateId\n    ) external returns (address newCrowdsale) {\n        require(auctionTemplates[_templateId] != address(0));\n        newCrowdsale = createClone(auctionTemplates[_templateId]);\n        auctionInfo[address(newCrowdsale)] = Auction(true, _templateId, auctions.length - 1);\n        auctions.push(address(newCrowdsale));\n        require(IERC20(_token).transferFrom(msg.sender, address(this), _tokenSupply)); \n        require(IERC20(_token).approve(newCrowdsale, _tokenSupply));\n        IMisoCrowdsale(newCrowdsale).initCrowdsale(address(this), _token, _paymentCurrency, _tokenSupply, _startDate, _endDate, _rate, _goal, _wallet);\n        emit AuctionCreated(msg.sender, address(newCrowdsale), auctionTemplates[_templateId]);\n    }\n    \n    /**\n     * @dev Function to add a action template to create through factory\n     * @dev Should have operator access\n     * @param _template Auction template to create a auction\n     */\n    function addAuctionTemplate(address _template) external {\n        require(\n            accessControls.hasOperatorRole(msg.sender),\n            \"MISOMarket.addAuctionTemplate: Sender must be operator\"\n        );\n        require(auctionTemplateToId[_template] == 0, \"MISOMarket.addAuctionTemplate: Template already exists\");\n        _addAuctionTemplate(_template);    \n    }\n\n     /**\n     * @dev Function to remove a Launcher template\n     * @dev Should have operator access\n     * @param _templateId Refers to template that is to be deleted\n    */\n    function removeAuctionTemplate(uint256 _templateId) external {\n        require(\n            accessControls.hasOperatorRole(msg.sender),\n            \"MISOMarket.removeAuctionTemplate: Sender must be operator\"\n        );\n        require(auctionTemplates[_templateId] != address(0));\n        address template = auctionTemplates[_templateId];\n        auctionTemplates[_templateId] = address(0);\n        auctionTemplateToId[template] = 0;\n        emit AuctionTemplateRemoved(template, _templateId);\n    }\n\n    function _addAuctionTemplate(address _template) internal {\n        auctionTemplateId++;\n        auctionTemplates[auctionTemplateId] = _template;\n        auctionTemplateToId[_template] = auctionTemplateId;\n        emit AuctionTemplateAdded(_template, auctionTemplateId);\n    }\n\n    /// @dev Get the address of the auction template\n    function getAuctionTemplate(uint256 _templateId) public view returns (address tokenTemplate) {\n        return auctionTemplates[_templateId];\n    }\n    \n    /// @dev Get the template id of the auction template\n    function getTemplateId(address _auctionTemplate) public view returns (uint256) {\n        return auctionTemplateToId[_auctionTemplate];\n    }\n\n    /// @dev Get total number of auctions in the factory\n    function numberOfAuctions() public view returns (uint) {\n        return auctions.length;\n    }\n\n}\n",
  "sourcePath": "contracts/MISOMarket.sol",
  "type": "contract"
}