{
  "abi": [
    {
      "inputs": [],
      "stateMutability": "nonpayable",
      "type": "constructor"
    },
    {
      "anonymous": false,
      "inputs": [
        {
          "indexed": false,
          "internalType": "address",
          "name": "",
          "type": "address"
        },
        {
          "indexed": false,
          "internalType": "uint256",
          "name": "",
          "type": "uint256"
        }
      ],
      "name": "Received",
      "type": "event"
    },
    {
      "anonymous": false,
      "inputs": [
        {
          "indexed": false,
          "internalType": "address",
          "name": "",
          "type": "address"
        },
        {
          "indexed": false,
          "internalType": "uint256",
          "name": "",
          "type": "uint256"
        },
        {
          "indexed": false,
          "internalType": "uint256",
          "name": "",
          "type": "uint256"
        }
      ],
      "name": "onDeposit",
      "type": "event"
    },
    {
      "anonymous": false,
      "inputs": [
        {
          "indexed": false,
          "internalType": "address",
          "name": "",
          "type": "address"
        },
        {
          "indexed": false,
          "internalType": "uint256",
          "name": "",
          "type": "uint256"
        }
      ],
      "name": "onWithdraw",
      "type": "event"
    },
    {
      "inputs": [
        {
          "internalType": "uint256",
          "name": "amount",
          "type": "uint256"
        }
      ],
      "name": "calculateFee",
      "outputs": [
        {
          "internalType": "uint256",
          "name": "",
          "type": "uint256"
        }
      ],
      "stateMutability": "view",
      "type": "function"
    },
    {
      "inputs": [
        {
          "internalType": "address",
          "name": "token",
          "type": "address"
        },
        {
          "internalType": "uint256",
          "name": "amount",
          "type": "uint256"
        },
        {
          "internalType": "uint256",
          "name": "unlock_date",
          "type": "uint256"
        }
      ],
      "name": "depositToken",
      "outputs": [],
      "stateMutability": "payable",
      "type": "function"
    },
    {
      "inputs": [
        {
          "internalType": "address",
          "name": "token",
          "type": "address"
        },
        {
          "internalType": "uint256[]",
          "name": "amounts",
          "type": "uint256[]"
        },
        {
          "internalType": "uint256[]",
          "name": "dates",
          "type": "uint256[]"
        }
      ],
      "name": "depositTokenMultipleEpochs",
      "outputs": [],
      "stateMutability": "payable",
      "type": "function"
    },
    {
      "inputs": [],
      "name": "feeDenominator",
      "outputs": [
        {
          "internalType": "uint256",
          "name": "",
          "type": "uint256"
        }
      ],
      "stateMutability": "view",
      "type": "function"
    },
    {
      "inputs": [],
      "name": "feeNumerator",
      "outputs": [
        {
          "internalType": "uint256",
          "name": "",
          "type": "uint256"
        }
      ],
      "stateMutability": "view",
      "type": "function"
    },
    {
      "inputs": [],
      "name": "feeReserveAddress",
      "outputs": [
        {
          "internalType": "address",
          "name": "",
          "type": "address"
        }
      ],
      "stateMutability": "view",
      "type": "function"
    },
    {
      "inputs": [
        {
          "internalType": "address",
          "name": "token",
          "type": "address"
        },
        {
          "internalType": "uint256",
          "name": "index",
          "type": "uint256"
        }
      ],
      "name": "getTokenReleaseAtIndex",
      "outputs": [
        {
          "internalType": "uint256",
          "name": "",
          "type": "uint256"
        },
        {
          "internalType": "uint256",
          "name": "",
          "type": "uint256"
        }
      ],
      "stateMutability": "view",
      "type": "function"
    },
    {
      "inputs": [
        {
          "internalType": "address",
          "name": "token",
          "type": "address"
        }
      ],
      "name": "getTokenReleaseLength",
      "outputs": [
        {
          "internalType": "uint256",
          "name": "",
          "type": "uint256"
        }
      ],
      "stateMutability": "view",
      "type": "function"
    },
    {
      "inputs": [
        {
          "internalType": "address",
          "name": "token",
          "type": "address"
        },
        {
          "internalType": "address",
          "name": "user",
          "type": "address"
        }
      ],
      "name": "getUserTokenInfo",
      "outputs": [
        {
          "internalType": "uint256",
          "name": "",
          "type": "uint256"
        },
        {
          "internalType": "uint256",
          "name": "",
          "type": "uint256"
        },
        {
          "internalType": "uint256",
          "name": "",
          "type": "uint256"
        }
      ],
      "stateMutability": "view",
      "type": "function"
    },
    {
      "inputs": [
        {
          "internalType": "address",
          "name": "token",
          "type": "address"
        },
        {
          "internalType": "address",
          "name": "user",
          "type": "address"
        },
        {
          "internalType": "uint256",
          "name": "index",
          "type": "uint256"
        }
      ],
      "name": "getUserVestingAtIndex",
      "outputs": [
        {
          "internalType": "uint256",
          "name": "",
          "type": "uint256"
        },
        {
          "internalType": "uint256",
          "name": "",
          "type": "uint256"
        }
      ],
      "stateMutability": "view",
      "type": "function"
    },
    {
      "inputs": [
        {
          "internalType": "address",
          "name": "token",
          "type": "address"
        },
        {
          "internalType": "address",
          "name": "user",
          "type": "address"
        }
      ],
      "name": "getWithdrawableBalance",
      "outputs": [
        {
          "internalType": "uint256",
          "name": "",
          "type": "uint256"
        }
      ],
      "stateMutability": "view",
      "type": "function"
    },
    {
      "inputs": [
        {
          "internalType": "address",
          "name": "",
          "type": "address"
        }
      ],
      "name": "lockedTokenLookup",
      "outputs": [
        {
          "internalType": "bool",
          "name": "",
          "type": "bool"
        }
      ],
      "stateMutability": "view",
      "type": "function"
    },
    {
      "inputs": [
        {
          "internalType": "uint256",
          "name": "",
          "type": "uint256"
        }
      ],
      "name": "lockedTokens",
      "outputs": [
        {
          "internalType": "address",
          "name": "",
          "type": "address"
        }
      ],
      "stateMutability": "view",
      "type": "function"
    },
    {
      "inputs": [],
      "name": "lockedTokensLength",
      "outputs": [
        {
          "internalType": "uint256",
          "name": "",
          "type": "uint256"
        }
      ],
      "stateMutability": "view",
      "type": "function"
    },
    {
      "inputs": [],
      "name": "owner",
      "outputs": [
        {
          "internalType": "address",
          "name": "",
          "type": "address"
        }
      ],
      "stateMutability": "view",
      "type": "function"
    },
    {
      "inputs": [
        {
          "internalType": "uint256",
          "name": "numerator",
          "type": "uint256"
        },
        {
          "internalType": "uint256",
          "name": "denominator",
          "type": "uint256"
        }
      ],
      "name": "updateFee",
      "outputs": [],
      "stateMutability": "nonpayable",
      "type": "function"
    },
    {
      "inputs": [
        {
          "internalType": "address",
          "name": "token",
          "type": "address"
        },
        {
          "internalType": "uint256",
          "name": "amount",
          "type": "uint256"
        }
      ],
      "name": "withdrawToken",
      "outputs": [],
      "stateMutability": "nonpayable",
      "type": "function"
    },
    {
      "stateMutability": "payable",
      "type": "receive"
    }
  ],
  "bytecode": "608060405234801561001057600080fd5b5060036004556103e8600555600680546001600160a01b031990811673aa3d85ad9d128dfecb55424085754f6dfa643eb1179091556007805490911673fcdd591498e86876f086524c0b2e9af41a0c9fcd17905561135f806100736000396000f3fe6080604052600436106101025760003560e01c806399c6d2de11610095578063dcec329411610064578063dcec329414610492578063de0c4d2e146104bc578063e86dea4a14610515578063f4f876a61461052a578063f6a3bcad1461057157610143565b806399c6d2de146102db5780639e281a981461030d578063ace55fec14610346578063b9b6ac051461035b57610143565b80638b4ebb43116100d15780638b4ebb43146101e95780638da5cb5b1461024557806393dcd0211461027657806399a5d747146102b157610143565b8063180b0d7e1461014857806321babba71461016f57806322843f95146101845780632740c197146101b757610143565b36610143576040805133815234602082015281517f88a5966d370b9919b20f3e2c13ff65706f196a4e32cc2c12bf57088f88525874929181900390910190a1005b600080fd5b34801561015457600080fd5b5061015d6105aa565b60408051918252519081900360200190f35b34801561017b57600080fd5b5061015d6105b0565b34801561019057600080fd5b5061015d600480360360208110156101a757600080fd5b50356001600160a01b03166105b6565b3480156101c357600080fd5b506101e7600480360360408110156101da57600080fd5b50803590602001356105d1565b005b3480156101f557600080fd5b5061022c6004803603606081101561020c57600080fd5b506001600160a01b03813581169160208101359091169060400135610633565b6040805192835260208301919091528051918290030190f35b34801561025157600080fd5b5061025a610695565b604080516001600160a01b039092168252519081900360200190f35b34801561028257600080fd5b5061015d6004803603604081101561029957600080fd5b506001600160a01b03813581169160200135166106a4565b3480156102bd57600080fd5b5061015d600480360360208110156102d457600080fd5b503561073f565b6101e7600480360360608110156102f157600080fd5b506001600160a01b0381351690602081013590604001356107e2565b34801561031957600080fd5b506101e76004803603604081101561033057600080fd5b506001600160a01b038135169060200135610c9a565b34801561035257600080fd5b5061025a610e65565b6101e76004803603606081101561037157600080fd5b6001600160a01b03823516919081019060408101602082013564010000000081111561039c57600080fd5b8201836020820111156103ae57600080fd5b803590602001918460208302840111640100000000831117156103d057600080fd5b919080806020026020016040519081016040528093929190818152602001838360200280828437600092019190915250929594936020810193503591505064010000000081111561042057600080fd5b82018360208201111561043257600080fd5b8035906020019184602083028401116401000000008311171561045457600080fd5b919080806020026020016040519081016040528093929190818152602001838360200280828437600092019190915250929550610e74945050505050565b34801561049e57600080fd5b5061025a600480360360208110156104b557600080fd5b5035610eff565b3480156104c857600080fd5b506104f7600480360360408110156104df57600080fd5b506001600160a01b0381358116916020013516610f26565b60408051938452602084019290925282820152519081900360600190f35b34801561052157600080fd5b5061015d610f5c565b34801561053657600080fd5b5061055d6004803603602081101561054d57600080fd5b50356001600160a01b0316610f62565b604080519115158252519081900360200190f35b34801561057d57600080fd5b5061022c6004803603604081101561059457600080fd5b506001600160a01b038135169060200135610f77565b60055481565b60035490565b6001600160a01b031660009081526001602052604090205490565b6007546001600160a01b03163314610628576040805162461bcd60e51b81526020600482015260156024820152742cb7ba9030b932903737ba103a34329037bbb732b960591b604482015290519081900360640190fd5b600491909155600555565b6001600160a01b03808416600090815260208181526040808320938616835292905290812060028101805483929183918690811061066d57fe5b9060005260206000209060020201905080600001548160010154935093505050935093915050565b6007546001600160a01b031681565b6001600160a01b038083166000908152602081815260408083209385168352929052908120600281015482805b828110156107225760008460020182815481106106ea57fe5b906000526020600020906002020190504281600001541015610719576001810154610716908490610fcd565b92505b506001016106d1565b50600183015461073390829061102e565b93505050505b92915050565b600060055482101561078f576040805162461bcd60e51b815260206004820152601460248201527311195c1bdcda5d081a5cc81d1bdbc81cdb585b1b60621b604482015290519081900360640190fd5b60006107b26107ab60045460055461102e90919063ffffffff16565b8490611070565b905060006107cb600554836110c990919063ffffffff16565b905060006107d9858361102e565b95945050505050565b6402540be40081106108255760405162461bcd60e51b81526004018080602001828103825260338152602001806112086033913960400191505060405180910390fd5b600082116108645760405162461bcd60e51b815260040180806020018281038252602381526020018061123b6023913960400191505060405180910390fd5b60408051636eb1769f60e11b815233600482015230602482015290516000916001600160a01b0386169163dd62ed3e91604480820192602092909190829003018186803b1580156108b457600080fd5b505afa1580156108c8573d6000803e3d6000fd5b505050506040513d60208110156108de57600080fd5b50519050828110156109215760405162461bcd60e51b815260040180806020018281038252602281526020018061125e6022913960400191505060405180910390fd5b600061092c8461073f565b9050600061093a858361102e565b604080516323b872dd60e01b81523360048201523060248201526044810183905290519192506001600160a01b038816916323b872dd916064808201926020929091908290030181600087803b15801561099357600080fd5b505af11580156109a7573d6000803e3d6000fd5b505050506040513d60208110156109bd57600080fd5b5051610a02576040805162461bcd60e51b815260206004820152600f60248201526e151c985b9cd9995c8819985a5b1959608a1b604482015290519081900360640190fd5b600654604080516323b872dd60e01b81523360048201526001600160a01b039283166024820152604481018590529051918816916323b872dd916064808201926020929091908290030181600087803b158015610a5e57600080fd5b505af1158015610a72573d6000803e3d6000fd5b505050506040513d6020811015610a8857600080fd5b5051610acd576040805162461bcd60e51b815260206004820152600f60248201526e151c985b9cd9995c8819985a5b1959608a1b604482015290519081900360640190fd5b6001600160a01b03861660009081526002602052604090205460ff16610b51576003805460018082019092557fc2575a0e9e593c00f959f8c92f12db2869c3395a3b0502d05e2516446f71f85b0180546001600160a01b0319166001600160a01b0389169081179091556000908152600260205260409020805460ff191690911790555b6001600160a01b03861660009081526001602081815260408084208885529283019091529091205415610baf576000858152600182016020526040902054610b999083610fcd565b6000868152600183016020526040902055610bd9565b80546001818101835560008381526020808220909301889055878152908301909152604090208290555b6001600160a01b03871660009081526020818152604080832033845290915290208054610c069084610fcd565b8155604080518082018252878152602080820186815260028086018054600181810183556000838152869020965191909302909501948555915193019290925582516001600160a01b038c1681529081018a9052808301899052915190917fd6bbc989766039cda6ca06b473aabd4d296527497aadc6808e640e053427d2b3919081900360600190a1505050505050505050565b60008111610cd95760405162461bcd60e51b81526004018080602001828103825260248152602001806112ce6024913960400191505060405180910390fd5b6000610ce583336106a4565b6001600160a01b0384166000908152602081815260408083203384529091529020600181015491925090610d199084610fcd565b600182015581831115610d5d5760405162461bcd60e51b81526004018080602001828103825260388152602001806112f26038913960400191505060405180910390fd5b6040805163a9059cbb60e01b81523360048201526024810185905290516001600160a01b0386169163a9059cbb9160448083019260209291908290030181600087803b158015610dac57600080fd5b505af1158015610dc0573d6000803e3d6000fd5b505050506040513d6020811015610dd657600080fd5b5051610e1b576040805162461bcd60e51b815260206004820152600f60248201526e151c985b9cd9995c8819985a5b1959608a1b604482015290519081900360640190fd5b604080516001600160a01b03861681526020810185905281517fccad973dcd043c7d680389db4378bd6b9775db7124092e9e0422c9e46d7985dc929181900390910190a150505050565b6006546001600160a01b031681565b8051825114610eb45760405162461bcd60e51b815260040180806020018281038252602d815260200180611280602d913960400191505060405180910390fd5b60005b8251811015610ef957610ef184848381518110610ed057fe5b6020026020010151848481518110610ee457fe5b60200260200101516107e2565b600101610eb7565b50505050565b60038181548110610f0c57fe5b6000918252602090912001546001600160a01b0316905081565b6001600160a01b039182166000908152602081815260408083209390941682529190915220805460018201546002909201549092565b60045481565b60026020526000908152604090205460ff1681565b6001600160a01b038216600090815260016020526040812080548291908290829086908110610fa257fe5b6000918252602080832090910154808352600190940190526040902054919350909150509250929050565b600082820183811015611027576040805162461bcd60e51b815260206004820152601b60248201527f536166654d6174683a206164646974696f6e206f766572666c6f770000000000604482015290519081900360640190fd5b9392505050565b600061102783836040518060400160405280601e81526020017f536166654d6174683a207375627472616374696f6e206f766572666c6f77000081525061110b565b60008261107f57506000610739565b8282028284828161108c57fe5b04146110275760405162461bcd60e51b81526004018080602001828103825260218152602001806112ad6021913960400191505060405180910390fd5b600061102783836040518060400160405280601a81526020017f536166654d6174683a206469766973696f6e206279207a65726f0000000000008152506111a2565b6000818484111561119a5760405162461bcd60e51b81526004018080602001828103825283818151815260200191508051906020019080838360005b8381101561115f578181015183820152602001611147565b50505050905090810190601f16801561118c5780820380516001836020036101000a031916815260200191505b509250505060405180910390fd5b505050900390565b600081836111f15760405162461bcd60e51b815260206004820181815283516024840152835190928392604490910191908501908083836000831561115f578181015183820152602001611147565b5060008385816111fd57fe5b049594505050505056fe456e74657220616e20756e69782074696d657374616d7020696e207365636f6e64732c206e6f74206d696c697365636f6e6473596f757220617474656d7074696e6720746f2074726173666572203020746f6b656e73596f75206e65656420746f2073657420612068696768657220616c6c6f77616e6365416d6f756e7420616e64206461746520617272617973206861766520646966666572696e67206c656e67746873536166654d6174683a206d756c7469706c69636174696f6e206f766572666c6f77596f757220617474656d7074696e6720746f207769746864726177203020746f6b656e73596f757220617474656d7074696e6720746f207769746864726177206d6f7265207468616e20796f75206861766520617661696c61626c65a2646970667358221220e17bdb1dee116e7302d463098f31267bffdcddcd30cf6393399fa0b230fc093764736f6c634300060c0033",
  "bytecodeSha1": "2b8601e7f980aed6ca929f2a4b3f0866702768c8",
  "compiler": {
    "evm_version": "istanbul",
    "optimizer": {
      "enabled": true,
      "runs": 200
    },
    "version": "0.6.12"
  },
  "contractName": "POLContract",
  "language": "Solidity",
  "natspec": {
    "kind": "dev",
    "methods": {},
    "version": 1
  },
  "opcodes": "PUSH1 0x80 PUSH1 0x40 MSTORE PUSH1 0x4 CALLDATASIZE LT PUSH2 0x102 JUMPI PUSH1 0x0 CALLDATALOAD PUSH1 0xE0 SHR DUP1 PUSH4 0x99C6D2DE GT PUSH2 0x95 JUMPI DUP1 PUSH4 0xDCEC3294 GT PUSH2 0x64 JUMPI DUP1 PUSH4 0xDCEC3294 EQ PUSH2 0x492 JUMPI DUP1 PUSH4 0xDE0C4D2E EQ PUSH2 0x4BC JUMPI DUP1 PUSH4 0xE86DEA4A EQ PUSH2 0x515 JUMPI DUP1 PUSH4 0xF4F876A6 EQ PUSH2 0x52A JUMPI DUP1 PUSH4 0xF6A3BCAD EQ PUSH2 0x571 JUMPI PUSH2 0x143 JUMP JUMPDEST DUP1 PUSH4 0x99C6D2DE EQ PUSH2 0x2DB JUMPI DUP1 PUSH4 0x9E281A98 EQ PUSH2 0x30D JUMPI DUP1 PUSH4 0xACE55FEC EQ PUSH2 0x346 JUMPI DUP1 PUSH4 0xB9B6AC05 EQ PUSH2 0x35B JUMPI PUSH2 0x143 JUMP JUMPDEST DUP1 PUSH4 0x8B4EBB43 GT PUSH2 0xD1 JUMPI DUP1 PUSH4 0x8B4EBB43 EQ PUSH2 0x1E9 JUMPI DUP1 PUSH4 0x8DA5CB5B EQ PUSH2 0x245 JUMPI DUP1 PUSH4 0x93DCD021 EQ PUSH2 0x276 JUMPI DUP1 PUSH4 0x99A5D747 EQ PUSH2 0x2B1 JUMPI PUSH2 0x143 JUMP JUMPDEST DUP1 PUSH4 0x180B0D7E EQ PUSH2 0x148 JUMPI DUP1 PUSH4 0x21BABBA7 EQ PUSH2 0x16F JUMPI DUP1 PUSH4 0x22843F95 EQ PUSH2 0x184 JUMPI DUP1 PUSH4 0x2740C197 EQ PUSH2 0x1B7 JUMPI PUSH2 0x143 JUMP JUMPDEST CALLDATASIZE PUSH2 0x143 JUMPI PUSH1 0x40 DUP1 MLOAD CALLER DUP2 MSTORE CALLVALUE PUSH1 0x20 DUP3 ADD MSTORE DUP2 MLOAD PUSH32 0x88A5966D370B9919B20F3E2C13FF65706F196A4E32CC2C12BF57088F88525874 SWAP3 SWAP2 DUP2 SWAP1 SUB SWAP1 SWAP2 ADD SWAP1 LOG1 STOP JUMPDEST PUSH1 0x0 DUP1 REVERT JUMPDEST CALLVALUE DUP1 ISZERO PUSH2 0x154 JUMPI PUSH1 0x0 DUP1 REVERT JUMPDEST POP PUSH2 0x15D PUSH2 0x5AA JUMP JUMPDEST PUSH1 0x40 DUP1 MLOAD SWAP2 DUP3 MSTORE MLOAD SWAP1 DUP2 SWAP1 SUB PUSH1 0x20 ADD SWAP1 RETURN JUMPDEST CALLVALUE DUP1 ISZERO PUSH2 0x17B JUMPI PUSH1 0x0 DUP1 REVERT JUMPDEST POP PUSH2 0x15D PUSH2 0x5B0 JUMP JUMPDEST CALLVALUE DUP1 ISZERO PUSH2 0x190 JUMPI PUSH1 0x0 DUP1 REVERT JUMPDEST POP PUSH2 0x15D PUSH1 0x4 DUP1 CALLDATASIZE SUB PUSH1 0x20 DUP2 LT ISZERO PUSH2 0x1A7 JUMPI PUSH1 0x0 DUP1 REVERT JUMPDEST POP CALLDATALOAD PUSH1 0x1 PUSH1 0x1 PUSH1 0xA0 SHL SUB AND PUSH2 0x5B6 JUMP JUMPDEST CALLVALUE DUP1 ISZERO PUSH2 0x1C3 JUMPI PUSH1 0x0 DUP1 REVERT JUMPDEST POP PUSH2 0x1E7 PUSH1 0x4 DUP1 CALLDATASIZE SUB PUSH1 0x40 DUP2 LT ISZERO PUSH2 0x1DA JUMPI PUSH1 0x0 DUP1 REVERT JUMPDEST POP DUP1 CALLDATALOAD SWAP1 PUSH1 0x20 ADD CALLDATALOAD PUSH2 0x5D1 JUMP JUMPDEST STOP JUMPDEST CALLVALUE DUP1 ISZERO PUSH2 0x1F5 JUMPI PUSH1 0x0 DUP1 REVERT JUMPDEST POP PUSH2 0x22C PUSH1 0x4 DUP1 CALLDATASIZE SUB PUSH1 0x60 DUP2 LT ISZERO PUSH2 0x20C JUMPI PUSH1 0x0 DUP1 REVERT JUMPDEST POP PUSH1 0x1 PUSH1 0x1 PUSH1 0xA0 SHL SUB DUP2 CALLDATALOAD DUP2 AND SWAP2 PUSH1 0x20 DUP2 ADD CALLDATALOAD SWAP1 SWAP2 AND SWAP1 PUSH1 0x40 ADD CALLDATALOAD PUSH2 0x633 JUMP JUMPDEST PUSH1 0x40 DUP1 MLOAD SWAP3 DUP4 MSTORE PUSH1 0x20 DUP4 ADD SWAP2 SWAP1 SWAP2 MSTORE DUP1 MLOAD SWAP2 DUP3 SWAP1 SUB ADD SWAP1 RETURN JUMPDEST CALLVALUE DUP1 ISZERO PUSH2 0x251 JUMPI PUSH1 0x0 DUP1 REVERT JUMPDEST POP PUSH2 0x25A PUSH2 0x695 JUMP JUMPDEST PUSH1 0x40 DUP1 MLOAD PUSH1 0x1 PUSH1 0x1 PUSH1 0xA0 SHL SUB SWAP1 SWAP3 AND DUP3 MSTORE MLOAD SWAP1 DUP2 SWAP1 SUB PUSH1 0x20 ADD SWAP1 RETURN JUMPDEST CALLVALUE DUP1 ISZERO PUSH2 0x282 JUMPI PUSH1 0x0 DUP1 REVERT JUMPDEST POP PUSH2 0x15D PUSH1 0x4 DUP1 CALLDATASIZE SUB PUSH1 0x40 DUP2 LT ISZERO PUSH2 0x299 JUMPI PUSH1 0x0 DUP1 REVERT JUMPDEST POP PUSH1 0x1 PUSH1 0x1 PUSH1 0xA0 SHL SUB DUP2 CALLDATALOAD DUP2 AND SWAP2 PUSH1 0x20 ADD CALLDATALOAD AND PUSH2 0x6A4 JUMP JUMPDEST CALLVALUE DUP1 ISZERO PUSH2 0x2BD JUMPI PUSH1 0x0 DUP1 REVERT JUMPDEST POP PUSH2 0x15D PUSH1 0x4 DUP1 CALLDATASIZE SUB PUSH1 0x20 DUP2 LT ISZERO PUSH2 0x2D4 JUMPI PUSH1 0x0 DUP1 REVERT JUMPDEST POP CALLDATALOAD PUSH2 0x73F JUMP JUMPDEST PUSH2 0x1E7 PUSH1 0x4 DUP1 CALLDATASIZE SUB PUSH1 0x60 DUP2 LT ISZERO PUSH2 0x2F1 JUMPI PUSH1 0x0 DUP1 REVERT JUMPDEST POP PUSH1 0x1 PUSH1 0x1 PUSH1 0xA0 SHL SUB DUP2 CALLDATALOAD AND SWAP1 PUSH1 0x20 DUP2 ADD CALLDATALOAD SWAP1 PUSH1 0x40 ADD CALLDATALOAD PUSH2 0x7E2 JUMP JUMPDEST CALLVALUE DUP1 ISZERO PUSH2 0x319 JUMPI PUSH1 0x0 DUP1 REVERT JUMPDEST POP PUSH2 0x1E7 PUSH1 0x4 DUP1 CALLDATASIZE SUB PUSH1 0x40 DUP2 LT ISZERO PUSH2 0x330 JUMPI PUSH1 0x0 DUP1 REVERT JUMPDEST POP PUSH1 0x1 PUSH1 0x1 PUSH1 0xA0 SHL SUB DUP2 CALLDATALOAD AND SWAP1 PUSH1 0x20 ADD CALLDATALOAD PUSH2 0xC9A JUMP JUMPDEST CALLVALUE DUP1 ISZERO PUSH2 0x352 JUMPI PUSH1 0x0 DUP1 REVERT JUMPDEST POP PUSH2 0x25A PUSH2 0xE65 JUMP JUMPDEST PUSH2 0x1E7 PUSH1 0x4 DUP1 CALLDATASIZE SUB PUSH1 0x60 DUP2 LT ISZERO PUSH2 0x371 JUMPI PUSH1 0x0 DUP1 REVERT JUMPDEST PUSH1 0x1 PUSH1 0x1 PUSH1 0xA0 SHL SUB DUP3 CALLDATALOAD AND SWAP2 SWAP1 DUP2 ADD SWAP1 PUSH1 0x40 DUP2 ADD PUSH1 0x20 DUP3 ADD CALLDATALOAD PUSH5 0x100000000 DUP2 GT ISZERO PUSH2 0x39C JUMPI PUSH1 0x0 DUP1 REVERT JUMPDEST DUP3 ADD DUP4 PUSH1 0x20 DUP3 ADD GT ISZERO PUSH2 0x3AE JUMPI PUSH1 0x0 DUP1 REVERT JUMPDEST DUP1 CALLDATALOAD SWAP1 PUSH1 0x20 ADD SWAP2 DUP5 PUSH1 0x20 DUP4 MUL DUP5 ADD GT PUSH5 0x100000000 DUP4 GT OR ISZERO PUSH2 0x3D0 JUMPI PUSH1 0x0 DUP1 REVERT JUMPDEST SWAP2 SWAP1 DUP1 DUP1 PUSH1 0x20 MUL PUSH1 0x20 ADD PUSH1 0x40 MLOAD SWAP1 DUP2 ADD PUSH1 0x40 MSTORE DUP1 SWAP4 SWAP3 SWAP2 SWAP1 DUP2 DUP2 MSTORE PUSH1 0x20 ADD DUP4 DUP4 PUSH1 0x20 MUL DUP1 DUP3 DUP5 CALLDATACOPY PUSH1 0x0 SWAP3 ADD SWAP2 SWAP1 SWAP2 MSTORE POP SWAP3 SWAP6 SWAP5 SWAP4 PUSH1 0x20 DUP2 ADD SWAP4 POP CALLDATALOAD SWAP2 POP POP PUSH5 0x100000000 DUP2 GT ISZERO PUSH2 0x420 JUMPI PUSH1 0x0 DUP1 REVERT JUMPDEST DUP3 ADD DUP4 PUSH1 0x20 DUP3 ADD GT ISZERO PUSH2 0x432 JUMPI PUSH1 0x0 DUP1 REVERT JUMPDEST DUP1 CALLDATALOAD SWAP1 PUSH1 0x20 ADD SWAP2 DUP5 PUSH1 0x20 DUP4 MUL DUP5 ADD GT PUSH5 0x100000000 DUP4 GT OR ISZERO PUSH2 0x454 JUMPI PUSH1 0x0 DUP1 REVERT JUMPDEST SWAP2 SWAP1 DUP1 DUP1 PUSH1 0x20 MUL PUSH1 0x20 ADD PUSH1 0x40 MLOAD SWAP1 DUP2 ADD PUSH1 0x40 MSTORE DUP1 SWAP4 SWAP3 SWAP2 SWAP1 DUP2 DUP2 MSTORE PUSH1 0x20 ADD DUP4 DUP4 PUSH1 0x20 MUL DUP1 DUP3 DUP5 CALLDATACOPY PUSH1 0x0 SWAP3 ADD SWAP2 SWAP1 SWAP2 MSTORE POP SWAP3 SWAP6 POP PUSH2 0xE74 SWAP5 POP POP POP POP POP JUMP JUMPDEST CALLVALUE DUP1 ISZERO PUSH2 0x49E JUMPI PUSH1 0x0 DUP1 REVERT JUMPDEST POP PUSH2 0x25A PUSH1 0x4 DUP1 CALLDATASIZE SUB PUSH1 0x20 DUP2 LT ISZERO PUSH2 0x4B5 JUMPI PUSH1 0x0 DUP1 REVERT JUMPDEST POP CALLDATALOAD PUSH2 0xEFF JUMP JUMPDEST CALLVALUE DUP1 ISZERO PUSH2 0x4C8 JUMPI PUSH1 0x0 DUP1 REVERT JUMPDEST POP PUSH2 0x4F7 PUSH1 0x4 DUP1 CALLDATASIZE SUB PUSH1 0x40 DUP2 LT ISZERO PUSH2 0x4DF JUMPI PUSH1 0x0 DUP1 REVERT JUMPDEST POP PUSH1 0x1 PUSH1 0x1 PUSH1 0xA0 SHL SUB DUP2 CALLDATALOAD DUP2 AND SWAP2 PUSH1 0x20 ADD CALLDATALOAD AND PUSH2 0xF26 JUMP JUMPDEST PUSH1 0x40 DUP1 MLOAD SWAP4 DUP5 MSTORE PUSH1 0x20 DUP5 ADD SWAP3 SWAP1 SWAP3 MSTORE DUP3 DUP3 ADD MSTORE MLOAD SWAP1 DUP2 SWAP1 SUB PUSH1 0x60 ADD SWAP1 RETURN JUMPDEST CALLVALUE DUP1 ISZERO PUSH2 0x521 JUMPI PUSH1 0x0 DUP1 REVERT JUMPDEST POP PUSH2 0x15D PUSH2 0xF5C JUMP JUMPDEST CALLVALUE DUP1 ISZERO PUSH2 0x536 JUMPI PUSH1 0x0 DUP1 REVERT JUMPDEST POP PUSH2 0x55D PUSH1 0x4 DUP1 CALLDATASIZE SUB PUSH1 0x20 DUP2 LT ISZERO PUSH2 0x54D JUMPI PUSH1 0x0 DUP1 REVERT JUMPDEST POP CALLDATALOAD PUSH1 0x1 PUSH1 0x1 PUSH1 0xA0 SHL SUB AND PUSH2 0xF62 JUMP JUMPDEST PUSH1 0x40 DUP1 MLOAD SWAP2 ISZERO ISZERO DUP3 MSTORE MLOAD SWAP1 DUP2 SWAP1 SUB PUSH1 0x20 ADD SWAP1 RETURN JUMPDEST CALLVALUE DUP1 ISZERO PUSH2 0x57D JUMPI PUSH1 0x0 DUP1 REVERT JUMPDEST POP PUSH2 0x22C PUSH1 0x4 DUP1 CALLDATASIZE SUB PUSH1 0x40 DUP2 LT ISZERO PUSH2 0x594 JUMPI PUSH1 0x0 DUP1 REVERT JUMPDEST POP PUSH1 0x1 PUSH1 0x1 PUSH1 0xA0 SHL SUB DUP2 CALLDATALOAD AND SWAP1 PUSH1 0x20 ADD CALLDATALOAD PUSH2 0xF77 JUMP JUMPDEST PUSH1 0x5 SLOAD DUP2 JUMP JUMPDEST PUSH1 0x3 SLOAD SWAP1 JUMP JUMPDEST PUSH1 0x1 PUSH1 0x1 PUSH1 0xA0 SHL SUB AND PUSH1 0x0 SWAP1 DUP2 MSTORE PUSH1 0x1 PUSH1 0x20 MSTORE PUSH1 0x40 SWAP1 KECCAK256 SLOAD SWAP1 JUMP JUMPDEST PUSH1 0x7 SLOAD PUSH1 0x1 PUSH1 0x1 PUSH1 0xA0 SHL SUB AND CALLER EQ PUSH2 0x628 JUMPI PUSH1 0x40 DUP1 MLOAD PUSH3 0x461BCD PUSH1 0xE5 SHL DUP2 MSTORE PUSH1 0x20 PUSH1 0x4 DUP3 ADD MSTORE PUSH1 0x15 PUSH1 0x24 DUP3 ADD MSTORE PUSH21 0x2CB7BA9030B932903737BA103A34329037BBB732B9 PUSH1 0x59 SHL PUSH1 0x44 DUP3 ADD MSTORE SWAP1 MLOAD SWAP1 DUP2 SWAP1 SUB PUSH1 0x64 ADD SWAP1 REVERT JUMPDEST PUSH1 0x4 SWAP2 SWAP1 SWAP2 SSTORE PUSH1 0x5 SSTORE JUMP JUMPDEST PUSH1 0x1 PUSH1 0x1 PUSH1 0xA0 SHL SUB DUP1 DUP5 AND PUSH1 0x0 SWAP1 DUP2 MSTORE PUSH1 0x20 DUP2 DUP2 MSTORE PUSH1 0x40 DUP1 DUP4 KECCAK256 SWAP4 DUP7 AND DUP4 MSTORE SWAP3 SWAP1 MSTORE SWAP1 DUP2 KECCAK256 PUSH1 0x2 DUP2 ADD DUP1 SLOAD DUP4 SWAP3 SWAP2 DUP4 SWAP2 DUP7 SWAP1 DUP2 LT PUSH2 0x66D JUMPI INVALID JUMPDEST SWAP1 PUSH1 0x0 MSTORE PUSH1 0x20 PUSH1 0x0 KECCAK256 SWAP1 PUSH1 0x2 MUL ADD SWAP1 POP DUP1 PUSH1 0x0 ADD SLOAD DUP2 PUSH1 0x1 ADD SLOAD SWAP4 POP SWAP4 POP POP POP SWAP4 POP SWAP4 SWAP2 POP POP JUMP JUMPDEST PUSH1 0x7 SLOAD PUSH1 0x1 PUSH1 0x1 PUSH1 0xA0 SHL SUB AND DUP2 JUMP JUMPDEST PUSH1 0x1 PUSH1 0x1 PUSH1 0xA0 SHL SUB DUP1 DUP4 AND PUSH1 0x0 SWAP1 DUP2 MSTORE PUSH1 0x20 DUP2 DUP2 MSTORE PUSH1 0x40 DUP1 DUP4 KECCAK256 SWAP4 DUP6 AND DUP4 MSTORE SWAP3 SWAP1 MSTORE SWAP1 DUP2 KECCAK256 PUSH1 0x2 DUP2 ADD SLOAD DUP3 DUP1 JUMPDEST DUP3 DUP2 LT ISZERO PUSH2 0x722 JUMPI PUSH1 0x0 DUP5 PUSH1 0x2 ADD DUP3 DUP2 SLOAD DUP2 LT PUSH2 0x6EA JUMPI INVALID JUMPDEST SWAP1 PUSH1 0x0 MSTORE PUSH1 0x20 PUSH1 0x0 KECCAK256 SWAP1 PUSH1 0x2 MUL ADD SWAP1 POP TIMESTAMP DUP2 PUSH1 0x0 ADD SLOAD LT ISZERO PUSH2 0x719 JUMPI PUSH1 0x1 DUP2 ADD SLOAD PUSH2 0x716 SWAP1 DUP5 SWAP1 PUSH2 0xFCD JUMP JUMPDEST SWAP3 POP JUMPDEST POP PUSH1 0x1 ADD PUSH2 0x6D1 JUMP JUMPDEST POP PUSH1 0x1 DUP4 ADD SLOAD PUSH2 0x733 SWAP1 DUP3 SWAP1 PUSH2 0x102E JUMP JUMPDEST SWAP4 POP POP POP POP JUMPDEST SWAP3 SWAP2 POP POP JUMP JUMPDEST PUSH1 0x0 PUSH1 0x5 SLOAD DUP3 LT ISZERO PUSH2 0x78F JUMPI PUSH1 0x40 DUP1 MLOAD PUSH3 0x461BCD PUSH1 0xE5 SHL DUP2 MSTORE PUSH1 0x20 PUSH1 0x4 DUP3 ADD MSTORE PUSH1 0x14 PUSH1 0x24 DUP3 ADD MSTORE PUSH20 0x11195C1BDCDA5D081A5CC81D1BDBC81CDB585B1B PUSH1 0x62 SHL PUSH1 0x44 DUP3 ADD MSTORE SWAP1 MLOAD SWAP1 DUP2 SWAP1 SUB PUSH1 0x64 ADD SWAP1 REVERT JUMPDEST PUSH1 0x0 PUSH2 0x7B2 PUSH2 0x7AB PUSH1 0x4 SLOAD PUSH1 0x5 SLOAD PUSH2 0x102E SWAP1 SWAP2 SWAP1 PUSH4 0xFFFFFFFF AND JUMP JUMPDEST DUP5 SWAP1 PUSH2 0x1070 JUMP JUMPDEST SWAP1 POP PUSH1 0x0 PUSH2 0x7CB PUSH1 0x5 SLOAD DUP4 PUSH2 0x10C9 SWAP1 SWAP2 SWAP1 PUSH4 0xFFFFFFFF AND JUMP JUMPDEST SWAP1 POP PUSH1 0x0 PUSH2 0x7D9 DUP6 DUP4 PUSH2 0x102E JUMP JUMPDEST SWAP6 SWAP5 POP POP POP POP POP JUMP JUMPDEST PUSH5 0x2540BE400 DUP2 LT PUSH2 0x825 JUMPI PUSH1 0x40 MLOAD PUSH3 0x461BCD PUSH1 0xE5 SHL DUP2 MSTORE PUSH1 0x4 ADD DUP1 DUP1 PUSH1 0x20 ADD DUP3 DUP2 SUB DUP3 MSTORE PUSH1 0x33 DUP2 MSTORE PUSH1 0x20 ADD DUP1 PUSH2 0x1208 PUSH1 0x33 SWAP2 CODECOPY PUSH1 0x40 ADD SWAP2 POP POP PUSH1 0x40 MLOAD DUP1 SWAP2 SUB SWAP1 REVERT JUMPDEST PUSH1 0x0 DUP3 GT PUSH2 0x864 JUMPI PUSH1 0x40 MLOAD PUSH3 0x461BCD PUSH1 0xE5 SHL DUP2 MSTORE PUSH1 0x4 ADD DUP1 DUP1 PUSH1 0x20 ADD DUP3 DUP2 SUB DUP3 MSTORE PUSH1 0x23 DUP2 MSTORE PUSH1 0x20 ADD DUP1 PUSH2 0x123B PUSH1 0x23 SWAP2 CODECOPY PUSH1 0x40 ADD SWAP2 POP POP PUSH1 0x40 MLOAD DUP1 SWAP2 SUB SWAP1 REVERT JUMPDEST PUSH1 0x40 DUP1 MLOAD PUSH4 0x6EB1769F PUSH1 0xE1 SHL DUP2 MSTORE CALLER PUSH1 0x4 DUP3 ADD MSTORE ADDRESS PUSH1 0x24 DUP3 ADD MSTORE SWAP1 MLOAD PUSH1 0x0 SWAP2 PUSH1 0x1 PUSH1 0x1 PUSH1 0xA0 SHL SUB DUP7 AND SWAP2 PUSH4 0xDD62ED3E SWAP2 PUSH1 0x44 DUP1 DUP3 ADD SWAP3 PUSH1 0x20 SWAP3 SWAP1 SWAP2 SWAP1 DUP3 SWAP1 SUB ADD DUP2 DUP7 DUP1 EXTCODESIZE ISZERO DUP1 ISZERO PUSH2 0x8B4 JUMPI PUSH1 0x0 DUP1 REVERT JUMPDEST POP GAS STATICCALL ISZERO DUP1 ISZERO PUSH2 0x8C8 JUMPI RETURNDATASIZE PUSH1 0x0 DUP1 RETURNDATACOPY RETURNDATASIZE PUSH1 0x0 REVERT JUMPDEST POP POP POP POP PUSH1 0x40 MLOAD RETURNDATASIZE PUSH1 0x20 DUP2 LT ISZERO PUSH2 0x8DE JUMPI PUSH1 0x0 DUP1 REVERT JUMPDEST POP MLOAD SWAP1 POP DUP3 DUP2 LT ISZERO PUSH2 0x921 JUMPI PUSH1 0x40 MLOAD PUSH3 0x461BCD PUSH1 0xE5 SHL DUP2 MSTORE PUSH1 0x4 ADD DUP1 DUP1 PUSH1 0x20 ADD DUP3 DUP2 SUB DUP3 MSTORE PUSH1 0x22 DUP2 MSTORE PUSH1 0x20 ADD DUP1 PUSH2 0x125E PUSH1 0x22 SWAP2 CODECOPY PUSH1 0x40 ADD SWAP2 POP POP PUSH1 0x40 MLOAD DUP1 SWAP2 SUB SWAP1 REVERT JUMPDEST PUSH1 0x0 PUSH2 0x92C DUP5 PUSH2 0x73F JUMP JUMPDEST SWAP1 POP PUSH1 0x0 PUSH2 0x93A DUP6 DUP4 PUSH2 0x102E JUMP JUMPDEST PUSH1 0x40 DUP1 MLOAD PUSH4 0x23B872DD PUSH1 0xE0 SHL DUP2 MSTORE CALLER PUSH1 0x4 DUP3 ADD MSTORE ADDRESS PUSH1 0x24 DUP3 ADD MSTORE PUSH1 0x44 DUP2 ADD DUP4 SWAP1 MSTORE SWAP1 MLOAD SWAP2 SWAP3 POP PUSH1 0x1 PUSH1 0x1 PUSH1 0xA0 SHL SUB DUP9 AND SWAP2 PUSH4 0x23B872DD SWAP2 PUSH1 0x64 DUP1 DUP3 ADD SWAP3 PUSH1 0x20 SWAP3 SWAP1 SWAP2 SWAP1 DUP3 SWAP1 SUB ADD DUP2 PUSH1 0x0 DUP8 DUP1 EXTCODESIZE ISZERO DUP1 ISZERO PUSH2 0x993 JUMPI PUSH1 0x0 DUP1 REVERT JUMPDEST POP GAS CALL ISZERO DUP1 ISZERO PUSH2 0x9A7 JUMPI RETURNDATASIZE PUSH1 0x0 DUP1 RETURNDATACOPY RETURNDATASIZE PUSH1 0x0 REVERT JUMPDEST POP POP POP POP PUSH1 0x40 MLOAD RETURNDATASIZE PUSH1 0x20 DUP2 LT ISZERO PUSH2 0x9BD JUMPI PUSH1 0x0 DUP1 REVERT JUMPDEST POP MLOAD PUSH2 0xA02 JUMPI PUSH1 0x40 DUP1 MLOAD PUSH3 0x461BCD PUSH1 0xE5 SHL DUP2 MSTORE PUSH1 0x20 PUSH1 0x4 DUP3 ADD MSTORE PUSH1 0xF PUSH1 0x24 DUP3 ADD MSTORE PUSH15 0x151C985B9CD9995C8819985A5B1959 PUSH1 0x8A SHL PUSH1 0x44 DUP3 ADD MSTORE SWAP1 MLOAD SWAP1 DUP2 SWAP1 SUB PUSH1 0x64 ADD SWAP1 REVERT JUMPDEST PUSH1 0x6 SLOAD PUSH1 0x40 DUP1 MLOAD PUSH4 0x23B872DD PUSH1 0xE0 SHL DUP2 MSTORE CALLER PUSH1 0x4 DUP3 ADD MSTORE PUSH1 0x1 PUSH1 0x1 PUSH1 0xA0 SHL SUB SWAP3 DUP4 AND PUSH1 0x24 DUP3 ADD MSTORE PUSH1 0x44 DUP2 ADD DUP6 SWAP1 MSTORE SWAP1 MLOAD SWAP2 DUP9 AND SWAP2 PUSH4 0x23B872DD SWAP2 PUSH1 0x64 DUP1 DUP3 ADD SWAP3 PUSH1 0x20 SWAP3 SWAP1 SWAP2 SWAP1 DUP3 SWAP1 SUB ADD DUP2 PUSH1 0x0 DUP8 DUP1 EXTCODESIZE ISZERO DUP1 ISZERO PUSH2 0xA5E JUMPI PUSH1 0x0 DUP1 REVERT JUMPDEST POP GAS CALL ISZERO DUP1 ISZERO PUSH2 0xA72 JUMPI RETURNDATASIZE PUSH1 0x0 DUP1 RETURNDATACOPY RETURNDATASIZE PUSH1 0x0 REVERT JUMPDEST POP POP POP POP PUSH1 0x40 MLOAD RETURNDATASIZE PUSH1 0x20 DUP2 LT ISZERO PUSH2 0xA88 JUMPI PUSH1 0x0 DUP1 REVERT JUMPDEST POP MLOAD PUSH2 0xACD JUMPI PUSH1 0x40 DUP1 MLOAD PUSH3 0x461BCD PUSH1 0xE5 SHL DUP2 MSTORE PUSH1 0x20 PUSH1 0x4 DUP3 ADD MSTORE PUSH1 0xF PUSH1 0x24 DUP3 ADD MSTORE PUSH15 0x151C985B9CD9995C8819985A5B1959 PUSH1 0x8A SHL PUSH1 0x44 DUP3 ADD MSTORE SWAP1 MLOAD SWAP1 DUP2 SWAP1 SUB PUSH1 0x64 ADD SWAP1 REVERT JUMPDEST PUSH1 0x1 PUSH1 0x1 PUSH1 0xA0 SHL SUB DUP7 AND PUSH1 0x0 SWAP1 DUP2 MSTORE PUSH1 0x2 PUSH1 0x20 MSTORE PUSH1 0x40 SWAP1 KECCAK256 SLOAD PUSH1 0xFF AND PUSH2 0xB51 JUMPI PUSH1 0x3 DUP1 SLOAD PUSH1 0x1 DUP1 DUP3 ADD SWAP1 SWAP3 SSTORE PUSH32 0xC2575A0E9E593C00F959F8C92F12DB2869C3395A3B0502D05E2516446F71F85B ADD DUP1 SLOAD PUSH1 0x1 PUSH1 0x1 PUSH1 0xA0 SHL SUB NOT AND PUSH1 0x1 PUSH1 0x1 PUSH1 0xA0 SHL SUB DUP10 AND SWAP1 DUP2 OR SWAP1 SWAP2 SSTORE PUSH1 0x0 SWAP1 DUP2 MSTORE PUSH1 0x2 PUSH1 0x20 MSTORE PUSH1 0x40 SWAP1 KECCAK256 DUP1 SLOAD PUSH1 0xFF NOT AND SWAP1 SWAP2 OR SWAP1 SSTORE JUMPDEST PUSH1 0x1 PUSH1 0x1 PUSH1 0xA0 SHL SUB DUP7 AND PUSH1 0x0 SWAP1 DUP2 MSTORE PUSH1 0x1 PUSH1 0x20 DUP2 DUP2 MSTORE PUSH1 0x40 DUP1 DUP5 KECCAK256 DUP9 DUP6 MSTORE SWAP3 DUP4 ADD SWAP1 SWAP2 MSTORE SWAP1 SWAP2 KECCAK256 SLOAD ISZERO PUSH2 0xBAF JUMPI PUSH1 0x0 DUP6 DUP2 MSTORE PUSH1 0x1 DUP3 ADD PUSH1 0x20 MSTORE PUSH1 0x40 SWAP1 KECCAK256 SLOAD PUSH2 0xB99 SWAP1 DUP4 PUSH2 0xFCD JUMP JUMPDEST PUSH1 0x0 DUP7 DUP2 MSTORE PUSH1 0x1 DUP4 ADD PUSH1 0x20 MSTORE PUSH1 0x40 SWAP1 KECCAK256 SSTORE PUSH2 0xBD9 JUMP JUMPDEST DUP1 SLOAD PUSH1 0x1 DUP2 DUP2 ADD DUP4 SSTORE PUSH1 0x0 DUP4 DUP2 MSTORE PUSH1 0x20 DUP1 DUP3 KECCAK256 SWAP1 SWAP4 ADD DUP9 SWAP1 SSTORE DUP8 DUP2 MSTORE SWAP1 DUP4 ADD SWAP1 SWAP2 MSTORE PUSH1 0x40 SWAP1 KECCAK256 DUP3 SWAP1 SSTORE JUMPDEST PUSH1 0x1 PUSH1 0x1 PUSH1 0xA0 SHL SUB DUP8 AND PUSH1 0x0 SWAP1 DUP2 MSTORE PUSH1 0x20 DUP2 DUP2 MSTORE PUSH1 0x40 DUP1 DUP4 KECCAK256 CALLER DUP5 MSTORE SWAP1 SWAP2 MSTORE SWAP1 KECCAK256 DUP1 SLOAD PUSH2 0xC06 SWAP1 DUP5 PUSH2 0xFCD JUMP JUMPDEST DUP2 SSTORE PUSH1 0x40 DUP1 MLOAD DUP1 DUP3 ADD DUP3 MSTORE DUP8 DUP2 MSTORE PUSH1 0x20 DUP1 DUP3 ADD DUP7 DUP2 MSTORE PUSH1 0x2 DUP1 DUP7 ADD DUP1 SLOAD PUSH1 0x1 DUP2 DUP2 ADD DUP4 SSTORE PUSH1 0x0 DUP4 DUP2 MSTORE DUP7 SWAP1 KECCAK256 SWAP7 MLOAD SWAP2 SWAP1 SWAP4 MUL SWAP1 SWAP6 ADD SWAP5 DUP6 SSTORE SWAP2 MLOAD SWAP4 ADD SWAP3 SWAP1 SWAP3 SSTORE DUP3 MLOAD PUSH1 0x1 PUSH1 0x1 PUSH1 0xA0 SHL SUB DUP13 AND DUP2 MSTORE SWAP1 DUP2 ADD DUP11 SWAP1 MSTORE DUP1 DUP4 ADD DUP10 SWAP1 MSTORE SWAP2 MLOAD SWAP1 SWAP2 PUSH32 0xD6BBC989766039CDA6CA06B473AABD4D296527497AADC6808E640E053427D2B3 SWAP2 SWAP1 DUP2 SWAP1 SUB PUSH1 0x60 ADD SWAP1 LOG1 POP POP POP POP POP POP POP POP POP JUMP JUMPDEST PUSH1 0x0 DUP2 GT PUSH2 0xCD9 JUMPI PUSH1 0x40 MLOAD PUSH3 0x461BCD PUSH1 0xE5 SHL DUP2 MSTORE PUSH1 0x4 ADD DUP1 DUP1 PUSH1 0x20 ADD DUP3 DUP2 SUB DUP3 MSTORE PUSH1 0x24 DUP2 MSTORE PUSH1 0x20 ADD DUP1 PUSH2 0x12CE PUSH1 0x24 SWAP2 CODECOPY PUSH1 0x40 ADD SWAP2 POP POP PUSH1 0x40 MLOAD DUP1 SWAP2 SUB SWAP1 REVERT JUMPDEST PUSH1 0x0 PUSH2 0xCE5 DUP4 CALLER PUSH2 0x6A4 JUMP JUMPDEST PUSH1 0x1 PUSH1 0x1 PUSH1 0xA0 SHL SUB DUP5 AND PUSH1 0x0 SWAP1 DUP2 MSTORE PUSH1 0x20 DUP2 DUP2 MSTORE PUSH1 0x40 DUP1 DUP4 KECCAK256 CALLER DUP5 MSTORE SWAP1 SWAP2 MSTORE SWAP1 KECCAK256 PUSH1 0x1 DUP2 ADD SLOAD SWAP2 SWAP3 POP SWAP1 PUSH2 0xD19 SWAP1 DUP5 PUSH2 0xFCD JUMP JUMPDEST PUSH1 0x1 DUP3 ADD SSTORE DUP2 DUP4 GT ISZERO PUSH2 0xD5D JUMPI PUSH1 0x40 MLOAD PUSH3 0x461BCD PUSH1 0xE5 SHL DUP2 MSTORE PUSH1 0x4 ADD DUP1 DUP1 PUSH1 0x20 ADD DUP3 DUP2 SUB DUP3 MSTORE PUSH1 0x38 DUP2 MSTORE PUSH1 0x20 ADD DUP1 PUSH2 0x12F2 PUSH1 0x38 SWAP2 CODECOPY PUSH1 0x40 ADD SWAP2 POP POP PUSH1 0x40 MLOAD DUP1 SWAP2 SUB SWAP1 REVERT JUMPDEST PUSH1 0x40 DUP1 MLOAD PUSH4 0xA9059CBB PUSH1 0xE0 SHL DUP2 MSTORE CALLER PUSH1 0x4 DUP3 ADD MSTORE PUSH1 0x24 DUP2 ADD DUP6 SWAP1 MSTORE SWAP1 MLOAD PUSH1 0x1 PUSH1 0x1 PUSH1 0xA0 SHL SUB DUP7 AND SWAP2 PUSH4 0xA9059CBB SWAP2 PUSH1 0x44 DUP1 DUP4 ADD SWAP3 PUSH1 0x20 SWAP3 SWAP2 SWAP1 DUP3 SWAP1 SUB ADD DUP2 PUSH1 0x0 DUP8 DUP1 EXTCODESIZE ISZERO DUP1 ISZERO PUSH2 0xDAC JUMPI PUSH1 0x0 DUP1 REVERT JUMPDEST POP GAS CALL ISZERO DUP1 ISZERO PUSH2 0xDC0 JUMPI RETURNDATASIZE PUSH1 0x0 DUP1 RETURNDATACOPY RETURNDATASIZE PUSH1 0x0 REVERT JUMPDEST POP POP POP POP PUSH1 0x40 MLOAD RETURNDATASIZE PUSH1 0x20 DUP2 LT ISZERO PUSH2 0xDD6 JUMPI PUSH1 0x0 DUP1 REVERT JUMPDEST POP MLOAD PUSH2 0xE1B JUMPI PUSH1 0x40 DUP1 MLOAD PUSH3 0x461BCD PUSH1 0xE5 SHL DUP2 MSTORE PUSH1 0x20 PUSH1 0x4 DUP3 ADD MSTORE PUSH1 0xF PUSH1 0x24 DUP3 ADD MSTORE PUSH15 0x151C985B9CD9995C8819985A5B1959 PUSH1 0x8A SHL PUSH1 0x44 DUP3 ADD MSTORE SWAP1 MLOAD SWAP1 DUP2 SWAP1 SUB PUSH1 0x64 ADD SWAP1 REVERT JUMPDEST PUSH1 0x40 DUP1 MLOAD PUSH1 0x1 PUSH1 0x1 PUSH1 0xA0 SHL SUB DUP7 AND DUP2 MSTORE PUSH1 0x20 DUP2 ADD DUP6 SWAP1 MSTORE DUP2 MLOAD PUSH32 0xCCAD973DCD043C7D680389DB4378BD6B9775DB7124092E9E0422C9E46D7985DC SWAP3 SWAP2 DUP2 SWAP1 SUB SWAP1 SWAP2 ADD SWAP1 LOG1 POP POP POP POP JUMP JUMPDEST PUSH1 0x6 SLOAD PUSH1 0x1 PUSH1 0x1 PUSH1 0xA0 SHL SUB AND DUP2 JUMP JUMPDEST DUP1 MLOAD DUP3 MLOAD EQ PUSH2 0xEB4 JUMPI PUSH1 0x40 MLOAD PUSH3 0x461BCD PUSH1 0xE5 SHL DUP2 MSTORE PUSH1 0x4 ADD DUP1 DUP1 PUSH1 0x20 ADD DUP3 DUP2 SUB DUP3 MSTORE PUSH1 0x2D DUP2 MSTORE PUSH1 0x20 ADD DUP1 PUSH2 0x1280 PUSH1 0x2D SWAP2 CODECOPY PUSH1 0x40 ADD SWAP2 POP POP PUSH1 0x40 MLOAD DUP1 SWAP2 SUB SWAP1 REVERT JUMPDEST PUSH1 0x0 JUMPDEST DUP3 MLOAD DUP2 LT ISZERO PUSH2 0xEF9 JUMPI PUSH2 0xEF1 DUP5 DUP5 DUP4 DUP2 MLOAD DUP2 LT PUSH2 0xED0 JUMPI INVALID JUMPDEST PUSH1 0x20 MUL PUSH1 0x20 ADD ADD MLOAD DUP5 DUP5 DUP2 MLOAD DUP2 LT PUSH2 0xEE4 JUMPI INVALID JUMPDEST PUSH1 0x20 MUL PUSH1 0x20 ADD ADD MLOAD PUSH2 0x7E2 JUMP JUMPDEST PUSH1 0x1 ADD PUSH2 0xEB7 JUMP JUMPDEST POP POP POP POP JUMP JUMPDEST PUSH1 0x3 DUP2 DUP2 SLOAD DUP2 LT PUSH2 0xF0C JUMPI INVALID JUMPDEST PUSH1 0x0 SWAP2 DUP3 MSTORE PUSH1 0x20 SWAP1 SWAP2 KECCAK256 ADD SLOAD PUSH1 0x1 PUSH1 0x1 PUSH1 0xA0 SHL SUB AND SWAP1 POP DUP2 JUMP JUMPDEST PUSH1 0x1 PUSH1 0x1 PUSH1 0xA0 SHL SUB SWAP2 DUP3 AND PUSH1 0x0 SWAP1 DUP2 MSTORE PUSH1 0x20 DUP2 DUP2 MSTORE PUSH1 0x40 DUP1 DUP4 KECCAK256 SWAP4 SWAP1 SWAP5 AND DUP3 MSTORE SWAP2 SWAP1 SWAP2 MSTORE KECCAK256 DUP1 SLOAD PUSH1 0x1 DUP3 ADD SLOAD PUSH1 0x2 SWAP1 SWAP3 ADD SLOAD SWAP1 SWAP3 JUMP JUMPDEST PUSH1 0x4 SLOAD DUP2 JUMP JUMPDEST PUSH1 0x2 PUSH1 0x20 MSTORE PUSH1 0x0 SWAP1 DUP2 MSTORE PUSH1 0x40 SWAP1 KECCAK256 SLOAD PUSH1 0xFF AND DUP2 JUMP JUMPDEST PUSH1 0x1 PUSH1 0x1 PUSH1 0xA0 SHL SUB DUP3 AND PUSH1 0x0 SWAP1 DUP2 MSTORE PUSH1 0x1 PUSH1 0x20 MSTORE PUSH1 0x40 DUP2 KECCAK256 DUP1 SLOAD DUP3 SWAP2 SWAP1 DUP3 SWAP1 DUP3 SWAP1 DUP7 SWAP1 DUP2 LT PUSH2 0xFA2 JUMPI INVALID JUMPDEST PUSH1 0x0 SWAP2 DUP3 MSTORE PUSH1 0x20 DUP1 DUP4 KECCAK256 SWAP1 SWAP2 ADD SLOAD DUP1 DUP4 MSTORE PUSH1 0x1 SWAP1 SWAP5 ADD SWAP1 MSTORE PUSH1 0x40 SWAP1 KECCAK256 SLOAD SWAP2 SWAP4 POP SWAP1 SWAP2 POP POP SWAP3 POP SWAP3 SWAP1 POP JUMP JUMPDEST PUSH1 0x0 DUP3 DUP3 ADD DUP4 DUP2 LT ISZERO PUSH2 0x1027 JUMPI PUSH1 0x40 DUP1 MLOAD PUSH3 0x461BCD PUSH1 0xE5 SHL DUP2 MSTORE PUSH1 0x20 PUSH1 0x4 DUP3 ADD MSTORE PUSH1 0x1B PUSH1 0x24 DUP3 ADD MSTORE PUSH32 0x536166654D6174683A206164646974696F6E206F766572666C6F770000000000 PUSH1 0x44 DUP3 ADD MSTORE SWAP1 MLOAD SWAP1 DUP2 SWAP1 SUB PUSH1 0x64 ADD SWAP1 REVERT JUMPDEST SWAP4 SWAP3 POP POP POP JUMP JUMPDEST PUSH1 0x0 PUSH2 0x1027 DUP4 DUP4 PUSH1 0x40 MLOAD DUP1 PUSH1 0x40 ADD PUSH1 0x40 MSTORE DUP1 PUSH1 0x1E DUP2 MSTORE PUSH1 0x20 ADD PUSH32 0x536166654D6174683A207375627472616374696F6E206F766572666C6F770000 DUP2 MSTORE POP PUSH2 0x110B JUMP JUMPDEST PUSH1 0x0 DUP3 PUSH2 0x107F JUMPI POP PUSH1 0x0 PUSH2 0x739 JUMP JUMPDEST DUP3 DUP3 MUL DUP3 DUP5 DUP3 DUP2 PUSH2 0x108C JUMPI INVALID JUMPDEST DIV EQ PUSH2 0x1027 JUMPI PUSH1 0x40 MLOAD PUSH3 0x461BCD PUSH1 0xE5 SHL DUP2 MSTORE PUSH1 0x4 ADD DUP1 DUP1 PUSH1 0x20 ADD DUP3 DUP2 SUB DUP3 MSTORE PUSH1 0x21 DUP2 MSTORE PUSH1 0x20 ADD DUP1 PUSH2 0x12AD PUSH1 0x21 SWAP2 CODECOPY PUSH1 0x40 ADD SWAP2 POP POP PUSH1 0x40 MLOAD DUP1 SWAP2 SUB SWAP1 REVERT JUMPDEST PUSH1 0x0 PUSH2 0x1027 DUP4 DUP4 PUSH1 0x40 MLOAD DUP1 PUSH1 0x40 ADD PUSH1 0x40 MSTORE DUP1 PUSH1 0x1A DUP2 MSTORE PUSH1 0x20 ADD PUSH32 0x536166654D6174683A206469766973696F6E206279207A65726F000000000000 DUP2 MSTORE POP PUSH2 0x11A2 JUMP JUMPDEST PUSH1 0x0 DUP2 DUP5 DUP5 GT ISZERO PUSH2 0x119A JUMPI PUSH1 0x40 MLOAD PUSH3 0x461BCD PUSH1 0xE5 SHL DUP2 MSTORE PUSH1 0x4 ADD DUP1 DUP1 PUSH1 0x20 ADD DUP3 DUP2 SUB DUP3 MSTORE DUP4 DUP2 DUP2 MLOAD DUP2 MSTORE PUSH1 0x20 ADD SWAP2 POP DUP1 MLOAD SWAP1 PUSH1 0x20 ADD SWAP1 DUP1 DUP4 DUP4 PUSH1 0x0 JUMPDEST DUP4 DUP2 LT ISZERO PUSH2 0x115F JUMPI DUP2 DUP2 ADD MLOAD DUP4 DUP3 ADD MSTORE PUSH1 0x20 ADD PUSH2 0x1147 JUMP JUMPDEST POP POP POP POP SWAP1 POP SWAP1 DUP2 ADD SWAP1 PUSH1 0x1F AND DUP1 ISZERO PUSH2 0x118C JUMPI DUP1 DUP3 SUB DUP1 MLOAD PUSH1 0x1 DUP4 PUSH1 0x20 SUB PUSH2 0x100 EXP SUB NOT AND DUP2 MSTORE PUSH1 0x20 ADD SWAP2 POP JUMPDEST POP SWAP3 POP POP POP PUSH1 0x40 MLOAD DUP1 SWAP2 SUB SWAP1 REVERT JUMPDEST POP POP POP SWAP1 SUB SWAP1 JUMP JUMPDEST PUSH1 0x0 DUP2 DUP4 PUSH2 0x11F1 JUMPI PUSH1 0x40 MLOAD PUSH3 0x461BCD PUSH1 0xE5 SHL DUP2 MSTORE PUSH1 0x20 PUSH1 0x4 DUP3 ADD DUP2 DUP2 MSTORE DUP4 MLOAD PUSH1 0x24 DUP5 ADD MSTORE DUP4 MLOAD SWAP1 SWAP3 DUP4 SWAP3 PUSH1 0x44 SWAP1 SWAP2 ADD SWAP2 SWAP1 DUP6 ADD SWAP1 DUP1 DUP4 DUP4 PUSH1 0x0 DUP4 ISZERO PUSH2 0x115F JUMPI DUP2 DUP2 ADD MLOAD DUP4 DUP3 ADD MSTORE PUSH1 0x20 ADD PUSH2 0x1147 JUMP JUMPDEST POP PUSH1 0x0 DUP4 DUP6 DUP2 PUSH2 0x11FD JUMPI INVALID JUMPDEST DIV SWAP6 SWAP5 POP POP POP POP POP JUMP INVALID GASLIMIT PUSH15 0x74657220616E20756E69782074696D PUSH6 0x7374616D7020 PUSH10 0x6E207365636F6E64732C KECCAK256 PUSH15 0x6F74206D696C697365636F6E647359 PUSH16 0x757220617474656D7074696E6720746F KECCAK256 PUSH21 0x726173666572203020746F6B656E73596F75206E65 PUSH6 0x6420746F2073 PUSH6 0x742061206869 PUSH8 0x68657220616C6C6F PUSH24 0x616E6365416D6F756E7420616E6420646174652061727261 PUSH26 0x73206861766520646966666572696E67206C656E677468735361 PUSH7 0x654D6174683A20 PUSH14 0x756C7469706C69636174696F6E20 PUSH16 0x766572666C6F77596F75722061747465 PUSH14 0x7074696E6720746F207769746864 PUSH19 0x6177203020746F6B656E73596F757220617474 PUSH6 0x6D7074696E67 KECCAK256 PUSH21 0x6F207769746864726177206D6F7265207468616E20 PUSH26 0x6F75206861766520617661696C61626C65A26469706673582212 KECCAK256 0xE1 PUSH28 0xDB1DEE116E7302D463098F31267BFFDCDDCD30CF6393399FA0B230FC MULMOD CALLDATACOPY PUSH5 0x736F6C6343 STOP MOD 0xC STOP CALLER ",
  "sha1": "24b551aca8638b63cee0b40c1a034b81a47ad953",
  "source": "pragma solidity ^0.6.11;\n\nimport \"../../interfaces/IERC20.sol\";\nimport \"../Utils/SafeMathPlus.sol\";\n\ncontract POLContract {\n\n    event Received(address, uint);\n    event onDeposit(address, uint256, uint256);\n    event onWithdraw(address, uint256);\n\n    using SafeMathPlus for uint256;\n\n    struct VestingPeriod {\n      uint256 epoch;\n      uint256 amount;\n    }\n\n    struct UserTokenInfo {\n      uint256 deposited; // incremented on successful deposit\n      uint256 withdrawn; // incremented on successful withdrawl\n      VestingPeriod[] vestingPeriods; // added to on successful deposit\n    }\n\n    // map erc20 token to user address to release schedule\n    mapping(address => mapping(address => UserTokenInfo)) tokenUserMap;\n\n    struct LiquidityTokenomics {\n      uint256[] epochs;\n      mapping (uint256 => uint256) releaseMap; // map epoch -> amount withdrawable\n    }\n\n    // map erc20 token to release schedule\n    mapping(address => LiquidityTokenomics) tokenEpochMap;\n\n    \n    // Fast mapping to prevent array iteration in solidity\n    mapping(address => bool) public lockedTokenLookup;\n\n    // A dynamically-sized array of currently locked tokens\n    address[] public lockedTokens;\n    \n    // fee variables\n    uint256 public feeNumerator;\n    uint256 public feeDenominator;\n    \n    address public feeReserveAddress;\n    address public owner;\n    \n    constructor() public {                  \n      feeNumerator = 3;\n      feeDenominator = 1000;\n      feeReserveAddress = address(0xAA3d85aD9D128DFECb55424085754F6dFa643eb1);\n      owner = address(0xfCdd591498e86876F086524C0b2E9Af41a0c9FCD);\n    }\n\n    receive() external payable {\n        emit Received(msg.sender, msg.value);\n    }\n    \n    modifier onlyOwner {\n      require(msg.sender == owner, \"You are not the owner\");\n      _;\n    }\n    \n    function updateFee(uint256 numerator, uint256 denominator) onlyOwner public {\n      feeNumerator = numerator;\n      feeDenominator = denominator;\n    }\n    \n    function calculateFee(uint256 amount) public view returns (uint256){\n      require(amount >= feeDenominator, 'Deposit is too small');    \n      uint256 amountInLarge = amount.mul(feeDenominator.sub(feeNumerator));\n      uint256 amountIn = amountInLarge.div(feeDenominator);\n      uint256 fee = amount.sub(amountIn);\n      return (fee);\n    }\n    \n    function depositTokenMultipleEpochs(address token, uint256[] memory amounts, uint256[] memory dates) public payable {\n      require(amounts.length == dates.length, 'Amount and date arrays have differing lengths');\n      for (uint i=0; i<amounts.length; i++) {\n        depositToken(token, amounts[i], dates[i]);\n      }\n    }\n\n    function depositToken(address token, uint256 amount, uint256 unlock_date) public payable {\n      require(unlock_date < 10000000000, 'Enter an unix timestamp in seconds, not miliseconds');\n      require(amount > 0, 'Your attempting to trasfer 0 tokens');\n      uint256 allowance = IERC20(token).allowance(msg.sender, address(this));\n      require(allowance >= amount, 'You need to set a higher allowance');\n      // charge a fee\n      uint256 fee = calculateFee(amount);\n      uint256 amountIn = amount.sub(fee);\n      require(IERC20(token).transferFrom(msg.sender, address(this), amountIn), 'Transfer failed');\n      require(IERC20(token).transferFrom(msg.sender, address(feeReserveAddress), fee), 'Transfer failed');\n      if (!lockedTokenLookup[token]) {\n        lockedTokens.push(token);\n        lockedTokenLookup[token] = true;\n      }\n      LiquidityTokenomics storage liquidityTokenomics = tokenEpochMap[token];\n      // amount is required to be above 0 in the start of this block, therefore this works\n      if (liquidityTokenomics.releaseMap[unlock_date] > 0) {\n        liquidityTokenomics.releaseMap[unlock_date] = liquidityTokenomics.releaseMap[unlock_date].add(amountIn);\n      } else {\n        liquidityTokenomics.epochs.push(unlock_date);\n        liquidityTokenomics.releaseMap[unlock_date] = amountIn;\n      }\n      UserTokenInfo storage uto = tokenUserMap[token][msg.sender];\n      uto.deposited = uto.deposited.add(amountIn);\n      VestingPeriod[] storage vp = uto.vestingPeriods;\n      vp.push(VestingPeriod(unlock_date, amountIn));\n      \n      emit onDeposit(token, amount, unlock_date);\n    }\n\n    function withdrawToken(address token, uint256 amount) public {\n      require(amount > 0, 'Your attempting to withdraw 0 tokens');\n      uint256 withdrawable = getWithdrawableBalance(token, msg.sender);\n      UserTokenInfo storage uto = tokenUserMap[token][msg.sender];\n      uto.withdrawn = uto.withdrawn.add(amount);\n      require(amount <= withdrawable, 'Your attempting to withdraw more than you have available');\n      require(IERC20(token).transfer(msg.sender, amount), 'Transfer failed');\n      emit onWithdraw(token, amount);\n    }\n\n    function getWithdrawableBalance(address token, address user) public view returns (uint256) {\n      UserTokenInfo storage uto = tokenUserMap[token][address(user)];\n      uint arrayLength = uto.vestingPeriods.length;\n      uint256 withdrawable = 0;\n      for (uint i=0; i<arrayLength; i++) {\n        VestingPeriod storage vestingPeriod = uto.vestingPeriods[i];\n        if (vestingPeriod.epoch < block.timestamp) {\n          withdrawable = withdrawable.add(vestingPeriod.amount);\n        }\n      }\n      withdrawable = withdrawable.sub(uto.withdrawn);\n      return withdrawable;\n    }\n    \n    function getUserTokenInfo (address token, address user) public view returns (uint256, uint256, uint256) {\n      UserTokenInfo storage uto = tokenUserMap[address(token)][address(user)];\n      uint256 deposited = uto.deposited;\n      uint256 withdrawn = uto.withdrawn;\n      uint256 length = uto.vestingPeriods.length;\n      return (deposited, withdrawn, length);\n    }\n\n    function getUserVestingAtIndex (address token, address user, uint index) public view returns (uint256, uint256) {\n      UserTokenInfo storage uto = tokenUserMap[address(token)][address(user)];\n      VestingPeriod storage vp = uto.vestingPeriods[index];\n      return (vp.epoch, vp.amount);\n    }\n\n    function getTokenReleaseLength (address token) public view returns (uint256) {\n      LiquidityTokenomics storage liquidityTokenomics = tokenEpochMap[address(token)];\n      return liquidityTokenomics.epochs.length;\n    }\n\n    function getTokenReleaseAtIndex (address token, uint index) public view returns (uint256, uint256) {\n      LiquidityTokenomics storage liquidityTokenomics = tokenEpochMap[address(token)];\n      uint256 epoch = liquidityTokenomics.epochs[index];\n      uint256 amount = liquidityTokenomics.releaseMap[epoch];\n      return (epoch, amount);\n    }\n    \n    function lockedTokensLength() external view returns (uint) {\n        return lockedTokens.length;\n    }\n}",
  "sourcePath": "contracts/Unicrypt/POLContract.sol",
  "type": "contract"
}