{
  "abi": [
    {
      "inputs": [],
      "name": "accessControls",
      "outputs": [
        {
          "internalType": "contract MISOAccessControls",
          "name": "",
          "type": "address"
        }
      ],
      "stateMutability": "view",
      "type": "function"
    },
    {
      "inputs": [
        {
          "internalType": "address",
          "name": "_accessControls",
          "type": "address"
        },
        {
          "internalType": "contract IUnicrypt",
          "name": "_unicrypt",
          "type": "address"
        }
      ],
      "name": "initUnicryptVault",
      "outputs": [],
      "stateMutability": "nonpayable",
      "type": "function"
    },
    {
      "inputs": [],
      "name": "unicrypt",
      "outputs": [
        {
          "internalType": "contract IUnicrypt",
          "name": "",
          "type": "address"
        }
      ],
      "stateMutability": "view",
      "type": "function"
    }
  ],
  "bytecode": "608060405234801561001057600080fd5b5061012e806100206000396000f3fe6080604052348015600f57600080fd5b5060043610603c5760003560e01c806331c813e514604157806348f98e3f146063578063748365ef146090575b600080fd5b60476096565b604080516001600160a01b039092168252519081900360200190f35b608e60048036036040811015607757600080fd5b506001600160a01b038135811691602001351660a5565b005b604760e9565b6000546001600160a01b031681565b600154600160a01b900460ff161560bb57600080fd5b600180546001600160a01b039384166001600160a01b03199182161790915560008054929093169116179055565b6001546001600160a01b03168156fea2646970667358221220f7b632c2ae3733710329e8c199cae804c042ffc16fc762c55c7dd88ea0ce59cf64736f6c634300060c0033",
  "bytecodeSha1": "79dbdccf04f3e7f3e7a4a9c4ea200f8b94b59ddf",
  "compiler": {
    "evm_version": "istanbul",
    "optimizer": {
      "enabled": true,
      "runs": 200
    },
    "version": "0.6.12"
  },
  "contractName": "UnicryptVault",
  "language": "Solidity",
  "natspec": {
    "kind": "dev",
    "methods": {},
    "version": 1
  },
  "opcodes": "PUSH1 0x80 PUSH1 0x40 MSTORE CALLVALUE DUP1 ISZERO PUSH1 0xF JUMPI PUSH1 0x0 DUP1 REVERT JUMPDEST POP PUSH1 0x4 CALLDATASIZE LT PUSH1 0x3C JUMPI PUSH1 0x0 CALLDATALOAD PUSH1 0xE0 SHR DUP1 PUSH4 0x31C813E5 EQ PUSH1 0x41 JUMPI DUP1 PUSH4 0x48F98E3F EQ PUSH1 0x63 JUMPI DUP1 PUSH4 0x748365EF EQ PUSH1 0x90 JUMPI JUMPDEST PUSH1 0x0 DUP1 REVERT JUMPDEST PUSH1 0x47 PUSH1 0x96 JUMP JUMPDEST PUSH1 0x40 DUP1 MLOAD PUSH1 0x1 PUSH1 0x1 PUSH1 0xA0 SHL SUB SWAP1 SWAP3 AND DUP3 MSTORE MLOAD SWAP1 DUP2 SWAP1 SUB PUSH1 0x20 ADD SWAP1 RETURN JUMPDEST PUSH1 0x8E PUSH1 0x4 DUP1 CALLDATASIZE SUB PUSH1 0x40 DUP2 LT ISZERO PUSH1 0x77 JUMPI PUSH1 0x0 DUP1 REVERT JUMPDEST POP PUSH1 0x1 PUSH1 0x1 PUSH1 0xA0 SHL SUB DUP2 CALLDATALOAD DUP2 AND SWAP2 PUSH1 0x20 ADD CALLDATALOAD AND PUSH1 0xA5 JUMP JUMPDEST STOP JUMPDEST PUSH1 0x47 PUSH1 0xE9 JUMP JUMPDEST PUSH1 0x0 SLOAD PUSH1 0x1 PUSH1 0x1 PUSH1 0xA0 SHL SUB AND DUP2 JUMP JUMPDEST PUSH1 0x1 SLOAD PUSH1 0x1 PUSH1 0xA0 SHL SWAP1 DIV PUSH1 0xFF AND ISZERO PUSH1 0xBB JUMPI PUSH1 0x0 DUP1 REVERT JUMPDEST PUSH1 0x1 DUP1 SLOAD PUSH1 0x1 PUSH1 0x1 PUSH1 0xA0 SHL SUB SWAP4 DUP5 AND PUSH1 0x1 PUSH1 0x1 PUSH1 0xA0 SHL SUB NOT SWAP2 DUP3 AND OR SWAP1 SWAP2 SSTORE PUSH1 0x0 DUP1 SLOAD SWAP3 SWAP1 SWAP4 AND SWAP2 AND OR SWAP1 SSTORE JUMP JUMPDEST PUSH1 0x1 SLOAD PUSH1 0x1 PUSH1 0x1 PUSH1 0xA0 SHL SUB AND DUP2 JUMP INVALID LOG2 PUSH5 0x6970667358 0x22 SLT KECCAK256 0xF7 0xB6 ORIGIN 0xC2 0xAE CALLDATACOPY CALLER PUSH18 0x329E8C199CAE804C042FFC16FC762C55C7D 0xD8 DUP15 LOG0 0xCE MSIZE 0xCF PUSH5 0x736F6C6343 STOP MOD 0xC STOP CALLER ",
  "sha1": "c6de961770704f05fc8d22aa563779aefd98c1ba",
  "source": "pragma solidity ^0.6.9;\n\nimport \"../Utils/Owned.sol\";\n\nimport \"../../interfaces/IUnicrypt.sol\";\nimport \"../Access/MISOAccessControls.sol\";\n\ncontract UnicryptVault{\n    IUnicrypt public unicrypt;\n    \n    MISOAccessControls public accessControls;\n    bool private initialised;\n\n    function initUnicryptVault(address _accessControls, IUnicrypt _unicrypt) public{\n        require(!initialised);\n        accessControls = MISOAccessControls(_accessControls);\n        //Can directly use the required mainnet address\n        unicrypt = _unicrypt;\n    }\n    //Dont think this is required\n    /* function depositToken(address token, uint256 amount, uint256 unlock_date) public{\n        require(unlock_date < 10000000000, 'Enter an unix timestamp in seconds, not miliseconds');\n        require(amount > 0, 'Your attempting to trasfer 0 tokens');\n        // add call to LP tokens???\n        \n        require(token != address(0));\n        \n        \n        unicrypt.depositToken(token,amount,unlock_date);\n    } */\n\n}",
  "sourcePath": "contracts/Vault/UnicryptVault.sol",
  "type": "contract"
}